{
	"RPS.sol": {
		"RPS": {
			"abi": [
				{
					"inputs": [
						{
							"internalType": "address",
							"name": "_timeUnit",
							"type": "address"
						},
						{
							"internalType": "address",
							"name": "_commitReveal",
							"type": "address"
						},
						{
							"internalType": "address",
							"name": "_token",
							"type": "address"
						}
					],
					"stateMutability": "nonpayable",
					"type": "constructor"
				},
				{
					"inputs": [],
					"name": "REQUIRED_AMOUNT",
					"outputs": [
						{
							"internalType": "uint256",
							"name": "",
							"type": "uint256"
						}
					],
					"stateMutability": "view",
					"type": "function"
				},
				{
					"inputs": [],
					"name": "addPlayer",
					"outputs": [],
					"stateMutability": "nonpayable",
					"type": "function"
				},
				{
					"inputs": [],
					"name": "claimTimeoutWin",
					"outputs": [],
					"stateMutability": "nonpayable",
					"type": "function"
				},
				{
					"inputs": [
						{
							"internalType": "bytes32",
							"name": "hash",
							"type": "bytes32"
						}
					],
					"name": "commit",
					"outputs": [],
					"stateMutability": "nonpayable",
					"type": "function"
				},
				{
					"inputs": [],
					"name": "commitReveal",
					"outputs": [
						{
							"internalType": "contract CommitReveal",
							"name": "",
							"type": "address"
						}
					],
					"stateMutability": "view",
					"type": "function"
				},
				{
					"inputs": [],
					"name": "fundsCaptured",
					"outputs": [
						{
							"internalType": "bool",
							"name": "",
							"type": "bool"
						}
					],
					"stateMutability": "view",
					"type": "function"
				},
				{
					"inputs": [],
					"name": "numInput",
					"outputs": [
						{
							"internalType": "uint256",
							"name": "",
							"type": "uint256"
						}
					],
					"stateMutability": "view",
					"type": "function"
				},
				{
					"inputs": [],
					"name": "numPlayer",
					"outputs": [
						{
							"internalType": "uint256",
							"name": "",
							"type": "uint256"
						}
					],
					"stateMutability": "view",
					"type": "function"
				},
				{
					"inputs": [],
					"name": "numReveal",
					"outputs": [
						{
							"internalType": "uint256",
							"name": "",
							"type": "uint256"
						}
					],
					"stateMutability": "view",
					"type": "function"
				},
				{
					"inputs": [
						{
							"internalType": "address",
							"name": "",
							"type": "address"
						}
					],
					"name": "player_choice",
					"outputs": [
						{
							"internalType": "uint256",
							"name": "",
							"type": "uint256"
						}
					],
					"stateMutability": "view",
					"type": "function"
				},
				{
					"inputs": [
						{
							"internalType": "address",
							"name": "",
							"type": "address"
						}
					],
					"name": "player_not_played",
					"outputs": [
						{
							"internalType": "bool",
							"name": "",
							"type": "bool"
						}
					],
					"stateMutability": "view",
					"type": "function"
				},
				{
					"inputs": [
						{
							"internalType": "uint256",
							"name": "",
							"type": "uint256"
						}
					],
					"name": "players",
					"outputs": [
						{
							"internalType": "address",
							"name": "",
							"type": "address"
						}
					],
					"stateMutability": "view",
					"type": "function"
				},
				{
					"inputs": [
						{
							"internalType": "bytes32",
							"name": "hash",
							"type": "bytes32"
						}
					],
					"name": "reveal",
					"outputs": [],
					"stateMutability": "nonpayable",
					"type": "function"
				},
				{
					"inputs": [],
					"name": "reward",
					"outputs": [
						{
							"internalType": "uint256",
							"name": "",
							"type": "uint256"
						}
					],
					"stateMutability": "view",
					"type": "function"
				},
				{
					"inputs": [],
					"name": "timeLimit",
					"outputs": [
						{
							"internalType": "uint256",
							"name": "",
							"type": "uint256"
						}
					],
					"stateMutability": "view",
					"type": "function"
				},
				{
					"inputs": [],
					"name": "timeUnit",
					"outputs": [
						{
							"internalType": "contract TimeUnit",
							"name": "",
							"type": "address"
						}
					],
					"stateMutability": "view",
					"type": "function"
				},
				{
					"inputs": [],
					"name": "token",
					"outputs": [
						{
							"internalType": "contract IERC20",
							"name": "",
							"type": "address"
						}
					],
					"stateMutability": "view",
					"type": "function"
				}
			],
			"devdoc": {
				"kind": "dev",
				"methods": {},
				"version": 1
			},
			"evm": {
				"assembly": "    /* \"RPS.sol\":156:6427  contract RPS {... */\n  mstore(0x40, 0x80)\n    /* \"RPS.sol\":298:299  0 */\n  0x00\n    /* \"RPS.sol\":274:299  uint public numPlayer = 0 */\n  0x03\n  sstore\n    /* \"RPS.sol\":327:328  0 */\n  0x00\n    /* \"RPS.sol\":306:328  uint public reward = 0 */\n  0x04\n  sstore\n    /* \"RPS.sol\":359:360  0 */\n  0x00\n    /* \"RPS.sol\":335:360  uint public numReveal = 0 */\n  0x05\n  sstore\n    /* \"RPS.sol\":658:659  0 */\n  0x00\n    /* \"RPS.sol\":635:659  uint public numInput = 0 */\n  0x09\n  sstore\n    /* \"RPS.sol\":690:692  30 */\n  0x1e\n    /* \"RPS.sol\":666:692  uint public timeLimit = 30 */\n  0x0a\n  sstore\n    /* \"RPS.sol\":727:732  false */\n  0x00\n    /* \"RPS.sol\":699:732  bool public fundsCaptured = false */\n  0x0b\n  exp(0x0100, 0x00)\n  dup2\n  sload\n  dup2\n  0xff\n  mul\n  not\n  and\n  swap1\n  dup4\n  iszero\n  iszero\n  mul\n  or\n  swap1\n  sstore\n  pop\n    /* \"RPS.sol\":745:950  constructor(address _timeUnit, address _commitReveal, address _token) {... */\n  callvalue\n  dup1\n  iszero\n  tag_1\n  jumpi\n  0x00\n  dup1\n  revert\ntag_1:\n  pop\n  mload(0x40)\n  sub(codesize, bytecodeSize)\n  dup1\n  bytecodeSize\n  dup4\n  codecopy\n  dup2\n  dup2\n  add\n  0x40\n  mstore\n  dup2\n  add\n  swap1\n  tag_2\n  swap2\n  swap1\n  tag_3\n  jump\t// in\ntag_2:\n    /* \"RPS.sol\":846:855  _timeUnit */\n  dup3\n    /* \"RPS.sol\":826:834  timeUnit */\n  0x00\n  dup1\n    /* \"RPS.sol\":826:856  timeUnit = TimeUnit(_timeUnit) */\n  0x0100\n  exp\n  dup2\n  sload\n  dup2\n  0xffffffffffffffffffffffffffffffffffffffff\n  mul\n  not\n  and\n  swap1\n  dup4\n  0xffffffffffffffffffffffffffffffffffffffff\n  and\n  mul\n  or\n  swap1\n  sstore\n  pop\n    /* \"RPS.sol\":895:908  _commitReveal */\n  dup2\n    /* \"RPS.sol\":867:879  commitReveal */\n  0x01\n  0x00\n    /* \"RPS.sol\":867:909  commitReveal = CommitReveal(_commitReveal) */\n  0x0100\n  exp\n  dup2\n  sload\n  dup2\n  0xffffffffffffffffffffffffffffffffffffffff\n  mul\n  not\n  and\n  swap1\n  dup4\n  0xffffffffffffffffffffffffffffffffffffffff\n  and\n  mul\n  or\n  swap1\n  sstore\n  pop\n    /* \"RPS.sol\":935:941  _token */\n  dup1\n    /* \"RPS.sol\":920:925  token */\n  0x02\n  0x00\n    /* \"RPS.sol\":920:942  token = IERC20(_token) */\n  0x0100\n  exp\n  dup2\n  sload\n  dup2\n  0xffffffffffffffffffffffffffffffffffffffff\n  mul\n  not\n  and\n  swap1\n  dup4\n  0xffffffffffffffffffffffffffffffffffffffff\n  and\n  mul\n  or\n  swap1\n  sstore\n  pop\n    /* \"RPS.sol\":745:950  constructor(address _timeUnit, address _commitReveal, address _token) {... */\n  pop\n  pop\n  pop\n    /* \"RPS.sol\":156:6427  contract RPS {... */\n  jump(tag_6)\n    /* \"#utility.yul\":88:205   */\ntag_8:\n    /* \"#utility.yul\":197:198   */\n  0x00\n    /* \"#utility.yul\":194:195   */\n  dup1\n    /* \"#utility.yul\":187:199   */\n  revert\n    /* \"#utility.yul\":334:460   */\ntag_10:\n    /* \"#utility.yul\":371:378   */\n  0x00\n    /* \"#utility.yul\":411:453   */\n  0xffffffffffffffffffffffffffffffffffffffff\n    /* \"#utility.yul\":404:409   */\n  dup3\n    /* \"#utility.yul\":400:454   */\n  and\n    /* \"#utility.yul\":389:454   */\n  swap1\n  pop\n    /* \"#utility.yul\":334:460   */\n  swap2\n  swap1\n  pop\n  jump\t// out\n    /* \"#utility.yul\":466:562   */\ntag_11:\n    /* \"#utility.yul\":503:510   */\n  0x00\n    /* \"#utility.yul\":532:556   */\n  tag_20\n    /* \"#utility.yul\":550:555   */\n  dup3\n    /* \"#utility.yul\":532:556   */\n  tag_10\n  jump\t// in\ntag_20:\n    /* \"#utility.yul\":521:556   */\n  swap1\n  pop\n    /* \"#utility.yul\":466:562   */\n  swap2\n  swap1\n  pop\n  jump\t// out\n    /* \"#utility.yul\":568:690   */\ntag_12:\n    /* \"#utility.yul\":641:665   */\n  tag_22\n    /* \"#utility.yul\":659:664   */\n  dup2\n    /* \"#utility.yul\":641:665   */\n  tag_11\n  jump\t// in\ntag_22:\n    /* \"#utility.yul\":634:639   */\n  dup2\n    /* \"#utility.yul\":631:666   */\n  eq\n    /* \"#utility.yul\":621:684   */\n  tag_23\n  jumpi\n    /* \"#utility.yul\":680:681   */\n  0x00\n    /* \"#utility.yul\":677:678   */\n  dup1\n    /* \"#utility.yul\":670:682   */\n  revert\n    /* \"#utility.yul\":621:684   */\ntag_23:\n    /* \"#utility.yul\":568:690   */\n  pop\n  jump\t// out\n    /* \"#utility.yul\":696:839   */\ntag_13:\n    /* \"#utility.yul\":753:758   */\n  0x00\n    /* \"#utility.yul\":784:790   */\n  dup2\n    /* \"#utility.yul\":778:791   */\n  mload\n    /* \"#utility.yul\":769:791   */\n  swap1\n  pop\n    /* \"#utility.yul\":800:833   */\n  tag_25\n    /* \"#utility.yul\":827:832   */\n  dup2\n    /* \"#utility.yul\":800:833   */\n  tag_12\n  jump\t// in\ntag_25:\n    /* \"#utility.yul\":696:839   */\n  swap3\n  swap2\n  pop\n  pop\n  jump\t// out\n    /* \"#utility.yul\":845:1508   */\ntag_3:\n    /* \"#utility.yul\":933:939   */\n  0x00\n    /* \"#utility.yul\":941:947   */\n  dup1\n    /* \"#utility.yul\":949:955   */\n  0x00\n    /* \"#utility.yul\":998:1000   */\n  0x60\n    /* \"#utility.yul\":986:995   */\n  dup5\n    /* \"#utility.yul\":977:984   */\n  dup7\n    /* \"#utility.yul\":973:996   */\n  sub\n    /* \"#utility.yul\":969:1001   */\n  slt\n    /* \"#utility.yul\":966:1085   */\n  iszero\n  tag_27\n  jumpi\n    /* \"#utility.yul\":1004:1083   */\n  tag_28\n  tag_8\n  jump\t// in\ntag_28:\n    /* \"#utility.yul\":966:1085   */\ntag_27:\n    /* \"#utility.yul\":1124:1125   */\n  0x00\n    /* \"#utility.yul\":1149:1213   */\n  tag_29\n    /* \"#utility.yul\":1205:1212   */\n  dup7\n    /* \"#utility.yul\":1196:1202   */\n  dup3\n    /* \"#utility.yul\":1185:1194   */\n  dup8\n    /* \"#utility.yul\":1181:1203   */\n  add\n    /* \"#utility.yul\":1149:1213   */\n  tag_13\n  jump\t// in\ntag_29:\n    /* \"#utility.yul\":1139:1213   */\n  swap4\n  pop\n    /* \"#utility.yul\":1095:1223   */\n  pop\n    /* \"#utility.yul\":1262:1264   */\n  0x20\n    /* \"#utility.yul\":1288:1352   */\n  tag_30\n    /* \"#utility.yul\":1344:1351   */\n  dup7\n    /* \"#utility.yul\":1335:1341   */\n  dup3\n    /* \"#utility.yul\":1324:1333   */\n  dup8\n    /* \"#utility.yul\":1320:1342   */\n  add\n    /* \"#utility.yul\":1288:1352   */\n  tag_13\n  jump\t// in\ntag_30:\n    /* \"#utility.yul\":1278:1352   */\n  swap3\n  pop\n    /* \"#utility.yul\":1233:1362   */\n  pop\n    /* \"#utility.yul\":1401:1403   */\n  0x40\n    /* \"#utility.yul\":1427:1491   */\n  tag_31\n    /* \"#utility.yul\":1483:1490   */\n  dup7\n    /* \"#utility.yul\":1474:1480   */\n  dup3\n    /* \"#utility.yul\":1463:1472   */\n  dup8\n    /* \"#utility.yul\":1459:1481   */\n  add\n    /* \"#utility.yul\":1427:1491   */\n  tag_13\n  jump\t// in\ntag_31:\n    /* \"#utility.yul\":1417:1491   */\n  swap2\n  pop\n    /* \"#utility.yul\":1372:1501   */\n  pop\n    /* \"#utility.yul\":845:1508   */\n  swap3\n  pop\n  swap3\n  pop\n  swap3\n  jump\t// out\n    /* \"RPS.sol\":156:6427  contract RPS {... */\ntag_6:\n  dataSize(sub_0)\n  dup1\n  dataOffset(sub_0)\n  0x00\n  codecopy\n  0x00\n  return\nstop\n\nsub_0: assembly {\n        /* \"RPS.sol\":156:6427  contract RPS {... */\n      mstore(0x40, 0x80)\n      callvalue\n      dup1\n      iszero\n      tag_1\n      jumpi\n      0x00\n      dup1\n      revert\n    tag_1:\n      pop\n      jumpi(tag_2, lt(calldatasize, 0x04))\n      shr(0xe0, calldataload(0x00))\n      dup1\n      0x90d5d0c3\n      gt\n      tag_20\n      jumpi\n      dup1\n      0xc08d1fe5\n      gt\n      tag_21\n      jumpi\n      dup1\n      0xc08d1fe5\n      eq\n      tag_15\n      jumpi\n      dup1\n      0xc876e615\n      eq\n      tag_16\n      jumpi\n      dup1\n      0xf14fcbc8\n      eq\n      tag_17\n      jumpi\n      dup1\n      0xf71d96cb\n      eq\n      tag_18\n      jumpi\n      dup1\n      0xfc0c546a\n      eq\n      tag_19\n      jumpi\n      jump(tag_2)\n    tag_21:\n      dup1\n      0x90d5d0c3\n      eq\n      tag_11\n      jumpi\n      dup1\n      0x9d7b3f2d\n      eq\n      tag_12\n      jumpi\n      dup1\n      0xa040478d\n      eq\n      tag_13\n      jumpi\n      dup1\n      0xa224cb3e\n      eq\n      tag_14\n      jumpi\n      jump(tag_2)\n    tag_20:\n      dup1\n      0x3c6a7f9b\n      gt\n      tag_22\n      jumpi\n      dup1\n      0x3c6a7f9b\n      eq\n      tag_7\n      jumpi\n      dup1\n      0x55f6497d\n      eq\n      tag_8\n      jumpi\n      dup1\n      0x701fd0f1\n      eq\n      tag_9\n      jumpi\n      dup1\n      0x87e69625\n      eq\n      tag_10\n      jumpi\n      jump(tag_2)\n    tag_22:\n      dup1\n      0x086f7815\n      eq\n      tag_3\n      jumpi\n      dup1\n      0x190cf745\n      eq\n      tag_4\n      jumpi\n      dup1\n      0x228cb733\n      eq\n      tag_5\n      jumpi\n      dup1\n      0x27b5db8a\n      eq\n      tag_6\n      jumpi\n    tag_2:\n      0x00\n      dup1\n      revert\n        /* \"RPS.sol\":635:659  uint public numInput = 0 */\n    tag_3:\n      tag_23\n      tag_24\n      jump\t// in\n    tag_23:\n      mload(0x40)\n      tag_25\n      swap2\n      swap1\n      tag_26\n      jump\t// in\n    tag_25:\n      mload(0x40)\n      dup1\n      swap2\n      sub\n      swap1\n      return\n        /* \"RPS.sol\":546:595  mapping(address => bool) public player_not_played */\n    tag_4:\n      tag_27\n      0x04\n      dup1\n      calldatasize\n      sub\n      dup2\n      add\n      swap1\n      tag_28\n      swap2\n      swap1\n      tag_29\n      jump\t// in\n    tag_28:\n      tag_30\n      jump\t// in\n    tag_27:\n      mload(0x40)\n      tag_31\n      swap2\n      swap1\n      tag_32\n      jump\t// in\n    tag_31:\n      mload(0x40)\n      dup1\n      swap2\n      sub\n      swap1\n      return\n        /* \"RPS.sol\":306:328  uint public reward = 0 */\n    tag_5:\n      tag_33\n      tag_34\n      jump\t// in\n    tag_33:\n      mload(0x40)\n      tag_35\n      swap2\n      swap1\n      tag_26\n      jump\t// in\n    tag_35:\n      mload(0x40)\n      dup1\n      swap2\n      sub\n      swap1\n      return\n        /* \"RPS.sol\":962:1616  function addPlayer() public {... */\n    tag_6:\n      tag_36\n      tag_37\n      jump\t// in\n    tag_36:\n      stop\n        /* \"RPS.sol\":176:200  TimeUnit public timeUnit */\n    tag_7:\n      tag_38\n      tag_39\n      jump\t// in\n    tag_38:\n      mload(0x40)\n      tag_40\n      swap2\n      swap1\n      tag_41\n      jump\t// in\n    tag_40:\n      mload(0x40)\n      dup1\n      swap2\n      sub\n      swap1\n      return\n        /* \"RPS.sol\":699:732  bool public fundsCaptured = false */\n    tag_8:\n      tag_42\n      tag_43\n      jump\t// in\n    tag_42:\n      mload(0x40)\n      tag_44\n      swap2\n      swap1\n      tag_32\n      jump\t// in\n    tag_44:\n      mload(0x40)\n      dup1\n      swap2\n      sub\n      swap1\n      return\n        /* \"RPS.sol\":3023:3605  function reveal(bytes32 hash) public {... */\n    tag_9:\n      tag_45\n      0x04\n      dup1\n      calldatasize\n      sub\n      dup2\n      add\n      swap1\n      tag_46\n      swap2\n      swap1\n      tag_47\n      jump\t// in\n    tag_46:\n      tag_48\n      jump\t// in\n    tag_45:\n      stop\n        /* \"RPS.sol\":367:420  uint public constant REQUIRED_AMOUNT = 0.000001 ether */\n    tag_10:\n      tag_49\n      tag_50\n      jump\t// in\n    tag_49:\n      mload(0x40)\n      tag_51\n      swap2\n      swap1\n      tag_26\n      jump\t// in\n    tag_51:\n      mload(0x40)\n      dup1\n      swap2\n      sub\n      swap1\n      return\n        /* \"RPS.sol\":274:299  uint public numPlayer = 0 */\n    tag_11:\n      tag_52\n      tag_53\n      jump\t// in\n    tag_52:\n      mload(0x40)\n      tag_54\n      swap2\n      swap1\n      tag_26\n      jump\t// in\n    tag_54:\n      mload(0x40)\n      dup1\n      swap2\n      sub\n      swap1\n      return\n        /* \"RPS.sol\":207:239  CommitReveal public commitReveal */\n    tag_12:\n      tag_55\n      tag_56\n      jump\t// in\n    tag_55:\n      mload(0x40)\n      tag_57\n      swap2\n      swap1\n      tag_58\n      jump\t// in\n    tag_57:\n      mload(0x40)\n      dup1\n      swap2\n      sub\n      swap1\n      return\n        /* \"RPS.sol\":433:479  mapping (address => uint) public player_choice */\n    tag_13:\n      tag_59\n      0x04\n      dup1\n      calldatasize\n      sub\n      dup2\n      add\n      swap1\n      tag_60\n      swap2\n      swap1\n      tag_29\n      jump\t// in\n    tag_60:\n      tag_61\n      jump\t// in\n    tag_59:\n      mload(0x40)\n      tag_62\n      swap2\n      swap1\n      tag_26\n      jump\t// in\n    tag_62:\n      mload(0x40)\n      dup1\n      swap2\n      sub\n      swap1\n      return\n        /* \"RPS.sol\":4534:5784  function claimTimeoutWin() public {... */\n    tag_14:\n      tag_63\n      tag_64\n      jump\t// in\n    tag_63:\n      stop\n        /* \"RPS.sol\":666:692  uint public timeLimit = 30 */\n    tag_15:\n      tag_65\n      tag_66\n      jump\t// in\n    tag_65:\n      mload(0x40)\n      tag_67\n      swap2\n      swap1\n      tag_26\n      jump\t// in\n    tag_67:\n      mload(0x40)\n      dup1\n      swap2\n      sub\n      swap1\n      return\n        /* \"RPS.sol\":335:360  uint public numReveal = 0 */\n    tag_16:\n      tag_68\n      tag_69\n      jump\t// in\n    tag_68:\n      mload(0x40)\n      tag_70\n      swap2\n      swap1\n      tag_26\n      jump\t// in\n    tag_70:\n      mload(0x40)\n      dup1\n      swap2\n      sub\n      swap1\n      return\n        /* \"RPS.sol\":1624:3015  function commit(bytes32 hash) public {... */\n    tag_17:\n      tag_71\n      0x04\n      dup1\n      calldatasize\n      sub\n      dup2\n      add\n      swap1\n      tag_72\n      swap2\n      swap1\n      tag_47\n      jump\t// in\n    tag_72:\n      tag_73\n      jump\t// in\n    tag_71:\n      stop\n        /* \"RPS.sol\":602:626  address[] public players */\n    tag_18:\n      tag_74\n      0x04\n      dup1\n      calldatasize\n      sub\n      dup2\n      add\n      swap1\n      tag_75\n      swap2\n      swap1\n      tag_76\n      jump\t// in\n    tag_75:\n      tag_77\n      jump\t// in\n    tag_74:\n      mload(0x40)\n      tag_78\n      swap2\n      swap1\n      tag_79\n      jump\t// in\n    tag_78:\n      mload(0x40)\n      dup1\n      swap2\n      sub\n      swap1\n      return\n        /* \"RPS.sol\":246:265  IERC20 public token */\n    tag_19:\n      tag_80\n      tag_81\n      jump\t// in\n    tag_80:\n      mload(0x40)\n      tag_82\n      swap2\n      swap1\n      tag_83\n      jump\t// in\n    tag_82:\n      mload(0x40)\n      dup1\n      swap2\n      sub\n      swap1\n      return\n        /* \"RPS.sol\":635:659  uint public numInput = 0 */\n    tag_24:\n      sload(0x09)\n      dup2\n      jump\t// out\n        /* \"RPS.sol\":546:595  mapping(address => bool) public player_not_played */\n    tag_30:\n      mstore(0x20, 0x07)\n      dup1\n      0x00\n      mstore\n      keccak256(0x00, 0x40)\n      0x00\n      swap2\n      pop\n      sload\n      swap1\n      0x0100\n      exp\n      swap1\n      div\n      0xff\n      and\n      dup2\n      jump\t// out\n        /* \"RPS.sol\":306:328  uint public reward = 0 */\n    tag_34:\n      sload(0x04)\n      dup2\n      jump\t// out\n        /* \"RPS.sol\":962:1616  function addPlayer() public {... */\n    tag_37:\n        /* \"RPS.sol\":1021:1022  2 */\n      0x02\n        /* \"RPS.sol\":1009:1018  numPlayer */\n      sload(0x03)\n        /* \"RPS.sol\":1009:1022  numPlayer < 2 */\n      lt\n        /* \"RPS.sol\":1001:1053  require(numPlayer < 2, \"Game already has 2 players\") */\n      tag_85\n      jumpi\n      mload(0x40)\n      0x08c379a000000000000000000000000000000000000000000000000000000000\n      dup2\n      mstore\n      0x04\n      add\n      tag_86\n      swap1\n      tag_87\n      jump\t// in\n    tag_86:\n      mload(0x40)\n      dup1\n      swap2\n      sub\n      swap1\n      revert\n    tag_85:\n        /* \"RPS.sol\":1080:1081  0 */\n      0x00\n        /* \"RPS.sol\":1068:1077  numPlayer */\n      sload(0x03)\n        /* \"RPS.sol\":1068:1081  numPlayer > 0 */\n      gt\n        /* \"RPS.sol\":1064:1185  if (numPlayer > 0) {... */\n      iszero\n      tag_88\n      jumpi\n        /* \"RPS.sol\":1120:1127  players */\n      0x08\n        /* \"RPS.sol\":1128:1129  0 */\n      0x00\n        /* \"RPS.sol\":1120:1130  players[0] */\n      dup2\n      sload\n      dup2\n      lt\n      tag_89\n      jumpi\n      tag_90\n      tag_91\n      jump\t// in\n    tag_90:\n    tag_89:\n      swap1\n      0x00\n      mstore\n      keccak256(0x00, 0x20)\n      add\n      0x00\n      swap1\n      sload\n      swap1\n      0x0100\n      exp\n      swap1\n      div\n      0xffffffffffffffffffffffffffffffffffffffff\n      and\n        /* \"RPS.sol\":1106:1130  msg.sender != players[0] */\n      0xffffffffffffffffffffffffffffffffffffffff\n      and\n        /* \"RPS.sol\":1106:1116  msg.sender */\n      caller\n        /* \"RPS.sol\":1106:1130  msg.sender != players[0] */\n      0xffffffffffffffffffffffffffffffffffffffff\n      and\n      sub\n        /* \"RPS.sol\":1098:1173  require(msg.sender != players[0], \"You are already registered as a player\") */\n      tag_93\n      jumpi\n      mload(0x40)\n      0x08c379a000000000000000000000000000000000000000000000000000000000\n      dup2\n      mstore\n      0x04\n      add\n      tag_94\n      swap1\n      tag_95\n      jump\t// in\n    tag_94:\n      mload(0x40)\n      dup1\n      swap2\n      sub\n      swap1\n      revert\n    tag_93:\n        /* \"RPS.sol\":1064:1185  if (numPlayer > 0) {... */\n    tag_88:\n        /* \"RPS.sol\":406:420  0.000001 ether */\n      0xe8d4a51000\n        /* \"RPS.sol\":1288:1293  token */\n      0x02\n      0x00\n      swap1\n      sload\n      swap1\n      0x0100\n      exp\n      swap1\n      div\n      0xffffffffffffffffffffffffffffffffffffffff\n      and\n        /* \"RPS.sol\":1288:1303  token.allowance */\n      0xffffffffffffffffffffffffffffffffffffffff\n      and\n      0xdd62ed3e\n        /* \"RPS.sol\":1304:1314  msg.sender */\n      caller\n        /* \"RPS.sol\":1324:1328  this */\n      address\n        /* \"RPS.sol\":1288:1330  token.allowance(msg.sender, address(this)) */\n      mload(0x40)\n      dup4\n      0xffffffff\n      and\n      0xe0\n      shl\n      dup2\n      mstore\n      0x04\n      add\n      tag_96\n      swap3\n      swap2\n      swap1\n      tag_97\n      jump\t// in\n    tag_96:\n      0x20\n      mload(0x40)\n      dup1\n      dup4\n      sub\n      dup2\n      dup7\n      gas\n      staticcall\n      iszero\n      dup1\n      iszero\n      tag_99\n      jumpi\n      returndatasize\n      0x00\n      dup1\n      returndatacopy\n      revert(0x00, returndatasize)\n    tag_99:\n      pop\n      pop\n      pop\n      pop\n      mload(0x40)\n      returndatasize\n      not(0x1f)\n      0x1f\n      dup3\n      add\n      and\n      dup3\n      add\n      dup1\n      0x40\n      mstore\n      pop\n      dup2\n      add\n      swap1\n      tag_100\n      swap2\n      swap1\n      tag_101\n      jump\t// in\n    tag_100:\n        /* \"RPS.sol\":1288:1349  token.allowance(msg.sender, address(this)) >= REQUIRED_AMOUNT */\n      lt\n      iszero\n        /* \"RPS.sol\":1266:1405  require(... */\n      tag_102\n      jumpi\n      mload(0x40)\n      0x08c379a000000000000000000000000000000000000000000000000000000000\n      dup2\n      mstore\n      0x04\n      add\n      tag_103\n      swap1\n      tag_104\n      jump\t// in\n    tag_103:\n      mload(0x40)\n      dup1\n      swap2\n      sub\n      swap1\n      revert\n    tag_102:\n        /* \"RPS.sol\":1458:1462  true */\n      0x01\n        /* \"RPS.sol\":1426:1443  player_not_played */\n      0x07\n        /* \"RPS.sol\":1426:1455  player_not_played[msg.sender] */\n      0x00\n        /* \"RPS.sol\":1444:1454  msg.sender */\n      caller\n        /* \"RPS.sol\":1426:1455  player_not_played[msg.sender] */\n      0xffffffffffffffffffffffffffffffffffffffff\n      and\n      0xffffffffffffffffffffffffffffffffffffffff\n      and\n      dup2\n      mstore\n      0x20\n      add\n      swap1\n      dup2\n      mstore\n      0x20\n      add\n      0x00\n      keccak256\n      0x00\n        /* \"RPS.sol\":1426:1462  player_not_played[msg.sender] = true */\n      0x0100\n      exp\n      dup2\n      sload\n      dup2\n      0xff\n      mul\n      not\n      and\n      swap1\n      dup4\n      iszero\n      iszero\n      mul\n      or\n      swap1\n      sstore\n      pop\n        /* \"RPS.sol\":1473:1480  players */\n      0x08\n        /* \"RPS.sol\":1486:1496  msg.sender */\n      caller\n        /* \"RPS.sol\":1473:1497  players.push(msg.sender) */\n      swap1\n      dup1\n      0x01\n      dup2\n      sload\n      add\n      dup1\n      dup3\n      sstore\n      dup1\n      swap2\n      pop\n      pop\n      0x01\n      swap1\n      sub\n      swap1\n      0x00\n      mstore\n      keccak256(0x00, 0x20)\n      add\n      0x00\n      swap1\n      swap2\n      swap1\n      swap2\n      swap1\n      swap2\n      0x0100\n      exp\n      dup2\n      sload\n      dup2\n      0xffffffffffffffffffffffffffffffffffffffff\n      mul\n      not\n      and\n      swap1\n      dup4\n      0xffffffffffffffffffffffffffffffffffffffff\n      and\n      mul\n      or\n      swap1\n      sstore\n      pop\n        /* \"RPS.sol\":1508:1517  numPlayer */\n      0x03\n      0x00\n        /* \"RPS.sol\":1508:1519  numPlayer++ */\n      dup2\n      sload\n      dup1\n      swap3\n      swap2\n      swap1\n      tag_106\n      swap1\n      tag_107\n      jump\t// in\n    tag_106:\n      swap2\n      swap1\n      pop\n      sstore\n      pop\n        /* \"RPS.sol\":1556:1557  1 */\n      0x01\n        /* \"RPS.sol\":1543:1552  numPlayer */\n      sload(0x03)\n        /* \"RPS.sol\":1543:1557  numPlayer == 1 */\n      sub\n        /* \"RPS.sol\":1540:1609  if(numPlayer == 1) {... */\n      tag_108\n      jumpi\n        /* \"RPS.sol\":1574:1582  timeUnit */\n      0x00\n      dup1\n      sload\n      swap1\n      0x0100\n      exp\n      swap1\n      div\n      0xffffffffffffffffffffffffffffffffffffffff\n      and\n        /* \"RPS.sol\":1574:1595  timeUnit.setStartTime */\n      0xffffffffffffffffffffffffffffffffffffffff\n      and\n      0xa63f7c53\n        /* \"RPS.sol\":1574:1597  timeUnit.setStartTime() */\n      mload(0x40)\n      dup2\n      0xffffffff\n      and\n      0xe0\n      shl\n      dup2\n      mstore\n      0x04\n      add\n      0x00\n      mload(0x40)\n      dup1\n      dup4\n      sub\n      dup2\n      0x00\n      dup8\n      dup1\n      extcodesize\n      iszero\n      dup1\n      iszero\n      tag_109\n      jumpi\n      0x00\n      dup1\n      revert\n    tag_109:\n      pop\n      gas\n      call\n      iszero\n      dup1\n      iszero\n      tag_111\n      jumpi\n      returndatasize\n      0x00\n      dup1\n      returndatacopy\n      revert(0x00, returndatasize)\n    tag_111:\n      pop\n      pop\n      pop\n      pop\n        /* \"RPS.sol\":1540:1609  if(numPlayer == 1) {... */\n    tag_108:\n        /* \"RPS.sol\":962:1616  function addPlayer() public {... */\n      jump\t// out\n        /* \"RPS.sol\":176:200  TimeUnit public timeUnit */\n    tag_39:\n      0x00\n      dup1\n      sload\n      swap1\n      0x0100\n      exp\n      swap1\n      div\n      0xffffffffffffffffffffffffffffffffffffffff\n      and\n      dup2\n      jump\t// out\n        /* \"RPS.sol\":699:732  bool public fundsCaptured = false */\n    tag_43:\n      0x0b\n      0x00\n      swap1\n      sload\n      swap1\n      0x0100\n      exp\n      swap1\n      div\n      0xff\n      and\n      dup2\n      jump\t// out\n        /* \"RPS.sol\":3023:3605  function reveal(bytes32 hash) public {... */\n    tag_48:\n        /* \"RPS.sol\":3092:3093  2 */\n      0x02\n        /* \"RPS.sol\":3079:3088  numPlayer */\n      sload(0x03)\n        /* \"RPS.sol\":3079:3093  numPlayer == 2 */\n      eq\n        /* \"RPS.sol\":3071:3120  require(numPlayer == 2, \"Need exactly 2 players\") */\n      tag_113\n      jumpi\n      mload(0x40)\n      0x08c379a000000000000000000000000000000000000000000000000000000000\n      dup2\n      mstore\n      0x04\n      add\n      tag_114\n      swap1\n      tag_115\n      jump\t// in\n    tag_114:\n      mload(0x40)\n      dup1\n      swap2\n      sub\n      swap1\n      revert\n    tag_113:\n        /* \"RPS.sol\":3151:3152  2 */\n      0x02\n        /* \"RPS.sol\":3139:3147  numInput */\n      sload(0x09)\n        /* \"RPS.sol\":3139:3152  numInput == 2 */\n      eq\n        /* \"RPS.sol\":3131:3187  require(numInput == 2, \"Both players must commit first\") */\n      tag_116\n      jumpi\n      mload(0x40)\n      0x08c379a000000000000000000000000000000000000000000000000000000000\n      dup2\n      mstore\n      0x04\n      add\n      tag_117\n      swap1\n      tag_118\n      jump\t// in\n    tag_117:\n      mload(0x40)\n      dup1\n      swap2\n      sub\n      swap1\n      revert\n    tag_116:\n        /* \"RPS.sol\":3206:3219  fundsCaptured */\n      0x0b\n      0x00\n      swap1\n      sload\n      swap1\n      0x0100\n      exp\n      swap1\n      div\n      0xff\n      and\n        /* \"RPS.sol\":3198:3261  require(fundsCaptured, \"Funds not yet transferred to contract\") */\n      tag_119\n      jumpi\n      mload(0x40)\n      0x08c379a000000000000000000000000000000000000000000000000000000000\n      dup2\n      mstore\n      0x04\n      add\n      tag_120\n      swap1\n      tag_121\n      jump\t// in\n    tag_120:\n      mload(0x40)\n      dup1\n      swap2\n      sub\n      swap1\n      revert\n    tag_119:\n        /* \"RPS.sol\":3282:3294  commitReveal */\n      0x01\n      0x00\n      swap1\n      sload\n      swap1\n      0x0100\n      exp\n      swap1\n      div\n      0xffffffffffffffffffffffffffffffffffffffff\n      and\n        /* \"RPS.sol\":3282:3301  commitReveal.reveal */\n      0xffffffffffffffffffffffffffffffffffffffff\n      and\n      0xad487790\n        /* \"RPS.sol\":3302:3306  hash */\n      dup3\n        /* \"RPS.sol\":3308:3318  msg.sender */\n      caller\n        /* \"RPS.sol\":3282:3319  commitReveal.reveal(hash, msg.sender) */\n      mload(0x40)\n      dup4\n      0xffffffff\n      and\n      0xe0\n      shl\n      dup2\n      mstore\n      0x04\n      add\n      tag_122\n      swap3\n      swap2\n      swap1\n      tag_123\n      jump\t// in\n    tag_122:\n      0x00\n      mload(0x40)\n      dup1\n      dup4\n      sub\n      dup2\n      0x00\n      dup8\n      dup1\n      extcodesize\n      iszero\n      dup1\n      iszero\n      tag_124\n      jumpi\n      0x00\n      dup1\n      revert\n    tag_124:\n      pop\n      gas\n      call\n      iszero\n      dup1\n      iszero\n      tag_126\n      jumpi\n      returndatasize\n      0x00\n      dup1\n      returndatacopy\n      revert(0x00, returndatasize)\n    tag_126:\n      pop\n      pop\n      pop\n      pop\n        /* \"RPS.sol\":3330:3341  uint choice */\n      0x00\n        /* \"RPS.sol\":3355:3359  hash */\n      dup2\n        /* \"RPS.sol\":3360:3362  31 */\n      0x1f\n        /* \"RPS.sol\":3355:3363  hash[31] */\n      0x20\n      dup2\n      lt\n      tag_127\n      jumpi\n      tag_128\n      tag_91\n      jump\t// in\n    tag_128:\n    tag_127:\n      byte\n      0xf8\n      shl\n        /* \"RPS.sol\":3349:3364  uint8(hash[31]) */\n      0xf8\n      shr\n        /* \"RPS.sol\":3344:3365  uint(uint8(hash[31])) */\n      0xff\n      and\n        /* \"RPS.sol\":3330:3365  uint choice = uint(uint8(hash[31])) */\n      swap1\n      pop\n        /* \"RPS.sol\":3394:3395  0 */\n      0x00\n        /* \"RPS.sol\":3384:3390  choice */\n      dup2\n        /* \"RPS.sol\":3384:3395  choice >= 0 */\n      lt\n      iszero\n        /* \"RPS.sol\":3384:3410  choice >= 0 && choice <= 4 */\n      dup1\n      iszero\n      tag_129\n      jumpi\n      pop\n        /* \"RPS.sol\":3409:3410  4 */\n      0x04\n        /* \"RPS.sol\":3399:3405  choice */\n      dup2\n        /* \"RPS.sol\":3399:3410  choice <= 4 */\n      gt\n      iszero\n        /* \"RPS.sol\":3384:3410  choice >= 0 && choice <= 4 */\n    tag_129:\n        /* \"RPS.sol\":3376:3434  require(choice >= 0 && choice <= 4, \"Choice is not valid\") */\n      tag_130\n      jumpi\n      mload(0x40)\n      0x08c379a000000000000000000000000000000000000000000000000000000000\n      dup2\n      mstore\n      0x04\n      add\n      tag_131\n      swap1\n      tag_132\n      jump\t// in\n    tag_131:\n      mload(0x40)\n      dup1\n      swap2\n      sub\n      swap1\n      revert\n    tag_130:\n        /* \"RPS.sol\":3483:3489  choice */\n      dup1\n        /* \"RPS.sol\":3455:3468  player_choice */\n      0x06\n        /* \"RPS.sol\":3455:3480  player_choice[msg.sender] */\n      0x00\n        /* \"RPS.sol\":3469:3479  msg.sender */\n      caller\n        /* \"RPS.sol\":3455:3480  player_choice[msg.sender] */\n      0xffffffffffffffffffffffffffffffffffffffff\n      and\n      0xffffffffffffffffffffffffffffffffffffffff\n      and\n      dup2\n      mstore\n      0x20\n      add\n      swap1\n      dup2\n      mstore\n      0x20\n      add\n      0x00\n      keccak256\n        /* \"RPS.sol\":3455:3489  player_choice[msg.sender] = choice */\n      dup2\n      swap1\n      sstore\n      pop\n        /* \"RPS.sol\":3500:3509  numReveal */\n      0x05\n      0x00\n        /* \"RPS.sol\":3500:3511  numReveal++ */\n      dup2\n      sload\n      dup1\n      swap3\n      swap2\n      swap1\n      tag_133\n      swap1\n      tag_107\n      jump\t// in\n    tag_133:\n      swap2\n      swap1\n      pop\n      sstore\n      pop\n        /* \"RPS.sol\":3548:3549  2 */\n      0x02\n        /* \"RPS.sol\":3535:3544  numReveal */\n      sload(0x05)\n        /* \"RPS.sol\":3535:3549  numReveal == 2 */\n      sub\n        /* \"RPS.sol\":3532:3598  if(numReveal == 2) {... */\n      tag_134\n      jumpi\n        /* \"RPS.sol\":3566:3586  _checkWinnerAndPay() */\n      tag_135\n        /* \"RPS.sol\":3566:3584  _checkWinnerAndPay */\n      tag_136\n        /* \"RPS.sol\":3566:3586  _checkWinnerAndPay() */\n      jump\t// in\n    tag_135:\n        /* \"RPS.sol\":3532:3598  if(numReveal == 2) {... */\n    tag_134:\n        /* \"RPS.sol\":3060:3605  {... */\n      pop\n        /* \"RPS.sol\":3023:3605  function reveal(bytes32 hash) public {... */\n      pop\n      jump\t// out\n        /* \"RPS.sol\":367:420  uint public constant REQUIRED_AMOUNT = 0.000001 ether */\n    tag_50:\n        /* \"RPS.sol\":406:420  0.000001 ether */\n      0xe8d4a51000\n        /* \"RPS.sol\":367:420  uint public constant REQUIRED_AMOUNT = 0.000001 ether */\n      dup2\n      jump\t// out\n        /* \"RPS.sol\":274:299  uint public numPlayer = 0 */\n    tag_53:\n      sload(0x03)\n      dup2\n      jump\t// out\n        /* \"RPS.sol\":207:239  CommitReveal public commitReveal */\n    tag_56:\n      0x01\n      0x00\n      swap1\n      sload\n      swap1\n      0x0100\n      exp\n      swap1\n      div\n      0xffffffffffffffffffffffffffffffffffffffff\n      and\n      dup2\n      jump\t// out\n        /* \"RPS.sol\":433:479  mapping (address => uint) public player_choice */\n    tag_61:\n      mstore(0x20, 0x06)\n      dup1\n      0x00\n      mstore\n      keccak256(0x00, 0x40)\n      0x00\n      swap2\n      pop\n      swap1\n      pop\n      sload\n      dup2\n      jump\t// out\n        /* \"RPS.sol\":4534:5784  function claimTimeoutWin() public {... */\n    tag_64:\n        /* \"RPS.sol\":4600:4601  2 */\n      0x02\n        /* \"RPS.sol\":4587:4596  numPlayer */\n      sload(0x03)\n        /* \"RPS.sol\":4587:4601  numPlayer == 2 */\n      eq\n        /* \"RPS.sol\":4587:4618  numPlayer == 2 && fundsCaptured */\n      dup1\n      iszero\n      tag_138\n      jumpi\n      pop\n        /* \"RPS.sol\":4605:4618  fundsCaptured */\n      0x0b\n      0x00\n      swap1\n      sload\n      swap1\n      0x0100\n      exp\n      swap1\n      div\n      0xff\n      and\n        /* \"RPS.sol\":4587:4618  numPlayer == 2 && fundsCaptured */\n    tag_138:\n        /* \"RPS.sol\":4579:4648  require(numPlayer == 2 && fundsCaptured, \"Game not in correct state\") */\n      tag_139\n      jumpi\n      mload(0x40)\n      0x08c379a000000000000000000000000000000000000000000000000000000000\n      dup2\n      mstore\n      0x04\n      add\n      tag_140\n      swap1\n      tag_141\n      jump\t// in\n    tag_140:\n      mload(0x40)\n      dup1\n      swap2\n      sub\n      swap1\n      revert\n    tag_139:\n        /* \"RPS.sol\":4696:4705  timeLimit */\n      sload(0x0a)\n        /* \"RPS.sol\":4667:4675  timeUnit */\n      0x00\n      dup1\n      sload\n      swap1\n      0x0100\n      exp\n      swap1\n      div\n      0xffffffffffffffffffffffffffffffffffffffff\n      and\n        /* \"RPS.sol\":4667:4690  timeUnit.elapsedSeconds */\n      0xffffffffffffffffffffffffffffffffffffffff\n      and\n      0xbc06b8cd\n        /* \"RPS.sol\":4667:4692  timeUnit.elapsedSeconds() */\n      mload(0x40)\n      dup2\n      0xffffffff\n      and\n      0xe0\n      shl\n      dup2\n      mstore\n      0x04\n      add\n      0x20\n      mload(0x40)\n      dup1\n      dup4\n      sub\n      dup2\n      dup7\n      gas\n      staticcall\n      iszero\n      dup1\n      iszero\n      tag_143\n      jumpi\n      returndatasize\n      0x00\n      dup1\n      returndatacopy\n      revert(0x00, returndatasize)\n    tag_143:\n      pop\n      pop\n      pop\n      pop\n      mload(0x40)\n      returndatasize\n      not(0x1f)\n      0x1f\n      dup3\n      add\n      and\n      dup3\n      add\n      dup1\n      0x40\n      mstore\n      pop\n      dup2\n      add\n      swap1\n      tag_144\n      swap2\n      swap1\n      tag_101\n      jump\t// in\n    tag_144:\n        /* \"RPS.sol\":4667:4705  timeUnit.elapsedSeconds() >= timeLimit */\n      lt\n      iszero\n        /* \"RPS.sol\":4659:4732  require(timeUnit.elapsedSeconds() >= timeLimit, \"Time limit not reached\") */\n      tag_145\n      jumpi\n      mload(0x40)\n      0x08c379a000000000000000000000000000000000000000000000000000000000\n      dup2\n      mstore\n      0x04\n      add\n      tag_146\n      swap1\n      tag_147\n      jump\t// in\n    tag_146:\n      mload(0x40)\n      dup1\n      swap2\n      sub\n      swap1\n      revert\n    tag_145:\n        /* \"RPS.sol\":4763:4764  2 */\n      0x02\n        /* \"RPS.sol\":4751:4760  numReveal */\n      sload(0x05)\n        /* \"RPS.sol\":4751:4764  numReveal < 2 */\n      lt\n        /* \"RPS.sol\":4743:4798  require(numReveal < 2, \"Both players already revealed\") */\n      tag_148\n      jumpi\n      mload(0x40)\n      0x08c379a000000000000000000000000000000000000000000000000000000000\n      dup2\n      mstore\n      0x04\n      add\n      tag_149\n      swap1\n      tag_150\n      jump\t// in\n    tag_149:\n      mload(0x40)\n      dup1\n      swap2\n      sub\n      swap1\n      revert\n    tag_148:\n        /* \"RPS.sol\":4836:4837  0 */\n      0x00\n        /* \"RPS.sol\":4823:4832  numReveal */\n      sload(0x05)\n        /* \"RPS.sol\":4823:4837  numReveal == 0 */\n      sub\n        /* \"RPS.sol\":4819:5759  if (numReveal == 0) {... */\n      tag_151\n      jumpi\n        /* \"RPS.sol\":4914:4923  bool sent */\n      0x00\n        /* \"RPS.sol\":4926:4931  token */\n      0x02\n      0x00\n      swap1\n      sload\n      swap1\n      0x0100\n      exp\n      swap1\n      div\n      0xffffffffffffffffffffffffffffffffffffffff\n      and\n        /* \"RPS.sol\":4926:4940  token.transfer */\n      0xffffffffffffffffffffffffffffffffffffffff\n      and\n      0xa9059cbb\n        /* \"RPS.sol\":4941:4951  msg.sender */\n      caller\n        /* \"RPS.sol\":4953:4959  reward */\n      sload(0x04)\n        /* \"RPS.sol\":4926:4960  token.transfer(msg.sender, reward) */\n      mload(0x40)\n      dup4\n      0xffffffff\n      and\n      0xe0\n      shl\n      dup2\n      mstore\n      0x04\n      add\n      tag_152\n      swap3\n      swap2\n      swap1\n      tag_153\n      jump\t// in\n    tag_152:\n      0x20\n      mload(0x40)\n      dup1\n      dup4\n      sub\n      dup2\n      0x00\n      dup8\n      gas\n      call\n      iszero\n      dup1\n      iszero\n      tag_155\n      jumpi\n      returndatasize\n      0x00\n      dup1\n      returndatacopy\n      revert(0x00, returndatasize)\n    tag_155:\n      pop\n      pop\n      pop\n      pop\n      mload(0x40)\n      returndatasize\n      not(0x1f)\n      0x1f\n      dup3\n      add\n      and\n      dup3\n      add\n      dup1\n      0x40\n      mstore\n      pop\n      dup2\n      add\n      swap1\n      tag_156\n      swap2\n      swap1\n      tag_157\n      jump\t// in\n    tag_156:\n        /* \"RPS.sol\":4914:4960  bool sent = token.transfer(msg.sender, reward) */\n      swap1\n      pop\n        /* \"RPS.sol\":4983:4987  sent */\n      dup1\n        /* \"RPS.sol\":4975:5013  require(sent, \"Token transfer failed\") */\n      tag_158\n      jumpi\n      mload(0x40)\n      0x08c379a000000000000000000000000000000000000000000000000000000000\n      dup2\n      mstore\n      0x04\n      add\n      tag_159\n      swap1\n      tag_160\n      jump\t// in\n    tag_159:\n      mload(0x40)\n      dup1\n      swap2\n      sub\n      swap1\n      revert\n    tag_158:\n        /* \"RPS.sol\":4839:5025  {... */\n      pop\n        /* \"RPS.sol\":4819:5759  if (numReveal == 0) {... */\n      jump(tag_161)\n    tag_151:\n        /* \"RPS.sol\":5127:5141  bool revealed1 */\n      0x00\n        /* \"RPS.sol\":5145:5157  commitReveal */\n      0x01\n      0x00\n      swap1\n      sload\n      swap1\n      0x0100\n      exp\n      swap1\n      div\n      0xffffffffffffffffffffffffffffffffffffffff\n      and\n        /* \"RPS.sol\":5145:5165  commitReveal.commits */\n      0xffffffffffffffffffffffffffffffffffffffff\n      and\n      0x7b43a8e6\n        /* \"RPS.sol\":5166:5173  players */\n      0x08\n        /* \"RPS.sol\":5174:5175  0 */\n      0x00\n        /* \"RPS.sol\":5166:5176  players[0] */\n      dup2\n      sload\n      dup2\n      lt\n      tag_162\n      jumpi\n      tag_163\n      tag_91\n      jump\t// in\n    tag_163:\n    tag_162:\n      swap1\n      0x00\n      mstore\n      keccak256(0x00, 0x20)\n      add\n      0x00\n      swap1\n      sload\n      swap1\n      0x0100\n      exp\n      swap1\n      div\n      0xffffffffffffffffffffffffffffffffffffffff\n      and\n        /* \"RPS.sol\":5145:5177  commitReveal.commits(players[0]) */\n      mload(0x40)\n      dup3\n      0xffffffff\n      and\n      0xe0\n      shl\n      dup2\n      mstore\n      0x04\n      add\n      tag_165\n      swap2\n      swap1\n      tag_79\n      jump\t// in\n    tag_165:\n      0x60\n      mload(0x40)\n      dup1\n      dup4\n      sub\n      dup2\n      dup7\n      gas\n      staticcall\n      iszero\n      dup1\n      iszero\n      tag_167\n      jumpi\n      returndatasize\n      0x00\n      dup1\n      returndatacopy\n      revert(0x00, returndatasize)\n    tag_167:\n      pop\n      pop\n      pop\n      pop\n      mload(0x40)\n      returndatasize\n      not(0x1f)\n      0x1f\n      dup3\n      add\n      and\n      dup3\n      add\n      dup1\n      0x40\n      mstore\n      pop\n      dup2\n      add\n      swap1\n      tag_168\n      swap2\n      swap1\n      tag_169\n      jump\t// in\n    tag_168:\n        /* \"RPS.sol\":5124:5177  (,,bool revealed1) = commitReveal.commits(players[0]) */\n      swap3\n      pop\n      pop\n      pop\n        /* \"RPS.sol\":5195:5209  bool revealed2 */\n      0x00\n        /* \"RPS.sol\":5213:5225  commitReveal */\n      0x01\n      0x00\n      swap1\n      sload\n      swap1\n      0x0100\n      exp\n      swap1\n      div\n      0xffffffffffffffffffffffffffffffffffffffff\n      and\n        /* \"RPS.sol\":5213:5233  commitReveal.commits */\n      0xffffffffffffffffffffffffffffffffffffffff\n      and\n      0x7b43a8e6\n        /* \"RPS.sol\":5234:5241  players */\n      0x08\n        /* \"RPS.sol\":5242:5243  1 */\n      0x01\n        /* \"RPS.sol\":5234:5244  players[1] */\n      dup2\n      sload\n      dup2\n      lt\n      tag_170\n      jumpi\n      tag_171\n      tag_91\n      jump\t// in\n    tag_171:\n    tag_170:\n      swap1\n      0x00\n      mstore\n      keccak256(0x00, 0x20)\n      add\n      0x00\n      swap1\n      sload\n      swap1\n      0x0100\n      exp\n      swap1\n      div\n      0xffffffffffffffffffffffffffffffffffffffff\n      and\n        /* \"RPS.sol\":5213:5245  commitReveal.commits(players[1]) */\n      mload(0x40)\n      dup3\n      0xffffffff\n      and\n      0xe0\n      shl\n      dup2\n      mstore\n      0x04\n      add\n      tag_173\n      swap2\n      swap1\n      tag_79\n      jump\t// in\n    tag_173:\n      0x60\n      mload(0x40)\n      dup1\n      dup4\n      sub\n      dup2\n      dup7\n      gas\n      staticcall\n      iszero\n      dup1\n      iszero\n      tag_175\n      jumpi\n      returndatasize\n      0x00\n      dup1\n      returndatacopy\n      revert(0x00, returndatasize)\n    tag_175:\n      pop\n      pop\n      pop\n      pop\n      mload(0x40)\n      returndatasize\n      not(0x1f)\n      0x1f\n      dup3\n      add\n      and\n      dup3\n      add\n      dup1\n      0x40\n      mstore\n      pop\n      dup2\n      add\n      swap1\n      tag_176\n      swap2\n      swap1\n      tag_169\n      jump\t// in\n    tag_176:\n        /* \"RPS.sol\":5192:5245  (,,bool revealed2) = commitReveal.commits(players[1]) */\n      swap3\n      pop\n      pop\n      pop\n        /* \"RPS.sol\":5278:5287  revealed1 */\n      dup2\n        /* \"RPS.sol\":5278:5301  revealed1 && !revealed2 */\n      dup1\n      iszero\n      tag_177\n      jumpi\n      pop\n        /* \"RPS.sol\":5292:5301  revealed2 */\n      dup1\n        /* \"RPS.sol\":5291:5301  !revealed2 */\n      iszero\n        /* \"RPS.sol\":5278:5301  revealed1 && !revealed2 */\n    tag_177:\n        /* \"RPS.sol\":5278:5329  revealed1 && !revealed2 && msg.sender == players[0] */\n      dup1\n      iszero\n      tag_178\n      jumpi\n      pop\n        /* \"RPS.sol\":5319:5326  players */\n      0x08\n        /* \"RPS.sol\":5327:5328  0 */\n      0x00\n        /* \"RPS.sol\":5319:5329  players[0] */\n      dup2\n      sload\n      dup2\n      lt\n      tag_179\n      jumpi\n      tag_180\n      tag_91\n      jump\t// in\n    tag_180:\n    tag_179:\n      swap1\n      0x00\n      mstore\n      keccak256(0x00, 0x20)\n      add\n      0x00\n      swap1\n      sload\n      swap1\n      0x0100\n      exp\n      swap1\n      div\n      0xffffffffffffffffffffffffffffffffffffffff\n      and\n        /* \"RPS.sol\":5305:5329  msg.sender == players[0] */\n      0xffffffffffffffffffffffffffffffffffffffff\n      and\n        /* \"RPS.sol\":5305:5315  msg.sender */\n      caller\n        /* \"RPS.sol\":5305:5329  msg.sender == players[0] */\n      0xffffffffffffffffffffffffffffffffffffffff\n      and\n      eq\n        /* \"RPS.sol\":5278:5329  revealed1 && !revealed2 && msg.sender == players[0] */\n    tag_178:\n        /* \"RPS.sol\":5274:5748  if (revealed1 && !revealed2 && msg.sender == players[0]) {... */\n      iszero\n      tag_182\n      jumpi\n        /* \"RPS.sol\":5350:5359  bool sent */\n      0x00\n        /* \"RPS.sol\":5362:5367  token */\n      0x02\n      0x00\n      swap1\n      sload\n      swap1\n      0x0100\n      exp\n      swap1\n      div\n      0xffffffffffffffffffffffffffffffffffffffff\n      and\n        /* \"RPS.sol\":5362:5376  token.transfer */\n      0xffffffffffffffffffffffffffffffffffffffff\n      and\n      0xa9059cbb\n        /* \"RPS.sol\":5377:5384  players */\n      0x08\n        /* \"RPS.sol\":5385:5386  0 */\n      0x00\n        /* \"RPS.sol\":5377:5387  players[0] */\n      dup2\n      sload\n      dup2\n      lt\n      tag_183\n      jumpi\n      tag_184\n      tag_91\n      jump\t// in\n    tag_184:\n    tag_183:\n      swap1\n      0x00\n      mstore\n      keccak256(0x00, 0x20)\n      add\n      0x00\n      swap1\n      sload\n      swap1\n      0x0100\n      exp\n      swap1\n      div\n      0xffffffffffffffffffffffffffffffffffffffff\n      and\n        /* \"RPS.sol\":5389:5395  reward */\n      sload(0x04)\n        /* \"RPS.sol\":5362:5396  token.transfer(players[0], reward) */\n      mload(0x40)\n      dup4\n      0xffffffff\n      and\n      0xe0\n      shl\n      dup2\n      mstore\n      0x04\n      add\n      tag_186\n      swap3\n      swap2\n      swap1\n      tag_153\n      jump\t// in\n    tag_186:\n      0x20\n      mload(0x40)\n      dup1\n      dup4\n      sub\n      dup2\n      0x00\n      dup8\n      gas\n      call\n      iszero\n      dup1\n      iszero\n      tag_188\n      jumpi\n      returndatasize\n      0x00\n      dup1\n      returndatacopy\n      revert(0x00, returndatasize)\n    tag_188:\n      pop\n      pop\n      pop\n      pop\n      mload(0x40)\n      returndatasize\n      not(0x1f)\n      0x1f\n      dup3\n      add\n      and\n      dup3\n      add\n      dup1\n      0x40\n      mstore\n      pop\n      dup2\n      add\n      swap1\n      tag_189\n      swap2\n      swap1\n      tag_157\n      jump\t// in\n    tag_189:\n        /* \"RPS.sol\":5350:5396  bool sent = token.transfer(players[0], reward) */\n      swap1\n      pop\n        /* \"RPS.sol\":5423:5427  sent */\n      dup1\n        /* \"RPS.sol\":5415:5453  require(sent, \"Token transfer failed\") */\n      tag_190\n      jumpi\n      mload(0x40)\n      0x08c379a000000000000000000000000000000000000000000000000000000000\n      dup2\n      mstore\n      0x04\n      add\n      tag_191\n      swap1\n      tag_160\n      jump\t// in\n    tag_191:\n      mload(0x40)\n      dup1\n      swap2\n      sub\n      swap1\n      revert\n    tag_190:\n        /* \"RPS.sol\":5331:5469  {... */\n      pop\n        /* \"RPS.sol\":5274:5748  if (revealed1 && !revealed2 && msg.sender == players[0]) {... */\n      jump(tag_192)\n    tag_182:\n        /* \"RPS.sol\":5480:5489  revealed1 */\n      dup2\n        /* \"RPS.sol\":5479:5489  !revealed1 */\n      iszero\n        /* \"RPS.sol\":5479:5502  !revealed1 && revealed2 */\n      dup1\n      iszero\n      tag_193\n      jumpi\n      pop\n        /* \"RPS.sol\":5493:5502  revealed2 */\n      dup1\n        /* \"RPS.sol\":5479:5502  !revealed1 && revealed2 */\n    tag_193:\n        /* \"RPS.sol\":5479:5530  !revealed1 && revealed2 && msg.sender == players[1] */\n      dup1\n      iszero\n      tag_194\n      jumpi\n      pop\n        /* \"RPS.sol\":5520:5527  players */\n      0x08\n        /* \"RPS.sol\":5528:5529  1 */\n      0x01\n        /* \"RPS.sol\":5520:5530  players[1] */\n      dup2\n      sload\n      dup2\n      lt\n      tag_195\n      jumpi\n      tag_196\n      tag_91\n      jump\t// in\n    tag_196:\n    tag_195:\n      swap1\n      0x00\n      mstore\n      keccak256(0x00, 0x20)\n      add\n      0x00\n      swap1\n      sload\n      swap1\n      0x0100\n      exp\n      swap1\n      div\n      0xffffffffffffffffffffffffffffffffffffffff\n      and\n        /* \"RPS.sol\":5506:5530  msg.sender == players[1] */\n      0xffffffffffffffffffffffffffffffffffffffff\n      and\n        /* \"RPS.sol\":5506:5516  msg.sender */\n      caller\n        /* \"RPS.sol\":5506:5530  msg.sender == players[1] */\n      0xffffffffffffffffffffffffffffffffffffffff\n      and\n      eq\n        /* \"RPS.sol\":5479:5530  !revealed1 && revealed2 && msg.sender == players[1] */\n    tag_194:\n        /* \"RPS.sol\":5475:5748  if (!revealed1 && revealed2 && msg.sender == players[1]) {... */\n      iszero\n      tag_198\n      jumpi\n        /* \"RPS.sol\":5551:5560  bool sent */\n      0x00\n        /* \"RPS.sol\":5563:5568  token */\n      0x02\n      0x00\n      swap1\n      sload\n      swap1\n      0x0100\n      exp\n      swap1\n      div\n      0xffffffffffffffffffffffffffffffffffffffff\n      and\n        /* \"RPS.sol\":5563:5577  token.transfer */\n      0xffffffffffffffffffffffffffffffffffffffff\n      and\n      0xa9059cbb\n        /* \"RPS.sol\":5578:5585  players */\n      0x08\n        /* \"RPS.sol\":5586:5587  1 */\n      0x01\n        /* \"RPS.sol\":5578:5588  players[1] */\n      dup2\n      sload\n      dup2\n      lt\n      tag_199\n      jumpi\n      tag_200\n      tag_91\n      jump\t// in\n    tag_200:\n    tag_199:\n      swap1\n      0x00\n      mstore\n      keccak256(0x00, 0x20)\n      add\n      0x00\n      swap1\n      sload\n      swap1\n      0x0100\n      exp\n      swap1\n      div\n      0xffffffffffffffffffffffffffffffffffffffff\n      and\n        /* \"RPS.sol\":5590:5596  reward */\n      sload(0x04)\n        /* \"RPS.sol\":5563:5597  token.transfer(players[1], reward) */\n      mload(0x40)\n      dup4\n      0xffffffff\n      and\n      0xe0\n      shl\n      dup2\n      mstore\n      0x04\n      add\n      tag_202\n      swap3\n      swap2\n      swap1\n      tag_153\n      jump\t// in\n    tag_202:\n      0x20\n      mload(0x40)\n      dup1\n      dup4\n      sub\n      dup2\n      0x00\n      dup8\n      gas\n      call\n      iszero\n      dup1\n      iszero\n      tag_204\n      jumpi\n      returndatasize\n      0x00\n      dup1\n      returndatacopy\n      revert(0x00, returndatasize)\n    tag_204:\n      pop\n      pop\n      pop\n      pop\n      mload(0x40)\n      returndatasize\n      not(0x1f)\n      0x1f\n      dup3\n      add\n      and\n      dup3\n      add\n      dup1\n      0x40\n      mstore\n      pop\n      dup2\n      add\n      swap1\n      tag_205\n      swap2\n      swap1\n      tag_157\n      jump\t// in\n    tag_205:\n        /* \"RPS.sol\":5551:5597  bool sent = token.transfer(players[1], reward) */\n      swap1\n      pop\n        /* \"RPS.sol\":5624:5628  sent */\n      dup1\n        /* \"RPS.sol\":5616:5654  require(sent, \"Token transfer failed\") */\n      tag_206\n      jumpi\n      mload(0x40)\n      0x08c379a000000000000000000000000000000000000000000000000000000000\n      dup2\n      mstore\n      0x04\n      add\n      tag_207\n      swap1\n      tag_160\n      jump\t// in\n    tag_207:\n      mload(0x40)\n      dup1\n      swap2\n      sub\n      swap1\n      revert\n    tag_206:\n        /* \"RPS.sol\":5532:5670  {... */\n      pop\n        /* \"RPS.sol\":5475:5748  if (!revealed1 && revealed2 && msg.sender == players[1]) {... */\n      jump(tag_208)\n    tag_198:\n        /* \"RPS.sol\":5695:5732  revert(\"You cannot claim the reward\") */\n      mload(0x40)\n      0x08c379a000000000000000000000000000000000000000000000000000000000\n      dup2\n      mstore\n      0x04\n      add\n      tag_209\n      swap1\n      tag_210\n      jump\t// in\n    tag_209:\n      mload(0x40)\n      dup1\n      swap2\n      sub\n      swap1\n      revert\n        /* \"RPS.sol\":5475:5748  if (!revealed1 && revealed2 && msg.sender == players[1]) {... */\n    tag_208:\n        /* \"RPS.sol\":5274:5748  if (revealed1 && !revealed2 && msg.sender == players[0]) {... */\n    tag_192:\n        /* \"RPS.sol\":5031:5759  {... */\n      pop\n      pop\n        /* \"RPS.sol\":4819:5759  if (numReveal == 0) {... */\n    tag_161:\n        /* \"RPS.sol\":5769:5776  reset() */\n      tag_211\n        /* \"RPS.sol\":5769:5774  reset */\n      tag_212\n        /* \"RPS.sol\":5769:5776  reset() */\n      jump\t// in\n    tag_211:\n        /* \"RPS.sol\":4534:5784  function claimTimeoutWin() public {... */\n      jump\t// out\n        /* \"RPS.sol\":666:692  uint public timeLimit = 30 */\n    tag_66:\n      sload(0x0a)\n      dup2\n      jump\t// out\n        /* \"RPS.sol\":335:360  uint public numReveal = 0 */\n    tag_69:\n      sload(0x05)\n      dup2\n      jump\t// out\n        /* \"RPS.sol\":1624:3015  function commit(bytes32 hash) public {... */\n    tag_73:\n        /* \"RPS.sol\":1693:1694  2 */\n      0x02\n        /* \"RPS.sol\":1680:1689  numPlayer */\n      sload(0x03)\n        /* \"RPS.sol\":1680:1694  numPlayer == 2 */\n      eq\n        /* \"RPS.sol\":1672:1721  require(numPlayer == 2, \"Need exactly 2 players\") */\n      tag_214\n      jumpi\n      mload(0x40)\n      0x08c379a000000000000000000000000000000000000000000000000000000000\n      dup2\n      mstore\n      0x04\n      add\n      tag_215\n      swap1\n      tag_115\n      jump\t// in\n    tag_215:\n      mload(0x40)\n      dup1\n      swap2\n      sub\n      swap1\n      revert\n    tag_214:\n        /* \"RPS.sol\":1740:1757  player_not_played */\n      0x07\n        /* \"RPS.sol\":1740:1769  player_not_played[msg.sender] */\n      0x00\n        /* \"RPS.sol\":1758:1768  msg.sender */\n      caller\n        /* \"RPS.sol\":1740:1769  player_not_played[msg.sender] */\n      0xffffffffffffffffffffffffffffffffffffffff\n      and\n      0xffffffffffffffffffffffffffffffffffffffff\n      and\n      dup2\n      mstore\n      0x20\n      add\n      swap1\n      dup2\n      mstore\n      0x20\n      add\n      0x00\n      keccak256\n      0x00\n      swap1\n      sload\n      swap1\n      0x0100\n      exp\n      swap1\n      div\n      0xff\n      and\n        /* \"RPS.sol\":1732:1802  require(player_not_played[msg.sender], \"You already made your choice\") */\n      tag_216\n      jumpi\n      mload(0x40)\n      0x08c379a000000000000000000000000000000000000000000000000000000000\n      dup2\n      mstore\n      0x04\n      add\n      tag_217\n      swap1\n      tag_218\n      jump\t// in\n    tag_217:\n      mload(0x40)\n      dup1\n      swap2\n      sub\n      swap1\n      revert\n    tag_216:\n        /* \"RPS.sol\":406:420  0.000001 ether */\n      0xe8d4a51000\n        /* \"RPS.sol\":1912:1917  token */\n      0x02\n      0x00\n      swap1\n      sload\n      swap1\n      0x0100\n      exp\n      swap1\n      div\n      0xffffffffffffffffffffffffffffffffffffffff\n      and\n        /* \"RPS.sol\":1912:1927  token.allowance */\n      0xffffffffffffffffffffffffffffffffffffffff\n      and\n      0xdd62ed3e\n        /* \"RPS.sol\":1928:1938  msg.sender */\n      caller\n        /* \"RPS.sol\":1948:1952  this */\n      address\n        /* \"RPS.sol\":1912:1954  token.allowance(msg.sender, address(this)) */\n      mload(0x40)\n      dup4\n      0xffffffff\n      and\n      0xe0\n      shl\n      dup2\n      mstore\n      0x04\n      add\n      tag_219\n      swap3\n      swap2\n      swap1\n      tag_97\n      jump\t// in\n    tag_219:\n      0x20\n      mload(0x40)\n      dup1\n      dup4\n      sub\n      dup2\n      dup7\n      gas\n      staticcall\n      iszero\n      dup1\n      iszero\n      tag_221\n      jumpi\n      returndatasize\n      0x00\n      dup1\n      returndatacopy\n      revert(0x00, returndatasize)\n    tag_221:\n      pop\n      pop\n      pop\n      pop\n      mload(0x40)\n      returndatasize\n      not(0x1f)\n      0x1f\n      dup3\n      add\n      and\n      dup3\n      add\n      dup1\n      0x40\n      mstore\n      pop\n      dup2\n      add\n      swap1\n      tag_222\n      swap2\n      swap1\n      tag_101\n      jump\t// in\n    tag_222:\n        /* \"RPS.sol\":1912:1973  token.allowance(msg.sender, address(this)) >= REQUIRED_AMOUNT */\n      lt\n      iszero\n        /* \"RPS.sol\":1890:2029  require(... */\n      tag_223\n      jumpi\n      mload(0x40)\n      0x08c379a000000000000000000000000000000000000000000000000000000000\n      dup2\n      mstore\n      0x04\n      add\n      tag_224\n      swap1\n      tag_104\n      jump\t// in\n    tag_224:\n      mload(0x40)\n      dup1\n      swap2\n      sub\n      swap1\n      revert\n    tag_223:\n        /* \"RPS.sol\":2050:2062  commitReveal */\n      0x01\n      0x00\n      swap1\n      sload\n      swap1\n      0x0100\n      exp\n      swap1\n      div\n      0xffffffffffffffffffffffffffffffffffffffff\n      and\n        /* \"RPS.sol\":2050:2069  commitReveal.commit */\n      0xffffffffffffffffffffffffffffffffffffffff\n      and\n      0x5a746101\n        /* \"RPS.sol\":2070:2074  hash */\n      dup3\n        /* \"RPS.sol\":2076:2086  msg.sender */\n      caller\n        /* \"RPS.sol\":2050:2087  commitReveal.commit(hash, msg.sender) */\n      mload(0x40)\n      dup4\n      0xffffffff\n      and\n      0xe0\n      shl\n      dup2\n      mstore\n      0x04\n      add\n      tag_225\n      swap3\n      swap2\n      swap1\n      tag_123\n      jump\t// in\n    tag_225:\n      0x00\n      mload(0x40)\n      dup1\n      dup4\n      sub\n      dup2\n      0x00\n      dup8\n      dup1\n      extcodesize\n      iszero\n      dup1\n      iszero\n      tag_226\n      jumpi\n      0x00\n      dup1\n      revert\n    tag_226:\n      pop\n      gas\n      call\n      iszero\n      dup1\n      iszero\n      tag_228\n      jumpi\n      returndatasize\n      0x00\n      dup1\n      returndatacopy\n      revert(0x00, returndatasize)\n    tag_228:\n      pop\n      pop\n      pop\n      pop\n        /* \"RPS.sol\":2112:2129  player_not_played */\n      0x07\n        /* \"RPS.sol\":2112:2141  player_not_played[msg.sender] */\n      0x00\n        /* \"RPS.sol\":2130:2140  msg.sender */\n      caller\n        /* \"RPS.sol\":2112:2141  player_not_played[msg.sender] */\n      0xffffffffffffffffffffffffffffffffffffffff\n      and\n      0xffffffffffffffffffffffffffffffffffffffff\n      and\n      dup2\n      mstore\n      0x20\n      add\n      swap1\n      dup2\n      mstore\n      0x20\n      add\n      0x00\n      keccak256\n      0x00\n      swap1\n      sload\n      swap1\n      0x0100\n      exp\n      swap1\n      div\n      0xff\n      and\n        /* \"RPS.sol\":2108:2232  if (player_not_played[msg.sender]) {... */\n      iszero\n      tag_229\n      jumpi\n        /* \"RPS.sol\":2158:2166  numInput */\n      0x09\n      0x00\n        /* \"RPS.sol\":2158:2168  numInput++ */\n      dup2\n      sload\n      dup1\n      swap3\n      swap2\n      swap1\n      tag_230\n      swap1\n      tag_107\n      jump\t// in\n    tag_230:\n      swap2\n      swap1\n      pop\n      sstore\n      pop\n        /* \"RPS.sol\":2215:2220  false */\n      0x00\n        /* \"RPS.sol\":2183:2200  player_not_played */\n      0x07\n        /* \"RPS.sol\":2183:2212  player_not_played[msg.sender] */\n      0x00\n        /* \"RPS.sol\":2201:2211  msg.sender */\n      caller\n        /* \"RPS.sol\":2183:2212  player_not_played[msg.sender] */\n      0xffffffffffffffffffffffffffffffffffffffff\n      and\n      0xffffffffffffffffffffffffffffffffffffffff\n      and\n      dup2\n      mstore\n      0x20\n      add\n      swap1\n      dup2\n      mstore\n      0x20\n      add\n      0x00\n      keccak256\n      0x00\n        /* \"RPS.sol\":2183:2220  player_not_played[msg.sender] = false */\n      0x0100\n      exp\n      dup2\n      sload\n      dup2\n      0xff\n      mul\n      not\n      and\n      swap1\n      dup4\n      iszero\n      iszero\n      mul\n      or\n      swap1\n      sstore\n      pop\n        /* \"RPS.sol\":2108:2232  if (player_not_played[msg.sender]) {... */\n    tag_229:\n        /* \"RPS.sol\":2340:2341  2 */\n      0x02\n        /* \"RPS.sol\":2328:2336  numInput */\n      sload(0x09)\n        /* \"RPS.sol\":2328:2341  numInput == 2 */\n      eq\n        /* \"RPS.sol\":2328:2359  numInput == 2 && !fundsCaptured */\n      dup1\n      iszero\n      tag_231\n      jumpi\n      pop\n        /* \"RPS.sol\":2346:2359  fundsCaptured */\n      0x0b\n      0x00\n      swap1\n      sload\n      swap1\n      0x0100\n      exp\n      swap1\n      div\n      0xff\n      and\n        /* \"RPS.sol\":2345:2359  !fundsCaptured */\n      iszero\n        /* \"RPS.sol\":2328:2359  numInput == 2 && !fundsCaptured */\n    tag_231:\n        /* \"RPS.sol\":2324:3008  if (numInput == 2 && !fundsCaptured) {... */\n      iszero\n      tag_232\n      jumpi\n        /* \"RPS.sol\":406:420  0.000001 ether */\n      0xe8d4a51000\n        /* \"RPS.sol\":2469:2474  token */\n      0x02\n      0x00\n      swap1\n      sload\n      swap1\n      0x0100\n      exp\n      swap1\n      div\n      0xffffffffffffffffffffffffffffffffffffffff\n      and\n        /* \"RPS.sol\":2469:2484  token.allowance */\n      0xffffffffffffffffffffffffffffffffffffffff\n      and\n      0xdd62ed3e\n        /* \"RPS.sol\":2485:2492  players */\n      0x08\n        /* \"RPS.sol\":2493:2494  0 */\n      0x00\n        /* \"RPS.sol\":2485:2495  players[0] */\n      dup2\n      sload\n      dup2\n      lt\n      tag_233\n      jumpi\n      tag_234\n      tag_91\n      jump\t// in\n    tag_234:\n    tag_233:\n      swap1\n      0x00\n      mstore\n      keccak256(0x00, 0x20)\n      add\n      0x00\n      swap1\n      sload\n      swap1\n      0x0100\n      exp\n      swap1\n      div\n      0xffffffffffffffffffffffffffffffffffffffff\n      and\n        /* \"RPS.sol\":2505:2509  this */\n      address\n        /* \"RPS.sol\":2469:2511  token.allowance(players[0], address(this)) */\n      mload(0x40)\n      dup4\n      0xffffffff\n      and\n      0xe0\n      shl\n      dup2\n      mstore\n      0x04\n      add\n      tag_236\n      swap3\n      swap2\n      swap1\n      tag_97\n      jump\t// in\n    tag_236:\n      0x20\n      mload(0x40)\n      dup1\n      dup4\n      sub\n      dup2\n      dup7\n      gas\n      staticcall\n      iszero\n      dup1\n      iszero\n      tag_238\n      jumpi\n      returndatasize\n      0x00\n      dup1\n      returndatacopy\n      revert(0x00, returndatasize)\n    tag_238:\n      pop\n      pop\n      pop\n      pop\n      mload(0x40)\n      returndatasize\n      not(0x1f)\n      0x1f\n      dup3\n      add\n      and\n      dup3\n      add\n      dup1\n      0x40\n      mstore\n      pop\n      dup2\n      add\n      swap1\n      tag_239\n      swap2\n      swap1\n      tag_101\n      jump\t// in\n    tag_239:\n        /* \"RPS.sol\":2469:2530  token.allowance(players[0], address(this)) >= REQUIRED_AMOUNT */\n      lt\n      iszero\n        /* \"RPS.sol\":2469:2612  token.allowance(players[0], address(this)) >= REQUIRED_AMOUNT &&... */\n      dup1\n      iszero\n      tag_240\n      jumpi\n      pop\n        /* \"RPS.sol\":406:420  0.000001 ether */\n      0xe8d4a51000\n        /* \"RPS.sol\":2551:2556  token */\n      0x02\n      0x00\n      swap1\n      sload\n      swap1\n      0x0100\n      exp\n      swap1\n      div\n      0xffffffffffffffffffffffffffffffffffffffff\n      and\n        /* \"RPS.sol\":2551:2566  token.allowance */\n      0xffffffffffffffffffffffffffffffffffffffff\n      and\n      0xdd62ed3e\n        /* \"RPS.sol\":2567:2574  players */\n      0x08\n        /* \"RPS.sol\":2575:2576  1 */\n      0x01\n        /* \"RPS.sol\":2567:2577  players[1] */\n      dup2\n      sload\n      dup2\n      lt\n      tag_241\n      jumpi\n      tag_242\n      tag_91\n      jump\t// in\n    tag_242:\n    tag_241:\n      swap1\n      0x00\n      mstore\n      keccak256(0x00, 0x20)\n      add\n      0x00\n      swap1\n      sload\n      swap1\n      0x0100\n      exp\n      swap1\n      div\n      0xffffffffffffffffffffffffffffffffffffffff\n      and\n        /* \"RPS.sol\":2587:2591  this */\n      address\n        /* \"RPS.sol\":2551:2593  token.allowance(players[1], address(this)) */\n      mload(0x40)\n      dup4\n      0xffffffff\n      and\n      0xe0\n      shl\n      dup2\n      mstore\n      0x04\n      add\n      tag_244\n      swap3\n      swap2\n      swap1\n      tag_97\n      jump\t// in\n    tag_244:\n      0x20\n      mload(0x40)\n      dup1\n      dup4\n      sub\n      dup2\n      dup7\n      gas\n      staticcall\n      iszero\n      dup1\n      iszero\n      tag_246\n      jumpi\n      returndatasize\n      0x00\n      dup1\n      returndatacopy\n      revert(0x00, returndatasize)\n    tag_246:\n      pop\n      pop\n      pop\n      pop\n      mload(0x40)\n      returndatasize\n      not(0x1f)\n      0x1f\n      dup3\n      add\n      and\n      dup3\n      add\n      dup1\n      0x40\n      mstore\n      pop\n      dup2\n      add\n      swap1\n      tag_247\n      swap2\n      swap1\n      tag_101\n      jump\t// in\n    tag_247:\n        /* \"RPS.sol\":2551:2612  token.allowance(players[1], address(this)) >= REQUIRED_AMOUNT */\n      lt\n      iszero\n        /* \"RPS.sol\":2469:2612  token.allowance(players[0], address(this)) >= REQUIRED_AMOUNT &&... */\n    tag_240:\n        /* \"RPS.sol\":2443:2676  require(... */\n      tag_248\n      jumpi\n      mload(0x40)\n      0x08c379a000000000000000000000000000000000000000000000000000000000\n      dup2\n      mstore\n      0x04\n      add\n      tag_249\n      swap1\n      tag_104\n      jump\t// in\n    tag_249:\n      mload(0x40)\n      dup1\n      swap2\n      sub\n      swap1\n      revert\n    tag_248:\n        /* \"RPS.sol\":2767:2835  _safeTransferFrom(token, players[0], address(this), REQUIRED_AMOUNT) */\n      tag_250\n        /* \"RPS.sol\":2785:2790  token */\n      0x02\n      0x00\n      swap1\n      sload\n      swap1\n      0x0100\n      exp\n      swap1\n      div\n      0xffffffffffffffffffffffffffffffffffffffff\n      and\n        /* \"RPS.sol\":2792:2799  players */\n      0x08\n        /* \"RPS.sol\":2800:2801  0 */\n      0x00\n        /* \"RPS.sol\":2792:2802  players[0] */\n      dup2\n      sload\n      dup2\n      lt\n      tag_251\n      jumpi\n      tag_252\n      tag_91\n      jump\t// in\n    tag_252:\n    tag_251:\n      swap1\n      0x00\n      mstore\n      keccak256(0x00, 0x20)\n      add\n      0x00\n      swap1\n      sload\n      swap1\n      0x0100\n      exp\n      swap1\n      div\n      0xffffffffffffffffffffffffffffffffffffffff\n      and\n        /* \"RPS.sol\":2812:2816  this */\n      address\n        /* \"RPS.sol\":406:420  0.000001 ether */\n      0xe8d4a51000\n        /* \"RPS.sol\":2767:2784  _safeTransferFrom */\n      tag_254\n        /* \"RPS.sol\":2767:2835  _safeTransferFrom(token, players[0], address(this), REQUIRED_AMOUNT) */\n      jump\t// in\n    tag_250:\n        /* \"RPS.sol\":2850:2918  _safeTransferFrom(token, players[1], address(this), REQUIRED_AMOUNT) */\n      tag_255\n        /* \"RPS.sol\":2868:2873  token */\n      0x02\n      0x00\n      swap1\n      sload\n      swap1\n      0x0100\n      exp\n      swap1\n      div\n      0xffffffffffffffffffffffffffffffffffffffff\n      and\n        /* \"RPS.sol\":2875:2882  players */\n      0x08\n        /* \"RPS.sol\":2883:2884  1 */\n      0x01\n        /* \"RPS.sol\":2875:2885  players[1] */\n      dup2\n      sload\n      dup2\n      lt\n      tag_256\n      jumpi\n      tag_257\n      tag_91\n      jump\t// in\n    tag_257:\n    tag_256:\n      swap1\n      0x00\n      mstore\n      keccak256(0x00, 0x20)\n      add\n      0x00\n      swap1\n      sload\n      swap1\n      0x0100\n      exp\n      swap1\n      div\n      0xffffffffffffffffffffffffffffffffffffffff\n      and\n        /* \"RPS.sol\":2895:2899  this */\n      address\n        /* \"RPS.sol\":406:420  0.000001 ether */\n      0xe8d4a51000\n        /* \"RPS.sol\":2850:2867  _safeTransferFrom */\n      tag_254\n        /* \"RPS.sol\":2850:2918  _safeTransferFrom(token, players[1], address(this), REQUIRED_AMOUNT) */\n      jump\t// in\n    tag_255:\n        /* \"RPS.sol\":2960:2961  2 */\n      0x02\n        /* \"RPS.sol\":406:420  0.000001 ether */\n      0xe8d4a51000\n        /* \"RPS.sol\":2942:2961  REQUIRED_AMOUNT * 2 */\n      tag_259\n      swap2\n      swap1\n      tag_260\n      jump\t// in\n    tag_259:\n        /* \"RPS.sol\":2933:2939  reward */\n      0x04\n        /* \"RPS.sol\":2933:2961  reward = REQUIRED_AMOUNT * 2 */\n      dup2\n      swap1\n      sstore\n      pop\n        /* \"RPS.sol\":2992:2996  true */\n      0x01\n        /* \"RPS.sol\":2976:2989  fundsCaptured */\n      0x0b\n      0x00\n        /* \"RPS.sol\":2976:2996  fundsCaptured = true */\n      0x0100\n      exp\n      dup2\n      sload\n      dup2\n      0xff\n      mul\n      not\n      and\n      swap1\n      dup4\n      iszero\n      iszero\n      mul\n      or\n      swap1\n      sstore\n      pop\n        /* \"RPS.sol\":2324:3008  if (numInput == 2 && !fundsCaptured) {... */\n    tag_232:\n        /* \"RPS.sol\":1624:3015  function commit(bytes32 hash) public {... */\n      pop\n      jump\t// out\n        /* \"RPS.sol\":602:626  address[] public players */\n    tag_77:\n      0x08\n      dup2\n      dup2\n      sload\n      dup2\n      lt\n      tag_261\n      jumpi\n      0x00\n      dup1\n      revert\n    tag_261:\n      swap1\n      0x00\n      mstore\n      keccak256(0x00, 0x20)\n      add\n      0x00\n      swap2\n      pop\n      sload\n      swap1\n      0x0100\n      exp\n      swap1\n      div\n      0xffffffffffffffffffffffffffffffffffffffff\n      and\n      dup2\n      jump\t// out\n        /* \"RPS.sol\":246:265  IERC20 public token */\n    tag_81:\n      0x02\n      0x00\n      swap1\n      sload\n      swap1\n      0x0100\n      exp\n      swap1\n      div\n      0xffffffffffffffffffffffffffffffffffffffff\n      and\n      dup2\n      jump\t// out\n        /* \"RPS.sol\":3613:4526  function _checkWinnerAndPay() private {... */\n    tag_136:\n        /* \"RPS.sol\":3662:3675  uint p0Choice */\n      0x00\n        /* \"RPS.sol\":3678:3691  player_choice */\n      0x06\n        /* \"RPS.sol\":3678:3703  player_choice[players[0]] */\n      0x00\n        /* \"RPS.sol\":3692:3699  players */\n      0x08\n        /* \"RPS.sol\":3700:3701  0 */\n      0x00\n        /* \"RPS.sol\":3692:3702  players[0] */\n      dup2\n      sload\n      dup2\n      lt\n      tag_264\n      jumpi\n      tag_265\n      tag_91\n      jump\t// in\n    tag_265:\n    tag_264:\n      swap1\n      0x00\n      mstore\n      keccak256(0x00, 0x20)\n      add\n      0x00\n      swap1\n      sload\n      swap1\n      0x0100\n      exp\n      swap1\n      div\n      0xffffffffffffffffffffffffffffffffffffffff\n      and\n        /* \"RPS.sol\":3678:3703  player_choice[players[0]] */\n      0xffffffffffffffffffffffffffffffffffffffff\n      and\n      0xffffffffffffffffffffffffffffffffffffffff\n      and\n      dup2\n      mstore\n      0x20\n      add\n      swap1\n      dup2\n      mstore\n      0x20\n      add\n      0x00\n      keccak256\n      sload\n        /* \"RPS.sol\":3662:3703  uint p0Choice = player_choice[players[0]] */\n      swap1\n      pop\n        /* \"RPS.sol\":3714:3727  uint p1Choice */\n      0x00\n        /* \"RPS.sol\":3730:3743  player_choice */\n      0x06\n        /* \"RPS.sol\":3730:3755  player_choice[players[1]] */\n      0x00\n        /* \"RPS.sol\":3744:3751  players */\n      0x08\n        /* \"RPS.sol\":3752:3753  1 */\n      0x01\n        /* \"RPS.sol\":3744:3754  players[1] */\n      dup2\n      sload\n      dup2\n      lt\n      tag_267\n      jumpi\n      tag_268\n      tag_91\n      jump\t// in\n    tag_268:\n    tag_267:\n      swap1\n      0x00\n      mstore\n      keccak256(0x00, 0x20)\n      add\n      0x00\n      swap1\n      sload\n      swap1\n      0x0100\n      exp\n      swap1\n      div\n      0xffffffffffffffffffffffffffffffffffffffff\n      and\n        /* \"RPS.sol\":3730:3755  player_choice[players[1]] */\n      0xffffffffffffffffffffffffffffffffffffffff\n      and\n      0xffffffffffffffffffffffffffffffffffffffff\n      and\n      dup2\n      mstore\n      0x20\n      add\n      swap1\n      dup2\n      mstore\n      0x20\n      add\n      0x00\n      keccak256\n      sload\n        /* \"RPS.sol\":3714:3755  uint p1Choice = player_choice[players[1]] */\n      swap1\n      pop\n        /* \"RPS.sol\":3802:3810  p1Choice */\n      dup1\n        /* \"RPS.sol\":3797:3798  3 */\n      0x03\n        /* \"RPS.sol\":3792:3793  1 */\n      0x01\n        /* \"RPS.sol\":3781:3789  p0Choice */\n      dup5\n        /* \"RPS.sol\":3781:3793  p0Choice + 1 */\n      tag_270\n      swap2\n      swap1\n      tag_271\n      jump\t// in\n    tag_270:\n        /* \"RPS.sol\":3780:3798  (p0Choice + 1) % 3 */\n      tag_272\n      swap2\n      swap1\n      tag_273\n      jump\t// in\n    tag_272:\n        /* \"RPS.sol\":3780:3810  (p0Choice + 1) % 3 == p1Choice */\n      eq\n        /* \"RPS.sol\":3780:3844  (p0Choice + 1) % 3 == p1Choice || (p0Choice + 3) % 5 == p1Choice */\n      dup1\n      tag_274\n      jumpi\n      pop\n        /* \"RPS.sol\":3836:3844  p1Choice */\n      dup1\n        /* \"RPS.sol\":3831:3832  5 */\n      0x05\n        /* \"RPS.sol\":3826:3827  3 */\n      0x03\n        /* \"RPS.sol\":3815:3823  p0Choice */\n      dup5\n        /* \"RPS.sol\":3815:3827  p0Choice + 3 */\n      tag_275\n      swap2\n      swap1\n      tag_271\n      jump\t// in\n    tag_275:\n        /* \"RPS.sol\":3814:3832  (p0Choice + 3) % 5 */\n      tag_276\n      swap2\n      swap1\n      tag_273\n      jump\t// in\n    tag_276:\n        /* \"RPS.sol\":3814:3844  (p0Choice + 3) % 5 == p1Choice */\n      eq\n        /* \"RPS.sol\":3780:3844  (p0Choice + 1) % 3 == p1Choice || (p0Choice + 3) % 5 == p1Choice */\n    tag_274:\n        /* \"RPS.sol\":3776:4501  if ((p0Choice + 1) % 3 == p1Choice || (p0Choice + 3) % 5 == p1Choice) {... */\n      iszero\n      tag_277\n      jumpi\n        /* \"RPS.sol\":3891:3900  bool sent */\n      0x00\n        /* \"RPS.sol\":3903:3908  token */\n      0x02\n      0x00\n      swap1\n      sload\n      swap1\n      0x0100\n      exp\n      swap1\n      div\n      0xffffffffffffffffffffffffffffffffffffffff\n      and\n        /* \"RPS.sol\":3903:3917  token.transfer */\n      0xffffffffffffffffffffffffffffffffffffffff\n      and\n      0xa9059cbb\n        /* \"RPS.sol\":3918:3925  players */\n      0x08\n        /* \"RPS.sol\":3926:3927  0 */\n      0x00\n        /* \"RPS.sol\":3918:3928  players[0] */\n      dup2\n      sload\n      dup2\n      lt\n      tag_278\n      jumpi\n      tag_279\n      tag_91\n      jump\t// in\n    tag_279:\n    tag_278:\n      swap1\n      0x00\n      mstore\n      keccak256(0x00, 0x20)\n      add\n      0x00\n      swap1\n      sload\n      swap1\n      0x0100\n      exp\n      swap1\n      div\n      0xffffffffffffffffffffffffffffffffffffffff\n      and\n        /* \"RPS.sol\":3930:3936  reward */\n      sload(0x04)\n        /* \"RPS.sol\":3903:3937  token.transfer(players[0], reward) */\n      mload(0x40)\n      dup4\n      0xffffffff\n      and\n      0xe0\n      shl\n      dup2\n      mstore\n      0x04\n      add\n      tag_281\n      swap3\n      swap2\n      swap1\n      tag_153\n      jump\t// in\n    tag_281:\n      0x20\n      mload(0x40)\n      dup1\n      dup4\n      sub\n      dup2\n      0x00\n      dup8\n      gas\n      call\n      iszero\n      dup1\n      iszero\n      tag_283\n      jumpi\n      returndatasize\n      0x00\n      dup1\n      returndatacopy\n      revert(0x00, returndatasize)\n    tag_283:\n      pop\n      pop\n      pop\n      pop\n      mload(0x40)\n      returndatasize\n      not(0x1f)\n      0x1f\n      dup3\n      add\n      and\n      dup3\n      add\n      dup1\n      0x40\n      mstore\n      pop\n      dup2\n      add\n      swap1\n      tag_284\n      swap2\n      swap1\n      tag_157\n      jump\t// in\n    tag_284:\n        /* \"RPS.sol\":3891:3937  bool sent = token.transfer(players[0], reward) */\n      swap1\n      pop\n        /* \"RPS.sol\":3960:3964  sent */\n      dup1\n        /* \"RPS.sol\":3952:3990  require(sent, \"Token transfer failed\") */\n      tag_285\n      jumpi\n      mload(0x40)\n      0x08c379a000000000000000000000000000000000000000000000000000000000\n      dup2\n      mstore\n      0x04\n      add\n      tag_286\n      swap1\n      tag_160\n      jump\t// in\n    tag_286:\n      mload(0x40)\n      dup1\n      swap2\n      sub\n      swap1\n      revert\n    tag_285:\n        /* \"RPS.sol\":3846:4002  {... */\n      pop\n        /* \"RPS.sol\":3776:4501  if ((p0Choice + 1) % 3 == p1Choice || (p0Choice + 3) % 5 == p1Choice) {... */\n      jump(tag_287)\n    tag_277:\n        /* \"RPS.sol\":4043:4051  p0Choice */\n      dup2\n        /* \"RPS.sol\":4038:4039  3 */\n      0x03\n        /* \"RPS.sol\":4033:4034  1 */\n      0x01\n        /* \"RPS.sol\":4022:4030  p1Choice */\n      dup4\n        /* \"RPS.sol\":4022:4034  p1Choice + 1 */\n      tag_288\n      swap2\n      swap1\n      tag_271\n      jump\t// in\n    tag_288:\n        /* \"RPS.sol\":4021:4039  (p1Choice + 1) % 3 */\n      tag_289\n      swap2\n      swap1\n      tag_273\n      jump\t// in\n    tag_289:\n        /* \"RPS.sol\":4021:4051  (p1Choice + 1) % 3 == p0Choice */\n      eq\n        /* \"RPS.sol\":4021:4085  (p1Choice + 1) % 3 == p0Choice || (p1Choice + 3) % 5 == p0Choice */\n      dup1\n      tag_290\n      jumpi\n      pop\n        /* \"RPS.sol\":4077:4085  p0Choice */\n      dup2\n        /* \"RPS.sol\":4072:4073  5 */\n      0x05\n        /* \"RPS.sol\":4067:4068  3 */\n      0x03\n        /* \"RPS.sol\":4056:4064  p1Choice */\n      dup4\n        /* \"RPS.sol\":4056:4068  p1Choice + 3 */\n      tag_291\n      swap2\n      swap1\n      tag_271\n      jump\t// in\n    tag_291:\n        /* \"RPS.sol\":4055:4073  (p1Choice + 3) % 5 */\n      tag_292\n      swap2\n      swap1\n      tag_273\n      jump\t// in\n    tag_292:\n        /* \"RPS.sol\":4055:4085  (p1Choice + 3) % 5 == p0Choice */\n      eq\n        /* \"RPS.sol\":4021:4085  (p1Choice + 1) % 3 == p0Choice || (p1Choice + 3) % 5 == p0Choice */\n    tag_290:\n        /* \"RPS.sol\":4017:4501  if ((p1Choice + 1) % 3 == p0Choice || (p1Choice + 3) % 5 == p0Choice) {... */\n      iszero\n      tag_293\n      jumpi\n        /* \"RPS.sol\":4132:4141  bool sent */\n      0x00\n        /* \"RPS.sol\":4144:4149  token */\n      0x02\n      0x00\n      swap1\n      sload\n      swap1\n      0x0100\n      exp\n      swap1\n      div\n      0xffffffffffffffffffffffffffffffffffffffff\n      and\n        /* \"RPS.sol\":4144:4158  token.transfer */\n      0xffffffffffffffffffffffffffffffffffffffff\n      and\n      0xa9059cbb\n        /* \"RPS.sol\":4159:4166  players */\n      0x08\n        /* \"RPS.sol\":4167:4168  1 */\n      0x01\n        /* \"RPS.sol\":4159:4169  players[1] */\n      dup2\n      sload\n      dup2\n      lt\n      tag_294\n      jumpi\n      tag_295\n      tag_91\n      jump\t// in\n    tag_295:\n    tag_294:\n      swap1\n      0x00\n      mstore\n      keccak256(0x00, 0x20)\n      add\n      0x00\n      swap1\n      sload\n      swap1\n      0x0100\n      exp\n      swap1\n      div\n      0xffffffffffffffffffffffffffffffffffffffff\n      and\n        /* \"RPS.sol\":4171:4177  reward */\n      sload(0x04)\n        /* \"RPS.sol\":4144:4178  token.transfer(players[1], reward) */\n      mload(0x40)\n      dup4\n      0xffffffff\n      and\n      0xe0\n      shl\n      dup2\n      mstore\n      0x04\n      add\n      tag_297\n      swap3\n      swap2\n      swap1\n      tag_153\n      jump\t// in\n    tag_297:\n      0x20\n      mload(0x40)\n      dup1\n      dup4\n      sub\n      dup2\n      0x00\n      dup8\n      gas\n      call\n      iszero\n      dup1\n      iszero\n      tag_299\n      jumpi\n      returndatasize\n      0x00\n      dup1\n      returndatacopy\n      revert(0x00, returndatasize)\n    tag_299:\n      pop\n      pop\n      pop\n      pop\n      mload(0x40)\n      returndatasize\n      not(0x1f)\n      0x1f\n      dup3\n      add\n      and\n      dup3\n      add\n      dup1\n      0x40\n      mstore\n      pop\n      dup2\n      add\n      swap1\n      tag_300\n      swap2\n      swap1\n      tag_157\n      jump\t// in\n    tag_300:\n        /* \"RPS.sol\":4132:4178  bool sent = token.transfer(players[1], reward) */\n      swap1\n      pop\n        /* \"RPS.sol\":4201:4205  sent */\n      dup1\n        /* \"RPS.sol\":4193:4231  require(sent, \"Token transfer failed\") */\n      tag_301\n      jumpi\n      mload(0x40)\n      0x08c379a000000000000000000000000000000000000000000000000000000000\n      dup2\n      mstore\n      0x04\n      add\n      tag_302\n      swap1\n      tag_160\n      jump\t// in\n    tag_302:\n      mload(0x40)\n      dup1\n      swap2\n      sub\n      swap1\n      revert\n    tag_301:\n        /* \"RPS.sol\":4087:4243  {... */\n      pop\n        /* \"RPS.sol\":4017:4501  if ((p1Choice + 1) % 3 == p0Choice || (p1Choice + 3) % 5 == p0Choice) {... */\n      jump(tag_303)\n    tag_293:\n        /* \"RPS.sol\":4309:4319  bool sent1 */\n      0x00\n        /* \"RPS.sol\":4322:4327  token */\n      0x02\n      0x00\n      swap1\n      sload\n      swap1\n      0x0100\n      exp\n      swap1\n      div\n      0xffffffffffffffffffffffffffffffffffffffff\n      and\n        /* \"RPS.sol\":4322:4336  token.transfer */\n      0xffffffffffffffffffffffffffffffffffffffff\n      and\n      0xa9059cbb\n        /* \"RPS.sol\":4337:4344  players */\n      0x08\n        /* \"RPS.sol\":4345:4346  0 */\n      0x00\n        /* \"RPS.sol\":4337:4347  players[0] */\n      dup2\n      sload\n      dup2\n      lt\n      tag_304\n      jumpi\n      tag_305\n      tag_91\n      jump\t// in\n    tag_305:\n    tag_304:\n      swap1\n      0x00\n      mstore\n      keccak256(0x00, 0x20)\n      add\n      0x00\n      swap1\n      sload\n      swap1\n      0x0100\n      exp\n      swap1\n      div\n      0xffffffffffffffffffffffffffffffffffffffff\n      and\n        /* \"RPS.sol\":4358:4359  2 */\n      0x02\n        /* \"RPS.sol\":4349:4355  reward */\n      sload(0x04)\n        /* \"RPS.sol\":4349:4359  reward / 2 */\n      tag_307\n      swap2\n      swap1\n      tag_308\n      jump\t// in\n    tag_307:\n        /* \"RPS.sol\":4322:4360  token.transfer(players[0], reward / 2) */\n      mload(0x40)\n      dup4\n      0xffffffff\n      and\n      0xe0\n      shl\n      dup2\n      mstore\n      0x04\n      add\n      tag_309\n      swap3\n      swap2\n      swap1\n      tag_153\n      jump\t// in\n    tag_309:\n      0x20\n      mload(0x40)\n      dup1\n      dup4\n      sub\n      dup2\n      0x00\n      dup8\n      gas\n      call\n      iszero\n      dup1\n      iszero\n      tag_311\n      jumpi\n      returndatasize\n      0x00\n      dup1\n      returndatacopy\n      revert(0x00, returndatasize)\n    tag_311:\n      pop\n      pop\n      pop\n      pop\n      mload(0x40)\n      returndatasize\n      not(0x1f)\n      0x1f\n      dup3\n      add\n      and\n      dup3\n      add\n      dup1\n      0x40\n      mstore\n      pop\n      dup2\n      add\n      swap1\n      tag_312\n      swap2\n      swap1\n      tag_157\n      jump\t// in\n    tag_312:\n        /* \"RPS.sol\":4309:4360  bool sent1 = token.transfer(players[0], reward / 2) */\n      swap1\n      pop\n        /* \"RPS.sol\":4375:4385  bool sent2 */\n      0x00\n        /* \"RPS.sol\":4388:4393  token */\n      0x02\n      0x00\n      swap1\n      sload\n      swap1\n      0x0100\n      exp\n      swap1\n      div\n      0xffffffffffffffffffffffffffffffffffffffff\n      and\n        /* \"RPS.sol\":4388:4402  token.transfer */\n      0xffffffffffffffffffffffffffffffffffffffff\n      and\n      0xa9059cbb\n        /* \"RPS.sol\":4403:4410  players */\n      0x08\n        /* \"RPS.sol\":4411:4412  1 */\n      0x01\n        /* \"RPS.sol\":4403:4413  players[1] */\n      dup2\n      sload\n      dup2\n      lt\n      tag_313\n      jumpi\n      tag_314\n      tag_91\n      jump\t// in\n    tag_314:\n    tag_313:\n      swap1\n      0x00\n      mstore\n      keccak256(0x00, 0x20)\n      add\n      0x00\n      swap1\n      sload\n      swap1\n      0x0100\n      exp\n      swap1\n      div\n      0xffffffffffffffffffffffffffffffffffffffff\n      and\n        /* \"RPS.sol\":4424:4425  2 */\n      0x02\n        /* \"RPS.sol\":4415:4421  reward */\n      sload(0x04)\n        /* \"RPS.sol\":4415:4425  reward / 2 */\n      tag_316\n      swap2\n      swap1\n      tag_308\n      jump\t// in\n    tag_316:\n        /* \"RPS.sol\":4388:4426  token.transfer(players[1], reward / 2) */\n      mload(0x40)\n      dup4\n      0xffffffff\n      and\n      0xe0\n      shl\n      dup2\n      mstore\n      0x04\n      add\n      tag_317\n      swap3\n      swap2\n      swap1\n      tag_153\n      jump\t// in\n    tag_317:\n      0x20\n      mload(0x40)\n      dup1\n      dup4\n      sub\n      dup2\n      0x00\n      dup8\n      gas\n      call\n      iszero\n      dup1\n      iszero\n      tag_319\n      jumpi\n      returndatasize\n      0x00\n      dup1\n      returndatacopy\n      revert(0x00, returndatasize)\n    tag_319:\n      pop\n      pop\n      pop\n      pop\n      mload(0x40)\n      returndatasize\n      not(0x1f)\n      0x1f\n      dup3\n      add\n      and\n      dup3\n      add\n      dup1\n      0x40\n      mstore\n      pop\n      dup2\n      add\n      swap1\n      tag_320\n      swap2\n      swap1\n      tag_157\n      jump\t// in\n    tag_320:\n        /* \"RPS.sol\":4375:4426  bool sent2 = token.transfer(players[1], reward / 2) */\n      swap1\n      pop\n        /* \"RPS.sol\":4449:4454  sent1 */\n      dup2\n        /* \"RPS.sol\":4449:4463  sent1 && sent2 */\n      dup1\n      iszero\n      tag_321\n      jumpi\n      pop\n        /* \"RPS.sol\":4458:4463  sent2 */\n      dup1\n        /* \"RPS.sol\":4449:4463  sent1 && sent2 */\n    tag_321:\n        /* \"RPS.sol\":4441:4489  require(sent1 && sent2, \"Token transfer failed\") */\n      tag_322\n      jumpi\n      mload(0x40)\n      0x08c379a000000000000000000000000000000000000000000000000000000000\n      dup2\n      mstore\n      0x04\n      add\n      tag_323\n      swap1\n      tag_160\n      jump\t// in\n    tag_323:\n      mload(0x40)\n      dup1\n      swap2\n      sub\n      swap1\n      revert\n    tag_322:\n        /* \"RPS.sol\":4258:4501  {... */\n      pop\n      pop\n        /* \"RPS.sol\":4017:4501  if ((p1Choice + 1) % 3 == p0Choice || (p1Choice + 3) % 5 == p0Choice) {... */\n    tag_303:\n        /* \"RPS.sol\":3776:4501  if ((p0Choice + 1) % 3 == p1Choice || (p0Choice + 3) % 5 == p1Choice) {... */\n    tag_287:\n        /* \"RPS.sol\":4511:4518  reset() */\n      tag_324\n        /* \"RPS.sol\":4511:4516  reset */\n      tag_212\n        /* \"RPS.sol\":4511:4518  reset() */\n      jump\t// in\n    tag_324:\n        /* \"RPS.sol\":3651:4526  {... */\n      pop\n      pop\n        /* \"RPS.sol\":3613:4526  function _checkWinnerAndPay() private {... */\n      jump\t// out\n        /* \"RPS.sol\":5792:6136  function reset() private {... */\n    tag_212:\n        /* \"RPS.sol\":5837:5838  0 */\n      0x00\n        /* \"RPS.sol\":5828:5834  reward */\n      0x04\n        /* \"RPS.sol\":5828:5838  reward = 0 */\n      dup2\n      swap1\n      sstore\n      pop\n        /* \"RPS.sol\":5865:5870  false */\n      0x00\n        /* \"RPS.sol\":5849:5862  fundsCaptured */\n      0x0b\n      0x00\n        /* \"RPS.sol\":5849:5870  fundsCaptured = false */\n      0x0100\n      exp\n      dup2\n      sload\n      dup2\n      0xff\n      mul\n      not\n      and\n      swap1\n      dup4\n      iszero\n      iszero\n      mul\n      or\n      swap1\n      sstore\n      pop\n        /* \"RPS.sol\":5886:5892  uint i */\n      0x00\n        /* \"RPS.sol\":5881:6033  for (uint i = 0; i < players.length; i++) {... */\n    tag_326:\n        /* \"RPS.sol\":5902:5909  players */\n      0x08\n        /* \"RPS.sol\":5902:5916  players.length */\n      dup1\n      sload\n      swap1\n      pop\n        /* \"RPS.sol\":5898:5899  i */\n      dup2\n        /* \"RPS.sol\":5898:5916  i < players.length */\n      lt\n        /* \"RPS.sol\":5881:6033  for (uint i = 0; i < players.length; i++) {... */\n      iszero\n      tag_327\n      jumpi\n        /* \"RPS.sol\":5945:5958  player_choice */\n      0x06\n        /* \"RPS.sol\":5945:5970  player_choice[players[i]] */\n      0x00\n        /* \"RPS.sol\":5959:5966  players */\n      0x08\n        /* \"RPS.sol\":5967:5968  i */\n      dup4\n        /* \"RPS.sol\":5959:5969  players[i] */\n      dup2\n      sload\n      dup2\n      lt\n      tag_329\n      jumpi\n      tag_330\n      tag_91\n      jump\t// in\n    tag_330:\n    tag_329:\n      swap1\n      0x00\n      mstore\n      keccak256(0x00, 0x20)\n      add\n      0x00\n      swap1\n      sload\n      swap1\n      0x0100\n      exp\n      swap1\n      div\n      0xffffffffffffffffffffffffffffffffffffffff\n      and\n        /* \"RPS.sol\":5945:5970  player_choice[players[i]] */\n      0xffffffffffffffffffffffffffffffffffffffff\n      and\n      0xffffffffffffffffffffffffffffffffffffffff\n      and\n      dup2\n      mstore\n      0x20\n      add\n      swap1\n      dup2\n      mstore\n      0x20\n      add\n      0x00\n      keccak256\n        /* \"RPS.sol\":5938:5970  delete player_choice[players[i]] */\n      0x00\n      swap1\n      sstore\n        /* \"RPS.sol\":5992:6009  player_not_played */\n      0x07\n        /* \"RPS.sol\":5992:6021  player_not_played[players[i]] */\n      0x00\n        /* \"RPS.sol\":6010:6017  players */\n      0x08\n        /* \"RPS.sol\":6018:6019  i */\n      dup4\n        /* \"RPS.sol\":6010:6020  players[i] */\n      dup2\n      sload\n      dup2\n      lt\n      tag_332\n      jumpi\n      tag_333\n      tag_91\n      jump\t// in\n    tag_333:\n    tag_332:\n      swap1\n      0x00\n      mstore\n      keccak256(0x00, 0x20)\n      add\n      0x00\n      swap1\n      sload\n      swap1\n      0x0100\n      exp\n      swap1\n      div\n      0xffffffffffffffffffffffffffffffffffffffff\n      and\n        /* \"RPS.sol\":5992:6021  player_not_played[players[i]] */\n      0xffffffffffffffffffffffffffffffffffffffff\n      and\n      0xffffffffffffffffffffffffffffffffffffffff\n      and\n      dup2\n      mstore\n      0x20\n      add\n      swap1\n      dup2\n      mstore\n      0x20\n      add\n      0x00\n      keccak256\n      0x00\n        /* \"RPS.sol\":5985:6021  delete player_not_played[players[i]] */\n      0x0100\n      exp\n      dup2\n      sload\n      swap1\n      0xff\n      mul\n      not\n      and\n      swap1\n      sstore\n        /* \"RPS.sol\":5918:5921  i++ */\n      dup1\n      dup1\n      0x01\n      add\n      swap2\n      pop\n      pop\n        /* \"RPS.sol\":5881:6033  for (uint i = 0; i < players.length; i++) {... */\n      jump(tag_326)\n    tag_327:\n      pop\n        /* \"RPS.sol\":6050:6057  players */\n      0x08\n      0x00\n        /* \"RPS.sol\":6043:6057  delete players */\n      tag_335\n      swap2\n      swap1\n      tag_336\n      jump\t// in\n    tag_335:\n        /* \"RPS.sol\":6080:6081  0 */\n      0x00\n        /* \"RPS.sol\":6068:6077  numPlayer */\n      0x03\n        /* \"RPS.sol\":6068:6081  numPlayer = 0 */\n      dup2\n      swap1\n      sstore\n      pop\n        /* \"RPS.sol\":6103:6104  0 */\n      0x00\n        /* \"RPS.sol\":6092:6100  numInput */\n      0x09\n        /* \"RPS.sol\":6092:6104  numInput = 0 */\n      dup2\n      swap1\n      sstore\n      pop\n        /* \"RPS.sol\":6127:6128  0 */\n      0x00\n        /* \"RPS.sol\":6115:6124  numReveal */\n      0x05\n        /* \"RPS.sol\":6115:6128  numReveal = 0 */\n      dup2\n      swap1\n      sstore\n      pop\n        /* \"RPS.sol\":5792:6136  function reset() private {... */\n      jump\t// out\n        /* \"RPS.sol\":6144:6424  function _safeTransferFrom(... */\n    tag_254:\n        /* \"RPS.sol\":6304:6313  bool sent */\n      0x00\n        /* \"RPS.sol\":6316:6327  ierc20Token */\n      dup5\n        /* \"RPS.sol\":6316:6340  ierc20Token.transferFrom */\n      0xffffffffffffffffffffffffffffffffffffffff\n      and\n      0x23b872dd\n        /* \"RPS.sol\":6341:6347  sender */\n      dup6\n        /* \"RPS.sol\":6349:6358  recipient */\n      dup6\n        /* \"RPS.sol\":6360:6366  amount */\n      dup6\n        /* \"RPS.sol\":6316:6367  ierc20Token.transferFrom(sender, recipient, amount) */\n      mload(0x40)\n      dup5\n      0xffffffff\n      and\n      0xe0\n      shl\n      dup2\n      mstore\n      0x04\n      add\n      tag_338\n      swap4\n      swap3\n      swap2\n      swap1\n      tag_339\n      jump\t// in\n    tag_338:\n      0x20\n      mload(0x40)\n      dup1\n      dup4\n      sub\n      dup2\n      0x00\n      dup8\n      gas\n      call\n      iszero\n      dup1\n      iszero\n      tag_341\n      jumpi\n      returndatasize\n      0x00\n      dup1\n      returndatacopy\n      revert(0x00, returndatasize)\n    tag_341:\n      pop\n      pop\n      pop\n      pop\n      mload(0x40)\n      returndatasize\n      not(0x1f)\n      0x1f\n      dup3\n      add\n      and\n      dup3\n      add\n      dup1\n      0x40\n      mstore\n      pop\n      dup2\n      add\n      swap1\n      tag_342\n      swap2\n      swap1\n      tag_157\n      jump\t// in\n    tag_342:\n        /* \"RPS.sol\":6304:6367  bool sent = ierc20Token.transferFrom(sender, recipient, amount) */\n      swap1\n      pop\n        /* \"RPS.sol\":6386:6390  sent */\n      dup1\n        /* \"RPS.sol\":6378:6416  require(sent, \"Token transfer failed\") */\n      tag_343\n      jumpi\n      mload(0x40)\n      0x08c379a000000000000000000000000000000000000000000000000000000000\n      dup2\n      mstore\n      0x04\n      add\n      tag_344\n      swap1\n      tag_160\n      jump\t// in\n    tag_344:\n      mload(0x40)\n      dup1\n      swap2\n      sub\n      swap1\n      revert\n    tag_343:\n        /* \"RPS.sol\":6293:6424  {... */\n      pop\n        /* \"RPS.sol\":6144:6424  function _safeTransferFrom(... */\n      pop\n      pop\n      pop\n      pop\n      jump\t// out\n    tag_336:\n      pop\n      dup1\n      sload\n      0x00\n      dup3\n      sstore\n      swap1\n      0x00\n      mstore\n      keccak256(0x00, 0x20)\n      swap1\n      dup2\n      add\n      swap1\n      tag_346\n      swap2\n      swap1\n      tag_347\n      jump\t// in\n    tag_346:\n      pop\n      jump\t// out\n    tag_347:\n    tag_348:\n      dup1\n      dup3\n      gt\n      iszero\n      tag_349\n      jumpi\n      0x00\n      dup2\n      0x00\n      swap1\n      sstore\n      pop\n      0x01\n      add\n      jump(tag_348)\n    tag_349:\n      pop\n      swap1\n      jump\t// out\n        /* \"#utility.yul\":7:84   */\n    tag_350:\n        /* \"#utility.yul\":44:51   */\n      0x00\n        /* \"#utility.yul\":73:78   */\n      dup2\n        /* \"#utility.yul\":62:78   */\n      swap1\n      pop\n        /* \"#utility.yul\":7:84   */\n      swap2\n      swap1\n      pop\n      jump\t// out\n        /* \"#utility.yul\":90:208   */\n    tag_351:\n        /* \"#utility.yul\":177:201   */\n      tag_416\n        /* \"#utility.yul\":195:200   */\n      dup2\n        /* \"#utility.yul\":177:201   */\n      tag_350\n      jump\t// in\n    tag_416:\n        /* \"#utility.yul\":172:175   */\n      dup3\n        /* \"#utility.yul\":165:202   */\n      mstore\n        /* \"#utility.yul\":90:208   */\n      pop\n      pop\n      jump\t// out\n        /* \"#utility.yul\":214:436   */\n    tag_26:\n        /* \"#utility.yul\":307:311   */\n      0x00\n        /* \"#utility.yul\":345:347   */\n      0x20\n        /* \"#utility.yul\":334:343   */\n      dup3\n        /* \"#utility.yul\":330:348   */\n      add\n        /* \"#utility.yul\":322:348   */\n      swap1\n      pop\n        /* \"#utility.yul\":358:429   */\n      tag_418\n        /* \"#utility.yul\":426:427   */\n      0x00\n        /* \"#utility.yul\":415:424   */\n      dup4\n        /* \"#utility.yul\":411:428   */\n      add\n        /* \"#utility.yul\":402:408   */\n      dup5\n        /* \"#utility.yul\":358:429   */\n      tag_351\n      jump\t// in\n    tag_418:\n        /* \"#utility.yul\":214:436   */\n      swap3\n      swap2\n      pop\n      pop\n      jump\t// out\n        /* \"#utility.yul\":523:640   */\n    tag_353:\n        /* \"#utility.yul\":632:633   */\n      0x00\n        /* \"#utility.yul\":629:630   */\n      dup1\n        /* \"#utility.yul\":622:634   */\n      revert\n        /* \"#utility.yul\":769:895   */\n    tag_355:\n        /* \"#utility.yul\":806:813   */\n      0x00\n        /* \"#utility.yul\":846:888   */\n      0xffffffffffffffffffffffffffffffffffffffff\n        /* \"#utility.yul\":839:844   */\n      dup3\n        /* \"#utility.yul\":835:889   */\n      and\n        /* \"#utility.yul\":824:889   */\n      swap1\n      pop\n        /* \"#utility.yul\":769:895   */\n      swap2\n      swap1\n      pop\n      jump\t// out\n        /* \"#utility.yul\":901:997   */\n    tag_356:\n        /* \"#utility.yul\":938:945   */\n      0x00\n        /* \"#utility.yul\":967:991   */\n      tag_424\n        /* \"#utility.yul\":985:990   */\n      dup3\n        /* \"#utility.yul\":967:991   */\n      tag_355\n      jump\t// in\n    tag_424:\n        /* \"#utility.yul\":956:991   */\n      swap1\n      pop\n        /* \"#utility.yul\":901:997   */\n      swap2\n      swap1\n      pop\n      jump\t// out\n        /* \"#utility.yul\":1003:1125   */\n    tag_357:\n        /* \"#utility.yul\":1076:1100   */\n      tag_426\n        /* \"#utility.yul\":1094:1099   */\n      dup2\n        /* \"#utility.yul\":1076:1100   */\n      tag_356\n      jump\t// in\n    tag_426:\n        /* \"#utility.yul\":1069:1074   */\n      dup2\n        /* \"#utility.yul\":1066:1101   */\n      eq\n        /* \"#utility.yul\":1056:1119   */\n      tag_427\n      jumpi\n        /* \"#utility.yul\":1115:1116   */\n      0x00\n        /* \"#utility.yul\":1112:1113   */\n      dup1\n        /* \"#utility.yul\":1105:1117   */\n      revert\n        /* \"#utility.yul\":1056:1119   */\n    tag_427:\n        /* \"#utility.yul\":1003:1125   */\n      pop\n      jump\t// out\n        /* \"#utility.yul\":1131:1270   */\n    tag_358:\n        /* \"#utility.yul\":1177:1182   */\n      0x00\n        /* \"#utility.yul\":1215:1221   */\n      dup2\n        /* \"#utility.yul\":1202:1222   */\n      calldataload\n        /* \"#utility.yul\":1193:1222   */\n      swap1\n      pop\n        /* \"#utility.yul\":1231:1264   */\n      tag_429\n        /* \"#utility.yul\":1258:1263   */\n      dup2\n        /* \"#utility.yul\":1231:1264   */\n      tag_357\n      jump\t// in\n    tag_429:\n        /* \"#utility.yul\":1131:1270   */\n      swap3\n      swap2\n      pop\n      pop\n      jump\t// out\n        /* \"#utility.yul\":1276:1605   */\n    tag_29:\n        /* \"#utility.yul\":1335:1341   */\n      0x00\n        /* \"#utility.yul\":1384:1386   */\n      0x20\n        /* \"#utility.yul\":1372:1381   */\n      dup3\n        /* \"#utility.yul\":1363:1370   */\n      dup5\n        /* \"#utility.yul\":1359:1382   */\n      sub\n        /* \"#utility.yul\":1355:1387   */\n      slt\n        /* \"#utility.yul\":1352:1471   */\n      iszero\n      tag_431\n      jumpi\n        /* \"#utility.yul\":1390:1469   */\n      tag_432\n      tag_353\n      jump\t// in\n    tag_432:\n        /* \"#utility.yul\":1352:1471   */\n    tag_431:\n        /* \"#utility.yul\":1510:1511   */\n      0x00\n        /* \"#utility.yul\":1535:1588   */\n      tag_433\n        /* \"#utility.yul\":1580:1587   */\n      dup5\n        /* \"#utility.yul\":1571:1577   */\n      dup3\n        /* \"#utility.yul\":1560:1569   */\n      dup6\n        /* \"#utility.yul\":1556:1578   */\n      add\n        /* \"#utility.yul\":1535:1588   */\n      tag_358\n      jump\t// in\n    tag_433:\n        /* \"#utility.yul\":1525:1588   */\n      swap2\n      pop\n        /* \"#utility.yul\":1481:1598   */\n      pop\n        /* \"#utility.yul\":1276:1605   */\n      swap3\n      swap2\n      pop\n      pop\n      jump\t// out\n        /* \"#utility.yul\":1611:1701   */\n    tag_359:\n        /* \"#utility.yul\":1645:1652   */\n      0x00\n        /* \"#utility.yul\":1688:1693   */\n      dup2\n        /* \"#utility.yul\":1681:1694   */\n      iszero\n        /* \"#utility.yul\":1674:1695   */\n      iszero\n        /* \"#utility.yul\":1663:1695   */\n      swap1\n      pop\n        /* \"#utility.yul\":1611:1701   */\n      swap2\n      swap1\n      pop\n      jump\t// out\n        /* \"#utility.yul\":1707:1816   */\n    tag_360:\n        /* \"#utility.yul\":1788:1809   */\n      tag_436\n        /* \"#utility.yul\":1803:1808   */\n      dup2\n        /* \"#utility.yul\":1788:1809   */\n      tag_359\n      jump\t// in\n    tag_436:\n        /* \"#utility.yul\":1783:1786   */\n      dup3\n        /* \"#utility.yul\":1776:1810   */\n      mstore\n        /* \"#utility.yul\":1707:1816   */\n      pop\n      pop\n      jump\t// out\n        /* \"#utility.yul\":1822:2032   */\n    tag_32:\n        /* \"#utility.yul\":1909:1913   */\n      0x00\n        /* \"#utility.yul\":1947:1949   */\n      0x20\n        /* \"#utility.yul\":1936:1945   */\n      dup3\n        /* \"#utility.yul\":1932:1950   */\n      add\n        /* \"#utility.yul\":1924:1950   */\n      swap1\n      pop\n        /* \"#utility.yul\":1960:2025   */\n      tag_438\n        /* \"#utility.yul\":2022:2023   */\n      0x00\n        /* \"#utility.yul\":2011:2020   */\n      dup4\n        /* \"#utility.yul\":2007:2024   */\n      add\n        /* \"#utility.yul\":1998:2004   */\n      dup5\n        /* \"#utility.yul\":1960:2025   */\n      tag_360\n      jump\t// in\n    tag_438:\n        /* \"#utility.yul\":1822:2032   */\n      swap3\n      swap2\n      pop\n      pop\n      jump\t// out\n        /* \"#utility.yul\":2038:2098   */\n    tag_361:\n        /* \"#utility.yul\":2066:2069   */\n      0x00\n        /* \"#utility.yul\":2087:2092   */\n      dup2\n        /* \"#utility.yul\":2080:2092   */\n      swap1\n      pop\n        /* \"#utility.yul\":2038:2098   */\n      swap2\n      swap1\n      pop\n      jump\t// out\n        /* \"#utility.yul\":2104:2246   */\n    tag_362:\n        /* \"#utility.yul\":2154:2163   */\n      0x00\n        /* \"#utility.yul\":2187:2240   */\n      tag_441\n        /* \"#utility.yul\":2205:2239   */\n      tag_442\n        /* \"#utility.yul\":2214:2238   */\n      tag_443\n        /* \"#utility.yul\":2232:2237   */\n      dup5\n        /* \"#utility.yul\":2214:2238   */\n      tag_355\n      jump\t// in\n    tag_443:\n        /* \"#utility.yul\":2205:2239   */\n      tag_361\n      jump\t// in\n    tag_442:\n        /* \"#utility.yul\":2187:2240   */\n      tag_355\n      jump\t// in\n    tag_441:\n        /* \"#utility.yul\":2174:2240   */\n      swap1\n      pop\n        /* \"#utility.yul\":2104:2246   */\n      swap2\n      swap1\n      pop\n      jump\t// out\n        /* \"#utility.yul\":2252:2378   */\n    tag_363:\n        /* \"#utility.yul\":2302:2311   */\n      0x00\n        /* \"#utility.yul\":2335:2372   */\n      tag_445\n        /* \"#utility.yul\":2366:2371   */\n      dup3\n        /* \"#utility.yul\":2335:2372   */\n      tag_362\n      jump\t// in\n    tag_445:\n        /* \"#utility.yul\":2322:2372   */\n      swap1\n      pop\n        /* \"#utility.yul\":2252:2378   */\n      swap2\n      swap1\n      pop\n      jump\t// out\n        /* \"#utility.yul\":2384:2526   */\n    tag_364:\n        /* \"#utility.yul\":2450:2459   */\n      0x00\n        /* \"#utility.yul\":2483:2520   */\n      tag_447\n        /* \"#utility.yul\":2514:2519   */\n      dup3\n        /* \"#utility.yul\":2483:2520   */\n      tag_363\n      jump\t// in\n    tag_447:\n        /* \"#utility.yul\":2470:2520   */\n      swap1\n      pop\n        /* \"#utility.yul\":2384:2526   */\n      swap2\n      swap1\n      pop\n      jump\t// out\n        /* \"#utility.yul\":2532:2695   */\n    tag_365:\n        /* \"#utility.yul\":2635:2688   */\n      tag_449\n        /* \"#utility.yul\":2682:2687   */\n      dup2\n        /* \"#utility.yul\":2635:2688   */\n      tag_364\n      jump\t// in\n    tag_449:\n        /* \"#utility.yul\":2630:2633   */\n      dup3\n        /* \"#utility.yul\":2623:2689   */\n      mstore\n        /* \"#utility.yul\":2532:2695   */\n      pop\n      pop\n      jump\t// out\n        /* \"#utility.yul\":2701:2955   */\n    tag_41:\n        /* \"#utility.yul\":2810:2814   */\n      0x00\n        /* \"#utility.yul\":2848:2850   */\n      0x20\n        /* \"#utility.yul\":2837:2846   */\n      dup3\n        /* \"#utility.yul\":2833:2851   */\n      add\n        /* \"#utility.yul\":2825:2851   */\n      swap1\n      pop\n        /* \"#utility.yul\":2861:2948   */\n      tag_451\n        /* \"#utility.yul\":2945:2946   */\n      0x00\n        /* \"#utility.yul\":2934:2943   */\n      dup4\n        /* \"#utility.yul\":2930:2947   */\n      add\n        /* \"#utility.yul\":2921:2927   */\n      dup5\n        /* \"#utility.yul\":2861:2948   */\n      tag_365\n      jump\t// in\n    tag_451:\n        /* \"#utility.yul\":2701:2955   */\n      swap3\n      swap2\n      pop\n      pop\n      jump\t// out\n        /* \"#utility.yul\":2961:3038   */\n    tag_366:\n        /* \"#utility.yul\":2998:3005   */\n      0x00\n        /* \"#utility.yul\":3027:3032   */\n      dup2\n        /* \"#utility.yul\":3016:3032   */\n      swap1\n      pop\n        /* \"#utility.yul\":2961:3038   */\n      swap2\n      swap1\n      pop\n      jump\t// out\n        /* \"#utility.yul\":3044:3166   */\n    tag_367:\n        /* \"#utility.yul\":3117:3141   */\n      tag_454\n        /* \"#utility.yul\":3135:3140   */\n      dup2\n        /* \"#utility.yul\":3117:3141   */\n      tag_366\n      jump\t// in\n    tag_454:\n        /* \"#utility.yul\":3110:3115   */\n      dup2\n        /* \"#utility.yul\":3107:3142   */\n      eq\n        /* \"#utility.yul\":3097:3160   */\n      tag_455\n      jumpi\n        /* \"#utility.yul\":3156:3157   */\n      0x00\n        /* \"#utility.yul\":3153:3154   */\n      dup1\n        /* \"#utility.yul\":3146:3158   */\n      revert\n        /* \"#utility.yul\":3097:3160   */\n    tag_455:\n        /* \"#utility.yul\":3044:3166   */\n      pop\n      jump\t// out\n        /* \"#utility.yul\":3172:3311   */\n    tag_368:\n        /* \"#utility.yul\":3218:3223   */\n      0x00\n        /* \"#utility.yul\":3256:3262   */\n      dup2\n        /* \"#utility.yul\":3243:3263   */\n      calldataload\n        /* \"#utility.yul\":3234:3263   */\n      swap1\n      pop\n        /* \"#utility.yul\":3272:3305   */\n      tag_457\n        /* \"#utility.yul\":3299:3304   */\n      dup2\n        /* \"#utility.yul\":3272:3305   */\n      tag_367\n      jump\t// in\n    tag_457:\n        /* \"#utility.yul\":3172:3311   */\n      swap3\n      swap2\n      pop\n      pop\n      jump\t// out\n        /* \"#utility.yul\":3317:3646   */\n    tag_47:\n        /* \"#utility.yul\":3376:3382   */\n      0x00\n        /* \"#utility.yul\":3425:3427   */\n      0x20\n        /* \"#utility.yul\":3413:3422   */\n      dup3\n        /* \"#utility.yul\":3404:3411   */\n      dup5\n        /* \"#utility.yul\":3400:3423   */\n      sub\n        /* \"#utility.yul\":3396:3428   */\n      slt\n        /* \"#utility.yul\":3393:3512   */\n      iszero\n      tag_459\n      jumpi\n        /* \"#utility.yul\":3431:3510   */\n      tag_460\n      tag_353\n      jump\t// in\n    tag_460:\n        /* \"#utility.yul\":3393:3512   */\n    tag_459:\n        /* \"#utility.yul\":3551:3552   */\n      0x00\n        /* \"#utility.yul\":3576:3629   */\n      tag_461\n        /* \"#utility.yul\":3621:3628   */\n      dup5\n        /* \"#utility.yul\":3612:3618   */\n      dup3\n        /* \"#utility.yul\":3601:3610   */\n      dup6\n        /* \"#utility.yul\":3597:3619   */\n      add\n        /* \"#utility.yul\":3576:3629   */\n      tag_368\n      jump\t// in\n    tag_461:\n        /* \"#utility.yul\":3566:3629   */\n      swap2\n      pop\n        /* \"#utility.yul\":3522:3639   */\n      pop\n        /* \"#utility.yul\":3317:3646   */\n      swap3\n      swap2\n      pop\n      pop\n      jump\t// out\n        /* \"#utility.yul\":3652:3798   */\n    tag_369:\n        /* \"#utility.yul\":3722:3731   */\n      0x00\n        /* \"#utility.yul\":3755:3792   */\n      tag_463\n        /* \"#utility.yul\":3786:3791   */\n      dup3\n        /* \"#utility.yul\":3755:3792   */\n      tag_363\n      jump\t// in\n    tag_463:\n        /* \"#utility.yul\":3742:3792   */\n      swap1\n      pop\n        /* \"#utility.yul\":3652:3798   */\n      swap2\n      swap1\n      pop\n      jump\t// out\n        /* \"#utility.yul\":3804:3975   */\n    tag_370:\n        /* \"#utility.yul\":3911:3968   */\n      tag_465\n        /* \"#utility.yul\":3962:3967   */\n      dup2\n        /* \"#utility.yul\":3911:3968   */\n      tag_369\n      jump\t// in\n    tag_465:\n        /* \"#utility.yul\":3906:3909   */\n      dup3\n        /* \"#utility.yul\":3899:3969   */\n      mstore\n        /* \"#utility.yul\":3804:3975   */\n      pop\n      pop\n      jump\t// out\n        /* \"#utility.yul\":3981:4243   */\n    tag_58:\n        /* \"#utility.yul\":4094:4098   */\n      0x00\n        /* \"#utility.yul\":4132:4134   */\n      0x20\n        /* \"#utility.yul\":4121:4130   */\n      dup3\n        /* \"#utility.yul\":4117:4135   */\n      add\n        /* \"#utility.yul\":4109:4135   */\n      swap1\n      pop\n        /* \"#utility.yul\":4145:4236   */\n      tag_467\n        /* \"#utility.yul\":4233:4234   */\n      0x00\n        /* \"#utility.yul\":4222:4231   */\n      dup4\n        /* \"#utility.yul\":4218:4235   */\n      add\n        /* \"#utility.yul\":4209:4215   */\n      dup5\n        /* \"#utility.yul\":4145:4236   */\n      tag_370\n      jump\t// in\n    tag_467:\n        /* \"#utility.yul\":3981:4243   */\n      swap3\n      swap2\n      pop\n      pop\n      jump\t// out\n        /* \"#utility.yul\":4249:4371   */\n    tag_371:\n        /* \"#utility.yul\":4322:4346   */\n      tag_469\n        /* \"#utility.yul\":4340:4345   */\n      dup2\n        /* \"#utility.yul\":4322:4346   */\n      tag_350\n      jump\t// in\n    tag_469:\n        /* \"#utility.yul\":4315:4320   */\n      dup2\n        /* \"#utility.yul\":4312:4347   */\n      eq\n        /* \"#utility.yul\":4302:4365   */\n      tag_470\n      jumpi\n        /* \"#utility.yul\":4361:4362   */\n      0x00\n        /* \"#utility.yul\":4358:4359   */\n      dup1\n        /* \"#utility.yul\":4351:4363   */\n      revert\n        /* \"#utility.yul\":4302:4365   */\n    tag_470:\n        /* \"#utility.yul\":4249:4371   */\n      pop\n      jump\t// out\n        /* \"#utility.yul\":4377:4516   */\n    tag_372:\n        /* \"#utility.yul\":4423:4428   */\n      0x00\n        /* \"#utility.yul\":4461:4467   */\n      dup2\n        /* \"#utility.yul\":4448:4468   */\n      calldataload\n        /* \"#utility.yul\":4439:4468   */\n      swap1\n      pop\n        /* \"#utility.yul\":4477:4510   */\n      tag_472\n        /* \"#utility.yul\":4504:4509   */\n      dup2\n        /* \"#utility.yul\":4477:4510   */\n      tag_371\n      jump\t// in\n    tag_472:\n        /* \"#utility.yul\":4377:4516   */\n      swap3\n      swap2\n      pop\n      pop\n      jump\t// out\n        /* \"#utility.yul\":4522:4851   */\n    tag_76:\n        /* \"#utility.yul\":4581:4587   */\n      0x00\n        /* \"#utility.yul\":4630:4632   */\n      0x20\n        /* \"#utility.yul\":4618:4627   */\n      dup3\n        /* \"#utility.yul\":4609:4616   */\n      dup5\n        /* \"#utility.yul\":4605:4628   */\n      sub\n        /* \"#utility.yul\":4601:4633   */\n      slt\n        /* \"#utility.yul\":4598:4717   */\n      iszero\n      tag_474\n      jumpi\n        /* \"#utility.yul\":4636:4715   */\n      tag_475\n      tag_353\n      jump\t// in\n    tag_475:\n        /* \"#utility.yul\":4598:4717   */\n    tag_474:\n        /* \"#utility.yul\":4756:4757   */\n      0x00\n        /* \"#utility.yul\":4781:4834   */\n      tag_476\n        /* \"#utility.yul\":4826:4833   */\n      dup5\n        /* \"#utility.yul\":4817:4823   */\n      dup3\n        /* \"#utility.yul\":4806:4815   */\n      dup6\n        /* \"#utility.yul\":4802:4824   */\n      add\n        /* \"#utility.yul\":4781:4834   */\n      tag_372\n      jump\t// in\n    tag_476:\n        /* \"#utility.yul\":4771:4834   */\n      swap2\n      pop\n        /* \"#utility.yul\":4727:4844   */\n      pop\n        /* \"#utility.yul\":4522:4851   */\n      swap3\n      swap2\n      pop\n      pop\n      jump\t// out\n        /* \"#utility.yul\":4857:4975   */\n    tag_373:\n        /* \"#utility.yul\":4944:4968   */\n      tag_478\n        /* \"#utility.yul\":4962:4967   */\n      dup2\n        /* \"#utility.yul\":4944:4968   */\n      tag_356\n      jump\t// in\n    tag_478:\n        /* \"#utility.yul\":4939:4942   */\n      dup3\n        /* \"#utility.yul\":4932:4969   */\n      mstore\n        /* \"#utility.yul\":4857:4975   */\n      pop\n      pop\n      jump\t// out\n        /* \"#utility.yul\":4981:5203   */\n    tag_79:\n        /* \"#utility.yul\":5074:5078   */\n      0x00\n        /* \"#utility.yul\":5112:5114   */\n      0x20\n        /* \"#utility.yul\":5101:5110   */\n      dup3\n        /* \"#utility.yul\":5097:5115   */\n      add\n        /* \"#utility.yul\":5089:5115   */\n      swap1\n      pop\n        /* \"#utility.yul\":5125:5196   */\n      tag_480\n        /* \"#utility.yul\":5193:5194   */\n      0x00\n        /* \"#utility.yul\":5182:5191   */\n      dup4\n        /* \"#utility.yul\":5178:5195   */\n      add\n        /* \"#utility.yul\":5169:5175   */\n      dup5\n        /* \"#utility.yul\":5125:5196   */\n      tag_373\n      jump\t// in\n    tag_480:\n        /* \"#utility.yul\":4981:5203   */\n      swap3\n      swap2\n      pop\n      pop\n      jump\t// out\n        /* \"#utility.yul\":5209:5349   */\n    tag_374:\n        /* \"#utility.yul\":5273:5282   */\n      0x00\n        /* \"#utility.yul\":5306:5343   */\n      tag_482\n        /* \"#utility.yul\":5337:5342   */\n      dup3\n        /* \"#utility.yul\":5306:5343   */\n      tag_363\n      jump\t// in\n    tag_482:\n        /* \"#utility.yul\":5293:5343   */\n      swap1\n      pop\n        /* \"#utility.yul\":5209:5349   */\n      swap2\n      swap1\n      pop\n      jump\t// out\n        /* \"#utility.yul\":5355:5514   */\n    tag_375:\n        /* \"#utility.yul\":5456:5507   */\n      tag_484\n        /* \"#utility.yul\":5501:5506   */\n      dup2\n        /* \"#utility.yul\":5456:5507   */\n      tag_374\n      jump\t// in\n    tag_484:\n        /* \"#utility.yul\":5451:5454   */\n      dup3\n        /* \"#utility.yul\":5444:5508   */\n      mstore\n        /* \"#utility.yul\":5355:5514   */\n      pop\n      pop\n      jump\t// out\n        /* \"#utility.yul\":5520:5770   */\n    tag_83:\n        /* \"#utility.yul\":5627:5631   */\n      0x00\n        /* \"#utility.yul\":5665:5667   */\n      0x20\n        /* \"#utility.yul\":5654:5663   */\n      dup3\n        /* \"#utility.yul\":5650:5668   */\n      add\n        /* \"#utility.yul\":5642:5668   */\n      swap1\n      pop\n        /* \"#utility.yul\":5678:5763   */\n      tag_486\n        /* \"#utility.yul\":5760:5761   */\n      0x00\n        /* \"#utility.yul\":5749:5758   */\n      dup4\n        /* \"#utility.yul\":5745:5762   */\n      add\n        /* \"#utility.yul\":5736:5742   */\n      dup5\n        /* \"#utility.yul\":5678:5763   */\n      tag_375\n      jump\t// in\n    tag_486:\n        /* \"#utility.yul\":5520:5770   */\n      swap3\n      swap2\n      pop\n      pop\n      jump\t// out\n        /* \"#utility.yul\":5776:5945   */\n    tag_376:\n        /* \"#utility.yul\":5860:5871   */\n      0x00\n        /* \"#utility.yul\":5894:5900   */\n      dup3\n        /* \"#utility.yul\":5889:5892   */\n      dup3\n        /* \"#utility.yul\":5882:5901   */\n      mstore\n        /* \"#utility.yul\":5934:5938   */\n      0x20\n        /* \"#utility.yul\":5929:5932   */\n      dup3\n        /* \"#utility.yul\":5925:5939   */\n      add\n        /* \"#utility.yul\":5910:5939   */\n      swap1\n      pop\n        /* \"#utility.yul\":5776:5945   */\n      swap3\n      swap2\n      pop\n      pop\n      jump\t// out\n        /* \"#utility.yul\":5951:6127   */\n    tag_377:\n        /* \"#utility.yul\":6091:6119   */\n      0x47616d6520616c726561647920686173203220706c6179657273000000000000\n        /* \"#utility.yul\":6087:6088   */\n      0x00\n        /* \"#utility.yul\":6079:6085   */\n      dup3\n        /* \"#utility.yul\":6075:6089   */\n      add\n        /* \"#utility.yul\":6068:6120   */\n      mstore\n        /* \"#utility.yul\":5951:6127   */\n      pop\n      jump\t// out\n        /* \"#utility.yul\":6133:6499   */\n    tag_378:\n        /* \"#utility.yul\":6275:6278   */\n      0x00\n        /* \"#utility.yul\":6296:6363   */\n      tag_490\n        /* \"#utility.yul\":6360:6362   */\n      0x1a\n        /* \"#utility.yul\":6355:6358   */\n      dup4\n        /* \"#utility.yul\":6296:6363   */\n      tag_376\n      jump\t// in\n    tag_490:\n        /* \"#utility.yul\":6289:6363   */\n      swap2\n      pop\n        /* \"#utility.yul\":6372:6465   */\n      tag_491\n        /* \"#utility.yul\":6461:6464   */\n      dup3\n        /* \"#utility.yul\":6372:6465   */\n      tag_377\n      jump\t// in\n    tag_491:\n        /* \"#utility.yul\":6490:6492   */\n      0x20\n        /* \"#utility.yul\":6485:6488   */\n      dup3\n        /* \"#utility.yul\":6481:6493   */\n      add\n        /* \"#utility.yul\":6474:6493   */\n      swap1\n      pop\n        /* \"#utility.yul\":6133:6499   */\n      swap2\n      swap1\n      pop\n      jump\t// out\n        /* \"#utility.yul\":6505:6924   */\n    tag_87:\n        /* \"#utility.yul\":6671:6675   */\n      0x00\n        /* \"#utility.yul\":6709:6711   */\n      0x20\n        /* \"#utility.yul\":6698:6707   */\n      dup3\n        /* \"#utility.yul\":6694:6712   */\n      add\n        /* \"#utility.yul\":6686:6712   */\n      swap1\n      pop\n        /* \"#utility.yul\":6758:6767   */\n      dup2\n        /* \"#utility.yul\":6752:6756   */\n      dup2\n        /* \"#utility.yul\":6748:6768   */\n      sub\n        /* \"#utility.yul\":6744:6745   */\n      0x00\n        /* \"#utility.yul\":6733:6742   */\n      dup4\n        /* \"#utility.yul\":6729:6746   */\n      add\n        /* \"#utility.yul\":6722:6769   */\n      mstore\n        /* \"#utility.yul\":6786:6917   */\n      tag_493\n        /* \"#utility.yul\":6912:6916   */\n      dup2\n        /* \"#utility.yul\":6786:6917   */\n      tag_378\n      jump\t// in\n    tag_493:\n        /* \"#utility.yul\":6778:6917   */\n      swap1\n      pop\n        /* \"#utility.yul\":6505:6924   */\n      swap2\n      swap1\n      pop\n      jump\t// out\n        /* \"#utility.yul\":6930:7110   */\n    tag_91:\n        /* \"#utility.yul\":6978:7055   */\n      0x4e487b7100000000000000000000000000000000000000000000000000000000\n        /* \"#utility.yul\":6975:6976   */\n      0x00\n        /* \"#utility.yul\":6968:7056   */\n      mstore\n        /* \"#utility.yul\":7075:7079   */\n      0x32\n        /* \"#utility.yul\":7072:7073   */\n      0x04\n        /* \"#utility.yul\":7065:7080   */\n      mstore\n        /* \"#utility.yul\":7099:7103   */\n      0x24\n        /* \"#utility.yul\":7096:7097   */\n      0x00\n        /* \"#utility.yul\":7089:7104   */\n      revert\n        /* \"#utility.yul\":7116:7341   */\n    tag_379:\n        /* \"#utility.yul\":7256:7290   */\n      0x596f752061726520616c72656164792072656769737465726564206173206120\n        /* \"#utility.yul\":7252:7253   */\n      0x00\n        /* \"#utility.yul\":7244:7250   */\n      dup3\n        /* \"#utility.yul\":7240:7254   */\n      add\n        /* \"#utility.yul\":7233:7291   */\n      mstore\n        /* \"#utility.yul\":7325:7333   */\n      0x706c617965720000000000000000000000000000000000000000000000000000\n        /* \"#utility.yul\":7320:7322   */\n      0x20\n        /* \"#utility.yul\":7312:7318   */\n      dup3\n        /* \"#utility.yul\":7308:7323   */\n      add\n        /* \"#utility.yul\":7301:7334   */\n      mstore\n        /* \"#utility.yul\":7116:7341   */\n      pop\n      jump\t// out\n        /* \"#utility.yul\":7347:7713   */\n    tag_380:\n        /* \"#utility.yul\":7489:7492   */\n      0x00\n        /* \"#utility.yul\":7510:7577   */\n      tag_497\n        /* \"#utility.yul\":7574:7576   */\n      0x26\n        /* \"#utility.yul\":7569:7572   */\n      dup4\n        /* \"#utility.yul\":7510:7577   */\n      tag_376\n      jump\t// in\n    tag_497:\n        /* \"#utility.yul\":7503:7577   */\n      swap2\n      pop\n        /* \"#utility.yul\":7586:7679   */\n      tag_498\n        /* \"#utility.yul\":7675:7678   */\n      dup3\n        /* \"#utility.yul\":7586:7679   */\n      tag_379\n      jump\t// in\n    tag_498:\n        /* \"#utility.yul\":7704:7706   */\n      0x40\n        /* \"#utility.yul\":7699:7702   */\n      dup3\n        /* \"#utility.yul\":7695:7707   */\n      add\n        /* \"#utility.yul\":7688:7707   */\n      swap1\n      pop\n        /* \"#utility.yul\":7347:7713   */\n      swap2\n      swap1\n      pop\n      jump\t// out\n        /* \"#utility.yul\":7719:8138   */\n    tag_95:\n        /* \"#utility.yul\":7885:7889   */\n      0x00\n        /* \"#utility.yul\":7923:7925   */\n      0x20\n        /* \"#utility.yul\":7912:7921   */\n      dup3\n        /* \"#utility.yul\":7908:7926   */\n      add\n        /* \"#utility.yul\":7900:7926   */\n      swap1\n      pop\n        /* \"#utility.yul\":7972:7981   */\n      dup2\n        /* \"#utility.yul\":7966:7970   */\n      dup2\n        /* \"#utility.yul\":7962:7982   */\n      sub\n        /* \"#utility.yul\":7958:7959   */\n      0x00\n        /* \"#utility.yul\":7947:7956   */\n      dup4\n        /* \"#utility.yul\":7943:7960   */\n      add\n        /* \"#utility.yul\":7936:7983   */\n      mstore\n        /* \"#utility.yul\":8000:8131   */\n      tag_500\n        /* \"#utility.yul\":8126:8130   */\n      dup2\n        /* \"#utility.yul\":8000:8131   */\n      tag_380\n      jump\t// in\n    tag_500:\n        /* \"#utility.yul\":7992:8131   */\n      swap1\n      pop\n        /* \"#utility.yul\":7719:8138   */\n      swap2\n      swap1\n      pop\n      jump\t// out\n        /* \"#utility.yul\":8144:8476   */\n    tag_97:\n        /* \"#utility.yul\":8265:8269   */\n      0x00\n        /* \"#utility.yul\":8303:8305   */\n      0x40\n        /* \"#utility.yul\":8292:8301   */\n      dup3\n        /* \"#utility.yul\":8288:8306   */\n      add\n        /* \"#utility.yul\":8280:8306   */\n      swap1\n      pop\n        /* \"#utility.yul\":8316:8387   */\n      tag_502\n        /* \"#utility.yul\":8384:8385   */\n      0x00\n        /* \"#utility.yul\":8373:8382   */\n      dup4\n        /* \"#utility.yul\":8369:8386   */\n      add\n        /* \"#utility.yul\":8360:8366   */\n      dup6\n        /* \"#utility.yul\":8316:8387   */\n      tag_373\n      jump\t// in\n    tag_502:\n        /* \"#utility.yul\":8397:8469   */\n      tag_503\n        /* \"#utility.yul\":8465:8467   */\n      0x20\n        /* \"#utility.yul\":8454:8463   */\n      dup4\n        /* \"#utility.yul\":8450:8468   */\n      add\n        /* \"#utility.yul\":8441:8447   */\n      dup5\n        /* \"#utility.yul\":8397:8469   */\n      tag_373\n      jump\t// in\n    tag_503:\n        /* \"#utility.yul\":8144:8476   */\n      swap4\n      swap3\n      pop\n      pop\n      pop\n      jump\t// out\n        /* \"#utility.yul\":8482:8625   */\n    tag_381:\n        /* \"#utility.yul\":8539:8544   */\n      0x00\n        /* \"#utility.yul\":8570:8576   */\n      dup2\n        /* \"#utility.yul\":8564:8577   */\n      mload\n        /* \"#utility.yul\":8555:8577   */\n      swap1\n      pop\n        /* \"#utility.yul\":8586:8619   */\n      tag_505\n        /* \"#utility.yul\":8613:8618   */\n      dup2\n        /* \"#utility.yul\":8586:8619   */\n      tag_371\n      jump\t// in\n    tag_505:\n        /* \"#utility.yul\":8482:8625   */\n      swap3\n      swap2\n      pop\n      pop\n      jump\t// out\n        /* \"#utility.yul\":8631:8982   */\n    tag_101:\n        /* \"#utility.yul\":8701:8707   */\n      0x00\n        /* \"#utility.yul\":8750:8752   */\n      0x20\n        /* \"#utility.yul\":8738:8747   */\n      dup3\n        /* \"#utility.yul\":8729:8736   */\n      dup5\n        /* \"#utility.yul\":8725:8748   */\n      sub\n        /* \"#utility.yul\":8721:8753   */\n      slt\n        /* \"#utility.yul\":8718:8837   */\n      iszero\n      tag_507\n      jumpi\n        /* \"#utility.yul\":8756:8835   */\n      tag_508\n      tag_353\n      jump\t// in\n    tag_508:\n        /* \"#utility.yul\":8718:8837   */\n    tag_507:\n        /* \"#utility.yul\":8876:8877   */\n      0x00\n        /* \"#utility.yul\":8901:8965   */\n      tag_509\n        /* \"#utility.yul\":8957:8964   */\n      dup5\n        /* \"#utility.yul\":8948:8954   */\n      dup3\n        /* \"#utility.yul\":8937:8946   */\n      dup6\n        /* \"#utility.yul\":8933:8955   */\n      add\n        /* \"#utility.yul\":8901:8965   */\n      tag_381\n      jump\t// in\n    tag_509:\n        /* \"#utility.yul\":8891:8965   */\n      swap2\n      pop\n        /* \"#utility.yul\":8847:8975   */\n      pop\n        /* \"#utility.yul\":8631:8982   */\n      swap3\n      swap2\n      pop\n      pop\n      jump\t// out\n        /* \"#utility.yul\":8988:9166   */\n    tag_382:\n        /* \"#utility.yul\":9128:9158   */\n      0x496e73756666696369656e7420746f6b656e20616c6c6f77616e636500000000\n        /* \"#utility.yul\":9124:9125   */\n      0x00\n        /* \"#utility.yul\":9116:9122   */\n      dup3\n        /* \"#utility.yul\":9112:9126   */\n      add\n        /* \"#utility.yul\":9105:9159   */\n      mstore\n        /* \"#utility.yul\":8988:9166   */\n      pop\n      jump\t// out\n        /* \"#utility.yul\":9172:9538   */\n    tag_383:\n        /* \"#utility.yul\":9314:9317   */\n      0x00\n        /* \"#utility.yul\":9335:9402   */\n      tag_512\n        /* \"#utility.yul\":9399:9401   */\n      0x1c\n        /* \"#utility.yul\":9394:9397   */\n      dup4\n        /* \"#utility.yul\":9335:9402   */\n      tag_376\n      jump\t// in\n    tag_512:\n        /* \"#utility.yul\":9328:9402   */\n      swap2\n      pop\n        /* \"#utility.yul\":9411:9504   */\n      tag_513\n        /* \"#utility.yul\":9500:9503   */\n      dup3\n        /* \"#utility.yul\":9411:9504   */\n      tag_382\n      jump\t// in\n    tag_513:\n        /* \"#utility.yul\":9529:9531   */\n      0x20\n        /* \"#utility.yul\":9524:9527   */\n      dup3\n        /* \"#utility.yul\":9520:9532   */\n      add\n        /* \"#utility.yul\":9513:9532   */\n      swap1\n      pop\n        /* \"#utility.yul\":9172:9538   */\n      swap2\n      swap1\n      pop\n      jump\t// out\n        /* \"#utility.yul\":9544:9963   */\n    tag_104:\n        /* \"#utility.yul\":9710:9714   */\n      0x00\n        /* \"#utility.yul\":9748:9750   */\n      0x20\n        /* \"#utility.yul\":9737:9746   */\n      dup3\n        /* \"#utility.yul\":9733:9751   */\n      add\n        /* \"#utility.yul\":9725:9751   */\n      swap1\n      pop\n        /* \"#utility.yul\":9797:9806   */\n      dup2\n        /* \"#utility.yul\":9791:9795   */\n      dup2\n        /* \"#utility.yul\":9787:9807   */\n      sub\n        /* \"#utility.yul\":9783:9784   */\n      0x00\n        /* \"#utility.yul\":9772:9781   */\n      dup4\n        /* \"#utility.yul\":9768:9785   */\n      add\n        /* \"#utility.yul\":9761:9808   */\n      mstore\n        /* \"#utility.yul\":9825:9956   */\n      tag_515\n        /* \"#utility.yul\":9951:9955   */\n      dup2\n        /* \"#utility.yul\":9825:9956   */\n      tag_383\n      jump\t// in\n    tag_515:\n        /* \"#utility.yul\":9817:9956   */\n      swap1\n      pop\n        /* \"#utility.yul\":9544:9963   */\n      swap2\n      swap1\n      pop\n      jump\t// out\n        /* \"#utility.yul\":9969:10149   */\n    tag_384:\n        /* \"#utility.yul\":10017:10094   */\n      0x4e487b7100000000000000000000000000000000000000000000000000000000\n        /* \"#utility.yul\":10014:10015   */\n      0x00\n        /* \"#utility.yul\":10007:10095   */\n      mstore\n        /* \"#utility.yul\":10114:10118   */\n      0x11\n        /* \"#utility.yul\":10111:10112   */\n      0x04\n        /* \"#utility.yul\":10104:10119   */\n      mstore\n        /* \"#utility.yul\":10138:10142   */\n      0x24\n        /* \"#utility.yul\":10135:10136   */\n      0x00\n        /* \"#utility.yul\":10128:10143   */\n      revert\n        /* \"#utility.yul\":10155:10388   */\n    tag_107:\n        /* \"#utility.yul\":10194:10197   */\n      0x00\n        /* \"#utility.yul\":10217:10241   */\n      tag_518\n        /* \"#utility.yul\":10235:10240   */\n      dup3\n        /* \"#utility.yul\":10217:10241   */\n      tag_350\n      jump\t// in\n    tag_518:\n        /* \"#utility.yul\":10208:10241   */\n      swap2\n      pop\n        /* \"#utility.yul\":10263:10329   */\n      0xffffffffffffffffffffffffffffffffffffffffffffffffffffffffffffffff\n        /* \"#utility.yul\":10256:10261   */\n      dup3\n        /* \"#utility.yul\":10253:10330   */\n      sub\n        /* \"#utility.yul\":10250:10353   */\n      tag_519\n      jumpi\n        /* \"#utility.yul\":10333:10351   */\n      tag_520\n      tag_384\n      jump\t// in\n    tag_520:\n        /* \"#utility.yul\":10250:10353   */\n    tag_519:\n        /* \"#utility.yul\":10380:10381   */\n      0x01\n        /* \"#utility.yul\":10373:10378   */\n      dup3\n        /* \"#utility.yul\":10369:10382   */\n      add\n        /* \"#utility.yul\":10362:10382   */\n      swap1\n      pop\n        /* \"#utility.yul\":10155:10388   */\n      swap2\n      swap1\n      pop\n      jump\t// out\n        /* \"#utility.yul\":10394:10566   */\n    tag_385:\n        /* \"#utility.yul\":10534:10558   */\n      0x4e6565642065786163746c79203220706c617965727300000000000000000000\n        /* \"#utility.yul\":10530:10531   */\n      0x00\n        /* \"#utility.yul\":10522:10528   */\n      dup3\n        /* \"#utility.yul\":10518:10532   */\n      add\n        /* \"#utility.yul\":10511:10559   */\n      mstore\n        /* \"#utility.yul\":10394:10566   */\n      pop\n      jump\t// out\n        /* \"#utility.yul\":10572:10938   */\n    tag_386:\n        /* \"#utility.yul\":10714:10717   */\n      0x00\n        /* \"#utility.yul\":10735:10802   */\n      tag_523\n        /* \"#utility.yul\":10799:10801   */\n      0x16\n        /* \"#utility.yul\":10794:10797   */\n      dup4\n        /* \"#utility.yul\":10735:10802   */\n      tag_376\n      jump\t// in\n    tag_523:\n        /* \"#utility.yul\":10728:10802   */\n      swap2\n      pop\n        /* \"#utility.yul\":10811:10904   */\n      tag_524\n        /* \"#utility.yul\":10900:10903   */\n      dup3\n        /* \"#utility.yul\":10811:10904   */\n      tag_385\n      jump\t// in\n    tag_524:\n        /* \"#utility.yul\":10929:10931   */\n      0x20\n        /* \"#utility.yul\":10924:10927   */\n      dup3\n        /* \"#utility.yul\":10920:10932   */\n      add\n        /* \"#utility.yul\":10913:10932   */\n      swap1\n      pop\n        /* \"#utility.yul\":10572:10938   */\n      swap2\n      swap1\n      pop\n      jump\t// out\n        /* \"#utility.yul\":10944:11363   */\n    tag_115:\n        /* \"#utility.yul\":11110:11114   */\n      0x00\n        /* \"#utility.yul\":11148:11150   */\n      0x20\n        /* \"#utility.yul\":11137:11146   */\n      dup3\n        /* \"#utility.yul\":11133:11151   */\n      add\n        /* \"#utility.yul\":11125:11151   */\n      swap1\n      pop\n        /* \"#utility.yul\":11197:11206   */\n      dup2\n        /* \"#utility.yul\":11191:11195   */\n      dup2\n        /* \"#utility.yul\":11187:11207   */\n      sub\n        /* \"#utility.yul\":11183:11184   */\n      0x00\n        /* \"#utility.yul\":11172:11181   */\n      dup4\n        /* \"#utility.yul\":11168:11185   */\n      add\n        /* \"#utility.yul\":11161:11208   */\n      mstore\n        /* \"#utility.yul\":11225:11356   */\n      tag_526\n        /* \"#utility.yul\":11351:11355   */\n      dup2\n        /* \"#utility.yul\":11225:11356   */\n      tag_386\n      jump\t// in\n    tag_526:\n        /* \"#utility.yul\":11217:11356   */\n      swap1\n      pop\n        /* \"#utility.yul\":10944:11363   */\n      swap2\n      swap1\n      pop\n      jump\t// out\n        /* \"#utility.yul\":11369:11549   */\n    tag_387:\n        /* \"#utility.yul\":11509:11541   */\n      0x426f746820706c6179657273206d75737420636f6d6d69742066697273740000\n        /* \"#utility.yul\":11505:11506   */\n      0x00\n        /* \"#utility.yul\":11497:11503   */\n      dup3\n        /* \"#utility.yul\":11493:11507   */\n      add\n        /* \"#utility.yul\":11486:11542   */\n      mstore\n        /* \"#utility.yul\":11369:11549   */\n      pop\n      jump\t// out\n        /* \"#utility.yul\":11555:11921   */\n    tag_388:\n        /* \"#utility.yul\":11697:11700   */\n      0x00\n        /* \"#utility.yul\":11718:11785   */\n      tag_529\n        /* \"#utility.yul\":11782:11784   */\n      0x1e\n        /* \"#utility.yul\":11777:11780   */\n      dup4\n        /* \"#utility.yul\":11718:11785   */\n      tag_376\n      jump\t// in\n    tag_529:\n        /* \"#utility.yul\":11711:11785   */\n      swap2\n      pop\n        /* \"#utility.yul\":11794:11887   */\n      tag_530\n        /* \"#utility.yul\":11883:11886   */\n      dup3\n        /* \"#utility.yul\":11794:11887   */\n      tag_387\n      jump\t// in\n    tag_530:\n        /* \"#utility.yul\":11912:11914   */\n      0x20\n        /* \"#utility.yul\":11907:11910   */\n      dup3\n        /* \"#utility.yul\":11903:11915   */\n      add\n        /* \"#utility.yul\":11896:11915   */\n      swap1\n      pop\n        /* \"#utility.yul\":11555:11921   */\n      swap2\n      swap1\n      pop\n      jump\t// out\n        /* \"#utility.yul\":11927:12346   */\n    tag_118:\n        /* \"#utility.yul\":12093:12097   */\n      0x00\n        /* \"#utility.yul\":12131:12133   */\n      0x20\n        /* \"#utility.yul\":12120:12129   */\n      dup3\n        /* \"#utility.yul\":12116:12134   */\n      add\n        /* \"#utility.yul\":12108:12134   */\n      swap1\n      pop\n        /* \"#utility.yul\":12180:12189   */\n      dup2\n        /* \"#utility.yul\":12174:12178   */\n      dup2\n        /* \"#utility.yul\":12170:12190   */\n      sub\n        /* \"#utility.yul\":12166:12167   */\n      0x00\n        /* \"#utility.yul\":12155:12164   */\n      dup4\n        /* \"#utility.yul\":12151:12168   */\n      add\n        /* \"#utility.yul\":12144:12191   */\n      mstore\n        /* \"#utility.yul\":12208:12339   */\n      tag_532\n        /* \"#utility.yul\":12334:12338   */\n      dup2\n        /* \"#utility.yul\":12208:12339   */\n      tag_388\n      jump\t// in\n    tag_532:\n        /* \"#utility.yul\":12200:12339   */\n      swap1\n      pop\n        /* \"#utility.yul\":11927:12346   */\n      swap2\n      swap1\n      pop\n      jump\t// out\n        /* \"#utility.yul\":12352:12576   */\n    tag_389:\n        /* \"#utility.yul\":12492:12526   */\n      0x46756e6473206e6f7420796574207472616e7366657272656420746f20636f6e\n        /* \"#utility.yul\":12488:12489   */\n      0x00\n        /* \"#utility.yul\":12480:12486   */\n      dup3\n        /* \"#utility.yul\":12476:12490   */\n      add\n        /* \"#utility.yul\":12469:12527   */\n      mstore\n        /* \"#utility.yul\":12561:12568   */\n      0x7472616374000000000000000000000000000000000000000000000000000000\n        /* \"#utility.yul\":12556:12558   */\n      0x20\n        /* \"#utility.yul\":12548:12554   */\n      dup3\n        /* \"#utility.yul\":12544:12559   */\n      add\n        /* \"#utility.yul\":12537:12569   */\n      mstore\n        /* \"#utility.yul\":12352:12576   */\n      pop\n      jump\t// out\n        /* \"#utility.yul\":12582:12948   */\n    tag_390:\n        /* \"#utility.yul\":12724:12727   */\n      0x00\n        /* \"#utility.yul\":12745:12812   */\n      tag_535\n        /* \"#utility.yul\":12809:12811   */\n      0x25\n        /* \"#utility.yul\":12804:12807   */\n      dup4\n        /* \"#utility.yul\":12745:12812   */\n      tag_376\n      jump\t// in\n    tag_535:\n        /* \"#utility.yul\":12738:12812   */\n      swap2\n      pop\n        /* \"#utility.yul\":12821:12914   */\n      tag_536\n        /* \"#utility.yul\":12910:12913   */\n      dup3\n        /* \"#utility.yul\":12821:12914   */\n      tag_389\n      jump\t// in\n    tag_536:\n        /* \"#utility.yul\":12939:12941   */\n      0x40\n        /* \"#utility.yul\":12934:12937   */\n      dup3\n        /* \"#utility.yul\":12930:12942   */\n      add\n        /* \"#utility.yul\":12923:12942   */\n      swap1\n      pop\n        /* \"#utility.yul\":12582:12948   */\n      swap2\n      swap1\n      pop\n      jump\t// out\n        /* \"#utility.yul\":12954:13373   */\n    tag_121:\n        /* \"#utility.yul\":13120:13124   */\n      0x00\n        /* \"#utility.yul\":13158:13160   */\n      0x20\n        /* \"#utility.yul\":13147:13156   */\n      dup3\n        /* \"#utility.yul\":13143:13161   */\n      add\n        /* \"#utility.yul\":13135:13161   */\n      swap1\n      pop\n        /* \"#utility.yul\":13207:13216   */\n      dup2\n        /* \"#utility.yul\":13201:13205   */\n      dup2\n        /* \"#utility.yul\":13197:13217   */\n      sub\n        /* \"#utility.yul\":13193:13194   */\n      0x00\n        /* \"#utility.yul\":13182:13191   */\n      dup4\n        /* \"#utility.yul\":13178:13195   */\n      add\n        /* \"#utility.yul\":13171:13218   */\n      mstore\n        /* \"#utility.yul\":13235:13366   */\n      tag_538\n        /* \"#utility.yul\":13361:13365   */\n      dup2\n        /* \"#utility.yul\":13235:13366   */\n      tag_390\n      jump\t// in\n    tag_538:\n        /* \"#utility.yul\":13227:13366   */\n      swap1\n      pop\n        /* \"#utility.yul\":12954:13373   */\n      swap2\n      swap1\n      pop\n      jump\t// out\n        /* \"#utility.yul\":13379:13497   */\n    tag_391:\n        /* \"#utility.yul\":13466:13490   */\n      tag_540\n        /* \"#utility.yul\":13484:13489   */\n      dup2\n        /* \"#utility.yul\":13466:13490   */\n      tag_366\n      jump\t// in\n    tag_540:\n        /* \"#utility.yul\":13461:13464   */\n      dup3\n        /* \"#utility.yul\":13454:13491   */\n      mstore\n        /* \"#utility.yul\":13379:13497   */\n      pop\n      pop\n      jump\t// out\n        /* \"#utility.yul\":13503:13835   */\n    tag_123:\n        /* \"#utility.yul\":13624:13628   */\n      0x00\n        /* \"#utility.yul\":13662:13664   */\n      0x40\n        /* \"#utility.yul\":13651:13660   */\n      dup3\n        /* \"#utility.yul\":13647:13665   */\n      add\n        /* \"#utility.yul\":13639:13665   */\n      swap1\n      pop\n        /* \"#utility.yul\":13675:13746   */\n      tag_542\n        /* \"#utility.yul\":13743:13744   */\n      0x00\n        /* \"#utility.yul\":13732:13741   */\n      dup4\n        /* \"#utility.yul\":13728:13745   */\n      add\n        /* \"#utility.yul\":13719:13725   */\n      dup6\n        /* \"#utility.yul\":13675:13746   */\n      tag_391\n      jump\t// in\n    tag_542:\n        /* \"#utility.yul\":13756:13828   */\n      tag_543\n        /* \"#utility.yul\":13824:13826   */\n      0x20\n        /* \"#utility.yul\":13813:13822   */\n      dup4\n        /* \"#utility.yul\":13809:13827   */\n      add\n        /* \"#utility.yul\":13800:13806   */\n      dup5\n        /* \"#utility.yul\":13756:13828   */\n      tag_373\n      jump\t// in\n    tag_543:\n        /* \"#utility.yul\":13503:13835   */\n      swap4\n      swap3\n      pop\n      pop\n      pop\n      jump\t// out\n        /* \"#utility.yul\":13841:14010   */\n    tag_392:\n        /* \"#utility.yul\":13981:14002   */\n      0x43686f696365206973206e6f742076616c696400000000000000000000000000\n        /* \"#utility.yul\":13977:13978   */\n      0x00\n        /* \"#utility.yul\":13969:13975   */\n      dup3\n        /* \"#utility.yul\":13965:13979   */\n      add\n        /* \"#utility.yul\":13958:14003   */\n      mstore\n        /* \"#utility.yul\":13841:14010   */\n      pop\n      jump\t// out\n        /* \"#utility.yul\":14016:14382   */\n    tag_393:\n        /* \"#utility.yul\":14158:14161   */\n      0x00\n        /* \"#utility.yul\":14179:14246   */\n      tag_546\n        /* \"#utility.yul\":14243:14245   */\n      0x13\n        /* \"#utility.yul\":14238:14241   */\n      dup4\n        /* \"#utility.yul\":14179:14246   */\n      tag_376\n      jump\t// in\n    tag_546:\n        /* \"#utility.yul\":14172:14246   */\n      swap2\n      pop\n        /* \"#utility.yul\":14255:14348   */\n      tag_547\n        /* \"#utility.yul\":14344:14347   */\n      dup3\n        /* \"#utility.yul\":14255:14348   */\n      tag_392\n      jump\t// in\n    tag_547:\n        /* \"#utility.yul\":14373:14375   */\n      0x20\n        /* \"#utility.yul\":14368:14371   */\n      dup3\n        /* \"#utility.yul\":14364:14376   */\n      add\n        /* \"#utility.yul\":14357:14376   */\n      swap1\n      pop\n        /* \"#utility.yul\":14016:14382   */\n      swap2\n      swap1\n      pop\n      jump\t// out\n        /* \"#utility.yul\":14388:14807   */\n    tag_132:\n        /* \"#utility.yul\":14554:14558   */\n      0x00\n        /* \"#utility.yul\":14592:14594   */\n      0x20\n        /* \"#utility.yul\":14581:14590   */\n      dup3\n        /* \"#utility.yul\":14577:14595   */\n      add\n        /* \"#utility.yul\":14569:14595   */\n      swap1\n      pop\n        /* \"#utility.yul\":14641:14650   */\n      dup2\n        /* \"#utility.yul\":14635:14639   */\n      dup2\n        /* \"#utility.yul\":14631:14651   */\n      sub\n        /* \"#utility.yul\":14627:14628   */\n      0x00\n        /* \"#utility.yul\":14616:14625   */\n      dup4\n        /* \"#utility.yul\":14612:14629   */\n      add\n        /* \"#utility.yul\":14605:14652   */\n      mstore\n        /* \"#utility.yul\":14669:14800   */\n      tag_549\n        /* \"#utility.yul\":14795:14799   */\n      dup2\n        /* \"#utility.yul\":14669:14800   */\n      tag_393\n      jump\t// in\n    tag_549:\n        /* \"#utility.yul\":14661:14800   */\n      swap1\n      pop\n        /* \"#utility.yul\":14388:14807   */\n      swap2\n      swap1\n      pop\n      jump\t// out\n        /* \"#utility.yul\":14813:14988   */\n    tag_394:\n        /* \"#utility.yul\":14953:14980   */\n      0x47616d65206e6f7420696e20636f727265637420737461746500000000000000\n        /* \"#utility.yul\":14949:14950   */\n      0x00\n        /* \"#utility.yul\":14941:14947   */\n      dup3\n        /* \"#utility.yul\":14937:14951   */\n      add\n        /* \"#utility.yul\":14930:14981   */\n      mstore\n        /* \"#utility.yul\":14813:14988   */\n      pop\n      jump\t// out\n        /* \"#utility.yul\":14994:15360   */\n    tag_395:\n        /* \"#utility.yul\":15136:15139   */\n      0x00\n        /* \"#utility.yul\":15157:15224   */\n      tag_552\n        /* \"#utility.yul\":15221:15223   */\n      0x19\n        /* \"#utility.yul\":15216:15219   */\n      dup4\n        /* \"#utility.yul\":15157:15224   */\n      tag_376\n      jump\t// in\n    tag_552:\n        /* \"#utility.yul\":15150:15224   */\n      swap2\n      pop\n        /* \"#utility.yul\":15233:15326   */\n      tag_553\n        /* \"#utility.yul\":15322:15325   */\n      dup3\n        /* \"#utility.yul\":15233:15326   */\n      tag_394\n      jump\t// in\n    tag_553:\n        /* \"#utility.yul\":15351:15353   */\n      0x20\n        /* \"#utility.yul\":15346:15349   */\n      dup3\n        /* \"#utility.yul\":15342:15354   */\n      add\n        /* \"#utility.yul\":15335:15354   */\n      swap1\n      pop\n        /* \"#utility.yul\":14994:15360   */\n      swap2\n      swap1\n      pop\n      jump\t// out\n        /* \"#utility.yul\":15366:15785   */\n    tag_141:\n        /* \"#utility.yul\":15532:15536   */\n      0x00\n        /* \"#utility.yul\":15570:15572   */\n      0x20\n        /* \"#utility.yul\":15559:15568   */\n      dup3\n        /* \"#utility.yul\":15555:15573   */\n      add\n        /* \"#utility.yul\":15547:15573   */\n      swap1\n      pop\n        /* \"#utility.yul\":15619:15628   */\n      dup2\n        /* \"#utility.yul\":15613:15617   */\n      dup2\n        /* \"#utility.yul\":15609:15629   */\n      sub\n        /* \"#utility.yul\":15605:15606   */\n      0x00\n        /* \"#utility.yul\":15594:15603   */\n      dup4\n        /* \"#utility.yul\":15590:15607   */\n      add\n        /* \"#utility.yul\":15583:15630   */\n      mstore\n        /* \"#utility.yul\":15647:15778   */\n      tag_555\n        /* \"#utility.yul\":15773:15777   */\n      dup2\n        /* \"#utility.yul\":15647:15778   */\n      tag_395\n      jump\t// in\n    tag_555:\n        /* \"#utility.yul\":15639:15778   */\n      swap1\n      pop\n        /* \"#utility.yul\":15366:15785   */\n      swap2\n      swap1\n      pop\n      jump\t// out\n        /* \"#utility.yul\":15791:15963   */\n    tag_396:\n        /* \"#utility.yul\":15931:15955   */\n      0x54696d65206c696d6974206e6f74207265616368656400000000000000000000\n        /* \"#utility.yul\":15927:15928   */\n      0x00\n        /* \"#utility.yul\":15919:15925   */\n      dup3\n        /* \"#utility.yul\":15915:15929   */\n      add\n        /* \"#utility.yul\":15908:15956   */\n      mstore\n        /* \"#utility.yul\":15791:15963   */\n      pop\n      jump\t// out\n        /* \"#utility.yul\":15969:16335   */\n    tag_397:\n        /* \"#utility.yul\":16111:16114   */\n      0x00\n        /* \"#utility.yul\":16132:16199   */\n      tag_558\n        /* \"#utility.yul\":16196:16198   */\n      0x16\n        /* \"#utility.yul\":16191:16194   */\n      dup4\n        /* \"#utility.yul\":16132:16199   */\n      tag_376\n      jump\t// in\n    tag_558:\n        /* \"#utility.yul\":16125:16199   */\n      swap2\n      pop\n        /* \"#utility.yul\":16208:16301   */\n      tag_559\n        /* \"#utility.yul\":16297:16300   */\n      dup3\n        /* \"#utility.yul\":16208:16301   */\n      tag_396\n      jump\t// in\n    tag_559:\n        /* \"#utility.yul\":16326:16328   */\n      0x20\n        /* \"#utility.yul\":16321:16324   */\n      dup3\n        /* \"#utility.yul\":16317:16329   */\n      add\n        /* \"#utility.yul\":16310:16329   */\n      swap1\n      pop\n        /* \"#utility.yul\":15969:16335   */\n      swap2\n      swap1\n      pop\n      jump\t// out\n        /* \"#utility.yul\":16341:16760   */\n    tag_147:\n        /* \"#utility.yul\":16507:16511   */\n      0x00\n        /* \"#utility.yul\":16545:16547   */\n      0x20\n        /* \"#utility.yul\":16534:16543   */\n      dup3\n        /* \"#utility.yul\":16530:16548   */\n      add\n        /* \"#utility.yul\":16522:16548   */\n      swap1\n      pop\n        /* \"#utility.yul\":16594:16603   */\n      dup2\n        /* \"#utility.yul\":16588:16592   */\n      dup2\n        /* \"#utility.yul\":16584:16604   */\n      sub\n        /* \"#utility.yul\":16580:16581   */\n      0x00\n        /* \"#utility.yul\":16569:16578   */\n      dup4\n        /* \"#utility.yul\":16565:16582   */\n      add\n        /* \"#utility.yul\":16558:16605   */\n      mstore\n        /* \"#utility.yul\":16622:16753   */\n      tag_561\n        /* \"#utility.yul\":16748:16752   */\n      dup2\n        /* \"#utility.yul\":16622:16753   */\n      tag_397\n      jump\t// in\n    tag_561:\n        /* \"#utility.yul\":16614:16753   */\n      swap1\n      pop\n        /* \"#utility.yul\":16341:16760   */\n      swap2\n      swap1\n      pop\n      jump\t// out\n        /* \"#utility.yul\":16766:16945   */\n    tag_398:\n        /* \"#utility.yul\":16906:16937   */\n      0x426f746820706c617965727320616c72656164792072657665616c6564000000\n        /* \"#utility.yul\":16902:16903   */\n      0x00\n        /* \"#utility.yul\":16894:16900   */\n      dup3\n        /* \"#utility.yul\":16890:16904   */\n      add\n        /* \"#utility.yul\":16883:16938   */\n      mstore\n        /* \"#utility.yul\":16766:16945   */\n      pop\n      jump\t// out\n        /* \"#utility.yul\":16951:17317   */\n    tag_399:\n        /* \"#utility.yul\":17093:17096   */\n      0x00\n        /* \"#utility.yul\":17114:17181   */\n      tag_564\n        /* \"#utility.yul\":17178:17180   */\n      0x1d\n        /* \"#utility.yul\":17173:17176   */\n      dup4\n        /* \"#utility.yul\":17114:17181   */\n      tag_376\n      jump\t// in\n    tag_564:\n        /* \"#utility.yul\":17107:17181   */\n      swap2\n      pop\n        /* \"#utility.yul\":17190:17283   */\n      tag_565\n        /* \"#utility.yul\":17279:17282   */\n      dup3\n        /* \"#utility.yul\":17190:17283   */\n      tag_398\n      jump\t// in\n    tag_565:\n        /* \"#utility.yul\":17308:17310   */\n      0x20\n        /* \"#utility.yul\":17303:17306   */\n      dup3\n        /* \"#utility.yul\":17299:17311   */\n      add\n        /* \"#utility.yul\":17292:17311   */\n      swap1\n      pop\n        /* \"#utility.yul\":16951:17317   */\n      swap2\n      swap1\n      pop\n      jump\t// out\n        /* \"#utility.yul\":17323:17742   */\n    tag_150:\n        /* \"#utility.yul\":17489:17493   */\n      0x00\n        /* \"#utility.yul\":17527:17529   */\n      0x20\n        /* \"#utility.yul\":17516:17525   */\n      dup3\n        /* \"#utility.yul\":17512:17530   */\n      add\n        /* \"#utility.yul\":17504:17530   */\n      swap1\n      pop\n        /* \"#utility.yul\":17576:17585   */\n      dup2\n        /* \"#utility.yul\":17570:17574   */\n      dup2\n        /* \"#utility.yul\":17566:17586   */\n      sub\n        /* \"#utility.yul\":17562:17563   */\n      0x00\n        /* \"#utility.yul\":17551:17560   */\n      dup4\n        /* \"#utility.yul\":17547:17564   */\n      add\n        /* \"#utility.yul\":17540:17587   */\n      mstore\n        /* \"#utility.yul\":17604:17735   */\n      tag_567\n        /* \"#utility.yul\":17730:17734   */\n      dup2\n        /* \"#utility.yul\":17604:17735   */\n      tag_399\n      jump\t// in\n    tag_567:\n        /* \"#utility.yul\":17596:17735   */\n      swap1\n      pop\n        /* \"#utility.yul\":17323:17742   */\n      swap2\n      swap1\n      pop\n      jump\t// out\n        /* \"#utility.yul\":17748:18080   */\n    tag_153:\n        /* \"#utility.yul\":17869:17873   */\n      0x00\n        /* \"#utility.yul\":17907:17909   */\n      0x40\n        /* \"#utility.yul\":17896:17905   */\n      dup3\n        /* \"#utility.yul\":17892:17910   */\n      add\n        /* \"#utility.yul\":17884:17910   */\n      swap1\n      pop\n        /* \"#utility.yul\":17920:17991   */\n      tag_569\n        /* \"#utility.yul\":17988:17989   */\n      0x00\n        /* \"#utility.yul\":17977:17986   */\n      dup4\n        /* \"#utility.yul\":17973:17990   */\n      add\n        /* \"#utility.yul\":17964:17970   */\n      dup6\n        /* \"#utility.yul\":17920:17991   */\n      tag_373\n      jump\t// in\n    tag_569:\n        /* \"#utility.yul\":18001:18073   */\n      tag_570\n        /* \"#utility.yul\":18069:18071   */\n      0x20\n        /* \"#utility.yul\":18058:18067   */\n      dup4\n        /* \"#utility.yul\":18054:18072   */\n      add\n        /* \"#utility.yul\":18045:18051   */\n      dup5\n        /* \"#utility.yul\":18001:18073   */\n      tag_351\n      jump\t// in\n    tag_570:\n        /* \"#utility.yul\":17748:18080   */\n      swap4\n      swap3\n      pop\n      pop\n      pop\n      jump\t// out\n        /* \"#utility.yul\":18086:18202   */\n    tag_400:\n        /* \"#utility.yul\":18156:18177   */\n      tag_572\n        /* \"#utility.yul\":18171:18176   */\n      dup2\n        /* \"#utility.yul\":18156:18177   */\n      tag_359\n      jump\t// in\n    tag_572:\n        /* \"#utility.yul\":18149:18154   */\n      dup2\n        /* \"#utility.yul\":18146:18178   */\n      eq\n        /* \"#utility.yul\":18136:18196   */\n      tag_573\n      jumpi\n        /* \"#utility.yul\":18192:18193   */\n      0x00\n        /* \"#utility.yul\":18189:18190   */\n      dup1\n        /* \"#utility.yul\":18182:18194   */\n      revert\n        /* \"#utility.yul\":18136:18196   */\n    tag_573:\n        /* \"#utility.yul\":18086:18202   */\n      pop\n      jump\t// out\n        /* \"#utility.yul\":18208:18345   */\n    tag_401:\n        /* \"#utility.yul\":18262:18267   */\n      0x00\n        /* \"#utility.yul\":18293:18299   */\n      dup2\n        /* \"#utility.yul\":18287:18300   */\n      mload\n        /* \"#utility.yul\":18278:18300   */\n      swap1\n      pop\n        /* \"#utility.yul\":18309:18339   */\n      tag_575\n        /* \"#utility.yul\":18333:18338   */\n      dup2\n        /* \"#utility.yul\":18309:18339   */\n      tag_400\n      jump\t// in\n    tag_575:\n        /* \"#utility.yul\":18208:18345   */\n      swap3\n      swap2\n      pop\n      pop\n      jump\t// out\n        /* \"#utility.yul\":18351:18696   */\n    tag_157:\n        /* \"#utility.yul\":18418:18424   */\n      0x00\n        /* \"#utility.yul\":18467:18469   */\n      0x20\n        /* \"#utility.yul\":18455:18464   */\n      dup3\n        /* \"#utility.yul\":18446:18453   */\n      dup5\n        /* \"#utility.yul\":18442:18465   */\n      sub\n        /* \"#utility.yul\":18438:18470   */\n      slt\n        /* \"#utility.yul\":18435:18554   */\n      iszero\n      tag_577\n      jumpi\n        /* \"#utility.yul\":18473:18552   */\n      tag_578\n      tag_353\n      jump\t// in\n    tag_578:\n        /* \"#utility.yul\":18435:18554   */\n    tag_577:\n        /* \"#utility.yul\":18593:18594   */\n      0x00\n        /* \"#utility.yul\":18618:18679   */\n      tag_579\n        /* \"#utility.yul\":18671:18678   */\n      dup5\n        /* \"#utility.yul\":18662:18668   */\n      dup3\n        /* \"#utility.yul\":18651:18660   */\n      dup6\n        /* \"#utility.yul\":18647:18669   */\n      add\n        /* \"#utility.yul\":18618:18679   */\n      tag_401\n      jump\t// in\n    tag_579:\n        /* \"#utility.yul\":18608:18679   */\n      swap2\n      pop\n        /* \"#utility.yul\":18564:18689   */\n      pop\n        /* \"#utility.yul\":18351:18696   */\n      swap3\n      swap2\n      pop\n      pop\n      jump\t// out\n        /* \"#utility.yul\":18702:18873   */\n    tag_402:\n        /* \"#utility.yul\":18842:18865   */\n      0x546f6b656e207472616e73666572206661696c65640000000000000000000000\n        /* \"#utility.yul\":18838:18839   */\n      0x00\n        /* \"#utility.yul\":18830:18836   */\n      dup3\n        /* \"#utility.yul\":18826:18840   */\n      add\n        /* \"#utility.yul\":18819:18866   */\n      mstore\n        /* \"#utility.yul\":18702:18873   */\n      pop\n      jump\t// out\n        /* \"#utility.yul\":18879:19245   */\n    tag_403:\n        /* \"#utility.yul\":19021:19024   */\n      0x00\n        /* \"#utility.yul\":19042:19109   */\n      tag_582\n        /* \"#utility.yul\":19106:19108   */\n      0x15\n        /* \"#utility.yul\":19101:19104   */\n      dup4\n        /* \"#utility.yul\":19042:19109   */\n      tag_376\n      jump\t// in\n    tag_582:\n        /* \"#utility.yul\":19035:19109   */\n      swap2\n      pop\n        /* \"#utility.yul\":19118:19211   */\n      tag_583\n        /* \"#utility.yul\":19207:19210   */\n      dup3\n        /* \"#utility.yul\":19118:19211   */\n      tag_402\n      jump\t// in\n    tag_583:\n        /* \"#utility.yul\":19236:19238   */\n      0x20\n        /* \"#utility.yul\":19231:19234   */\n      dup3\n        /* \"#utility.yul\":19227:19239   */\n      add\n        /* \"#utility.yul\":19220:19239   */\n      swap1\n      pop\n        /* \"#utility.yul\":18879:19245   */\n      swap2\n      swap1\n      pop\n      jump\t// out\n        /* \"#utility.yul\":19251:19670   */\n    tag_160:\n        /* \"#utility.yul\":19417:19421   */\n      0x00\n        /* \"#utility.yul\":19455:19457   */\n      0x20\n        /* \"#utility.yul\":19444:19453   */\n      dup3\n        /* \"#utility.yul\":19440:19458   */\n      add\n        /* \"#utility.yul\":19432:19458   */\n      swap1\n      pop\n        /* \"#utility.yul\":19504:19513   */\n      dup2\n        /* \"#utility.yul\":19498:19502   */\n      dup2\n        /* \"#utility.yul\":19494:19514   */\n      sub\n        /* \"#utility.yul\":19490:19491   */\n      0x00\n        /* \"#utility.yul\":19479:19488   */\n      dup4\n        /* \"#utility.yul\":19475:19492   */\n      add\n        /* \"#utility.yul\":19468:19515   */\n      mstore\n        /* \"#utility.yul\":19532:19663   */\n      tag_585\n        /* \"#utility.yul\":19658:19662   */\n      dup2\n        /* \"#utility.yul\":19532:19663   */\n      tag_403\n      jump\t// in\n    tag_585:\n        /* \"#utility.yul\":19524:19663   */\n      swap1\n      pop\n        /* \"#utility.yul\":19251:19670   */\n      swap2\n      swap1\n      pop\n      jump\t// out\n        /* \"#utility.yul\":19676:19819   */\n    tag_404:\n        /* \"#utility.yul\":19733:19738   */\n      0x00\n        /* \"#utility.yul\":19764:19770   */\n      dup2\n        /* \"#utility.yul\":19758:19771   */\n      mload\n        /* \"#utility.yul\":19749:19771   */\n      swap1\n      pop\n        /* \"#utility.yul\":19780:19813   */\n      tag_587\n        /* \"#utility.yul\":19807:19812   */\n      dup2\n        /* \"#utility.yul\":19780:19813   */\n      tag_367\n      jump\t// in\n    tag_587:\n        /* \"#utility.yul\":19676:19819   */\n      swap3\n      swap2\n      pop\n      pop\n      jump\t// out\n        /* \"#utility.yul\":19825:19926   */\n    tag_405:\n        /* \"#utility.yul\":19861:19868   */\n      0x00\n        /* \"#utility.yul\":19901:19919   */\n      0xffffffffffffffff\n        /* \"#utility.yul\":19894:19899   */\n      dup3\n        /* \"#utility.yul\":19890:19920   */\n      and\n        /* \"#utility.yul\":19879:19920   */\n      swap1\n      pop\n        /* \"#utility.yul\":19825:19926   */\n      swap2\n      swap1\n      pop\n      jump\t// out\n        /* \"#utility.yul\":19932:20052   */\n    tag_406:\n        /* \"#utility.yul\":20004:20027   */\n      tag_590\n        /* \"#utility.yul\":20021:20026   */\n      dup2\n        /* \"#utility.yul\":20004:20027   */\n      tag_405\n      jump\t// in\n    tag_590:\n        /* \"#utility.yul\":19997:20002   */\n      dup2\n        /* \"#utility.yul\":19994:20028   */\n      eq\n        /* \"#utility.yul\":19984:20046   */\n      tag_591\n      jumpi\n        /* \"#utility.yul\":20042:20043   */\n      0x00\n        /* \"#utility.yul\":20039:20040   */\n      dup1\n        /* \"#utility.yul\":20032:20044   */\n      revert\n        /* \"#utility.yul\":19984:20046   */\n    tag_591:\n        /* \"#utility.yul\":19932:20052   */\n      pop\n      jump\t// out\n        /* \"#utility.yul\":20058:20199   */\n    tag_407:\n        /* \"#utility.yul\":20114:20119   */\n      0x00\n        /* \"#utility.yul\":20145:20151   */\n      dup2\n        /* \"#utility.yul\":20139:20152   */\n      mload\n        /* \"#utility.yul\":20130:20152   */\n      swap1\n      pop\n        /* \"#utility.yul\":20161:20193   */\n      tag_593\n        /* \"#utility.yul\":20187:20192   */\n      dup2\n        /* \"#utility.yul\":20161:20193   */\n      tag_406\n      jump\t// in\n    tag_593:\n        /* \"#utility.yul\":20058:20199   */\n      swap3\n      swap2\n      pop\n      pop\n      jump\t// out\n        /* \"#utility.yul\":20205:20860   */\n    tag_169:\n        /* \"#utility.yul\":20289:20295   */\n      0x00\n        /* \"#utility.yul\":20297:20303   */\n      dup1\n        /* \"#utility.yul\":20305:20311   */\n      0x00\n        /* \"#utility.yul\":20354:20356   */\n      0x60\n        /* \"#utility.yul\":20342:20351   */\n      dup5\n        /* \"#utility.yul\":20333:20340   */\n      dup7\n        /* \"#utility.yul\":20329:20352   */\n      sub\n        /* \"#utility.yul\":20325:20357   */\n      slt\n        /* \"#utility.yul\":20322:20441   */\n      iszero\n      tag_595\n      jumpi\n        /* \"#utility.yul\":20360:20439   */\n      tag_596\n      tag_353\n      jump\t// in\n    tag_596:\n        /* \"#utility.yul\":20322:20441   */\n    tag_595:\n        /* \"#utility.yul\":20480:20481   */\n      0x00\n        /* \"#utility.yul\":20505:20569   */\n      tag_597\n        /* \"#utility.yul\":20561:20568   */\n      dup7\n        /* \"#utility.yul\":20552:20558   */\n      dup3\n        /* \"#utility.yul\":20541:20550   */\n      dup8\n        /* \"#utility.yul\":20537:20559   */\n      add\n        /* \"#utility.yul\":20505:20569   */\n      tag_404\n      jump\t// in\n    tag_597:\n        /* \"#utility.yul\":20495:20569   */\n      swap4\n      pop\n        /* \"#utility.yul\":20451:20579   */\n      pop\n        /* \"#utility.yul\":20618:20620   */\n      0x20\n        /* \"#utility.yul\":20644:20707   */\n      tag_598\n        /* \"#utility.yul\":20699:20706   */\n      dup7\n        /* \"#utility.yul\":20690:20696   */\n      dup3\n        /* \"#utility.yul\":20679:20688   */\n      dup8\n        /* \"#utility.yul\":20675:20697   */\n      add\n        /* \"#utility.yul\":20644:20707   */\n      tag_407\n      jump\t// in\n    tag_598:\n        /* \"#utility.yul\":20634:20707   */\n      swap3\n      pop\n        /* \"#utility.yul\":20589:20717   */\n      pop\n        /* \"#utility.yul\":20756:20758   */\n      0x40\n        /* \"#utility.yul\":20782:20843   */\n      tag_599\n        /* \"#utility.yul\":20835:20842   */\n      dup7\n        /* \"#utility.yul\":20826:20832   */\n      dup3\n        /* \"#utility.yul\":20815:20824   */\n      dup8\n        /* \"#utility.yul\":20811:20833   */\n      add\n        /* \"#utility.yul\":20782:20843   */\n      tag_401\n      jump\t// in\n    tag_599:\n        /* \"#utility.yul\":20772:20843   */\n      swap2\n      pop\n        /* \"#utility.yul\":20727:20853   */\n      pop\n        /* \"#utility.yul\":20205:20860   */\n      swap3\n      pop\n      swap3\n      pop\n      swap3\n      jump\t// out\n        /* \"#utility.yul\":20866:21043   */\n    tag_408:\n        /* \"#utility.yul\":21006:21035   */\n      0x596f752063616e6e6f7420636c61696d20746865207265776172640000000000\n        /* \"#utility.yul\":21002:21003   */\n      0x00\n        /* \"#utility.yul\":20994:21000   */\n      dup3\n        /* \"#utility.yul\":20990:21004   */\n      add\n        /* \"#utility.yul\":20983:21036   */\n      mstore\n        /* \"#utility.yul\":20866:21043   */\n      pop\n      jump\t// out\n        /* \"#utility.yul\":21049:21415   */\n    tag_409:\n        /* \"#utility.yul\":21191:21194   */\n      0x00\n        /* \"#utility.yul\":21212:21279   */\n      tag_602\n        /* \"#utility.yul\":21276:21278   */\n      0x1b\n        /* \"#utility.yul\":21271:21274   */\n      dup4\n        /* \"#utility.yul\":21212:21279   */\n      tag_376\n      jump\t// in\n    tag_602:\n        /* \"#utility.yul\":21205:21279   */\n      swap2\n      pop\n        /* \"#utility.yul\":21288:21381   */\n      tag_603\n        /* \"#utility.yul\":21377:21380   */\n      dup3\n        /* \"#utility.yul\":21288:21381   */\n      tag_408\n      jump\t// in\n    tag_603:\n        /* \"#utility.yul\":21406:21408   */\n      0x20\n        /* \"#utility.yul\":21401:21404   */\n      dup3\n        /* \"#utility.yul\":21397:21409   */\n      add\n        /* \"#utility.yul\":21390:21409   */\n      swap1\n      pop\n        /* \"#utility.yul\":21049:21415   */\n      swap2\n      swap1\n      pop\n      jump\t// out\n        /* \"#utility.yul\":21421:21840   */\n    tag_210:\n        /* \"#utility.yul\":21587:21591   */\n      0x00\n        /* \"#utility.yul\":21625:21627   */\n      0x20\n        /* \"#utility.yul\":21614:21623   */\n      dup3\n        /* \"#utility.yul\":21610:21628   */\n      add\n        /* \"#utility.yul\":21602:21628   */\n      swap1\n      pop\n        /* \"#utility.yul\":21674:21683   */\n      dup2\n        /* \"#utility.yul\":21668:21672   */\n      dup2\n        /* \"#utility.yul\":21664:21684   */\n      sub\n        /* \"#utility.yul\":21660:21661   */\n      0x00\n        /* \"#utility.yul\":21649:21658   */\n      dup4\n        /* \"#utility.yul\":21645:21662   */\n      add\n        /* \"#utility.yul\":21638:21685   */\n      mstore\n        /* \"#utility.yul\":21702:21833   */\n      tag_605\n        /* \"#utility.yul\":21828:21832   */\n      dup2\n        /* \"#utility.yul\":21702:21833   */\n      tag_409\n      jump\t// in\n    tag_605:\n        /* \"#utility.yul\":21694:21833   */\n      swap1\n      pop\n        /* \"#utility.yul\":21421:21840   */\n      swap2\n      swap1\n      pop\n      jump\t// out\n        /* \"#utility.yul\":21846:22024   */\n    tag_410:\n        /* \"#utility.yul\":21986:22016   */\n      0x596f7520616c7265616479206d61646520796f75722063686f69636500000000\n        /* \"#utility.yul\":21982:21983   */\n      0x00\n        /* \"#utility.yul\":21974:21980   */\n      dup3\n        /* \"#utility.yul\":21970:21984   */\n      add\n        /* \"#utility.yul\":21963:22017   */\n      mstore\n        /* \"#utility.yul\":21846:22024   */\n      pop\n      jump\t// out\n        /* \"#utility.yul\":22030:22396   */\n    tag_411:\n        /* \"#utility.yul\":22172:22175   */\n      0x00\n        /* \"#utility.yul\":22193:22260   */\n      tag_608\n        /* \"#utility.yul\":22257:22259   */\n      0x1c\n        /* \"#utility.yul\":22252:22255   */\n      dup4\n        /* \"#utility.yul\":22193:22260   */\n      tag_376\n      jump\t// in\n    tag_608:\n        /* \"#utility.yul\":22186:22260   */\n      swap2\n      pop\n        /* \"#utility.yul\":22269:22362   */\n      tag_609\n        /* \"#utility.yul\":22358:22361   */\n      dup3\n        /* \"#utility.yul\":22269:22362   */\n      tag_410\n      jump\t// in\n    tag_609:\n        /* \"#utility.yul\":22387:22389   */\n      0x20\n        /* \"#utility.yul\":22382:22385   */\n      dup3\n        /* \"#utility.yul\":22378:22390   */\n      add\n        /* \"#utility.yul\":22371:22390   */\n      swap1\n      pop\n        /* \"#utility.yul\":22030:22396   */\n      swap2\n      swap1\n      pop\n      jump\t// out\n        /* \"#utility.yul\":22402:22821   */\n    tag_218:\n        /* \"#utility.yul\":22568:22572   */\n      0x00\n        /* \"#utility.yul\":22606:22608   */\n      0x20\n        /* \"#utility.yul\":22595:22604   */\n      dup3\n        /* \"#utility.yul\":22591:22609   */\n      add\n        /* \"#utility.yul\":22583:22609   */\n      swap1\n      pop\n        /* \"#utility.yul\":22655:22664   */\n      dup2\n        /* \"#utility.yul\":22649:22653   */\n      dup2\n        /* \"#utility.yul\":22645:22665   */\n      sub\n        /* \"#utility.yul\":22641:22642   */\n      0x00\n        /* \"#utility.yul\":22630:22639   */\n      dup4\n        /* \"#utility.yul\":22626:22643   */\n      add\n        /* \"#utility.yul\":22619:22666   */\n      mstore\n        /* \"#utility.yul\":22683:22814   */\n      tag_611\n        /* \"#utility.yul\":22809:22813   */\n      dup2\n        /* \"#utility.yul\":22683:22814   */\n      tag_411\n      jump\t// in\n    tag_611:\n        /* \"#utility.yul\":22675:22814   */\n      swap1\n      pop\n        /* \"#utility.yul\":22402:22821   */\n      swap2\n      swap1\n      pop\n      jump\t// out\n        /* \"#utility.yul\":22827:23237   */\n    tag_260:\n        /* \"#utility.yul\":22867:22874   */\n      0x00\n        /* \"#utility.yul\":22890:22910   */\n      tag_613\n        /* \"#utility.yul\":22908:22909   */\n      dup3\n        /* \"#utility.yul\":22890:22910   */\n      tag_350\n      jump\t// in\n    tag_613:\n        /* \"#utility.yul\":22885:22910   */\n      swap2\n      pop\n        /* \"#utility.yul\":22924:22944   */\n      tag_614\n        /* \"#utility.yul\":22942:22943   */\n      dup4\n        /* \"#utility.yul\":22924:22944   */\n      tag_350\n      jump\t// in\n    tag_614:\n        /* \"#utility.yul\":22919:22944   */\n      swap3\n      pop\n        /* \"#utility.yul\":22979:22980   */\n      dup3\n        /* \"#utility.yul\":22976:22977   */\n      dup3\n        /* \"#utility.yul\":22972:22981   */\n      mul\n        /* \"#utility.yul\":23001:23031   */\n      tag_615\n        /* \"#utility.yul\":23019:23030   */\n      dup2\n        /* \"#utility.yul\":23001:23031   */\n      tag_350\n      jump\t// in\n    tag_615:\n        /* \"#utility.yul\":22990:23031   */\n      swap2\n      pop\n        /* \"#utility.yul\":23180:23181   */\n      dup3\n        /* \"#utility.yul\":23171:23178   */\n      dup3\n        /* \"#utility.yul\":23167:23182   */\n      div\n        /* \"#utility.yul\":23164:23165   */\n      dup5\n        /* \"#utility.yul\":23161:23183   */\n      eq\n        /* \"#utility.yul\":23141:23142   */\n      dup4\n        /* \"#utility.yul\":23134:23143   */\n      iszero\n        /* \"#utility.yul\":23114:23197   */\n      or\n        /* \"#utility.yul\":23091:23230   */\n      tag_616\n      jumpi\n        /* \"#utility.yul\":23210:23228   */\n      tag_617\n      tag_384\n      jump\t// in\n    tag_617:\n        /* \"#utility.yul\":23091:23230   */\n    tag_616:\n        /* \"#utility.yul\":22875:23237   */\n      pop\n        /* \"#utility.yul\":22827:23237   */\n      swap3\n      swap2\n      pop\n      pop\n      jump\t// out\n        /* \"#utility.yul\":23243:23434   */\n    tag_271:\n        /* \"#utility.yul\":23283:23286   */\n      0x00\n        /* \"#utility.yul\":23302:23322   */\n      tag_619\n        /* \"#utility.yul\":23320:23321   */\n      dup3\n        /* \"#utility.yul\":23302:23322   */\n      tag_350\n      jump\t// in\n    tag_619:\n        /* \"#utility.yul\":23297:23322   */\n      swap2\n      pop\n        /* \"#utility.yul\":23336:23356   */\n      tag_620\n        /* \"#utility.yul\":23354:23355   */\n      dup4\n        /* \"#utility.yul\":23336:23356   */\n      tag_350\n      jump\t// in\n    tag_620:\n        /* \"#utility.yul\":23331:23356   */\n      swap3\n      pop\n        /* \"#utility.yul\":23379:23380   */\n      dup3\n        /* \"#utility.yul\":23376:23377   */\n      dup3\n        /* \"#utility.yul\":23372:23381   */\n      add\n        /* \"#utility.yul\":23365:23381   */\n      swap1\n      pop\n        /* \"#utility.yul\":23400:23403   */\n      dup1\n        /* \"#utility.yul\":23397:23398   */\n      dup3\n        /* \"#utility.yul\":23394:23404   */\n      gt\n        /* \"#utility.yul\":23391:23427   */\n      iszero\n      tag_621\n      jumpi\n        /* \"#utility.yul\":23407:23425   */\n      tag_622\n      tag_384\n      jump\t// in\n    tag_622:\n        /* \"#utility.yul\":23391:23427   */\n    tag_621:\n        /* \"#utility.yul\":23243:23434   */\n      swap3\n      swap2\n      pop\n      pop\n      jump\t// out\n        /* \"#utility.yul\":23440:23620   */\n    tag_412:\n        /* \"#utility.yul\":23488:23565   */\n      0x4e487b7100000000000000000000000000000000000000000000000000000000\n        /* \"#utility.yul\":23485:23486   */\n      0x00\n        /* \"#utility.yul\":23478:23566   */\n      mstore\n        /* \"#utility.yul\":23585:23589   */\n      0x12\n        /* \"#utility.yul\":23582:23583   */\n      0x04\n        /* \"#utility.yul\":23575:23590   */\n      mstore\n        /* \"#utility.yul\":23609:23613   */\n      0x24\n        /* \"#utility.yul\":23606:23607   */\n      0x00\n        /* \"#utility.yul\":23599:23614   */\n      revert\n        /* \"#utility.yul\":23626:23802   */\n    tag_273:\n        /* \"#utility.yul\":23658:23659   */\n      0x00\n        /* \"#utility.yul\":23675:23695   */\n      tag_625\n        /* \"#utility.yul\":23693:23694   */\n      dup3\n        /* \"#utility.yul\":23675:23695   */\n      tag_350\n      jump\t// in\n    tag_625:\n        /* \"#utility.yul\":23670:23695   */\n      swap2\n      pop\n        /* \"#utility.yul\":23709:23729   */\n      tag_626\n        /* \"#utility.yul\":23727:23728   */\n      dup4\n        /* \"#utility.yul\":23709:23729   */\n      tag_350\n      jump\t// in\n    tag_626:\n        /* \"#utility.yul\":23704:23729   */\n      swap3\n      pop\n        /* \"#utility.yul\":23748:23749   */\n      dup3\n        /* \"#utility.yul\":23738:23773   */\n      tag_627\n      jumpi\n        /* \"#utility.yul\":23753:23771   */\n      tag_628\n      tag_412\n      jump\t// in\n    tag_628:\n        /* \"#utility.yul\":23738:23773   */\n    tag_627:\n        /* \"#utility.yul\":23794:23795   */\n      dup3\n        /* \"#utility.yul\":23791:23792   */\n      dup3\n        /* \"#utility.yul\":23787:23796   */\n      mod\n        /* \"#utility.yul\":23782:23796   */\n      swap1\n      pop\n        /* \"#utility.yul\":23626:23802   */\n      swap3\n      swap2\n      pop\n      pop\n      jump\t// out\n        /* \"#utility.yul\":23808:23993   */\n    tag_308:\n        /* \"#utility.yul\":23848:23849   */\n      0x00\n        /* \"#utility.yul\":23865:23885   */\n      tag_630\n        /* \"#utility.yul\":23883:23884   */\n      dup3\n        /* \"#utility.yul\":23865:23885   */\n      tag_350\n      jump\t// in\n    tag_630:\n        /* \"#utility.yul\":23860:23885   */\n      swap2\n      pop\n        /* \"#utility.yul\":23899:23919   */\n      tag_631\n        /* \"#utility.yul\":23917:23918   */\n      dup4\n        /* \"#utility.yul\":23899:23919   */\n      tag_350\n      jump\t// in\n    tag_631:\n        /* \"#utility.yul\":23894:23919   */\n      swap3\n      pop\n        /* \"#utility.yul\":23938:23939   */\n      dup3\n        /* \"#utility.yul\":23928:23963   */\n      tag_632\n      jumpi\n        /* \"#utility.yul\":23943:23961   */\n      tag_633\n      tag_412\n      jump\t// in\n    tag_633:\n        /* \"#utility.yul\":23928:23963   */\n    tag_632:\n        /* \"#utility.yul\":23985:23986   */\n      dup3\n        /* \"#utility.yul\":23982:23983   */\n      dup3\n        /* \"#utility.yul\":23978:23987   */\n      div\n        /* \"#utility.yul\":23973:23987   */\n      swap1\n      pop\n        /* \"#utility.yul\":23808:23993   */\n      swap3\n      swap2\n      pop\n      pop\n      jump\t// out\n        /* \"#utility.yul\":23999:24441   */\n    tag_339:\n        /* \"#utility.yul\":24148:24152   */\n      0x00\n        /* \"#utility.yul\":24186:24188   */\n      0x60\n        /* \"#utility.yul\":24175:24184   */\n      dup3\n        /* \"#utility.yul\":24171:24189   */\n      add\n        /* \"#utility.yul\":24163:24189   */\n      swap1\n      pop\n        /* \"#utility.yul\":24199:24270   */\n      tag_635\n        /* \"#utility.yul\":24267:24268   */\n      0x00\n        /* \"#utility.yul\":24256:24265   */\n      dup4\n        /* \"#utility.yul\":24252:24269   */\n      add\n        /* \"#utility.yul\":24243:24249   */\n      dup7\n        /* \"#utility.yul\":24199:24270   */\n      tag_373\n      jump\t// in\n    tag_635:\n        /* \"#utility.yul\":24280:24352   */\n      tag_636\n        /* \"#utility.yul\":24348:24350   */\n      0x20\n        /* \"#utility.yul\":24337:24346   */\n      dup4\n        /* \"#utility.yul\":24333:24351   */\n      add\n        /* \"#utility.yul\":24324:24330   */\n      dup6\n        /* \"#utility.yul\":24280:24352   */\n      tag_373\n      jump\t// in\n    tag_636:\n        /* \"#utility.yul\":24362:24434   */\n      tag_637\n        /* \"#utility.yul\":24430:24432   */\n      0x40\n        /* \"#utility.yul\":24419:24428   */\n      dup4\n        /* \"#utility.yul\":24415:24433   */\n      add\n        /* \"#utility.yul\":24406:24412   */\n      dup5\n        /* \"#utility.yul\":24362:24434   */\n      tag_351\n      jump\t// in\n    tag_637:\n        /* \"#utility.yul\":23999:24441   */\n      swap5\n      swap4\n      pop\n      pop\n      pop\n      pop\n      jump\t// out\n\n    auxdata: 0xa264697066735822122004072739bbf6a17e678b58c9e915c253d82d5355dd42ff10e5f9fd7abcf0344864736f6c634300081a0033\n}\n",
				"bytecode": {
					"linkReferences": {},
					"object": "60806040525f6003555f6004555f6005555f600955601e600a555f600b5f6101000a81548160ff02191690831515021790555034801561003d575f80fd5b50604051612db3380380612db3833981810160405281019061005f9190610184565b825f806101000a81548173ffffffffffffffffffffffffffffffffffffffff021916908373ffffffffffffffffffffffffffffffffffffffff1602179055508160015f6101000a81548173ffffffffffffffffffffffffffffffffffffffff021916908373ffffffffffffffffffffffffffffffffffffffff1602179055508060025f6101000a81548173ffffffffffffffffffffffffffffffffffffffff021916908373ffffffffffffffffffffffffffffffffffffffff1602179055505050506101d4565b5f80fd5b5f73ffffffffffffffffffffffffffffffffffffffff82169050919050565b5f6101538261012a565b9050919050565b61016381610149565b811461016d575f80fd5b50565b5f8151905061017e8161015a565b92915050565b5f805f6060848603121561019b5761019a610126565b5b5f6101a886828701610170565b93505060206101b986828701610170565b92505060406101ca86828701610170565b9150509250925092565b612bd2806101e15f395ff3fe608060405234801561000f575f80fd5b5060043610610109575f3560e01c806390d5d0c3116100a0578063c08d1fe51161006f578063c08d1fe51461026f578063c876e6151461028d578063f14fcbc8146102ab578063f71d96cb146102c7578063fc0c546a146102f757610109565b806390d5d0c3146101f95780639d7b3f2d14610217578063a040478d14610235578063a224cb3e1461026557610109565b80633c6a7f9b116100dc5780633c6a7f9b1461018357806355f6497d146101a1578063701fd0f1146101bf57806387e69625146101db57610109565b8063086f78151461010d578063190cf7451461012b578063228cb7331461015b57806327b5db8a14610179575b5f80fd5b610115610315565b6040516101229190611fd2565b60405180910390f35b61014560048036038101906101409190612049565b61031b565b604051610152919061208e565b60405180910390f35b610163610338565b6040516101709190611fd2565b60405180910390f35b61018161033e565b005b61018b61066c565b6040516101989190612102565b60405180910390f35b6101a961068f565b6040516101b6919061208e565b60405180910390f35b6101d960048036038101906101d4919061214e565b6106a1565b005b6101e36108e3565b6040516101f09190611fd2565b60405180910390f35b6102016108ec565b60405161020e9190611fd2565b60405180910390f35b61021f6108f2565b60405161022c9190612199565b60405180910390f35b61024f600480360381019061024a9190612049565b610917565b60405161025c9190611fd2565b60405180910390f35b61026d61092c565b005b6102776110d3565b6040516102849190611fd2565b60405180910390f35b6102956110d9565b6040516102a29190611fd2565b60405180910390f35b6102c560048036038101906102c0919061214e565b6110df565b005b6102e160048036038101906102dc91906121dc565b61170b565b6040516102ee9190612216565b60405180910390f35b6102ff611746565b60405161030c919061224f565b60405180910390f35b60095481565b6007602052805f5260405f205f915054906101000a900460ff1681565b60045481565b600260035410610383576040517f08c379a000000000000000000000000000000000000000000000000000000000815260040161037a906122c2565b60405180910390fd5b5f60035411156104375760085f815481106103a1576103a06122e0565b5b905f5260205f20015f9054906101000a900473ffffffffffffffffffffffffffffffffffffffff1673ffffffffffffffffffffffffffffffffffffffff163373ffffffffffffffffffffffffffffffffffffffff1603610436576040517f08c379a000000000000000000000000000000000000000000000000000000000815260040161042d9061237d565b60405180910390fd5b5b64e8d4a5100060025f9054906101000a900473ffffffffffffffffffffffffffffffffffffffff1673ffffffffffffffffffffffffffffffffffffffff1663dd62ed3e33306040518363ffffffff1660e01b815260040161049992919061239b565b602060405180830381865afa1580156104b4573d5f803e3d5ffd5b505050506040513d601f19601f820116820180604052508101906104d891906123d6565b1015610519576040517f08c379a00000000000000000000000000000000000000000000000000000000081526004016105109061244b565b60405180910390fd5b600160075f3373ffffffffffffffffffffffffffffffffffffffff1673ffffffffffffffffffffffffffffffffffffffff1681526020019081526020015f205f6101000a81548160ff021916908315150217905550600833908060018154018082558091505060019003905f5260205f20015f9091909190916101000a81548173ffffffffffffffffffffffffffffffffffffffff021916908373ffffffffffffffffffffffffffffffffffffffff16021790555060035f8154809291906105e090612496565b919050555060016003540361066a575f8054906101000a900473ffffffffffffffffffffffffffffffffffffffff1673ffffffffffffffffffffffffffffffffffffffff1663a63f7c536040518163ffffffff1660e01b81526004015f604051808303815f87803b158015610653575f80fd5b505af1158015610665573d5f803e3d5ffd5b505050505b565b5f8054906101000a900473ffffffffffffffffffffffffffffffffffffffff1681565b600b5f9054906101000a900460ff1681565b6002600354146106e6576040517f08c379a00000000000000000000000000000000000000000000000000000000081526004016106dd90612527565b60405180910390fd5b60026009541461072b576040517f08c379a00000000000000000000000000000000000000000000000000000000081526004016107229061258f565b60405180910390fd5b600b5f9054906101000a900460ff16610779576040517f08c379a00000000000000000000000000000000000000000000000000000000081526004016107709061261d565b60405180910390fd5b60015f9054906101000a900473ffffffffffffffffffffffffffffffffffffffff1673ffffffffffffffffffffffffffffffffffffffff1663ad48779082336040518363ffffffff1660e01b81526004016107d592919061264a565b5f604051808303815f87803b1580156107ec575f80fd5b505af11580156107fe573d5f803e3d5ffd5b505050505f81601f60208110610817576108166122e0565b5b1a60f81b60f81c60ff1690505f8110158015610834575060048111155b610873576040517f08c379a000000000000000000000000000000000000000000000000000000000815260040161086a906126bb565b60405180910390fd5b8060065f3373ffffffffffffffffffffffffffffffffffffffff1673ffffffffffffffffffffffffffffffffffffffff1681526020019081526020015f208190555060055f8154809291906108c790612496565b91905055506002600554036108df576108de61176b565b5b5050565b64e8d4a5100081565b60035481565b60015f9054906101000a900473ffffffffffffffffffffffffffffffffffffffff1681565b6006602052805f5260405f205f915090505481565b60026003541480156109495750600b5f9054906101000a900460ff165b610988576040517f08c379a000000000000000000000000000000000000000000000000000000000815260040161097f90612723565b60405180910390fd5b600a545f8054906101000a900473ffffffffffffffffffffffffffffffffffffffff1673ffffffffffffffffffffffffffffffffffffffff1663bc06b8cd6040518163ffffffff1660e01b8152600401602060405180830381865afa1580156109f3573d5f803e3d5ffd5b505050506040513d601f19601f82011682018060405250810190610a1791906123d6565b1015610a58576040517f08c379a0000000000000000000000000000000000000000000000000000000008152600401610a4f9061278b565b60405180910390fd5b600260055410610a9d576040517f08c379a0000000000000000000000000000000000000000000000000000000008152600401610a94906127f3565b60405180910390fd5b5f60055403610b8d575f60025f9054906101000a900473ffffffffffffffffffffffffffffffffffffffff1673ffffffffffffffffffffffffffffffffffffffff1663a9059cbb336004546040518363ffffffff1660e01b8152600401610b05929190612811565b6020604051808303815f875af1158015610b21573d5f803e3d5ffd5b505050506040513d601f19601f82011682018060405250810190610b459190612862565b905080610b87576040517f08c379a0000000000000000000000000000000000000000000000000000000008152600401610b7e906128d7565b60405180910390fd5b506110c9565b5f60015f9054906101000a900473ffffffffffffffffffffffffffffffffffffffff1673ffffffffffffffffffffffffffffffffffffffff16637b43a8e660085f81548110610bdf57610bde6122e0565b5b905f5260205f20015f9054906101000a900473ffffffffffffffffffffffffffffffffffffffff166040518263ffffffff1660e01b8152600401610c239190612216565b606060405180830381865afa158015610c3e573d5f803e3d5ffd5b505050506040513d601f19601f82011682018060405250810190610c629190612946565b925050505f60015f9054906101000a900473ffffffffffffffffffffffffffffffffffffffff1673ffffffffffffffffffffffffffffffffffffffff16637b43a8e66008600181548110610cb957610cb86122e0565b5b905f5260205f20015f9054906101000a900473ffffffffffffffffffffffffffffffffffffffff166040518263ffffffff1660e01b8152600401610cfd9190612216565b606060405180830381865afa158015610d18573d5f803e3d5ffd5b505050506040513d601f19601f82011682018060405250810190610d3c9190612946565b92505050818015610d4b575080155b8015610dbd575060085f81548110610d6657610d656122e0565b5b905f5260205f20015f9054906101000a900473ffffffffffffffffffffffffffffffffffffffff1673ffffffffffffffffffffffffffffffffffffffff163373ffffffffffffffffffffffffffffffffffffffff16145b15610ee4575f60025f9054906101000a900473ffffffffffffffffffffffffffffffffffffffff1673ffffffffffffffffffffffffffffffffffffffff1663a9059cbb60085f81548110610e1457610e136122e0565b5b905f5260205f20015f9054906101000a900473ffffffffffffffffffffffffffffffffffffffff166004546040518363ffffffff1660e01b8152600401610e5c929190612811565b6020604051808303815f875af1158015610e78573d5f803e3d5ffd5b505050506040513d601f19601f82011682018060405250810190610e9c9190612862565b905080610ede576040517f08c379a0000000000000000000000000000000000000000000000000000000008152600401610ed5906128d7565b60405180910390fd5b506110c6565b81158015610eef5750805b8015610f6257506008600181548110610f0b57610f0a6122e0565b5b905f5260205f20015f9054906101000a900473ffffffffffffffffffffffffffffffffffffffff1673ffffffffffffffffffffffffffffffffffffffff163373ffffffffffffffffffffffffffffffffffffffff16145b1561108a575f60025f9054906101000a900473ffffffffffffffffffffffffffffffffffffffff1673ffffffffffffffffffffffffffffffffffffffff1663a9059cbb6008600181548110610fba57610fb96122e0565b5b905f5260205f20015f9054906101000a900473ffffffffffffffffffffffffffffffffffffffff166004546040518363ffffffff1660e01b8152600401611002929190612811565b6020604051808303815f875af115801561101e573d5f803e3d5ffd5b505050506040513d601f19601f820116820180604052508101906110429190612862565b905080611084576040517f08c379a000000000000000000000000000000000000000000000000000000000815260040161107b906128d7565b60405180910390fd5b506110c5565b6040517f08c379a00000000000000000000000000000000000000000000000000000000081526004016110bc906129e0565b60405180910390fd5b5b50505b6110d1611d57565b565b600a5481565b60055481565b600260035414611124576040517f08c379a000000000000000000000000000000000000000000000000000000000815260040161111b90612527565b60405180910390fd5b60075f3373ffffffffffffffffffffffffffffffffffffffff1673ffffffffffffffffffffffffffffffffffffffff1681526020019081526020015f205f9054906101000a900460ff166111ad576040517f08c379a00000000000000000000000000000000000000000000000000000000081526004016111a490612a48565b60405180910390fd5b64e8d4a5100060025f9054906101000a900473ffffffffffffffffffffffffffffffffffffffff1673ffffffffffffffffffffffffffffffffffffffff1663dd62ed3e33306040518363ffffffff1660e01b815260040161120f92919061239b565b602060405180830381865afa15801561122a573d5f803e3d5ffd5b505050506040513d601f19601f8201168201806040525081019061124e91906123d6565b101561128f576040517f08c379a00000000000000000000000000000000000000000000000000000000081526004016112869061244b565b60405180910390fd5b60015f9054906101000a900473ffffffffffffffffffffffffffffffffffffffff1673ffffffffffffffffffffffffffffffffffffffff16635a74610182336040518363ffffffff1660e01b81526004016112eb92919061264a565b5f604051808303815f87803b158015611302575f80fd5b505af1158015611314573d5f803e3d5ffd5b5050505060075f3373ffffffffffffffffffffffffffffffffffffffff1673ffffffffffffffffffffffffffffffffffffffff1681526020019081526020015f205f9054906101000a900460ff16156113d35760095f81548092919061137990612496565b91905055505f60075f3373ffffffffffffffffffffffffffffffffffffffff1673ffffffffffffffffffffffffffffffffffffffff1681526020019081526020015f205f6101000a81548160ff0219169083151502179055505b60026009541480156113f15750600b5f9054906101000a900460ff16155b156117085764e8d4a5100060025f9054906101000a900473ffffffffffffffffffffffffffffffffffffffff1673ffffffffffffffffffffffffffffffffffffffff1663dd62ed3e60085f8154811061144d5761144c6122e0565b5b905f5260205f20015f9054906101000a900473ffffffffffffffffffffffffffffffffffffffff16306040518363ffffffff1660e01b815260040161149392919061239b565b602060405180830381865afa1580156114ae573d5f803e3d5ffd5b505050506040513d601f19601f820116820180604052508101906114d291906123d6565b101580156115bb575064e8d4a5100060025f9054906101000a900473ffffffffffffffffffffffffffffffffffffffff1673ffffffffffffffffffffffffffffffffffffffff1663dd62ed3e6008600181548110611533576115326122e0565b5b905f5260205f20015f9054906101000a900473ffffffffffffffffffffffffffffffffffffffff16306040518363ffffffff1660e01b815260040161157992919061239b565b602060405180830381865afa158015611594573d5f803e3d5ffd5b505050506040513d601f19601f820116820180604052508101906115b891906123d6565b10155b6115fa576040517f08c379a00000000000000000000000000000000000000000000000000000000081526004016115f19061244b565b60405180910390fd5b61166760025f9054906101000a900473ffffffffffffffffffffffffffffffffffffffff1660085f81548110611633576116326122e0565b5b905f5260205f20015f9054906101000a900473ffffffffffffffffffffffffffffffffffffffff163064e8d4a51000611eba565b6116d560025f9054906101000a900473ffffffffffffffffffffffffffffffffffffffff1660086001815481106116a1576116a06122e0565b5b905f5260205f20015f9054906101000a900473ffffffffffffffffffffffffffffffffffffffff163064e8d4a51000611eba565b600264e8d4a510006116e79190612a66565b6004819055506001600b5f6101000a81548160ff0219169083151502179055505b50565b6008818154811061171a575f80fd5b905f5260205f20015f915054906101000a900473ffffffffffffffffffffffffffffffffffffffff1681565b60025f9054906101000a900473ffffffffffffffffffffffffffffffffffffffff1681565b5f60065f60085f81548110611783576117826122e0565b5b905f5260205f20015f9054906101000a900473ffffffffffffffffffffffffffffffffffffffff1673ffffffffffffffffffffffffffffffffffffffff1673ffffffffffffffffffffffffffffffffffffffff1681526020019081526020015f205490505f60065f6008600181548110611800576117ff6122e0565b5b905f5260205f20015f9054906101000a900473ffffffffffffffffffffffffffffffffffffffff1673ffffffffffffffffffffffffffffffffffffffff1673ffffffffffffffffffffffffffffffffffffffff1681526020019081526020015f205490508060036001846118749190612aa7565b61187e9190612b07565b14806118a157508060056003846118959190612aa7565b61189f9190612b07565b145b156119c8575f60025f9054906101000a900473ffffffffffffffffffffffffffffffffffffffff1673ffffffffffffffffffffffffffffffffffffffff1663a9059cbb60085f815481106118f8576118f76122e0565b5b905f5260205f20015f9054906101000a900473ffffffffffffffffffffffffffffffffffffffff166004546040518363ffffffff1660e01b8152600401611940929190612811565b6020604051808303815f875af115801561195c573d5f803e3d5ffd5b505050506040513d601f19601f820116820180604052508101906119809190612862565b9050806119c2576040517f08c379a00000000000000000000000000000000000000000000000000000000081526004016119b9906128d7565b60405180910390fd5b50611d4b565b8160036001836119d89190612aa7565b6119e29190612b07565b1480611a0557508160056003836119f99190612aa7565b611a039190612b07565b145b15611b2d575f60025f9054906101000a900473ffffffffffffffffffffffffffffffffffffffff1673ffffffffffffffffffffffffffffffffffffffff1663a9059cbb6008600181548110611a5d57611a5c6122e0565b5b905f5260205f20015f9054906101000a900473ffffffffffffffffffffffffffffffffffffffff166004546040518363ffffffff1660e01b8152600401611aa5929190612811565b6020604051808303815f875af1158015611ac1573d5f803e3d5ffd5b505050506040513d601f19601f82011682018060405250810190611ae59190612862565b905080611b27576040517f08c379a0000000000000000000000000000000000000000000000000000000008152600401611b1e906128d7565b60405180910390fd5b50611d4a565b5f60025f9054906101000a900473ffffffffffffffffffffffffffffffffffffffff1673ffffffffffffffffffffffffffffffffffffffff1663a9059cbb60085f81548110611b7f57611b7e6122e0565b5b905f5260205f20015f9054906101000a900473ffffffffffffffffffffffffffffffffffffffff166002600454611bb69190612b37565b6040518363ffffffff1660e01b8152600401611bd3929190612811565b6020604051808303815f875af1158015611bef573d5f803e3d5ffd5b505050506040513d601f19601f82011682018060405250810190611c139190612862565b90505f60025f9054906101000a900473ffffffffffffffffffffffffffffffffffffffff1673ffffffffffffffffffffffffffffffffffffffff1663a9059cbb6008600181548110611c6857611c676122e0565b5b905f5260205f20015f9054906101000a900473ffffffffffffffffffffffffffffffffffffffff166002600454611c9f9190612b37565b6040518363ffffffff1660e01b8152600401611cbc929190612811565b6020604051808303815f875af1158015611cd8573d5f803e3d5ffd5b505050506040513d601f19601f82011682018060405250810190611cfc9190612862565b9050818015611d085750805b611d47576040517f08c379a0000000000000000000000000000000000000000000000000000000008152600401611d3e906128d7565b60405180910390fd5b50505b5b611d53611d57565b5050565b5f6004819055505f600b5f6101000a81548160ff0219169083151502179055505f5b600880549050811015611e955760065f60088381548110611d9d57611d9c6122e0565b5b905f5260205f20015f9054906101000a900473ffffffffffffffffffffffffffffffffffffffff1673ffffffffffffffffffffffffffffffffffffffff1673ffffffffffffffffffffffffffffffffffffffff1681526020019081526020015f205f905560075f60088381548110611e1857611e176122e0565b5b905f5260205f20015f9054906101000a900473ffffffffffffffffffffffffffffffffffffffff1673ffffffffffffffffffffffffffffffffffffffff1673ffffffffffffffffffffffffffffffffffffffff1681526020019081526020015f205f6101000a81549060ff02191690558080600101915050611d79565b5060085f611ea39190611f81565b5f6003819055505f6009819055505f600581905550565b5f8473ffffffffffffffffffffffffffffffffffffffff166323b872dd8585856040518463ffffffff1660e01b8152600401611ef893929190612b67565b6020604051808303815f875af1158015611f14573d5f803e3d5ffd5b505050506040513d601f19601f82011682018060405250810190611f389190612862565b905080611f7a576040517f08c379a0000000000000000000000000000000000000000000000000000000008152600401611f71906128d7565b60405180910390fd5b5050505050565b5080545f8255905f5260205f2090810190611f9c9190611f9f565b50565b5b80821115611fb6575f815f905550600101611fa0565b5090565b5f819050919050565b611fcc81611fba565b82525050565b5f602082019050611fe55f830184611fc3565b92915050565b5f80fd5b5f73ffffffffffffffffffffffffffffffffffffffff82169050919050565b5f61201882611fef565b9050919050565b6120288161200e565b8114612032575f80fd5b50565b5f813590506120438161201f565b92915050565b5f6020828403121561205e5761205d611feb565b5b5f61206b84828501612035565b91505092915050565b5f8115159050919050565b61208881612074565b82525050565b5f6020820190506120a15f83018461207f565b92915050565b5f819050919050565b5f6120ca6120c56120c084611fef565b6120a7565b611fef565b9050919050565b5f6120db826120b0565b9050919050565b5f6120ec826120d1565b9050919050565b6120fc816120e2565b82525050565b5f6020820190506121155f8301846120f3565b92915050565b5f819050919050565b61212d8161211b565b8114612137575f80fd5b50565b5f8135905061214881612124565b92915050565b5f6020828403121561216357612162611feb565b5b5f6121708482850161213a565b91505092915050565b5f612183826120d1565b9050919050565b61219381612179565b82525050565b5f6020820190506121ac5f83018461218a565b92915050565b6121bb81611fba565b81146121c5575f80fd5b50565b5f813590506121d6816121b2565b92915050565b5f602082840312156121f1576121f0611feb565b5b5f6121fe848285016121c8565b91505092915050565b6122108161200e565b82525050565b5f6020820190506122295f830184612207565b92915050565b5f612239826120d1565b9050919050565b6122498161222f565b82525050565b5f6020820190506122625f830184612240565b92915050565b5f82825260208201905092915050565b7f47616d6520616c726561647920686173203220706c61796572730000000000005f82015250565b5f6122ac601a83612268565b91506122b782612278565b602082019050919050565b5f6020820190508181035f8301526122d9816122a0565b9050919050565b7f4e487b71000000000000000000000000000000000000000000000000000000005f52603260045260245ffd5b7f596f752061726520616c726561647920726567697374657265642061732061205f8201527f706c617965720000000000000000000000000000000000000000000000000000602082015250565b5f612367602683612268565b91506123728261230d565b604082019050919050565b5f6020820190508181035f8301526123948161235b565b9050919050565b5f6040820190506123ae5f830185612207565b6123bb6020830184612207565b9392505050565b5f815190506123d0816121b2565b92915050565b5f602082840312156123eb576123ea611feb565b5b5f6123f8848285016123c2565b91505092915050565b7f496e73756666696369656e7420746f6b656e20616c6c6f77616e6365000000005f82015250565b5f612435601c83612268565b915061244082612401565b602082019050919050565b5f6020820190508181035f83015261246281612429565b9050919050565b7f4e487b71000000000000000000000000000000000000000000000000000000005f52601160045260245ffd5b5f6124a082611fba565b91507fffffffffffffffffffffffffffffffffffffffffffffffffffffffffffffffff82036124d2576124d1612469565b5b600182019050919050565b7f4e6565642065786163746c79203220706c6179657273000000000000000000005f82015250565b5f612511601683612268565b915061251c826124dd565b602082019050919050565b5f6020820190508181035f83015261253e81612505565b9050919050565b7f426f746820706c6179657273206d75737420636f6d6d697420666972737400005f82015250565b5f612579601e83612268565b915061258482612545565b602082019050919050565b5f6020820190508181035f8301526125a68161256d565b9050919050565b7f46756e6473206e6f7420796574207472616e7366657272656420746f20636f6e5f8201527f7472616374000000000000000000000000000000000000000000000000000000602082015250565b5f612607602583612268565b9150612612826125ad565b604082019050919050565b5f6020820190508181035f830152612634816125fb565b9050919050565b6126448161211b565b82525050565b5f60408201905061265d5f83018561263b565b61266a6020830184612207565b9392505050565b7f43686f696365206973206e6f742076616c6964000000000000000000000000005f82015250565b5f6126a5601383612268565b91506126b082612671565b602082019050919050565b5f6020820190508181035f8301526126d281612699565b9050919050565b7f47616d65206e6f7420696e20636f7272656374207374617465000000000000005f82015250565b5f61270d601983612268565b9150612718826126d9565b602082019050919050565b5f6020820190508181035f83015261273a81612701565b9050919050565b7f54696d65206c696d6974206e6f742072656163686564000000000000000000005f82015250565b5f612775601683612268565b915061278082612741565b602082019050919050565b5f6020820190508181035f8301526127a281612769565b9050919050565b7f426f746820706c617965727320616c72656164792072657665616c65640000005f82015250565b5f6127dd601d83612268565b91506127e8826127a9565b602082019050919050565b5f6020820190508181035f83015261280a816127d1565b9050919050565b5f6040820190506128245f830185612207565b6128316020830184611fc3565b9392505050565b61284181612074565b811461284b575f80fd5b50565b5f8151905061285c81612838565b92915050565b5f6020828403121561287757612876611feb565b5b5f6128848482850161284e565b91505092915050565b7f546f6b656e207472616e73666572206661696c656400000000000000000000005f82015250565b5f6128c1601583612268565b91506128cc8261288d565b602082019050919050565b5f6020820190508181035f8301526128ee816128b5565b9050919050565b5f8151905061290381612124565b92915050565b5f67ffffffffffffffff82169050919050565b61292581612909565b811461292f575f80fd5b50565b5f815190506129408161291c565b92915050565b5f805f6060848603121561295d5761295c611feb565b5b5f61296a868287016128f5565b935050602061297b86828701612932565b925050604061298c8682870161284e565b9150509250925092565b7f596f752063616e6e6f7420636c61696d207468652072657761726400000000005f82015250565b5f6129ca601b83612268565b91506129d582612996565b602082019050919050565b5f6020820190508181035f8301526129f7816129be565b9050919050565b7f596f7520616c7265616479206d61646520796f75722063686f696365000000005f82015250565b5f612a32601c83612268565b9150612a3d826129fe565b602082019050919050565b5f6020820190508181035f830152612a5f81612a26565b9050919050565b5f612a7082611fba565b9150612a7b83611fba565b9250828202612a8981611fba565b91508282048414831517612aa057612a9f612469565b5b5092915050565b5f612ab182611fba565b9150612abc83611fba565b9250828201905080821115612ad457612ad3612469565b5b92915050565b7f4e487b71000000000000000000000000000000000000000000000000000000005f52601260045260245ffd5b5f612b1182611fba565b9150612b1c83611fba565b925082612b2c57612b2b612ada565b5b828206905092915050565b5f612b4182611fba565b9150612b4c83611fba565b925082612b5c57612b5b612ada565b5b828204905092915050565b5f606082019050612b7a5f830186612207565b612b876020830185612207565b612b946040830184611fc3565b94935050505056fea264697066735822122004072739bbf6a17e678b58c9e915c253d82d5355dd42ff10e5f9fd7abcf0344864736f6c634300081a0033",
					"opcodes": "PUSH1 0x80 PUSH1 0x40 MSTORE PUSH0 PUSH1 0x3 SSTORE PUSH0 PUSH1 0x4 SSTORE PUSH0 PUSH1 0x5 SSTORE PUSH0 PUSH1 0x9 SSTORE PUSH1 0x1E PUSH1 0xA SSTORE PUSH0 PUSH1 0xB PUSH0 PUSH2 0x100 EXP DUP2 SLOAD DUP2 PUSH1 0xFF MUL NOT AND SWAP1 DUP4 ISZERO ISZERO MUL OR SWAP1 SSTORE POP CALLVALUE DUP1 ISZERO PUSH2 0x3D JUMPI PUSH0 DUP1 REVERT JUMPDEST POP PUSH1 0x40 MLOAD PUSH2 0x2DB3 CODESIZE SUB DUP1 PUSH2 0x2DB3 DUP4 CODECOPY DUP2 DUP2 ADD PUSH1 0x40 MSTORE DUP2 ADD SWAP1 PUSH2 0x5F SWAP2 SWAP1 PUSH2 0x184 JUMP JUMPDEST DUP3 PUSH0 DUP1 PUSH2 0x100 EXP DUP2 SLOAD DUP2 PUSH20 0xFFFFFFFFFFFFFFFFFFFFFFFFFFFFFFFFFFFFFFFF MUL NOT AND SWAP1 DUP4 PUSH20 0xFFFFFFFFFFFFFFFFFFFFFFFFFFFFFFFFFFFFFFFF AND MUL OR SWAP1 SSTORE POP DUP2 PUSH1 0x1 PUSH0 PUSH2 0x100 EXP DUP2 SLOAD DUP2 PUSH20 0xFFFFFFFFFFFFFFFFFFFFFFFFFFFFFFFFFFFFFFFF MUL NOT AND SWAP1 DUP4 PUSH20 0xFFFFFFFFFFFFFFFFFFFFFFFFFFFFFFFFFFFFFFFF AND MUL OR SWAP1 SSTORE POP DUP1 PUSH1 0x2 PUSH0 PUSH2 0x100 EXP DUP2 SLOAD DUP2 PUSH20 0xFFFFFFFFFFFFFFFFFFFFFFFFFFFFFFFFFFFFFFFF MUL NOT AND SWAP1 DUP4 PUSH20 0xFFFFFFFFFFFFFFFFFFFFFFFFFFFFFFFFFFFFFFFF AND MUL OR SWAP1 SSTORE POP POP POP POP PUSH2 0x1D4 JUMP JUMPDEST PUSH0 DUP1 REVERT JUMPDEST PUSH0 PUSH20 0xFFFFFFFFFFFFFFFFFFFFFFFFFFFFFFFFFFFFFFFF DUP3 AND SWAP1 POP SWAP2 SWAP1 POP JUMP JUMPDEST PUSH0 PUSH2 0x153 DUP3 PUSH2 0x12A JUMP JUMPDEST SWAP1 POP SWAP2 SWAP1 POP JUMP JUMPDEST PUSH2 0x163 DUP2 PUSH2 0x149 JUMP JUMPDEST DUP2 EQ PUSH2 0x16D JUMPI PUSH0 DUP1 REVERT JUMPDEST POP JUMP JUMPDEST PUSH0 DUP2 MLOAD SWAP1 POP PUSH2 0x17E DUP2 PUSH2 0x15A JUMP JUMPDEST SWAP3 SWAP2 POP POP JUMP JUMPDEST PUSH0 DUP1 PUSH0 PUSH1 0x60 DUP5 DUP7 SUB SLT ISZERO PUSH2 0x19B JUMPI PUSH2 0x19A PUSH2 0x126 JUMP JUMPDEST JUMPDEST PUSH0 PUSH2 0x1A8 DUP7 DUP3 DUP8 ADD PUSH2 0x170 JUMP JUMPDEST SWAP4 POP POP PUSH1 0x20 PUSH2 0x1B9 DUP7 DUP3 DUP8 ADD PUSH2 0x170 JUMP JUMPDEST SWAP3 POP POP PUSH1 0x40 PUSH2 0x1CA DUP7 DUP3 DUP8 ADD PUSH2 0x170 JUMP JUMPDEST SWAP2 POP POP SWAP3 POP SWAP3 POP SWAP3 JUMP JUMPDEST PUSH2 0x2BD2 DUP1 PUSH2 0x1E1 PUSH0 CODECOPY PUSH0 RETURN INVALID PUSH1 0x80 PUSH1 0x40 MSTORE CALLVALUE DUP1 ISZERO PUSH2 0xF JUMPI PUSH0 DUP1 REVERT JUMPDEST POP PUSH1 0x4 CALLDATASIZE LT PUSH2 0x109 JUMPI PUSH0 CALLDATALOAD PUSH1 0xE0 SHR DUP1 PUSH4 0x90D5D0C3 GT PUSH2 0xA0 JUMPI DUP1 PUSH4 0xC08D1FE5 GT PUSH2 0x6F JUMPI DUP1 PUSH4 0xC08D1FE5 EQ PUSH2 0x26F JUMPI DUP1 PUSH4 0xC876E615 EQ PUSH2 0x28D JUMPI DUP1 PUSH4 0xF14FCBC8 EQ PUSH2 0x2AB JUMPI DUP1 PUSH4 0xF71D96CB EQ PUSH2 0x2C7 JUMPI DUP1 PUSH4 0xFC0C546A EQ PUSH2 0x2F7 JUMPI PUSH2 0x109 JUMP JUMPDEST DUP1 PUSH4 0x90D5D0C3 EQ PUSH2 0x1F9 JUMPI DUP1 PUSH4 0x9D7B3F2D EQ PUSH2 0x217 JUMPI DUP1 PUSH4 0xA040478D EQ PUSH2 0x235 JUMPI DUP1 PUSH4 0xA224CB3E EQ PUSH2 0x265 JUMPI PUSH2 0x109 JUMP JUMPDEST DUP1 PUSH4 0x3C6A7F9B GT PUSH2 0xDC JUMPI DUP1 PUSH4 0x3C6A7F9B EQ PUSH2 0x183 JUMPI DUP1 PUSH4 0x55F6497D EQ PUSH2 0x1A1 JUMPI DUP1 PUSH4 0x701FD0F1 EQ PUSH2 0x1BF JUMPI DUP1 PUSH4 0x87E69625 EQ PUSH2 0x1DB JUMPI PUSH2 0x109 JUMP JUMPDEST DUP1 PUSH4 0x86F7815 EQ PUSH2 0x10D JUMPI DUP1 PUSH4 0x190CF745 EQ PUSH2 0x12B JUMPI DUP1 PUSH4 0x228CB733 EQ PUSH2 0x15B JUMPI DUP1 PUSH4 0x27B5DB8A EQ PUSH2 0x179 JUMPI JUMPDEST PUSH0 DUP1 REVERT JUMPDEST PUSH2 0x115 PUSH2 0x315 JUMP JUMPDEST PUSH1 0x40 MLOAD PUSH2 0x122 SWAP2 SWAP1 PUSH2 0x1FD2 JUMP JUMPDEST PUSH1 0x40 MLOAD DUP1 SWAP2 SUB SWAP1 RETURN JUMPDEST PUSH2 0x145 PUSH1 0x4 DUP1 CALLDATASIZE SUB DUP2 ADD SWAP1 PUSH2 0x140 SWAP2 SWAP1 PUSH2 0x2049 JUMP JUMPDEST PUSH2 0x31B JUMP JUMPDEST PUSH1 0x40 MLOAD PUSH2 0x152 SWAP2 SWAP1 PUSH2 0x208E JUMP JUMPDEST PUSH1 0x40 MLOAD DUP1 SWAP2 SUB SWAP1 RETURN JUMPDEST PUSH2 0x163 PUSH2 0x338 JUMP JUMPDEST PUSH1 0x40 MLOAD PUSH2 0x170 SWAP2 SWAP1 PUSH2 0x1FD2 JUMP JUMPDEST PUSH1 0x40 MLOAD DUP1 SWAP2 SUB SWAP1 RETURN JUMPDEST PUSH2 0x181 PUSH2 0x33E JUMP JUMPDEST STOP JUMPDEST PUSH2 0x18B PUSH2 0x66C JUMP JUMPDEST PUSH1 0x40 MLOAD PUSH2 0x198 SWAP2 SWAP1 PUSH2 0x2102 JUMP JUMPDEST PUSH1 0x40 MLOAD DUP1 SWAP2 SUB SWAP1 RETURN JUMPDEST PUSH2 0x1A9 PUSH2 0x68F JUMP JUMPDEST PUSH1 0x40 MLOAD PUSH2 0x1B6 SWAP2 SWAP1 PUSH2 0x208E JUMP JUMPDEST PUSH1 0x40 MLOAD DUP1 SWAP2 SUB SWAP1 RETURN JUMPDEST PUSH2 0x1D9 PUSH1 0x4 DUP1 CALLDATASIZE SUB DUP2 ADD SWAP1 PUSH2 0x1D4 SWAP2 SWAP1 PUSH2 0x214E JUMP JUMPDEST PUSH2 0x6A1 JUMP JUMPDEST STOP JUMPDEST PUSH2 0x1E3 PUSH2 0x8E3 JUMP JUMPDEST PUSH1 0x40 MLOAD PUSH2 0x1F0 SWAP2 SWAP1 PUSH2 0x1FD2 JUMP JUMPDEST PUSH1 0x40 MLOAD DUP1 SWAP2 SUB SWAP1 RETURN JUMPDEST PUSH2 0x201 PUSH2 0x8EC JUMP JUMPDEST PUSH1 0x40 MLOAD PUSH2 0x20E SWAP2 SWAP1 PUSH2 0x1FD2 JUMP JUMPDEST PUSH1 0x40 MLOAD DUP1 SWAP2 SUB SWAP1 RETURN JUMPDEST PUSH2 0x21F PUSH2 0x8F2 JUMP JUMPDEST PUSH1 0x40 MLOAD PUSH2 0x22C SWAP2 SWAP1 PUSH2 0x2199 JUMP JUMPDEST PUSH1 0x40 MLOAD DUP1 SWAP2 SUB SWAP1 RETURN JUMPDEST PUSH2 0x24F PUSH1 0x4 DUP1 CALLDATASIZE SUB DUP2 ADD SWAP1 PUSH2 0x24A SWAP2 SWAP1 PUSH2 0x2049 JUMP JUMPDEST PUSH2 0x917 JUMP JUMPDEST PUSH1 0x40 MLOAD PUSH2 0x25C SWAP2 SWAP1 PUSH2 0x1FD2 JUMP JUMPDEST PUSH1 0x40 MLOAD DUP1 SWAP2 SUB SWAP1 RETURN JUMPDEST PUSH2 0x26D PUSH2 0x92C JUMP JUMPDEST STOP JUMPDEST PUSH2 0x277 PUSH2 0x10D3 JUMP JUMPDEST PUSH1 0x40 MLOAD PUSH2 0x284 SWAP2 SWAP1 PUSH2 0x1FD2 JUMP JUMPDEST PUSH1 0x40 MLOAD DUP1 SWAP2 SUB SWAP1 RETURN JUMPDEST PUSH2 0x295 PUSH2 0x10D9 JUMP JUMPDEST PUSH1 0x40 MLOAD PUSH2 0x2A2 SWAP2 SWAP1 PUSH2 0x1FD2 JUMP JUMPDEST PUSH1 0x40 MLOAD DUP1 SWAP2 SUB SWAP1 RETURN JUMPDEST PUSH2 0x2C5 PUSH1 0x4 DUP1 CALLDATASIZE SUB DUP2 ADD SWAP1 PUSH2 0x2C0 SWAP2 SWAP1 PUSH2 0x214E JUMP JUMPDEST PUSH2 0x10DF JUMP JUMPDEST STOP JUMPDEST PUSH2 0x2E1 PUSH1 0x4 DUP1 CALLDATASIZE SUB DUP2 ADD SWAP1 PUSH2 0x2DC SWAP2 SWAP1 PUSH2 0x21DC JUMP JUMPDEST PUSH2 0x170B JUMP JUMPDEST PUSH1 0x40 MLOAD PUSH2 0x2EE SWAP2 SWAP1 PUSH2 0x2216 JUMP JUMPDEST PUSH1 0x40 MLOAD DUP1 SWAP2 SUB SWAP1 RETURN JUMPDEST PUSH2 0x2FF PUSH2 0x1746 JUMP JUMPDEST PUSH1 0x40 MLOAD PUSH2 0x30C SWAP2 SWAP1 PUSH2 0x224F JUMP JUMPDEST PUSH1 0x40 MLOAD DUP1 SWAP2 SUB SWAP1 RETURN JUMPDEST PUSH1 0x9 SLOAD DUP2 JUMP JUMPDEST PUSH1 0x7 PUSH1 0x20 MSTORE DUP1 PUSH0 MSTORE PUSH1 0x40 PUSH0 KECCAK256 PUSH0 SWAP2 POP SLOAD SWAP1 PUSH2 0x100 EXP SWAP1 DIV PUSH1 0xFF AND DUP2 JUMP JUMPDEST PUSH1 0x4 SLOAD DUP2 JUMP JUMPDEST PUSH1 0x2 PUSH1 0x3 SLOAD LT PUSH2 0x383 JUMPI PUSH1 0x40 MLOAD PUSH32 0x8C379A000000000000000000000000000000000000000000000000000000000 DUP2 MSTORE PUSH1 0x4 ADD PUSH2 0x37A SWAP1 PUSH2 0x22C2 JUMP JUMPDEST PUSH1 0x40 MLOAD DUP1 SWAP2 SUB SWAP1 REVERT JUMPDEST PUSH0 PUSH1 0x3 SLOAD GT ISZERO PUSH2 0x437 JUMPI PUSH1 0x8 PUSH0 DUP2 SLOAD DUP2 LT PUSH2 0x3A1 JUMPI PUSH2 0x3A0 PUSH2 0x22E0 JUMP JUMPDEST JUMPDEST SWAP1 PUSH0 MSTORE PUSH1 0x20 PUSH0 KECCAK256 ADD PUSH0 SWAP1 SLOAD SWAP1 PUSH2 0x100 EXP SWAP1 DIV PUSH20 0xFFFFFFFFFFFFFFFFFFFFFFFFFFFFFFFFFFFFFFFF AND PUSH20 0xFFFFFFFFFFFFFFFFFFFFFFFFFFFFFFFFFFFFFFFF AND CALLER PUSH20 0xFFFFFFFFFFFFFFFFFFFFFFFFFFFFFFFFFFFFFFFF AND SUB PUSH2 0x436 JUMPI PUSH1 0x40 MLOAD PUSH32 0x8C379A000000000000000000000000000000000000000000000000000000000 DUP2 MSTORE PUSH1 0x4 ADD PUSH2 0x42D SWAP1 PUSH2 0x237D JUMP JUMPDEST PUSH1 0x40 MLOAD DUP1 SWAP2 SUB SWAP1 REVERT JUMPDEST JUMPDEST PUSH5 0xE8D4A51000 PUSH1 0x2 PUSH0 SWAP1 SLOAD SWAP1 PUSH2 0x100 EXP SWAP1 DIV PUSH20 0xFFFFFFFFFFFFFFFFFFFFFFFFFFFFFFFFFFFFFFFF AND PUSH20 0xFFFFFFFFFFFFFFFFFFFFFFFFFFFFFFFFFFFFFFFF AND PUSH4 0xDD62ED3E CALLER ADDRESS PUSH1 0x40 MLOAD DUP4 PUSH4 0xFFFFFFFF AND PUSH1 0xE0 SHL DUP2 MSTORE PUSH1 0x4 ADD PUSH2 0x499 SWAP3 SWAP2 SWAP1 PUSH2 0x239B JUMP JUMPDEST PUSH1 0x20 PUSH1 0x40 MLOAD DUP1 DUP4 SUB DUP2 DUP7 GAS STATICCALL ISZERO DUP1 ISZERO PUSH2 0x4B4 JUMPI RETURNDATASIZE PUSH0 DUP1 RETURNDATACOPY RETURNDATASIZE PUSH0 REVERT JUMPDEST POP POP POP POP PUSH1 0x40 MLOAD RETURNDATASIZE PUSH1 0x1F NOT PUSH1 0x1F DUP3 ADD AND DUP3 ADD DUP1 PUSH1 0x40 MSTORE POP DUP2 ADD SWAP1 PUSH2 0x4D8 SWAP2 SWAP1 PUSH2 0x23D6 JUMP JUMPDEST LT ISZERO PUSH2 0x519 JUMPI PUSH1 0x40 MLOAD PUSH32 0x8C379A000000000000000000000000000000000000000000000000000000000 DUP2 MSTORE PUSH1 0x4 ADD PUSH2 0x510 SWAP1 PUSH2 0x244B JUMP JUMPDEST PUSH1 0x40 MLOAD DUP1 SWAP2 SUB SWAP1 REVERT JUMPDEST PUSH1 0x1 PUSH1 0x7 PUSH0 CALLER PUSH20 0xFFFFFFFFFFFFFFFFFFFFFFFFFFFFFFFFFFFFFFFF AND PUSH20 0xFFFFFFFFFFFFFFFFFFFFFFFFFFFFFFFFFFFFFFFF AND DUP2 MSTORE PUSH1 0x20 ADD SWAP1 DUP2 MSTORE PUSH1 0x20 ADD PUSH0 KECCAK256 PUSH0 PUSH2 0x100 EXP DUP2 SLOAD DUP2 PUSH1 0xFF MUL NOT AND SWAP1 DUP4 ISZERO ISZERO MUL OR SWAP1 SSTORE POP PUSH1 0x8 CALLER SWAP1 DUP1 PUSH1 0x1 DUP2 SLOAD ADD DUP1 DUP3 SSTORE DUP1 SWAP2 POP POP PUSH1 0x1 SWAP1 SUB SWAP1 PUSH0 MSTORE PUSH1 0x20 PUSH0 KECCAK256 ADD PUSH0 SWAP1 SWAP2 SWAP1 SWAP2 SWAP1 SWAP2 PUSH2 0x100 EXP DUP2 SLOAD DUP2 PUSH20 0xFFFFFFFFFFFFFFFFFFFFFFFFFFFFFFFFFFFFFFFF MUL NOT AND SWAP1 DUP4 PUSH20 0xFFFFFFFFFFFFFFFFFFFFFFFFFFFFFFFFFFFFFFFF AND MUL OR SWAP1 SSTORE POP PUSH1 0x3 PUSH0 DUP2 SLOAD DUP1 SWAP3 SWAP2 SWAP1 PUSH2 0x5E0 SWAP1 PUSH2 0x2496 JUMP JUMPDEST SWAP2 SWAP1 POP SSTORE POP PUSH1 0x1 PUSH1 0x3 SLOAD SUB PUSH2 0x66A JUMPI PUSH0 DUP1 SLOAD SWAP1 PUSH2 0x100 EXP SWAP1 DIV PUSH20 0xFFFFFFFFFFFFFFFFFFFFFFFFFFFFFFFFFFFFFFFF AND PUSH20 0xFFFFFFFFFFFFFFFFFFFFFFFFFFFFFFFFFFFFFFFF AND PUSH4 0xA63F7C53 PUSH1 0x40 MLOAD DUP2 PUSH4 0xFFFFFFFF AND PUSH1 0xE0 SHL DUP2 MSTORE PUSH1 0x4 ADD PUSH0 PUSH1 0x40 MLOAD DUP1 DUP4 SUB DUP2 PUSH0 DUP8 DUP1 EXTCODESIZE ISZERO DUP1 ISZERO PUSH2 0x653 JUMPI PUSH0 DUP1 REVERT JUMPDEST POP GAS CALL ISZERO DUP1 ISZERO PUSH2 0x665 JUMPI RETURNDATASIZE PUSH0 DUP1 RETURNDATACOPY RETURNDATASIZE PUSH0 REVERT JUMPDEST POP POP POP POP JUMPDEST JUMP JUMPDEST PUSH0 DUP1 SLOAD SWAP1 PUSH2 0x100 EXP SWAP1 DIV PUSH20 0xFFFFFFFFFFFFFFFFFFFFFFFFFFFFFFFFFFFFFFFF AND DUP2 JUMP JUMPDEST PUSH1 0xB PUSH0 SWAP1 SLOAD SWAP1 PUSH2 0x100 EXP SWAP1 DIV PUSH1 0xFF AND DUP2 JUMP JUMPDEST PUSH1 0x2 PUSH1 0x3 SLOAD EQ PUSH2 0x6E6 JUMPI PUSH1 0x40 MLOAD PUSH32 0x8C379A000000000000000000000000000000000000000000000000000000000 DUP2 MSTORE PUSH1 0x4 ADD PUSH2 0x6DD SWAP1 PUSH2 0x2527 JUMP JUMPDEST PUSH1 0x40 MLOAD DUP1 SWAP2 SUB SWAP1 REVERT JUMPDEST PUSH1 0x2 PUSH1 0x9 SLOAD EQ PUSH2 0x72B JUMPI PUSH1 0x40 MLOAD PUSH32 0x8C379A000000000000000000000000000000000000000000000000000000000 DUP2 MSTORE PUSH1 0x4 ADD PUSH2 0x722 SWAP1 PUSH2 0x258F JUMP JUMPDEST PUSH1 0x40 MLOAD DUP1 SWAP2 SUB SWAP1 REVERT JUMPDEST PUSH1 0xB PUSH0 SWAP1 SLOAD SWAP1 PUSH2 0x100 EXP SWAP1 DIV PUSH1 0xFF AND PUSH2 0x779 JUMPI PUSH1 0x40 MLOAD PUSH32 0x8C379A000000000000000000000000000000000000000000000000000000000 DUP2 MSTORE PUSH1 0x4 ADD PUSH2 0x770 SWAP1 PUSH2 0x261D JUMP JUMPDEST PUSH1 0x40 MLOAD DUP1 SWAP2 SUB SWAP1 REVERT JUMPDEST PUSH1 0x1 PUSH0 SWAP1 SLOAD SWAP1 PUSH2 0x100 EXP SWAP1 DIV PUSH20 0xFFFFFFFFFFFFFFFFFFFFFFFFFFFFFFFFFFFFFFFF AND PUSH20 0xFFFFFFFFFFFFFFFFFFFFFFFFFFFFFFFFFFFFFFFF AND PUSH4 0xAD487790 DUP3 CALLER PUSH1 0x40 MLOAD DUP4 PUSH4 0xFFFFFFFF AND PUSH1 0xE0 SHL DUP2 MSTORE PUSH1 0x4 ADD PUSH2 0x7D5 SWAP3 SWAP2 SWAP1 PUSH2 0x264A JUMP JUMPDEST PUSH0 PUSH1 0x40 MLOAD DUP1 DUP4 SUB DUP2 PUSH0 DUP8 DUP1 EXTCODESIZE ISZERO DUP1 ISZERO PUSH2 0x7EC JUMPI PUSH0 DUP1 REVERT JUMPDEST POP GAS CALL ISZERO DUP1 ISZERO PUSH2 0x7FE JUMPI RETURNDATASIZE PUSH0 DUP1 RETURNDATACOPY RETURNDATASIZE PUSH0 REVERT JUMPDEST POP POP POP POP PUSH0 DUP2 PUSH1 0x1F PUSH1 0x20 DUP2 LT PUSH2 0x817 JUMPI PUSH2 0x816 PUSH2 0x22E0 JUMP JUMPDEST JUMPDEST BYTE PUSH1 0xF8 SHL PUSH1 0xF8 SHR PUSH1 0xFF AND SWAP1 POP PUSH0 DUP2 LT ISZERO DUP1 ISZERO PUSH2 0x834 JUMPI POP PUSH1 0x4 DUP2 GT ISZERO JUMPDEST PUSH2 0x873 JUMPI PUSH1 0x40 MLOAD PUSH32 0x8C379A000000000000000000000000000000000000000000000000000000000 DUP2 MSTORE PUSH1 0x4 ADD PUSH2 0x86A SWAP1 PUSH2 0x26BB JUMP JUMPDEST PUSH1 0x40 MLOAD DUP1 SWAP2 SUB SWAP1 REVERT JUMPDEST DUP1 PUSH1 0x6 PUSH0 CALLER PUSH20 0xFFFFFFFFFFFFFFFFFFFFFFFFFFFFFFFFFFFFFFFF AND PUSH20 0xFFFFFFFFFFFFFFFFFFFFFFFFFFFFFFFFFFFFFFFF AND DUP2 MSTORE PUSH1 0x20 ADD SWAP1 DUP2 MSTORE PUSH1 0x20 ADD PUSH0 KECCAK256 DUP2 SWAP1 SSTORE POP PUSH1 0x5 PUSH0 DUP2 SLOAD DUP1 SWAP3 SWAP2 SWAP1 PUSH2 0x8C7 SWAP1 PUSH2 0x2496 JUMP JUMPDEST SWAP2 SWAP1 POP SSTORE POP PUSH1 0x2 PUSH1 0x5 SLOAD SUB PUSH2 0x8DF JUMPI PUSH2 0x8DE PUSH2 0x176B JUMP JUMPDEST JUMPDEST POP POP JUMP JUMPDEST PUSH5 0xE8D4A51000 DUP2 JUMP JUMPDEST PUSH1 0x3 SLOAD DUP2 JUMP JUMPDEST PUSH1 0x1 PUSH0 SWAP1 SLOAD SWAP1 PUSH2 0x100 EXP SWAP1 DIV PUSH20 0xFFFFFFFFFFFFFFFFFFFFFFFFFFFFFFFFFFFFFFFF AND DUP2 JUMP JUMPDEST PUSH1 0x6 PUSH1 0x20 MSTORE DUP1 PUSH0 MSTORE PUSH1 0x40 PUSH0 KECCAK256 PUSH0 SWAP2 POP SWAP1 POP SLOAD DUP2 JUMP JUMPDEST PUSH1 0x2 PUSH1 0x3 SLOAD EQ DUP1 ISZERO PUSH2 0x949 JUMPI POP PUSH1 0xB PUSH0 SWAP1 SLOAD SWAP1 PUSH2 0x100 EXP SWAP1 DIV PUSH1 0xFF AND JUMPDEST PUSH2 0x988 JUMPI PUSH1 0x40 MLOAD PUSH32 0x8C379A000000000000000000000000000000000000000000000000000000000 DUP2 MSTORE PUSH1 0x4 ADD PUSH2 0x97F SWAP1 PUSH2 0x2723 JUMP JUMPDEST PUSH1 0x40 MLOAD DUP1 SWAP2 SUB SWAP1 REVERT JUMPDEST PUSH1 0xA SLOAD PUSH0 DUP1 SLOAD SWAP1 PUSH2 0x100 EXP SWAP1 DIV PUSH20 0xFFFFFFFFFFFFFFFFFFFFFFFFFFFFFFFFFFFFFFFF AND PUSH20 0xFFFFFFFFFFFFFFFFFFFFFFFFFFFFFFFFFFFFFFFF AND PUSH4 0xBC06B8CD PUSH1 0x40 MLOAD DUP2 PUSH4 0xFFFFFFFF AND PUSH1 0xE0 SHL DUP2 MSTORE PUSH1 0x4 ADD PUSH1 0x20 PUSH1 0x40 MLOAD DUP1 DUP4 SUB DUP2 DUP7 GAS STATICCALL ISZERO DUP1 ISZERO PUSH2 0x9F3 JUMPI RETURNDATASIZE PUSH0 DUP1 RETURNDATACOPY RETURNDATASIZE PUSH0 REVERT JUMPDEST POP POP POP POP PUSH1 0x40 MLOAD RETURNDATASIZE PUSH1 0x1F NOT PUSH1 0x1F DUP3 ADD AND DUP3 ADD DUP1 PUSH1 0x40 MSTORE POP DUP2 ADD SWAP1 PUSH2 0xA17 SWAP2 SWAP1 PUSH2 0x23D6 JUMP JUMPDEST LT ISZERO PUSH2 0xA58 JUMPI PUSH1 0x40 MLOAD PUSH32 0x8C379A000000000000000000000000000000000000000000000000000000000 DUP2 MSTORE PUSH1 0x4 ADD PUSH2 0xA4F SWAP1 PUSH2 0x278B JUMP JUMPDEST PUSH1 0x40 MLOAD DUP1 SWAP2 SUB SWAP1 REVERT JUMPDEST PUSH1 0x2 PUSH1 0x5 SLOAD LT PUSH2 0xA9D JUMPI PUSH1 0x40 MLOAD PUSH32 0x8C379A000000000000000000000000000000000000000000000000000000000 DUP2 MSTORE PUSH1 0x4 ADD PUSH2 0xA94 SWAP1 PUSH2 0x27F3 JUMP JUMPDEST PUSH1 0x40 MLOAD DUP1 SWAP2 SUB SWAP1 REVERT JUMPDEST PUSH0 PUSH1 0x5 SLOAD SUB PUSH2 0xB8D JUMPI PUSH0 PUSH1 0x2 PUSH0 SWAP1 SLOAD SWAP1 PUSH2 0x100 EXP SWAP1 DIV PUSH20 0xFFFFFFFFFFFFFFFFFFFFFFFFFFFFFFFFFFFFFFFF AND PUSH20 0xFFFFFFFFFFFFFFFFFFFFFFFFFFFFFFFFFFFFFFFF AND PUSH4 0xA9059CBB CALLER PUSH1 0x4 SLOAD PUSH1 0x40 MLOAD DUP4 PUSH4 0xFFFFFFFF AND PUSH1 0xE0 SHL DUP2 MSTORE PUSH1 0x4 ADD PUSH2 0xB05 SWAP3 SWAP2 SWAP1 PUSH2 0x2811 JUMP JUMPDEST PUSH1 0x20 PUSH1 0x40 MLOAD DUP1 DUP4 SUB DUP2 PUSH0 DUP8 GAS CALL ISZERO DUP1 ISZERO PUSH2 0xB21 JUMPI RETURNDATASIZE PUSH0 DUP1 RETURNDATACOPY RETURNDATASIZE PUSH0 REVERT JUMPDEST POP POP POP POP PUSH1 0x40 MLOAD RETURNDATASIZE PUSH1 0x1F NOT PUSH1 0x1F DUP3 ADD AND DUP3 ADD DUP1 PUSH1 0x40 MSTORE POP DUP2 ADD SWAP1 PUSH2 0xB45 SWAP2 SWAP1 PUSH2 0x2862 JUMP JUMPDEST SWAP1 POP DUP1 PUSH2 0xB87 JUMPI PUSH1 0x40 MLOAD PUSH32 0x8C379A000000000000000000000000000000000000000000000000000000000 DUP2 MSTORE PUSH1 0x4 ADD PUSH2 0xB7E SWAP1 PUSH2 0x28D7 JUMP JUMPDEST PUSH1 0x40 MLOAD DUP1 SWAP2 SUB SWAP1 REVERT JUMPDEST POP PUSH2 0x10C9 JUMP JUMPDEST PUSH0 PUSH1 0x1 PUSH0 SWAP1 SLOAD SWAP1 PUSH2 0x100 EXP SWAP1 DIV PUSH20 0xFFFFFFFFFFFFFFFFFFFFFFFFFFFFFFFFFFFFFFFF AND PUSH20 0xFFFFFFFFFFFFFFFFFFFFFFFFFFFFFFFFFFFFFFFF AND PUSH4 0x7B43A8E6 PUSH1 0x8 PUSH0 DUP2 SLOAD DUP2 LT PUSH2 0xBDF JUMPI PUSH2 0xBDE PUSH2 0x22E0 JUMP JUMPDEST JUMPDEST SWAP1 PUSH0 MSTORE PUSH1 0x20 PUSH0 KECCAK256 ADD PUSH0 SWAP1 SLOAD SWAP1 PUSH2 0x100 EXP SWAP1 DIV PUSH20 0xFFFFFFFFFFFFFFFFFFFFFFFFFFFFFFFFFFFFFFFF AND PUSH1 0x40 MLOAD DUP3 PUSH4 0xFFFFFFFF AND PUSH1 0xE0 SHL DUP2 MSTORE PUSH1 0x4 ADD PUSH2 0xC23 SWAP2 SWAP1 PUSH2 0x2216 JUMP JUMPDEST PUSH1 0x60 PUSH1 0x40 MLOAD DUP1 DUP4 SUB DUP2 DUP7 GAS STATICCALL ISZERO DUP1 ISZERO PUSH2 0xC3E JUMPI RETURNDATASIZE PUSH0 DUP1 RETURNDATACOPY RETURNDATASIZE PUSH0 REVERT JUMPDEST POP POP POP POP PUSH1 0x40 MLOAD RETURNDATASIZE PUSH1 0x1F NOT PUSH1 0x1F DUP3 ADD AND DUP3 ADD DUP1 PUSH1 0x40 MSTORE POP DUP2 ADD SWAP1 PUSH2 0xC62 SWAP2 SWAP1 PUSH2 0x2946 JUMP JUMPDEST SWAP3 POP POP POP PUSH0 PUSH1 0x1 PUSH0 SWAP1 SLOAD SWAP1 PUSH2 0x100 EXP SWAP1 DIV PUSH20 0xFFFFFFFFFFFFFFFFFFFFFFFFFFFFFFFFFFFFFFFF AND PUSH20 0xFFFFFFFFFFFFFFFFFFFFFFFFFFFFFFFFFFFFFFFF AND PUSH4 0x7B43A8E6 PUSH1 0x8 PUSH1 0x1 DUP2 SLOAD DUP2 LT PUSH2 0xCB9 JUMPI PUSH2 0xCB8 PUSH2 0x22E0 JUMP JUMPDEST JUMPDEST SWAP1 PUSH0 MSTORE PUSH1 0x20 PUSH0 KECCAK256 ADD PUSH0 SWAP1 SLOAD SWAP1 PUSH2 0x100 EXP SWAP1 DIV PUSH20 0xFFFFFFFFFFFFFFFFFFFFFFFFFFFFFFFFFFFFFFFF AND PUSH1 0x40 MLOAD DUP3 PUSH4 0xFFFFFFFF AND PUSH1 0xE0 SHL DUP2 MSTORE PUSH1 0x4 ADD PUSH2 0xCFD SWAP2 SWAP1 PUSH2 0x2216 JUMP JUMPDEST PUSH1 0x60 PUSH1 0x40 MLOAD DUP1 DUP4 SUB DUP2 DUP7 GAS STATICCALL ISZERO DUP1 ISZERO PUSH2 0xD18 JUMPI RETURNDATASIZE PUSH0 DUP1 RETURNDATACOPY RETURNDATASIZE PUSH0 REVERT JUMPDEST POP POP POP POP PUSH1 0x40 MLOAD RETURNDATASIZE PUSH1 0x1F NOT PUSH1 0x1F DUP3 ADD AND DUP3 ADD DUP1 PUSH1 0x40 MSTORE POP DUP2 ADD SWAP1 PUSH2 0xD3C SWAP2 SWAP1 PUSH2 0x2946 JUMP JUMPDEST SWAP3 POP POP POP DUP2 DUP1 ISZERO PUSH2 0xD4B JUMPI POP DUP1 ISZERO JUMPDEST DUP1 ISZERO PUSH2 0xDBD JUMPI POP PUSH1 0x8 PUSH0 DUP2 SLOAD DUP2 LT PUSH2 0xD66 JUMPI PUSH2 0xD65 PUSH2 0x22E0 JUMP JUMPDEST JUMPDEST SWAP1 PUSH0 MSTORE PUSH1 0x20 PUSH0 KECCAK256 ADD PUSH0 SWAP1 SLOAD SWAP1 PUSH2 0x100 EXP SWAP1 DIV PUSH20 0xFFFFFFFFFFFFFFFFFFFFFFFFFFFFFFFFFFFFFFFF AND PUSH20 0xFFFFFFFFFFFFFFFFFFFFFFFFFFFFFFFFFFFFFFFF AND CALLER PUSH20 0xFFFFFFFFFFFFFFFFFFFFFFFFFFFFFFFFFFFFFFFF AND EQ JUMPDEST ISZERO PUSH2 0xEE4 JUMPI PUSH0 PUSH1 0x2 PUSH0 SWAP1 SLOAD SWAP1 PUSH2 0x100 EXP SWAP1 DIV PUSH20 0xFFFFFFFFFFFFFFFFFFFFFFFFFFFFFFFFFFFFFFFF AND PUSH20 0xFFFFFFFFFFFFFFFFFFFFFFFFFFFFFFFFFFFFFFFF AND PUSH4 0xA9059CBB PUSH1 0x8 PUSH0 DUP2 SLOAD DUP2 LT PUSH2 0xE14 JUMPI PUSH2 0xE13 PUSH2 0x22E0 JUMP JUMPDEST JUMPDEST SWAP1 PUSH0 MSTORE PUSH1 0x20 PUSH0 KECCAK256 ADD PUSH0 SWAP1 SLOAD SWAP1 PUSH2 0x100 EXP SWAP1 DIV PUSH20 0xFFFFFFFFFFFFFFFFFFFFFFFFFFFFFFFFFFFFFFFF AND PUSH1 0x4 SLOAD PUSH1 0x40 MLOAD DUP4 PUSH4 0xFFFFFFFF AND PUSH1 0xE0 SHL DUP2 MSTORE PUSH1 0x4 ADD PUSH2 0xE5C SWAP3 SWAP2 SWAP1 PUSH2 0x2811 JUMP JUMPDEST PUSH1 0x20 PUSH1 0x40 MLOAD DUP1 DUP4 SUB DUP2 PUSH0 DUP8 GAS CALL ISZERO DUP1 ISZERO PUSH2 0xE78 JUMPI RETURNDATASIZE PUSH0 DUP1 RETURNDATACOPY RETURNDATASIZE PUSH0 REVERT JUMPDEST POP POP POP POP PUSH1 0x40 MLOAD RETURNDATASIZE PUSH1 0x1F NOT PUSH1 0x1F DUP3 ADD AND DUP3 ADD DUP1 PUSH1 0x40 MSTORE POP DUP2 ADD SWAP1 PUSH2 0xE9C SWAP2 SWAP1 PUSH2 0x2862 JUMP JUMPDEST SWAP1 POP DUP1 PUSH2 0xEDE JUMPI PUSH1 0x40 MLOAD PUSH32 0x8C379A000000000000000000000000000000000000000000000000000000000 DUP2 MSTORE PUSH1 0x4 ADD PUSH2 0xED5 SWAP1 PUSH2 0x28D7 JUMP JUMPDEST PUSH1 0x40 MLOAD DUP1 SWAP2 SUB SWAP1 REVERT JUMPDEST POP PUSH2 0x10C6 JUMP JUMPDEST DUP2 ISZERO DUP1 ISZERO PUSH2 0xEEF JUMPI POP DUP1 JUMPDEST DUP1 ISZERO PUSH2 0xF62 JUMPI POP PUSH1 0x8 PUSH1 0x1 DUP2 SLOAD DUP2 LT PUSH2 0xF0B JUMPI PUSH2 0xF0A PUSH2 0x22E0 JUMP JUMPDEST JUMPDEST SWAP1 PUSH0 MSTORE PUSH1 0x20 PUSH0 KECCAK256 ADD PUSH0 SWAP1 SLOAD SWAP1 PUSH2 0x100 EXP SWAP1 DIV PUSH20 0xFFFFFFFFFFFFFFFFFFFFFFFFFFFFFFFFFFFFFFFF AND PUSH20 0xFFFFFFFFFFFFFFFFFFFFFFFFFFFFFFFFFFFFFFFF AND CALLER PUSH20 0xFFFFFFFFFFFFFFFFFFFFFFFFFFFFFFFFFFFFFFFF AND EQ JUMPDEST ISZERO PUSH2 0x108A JUMPI PUSH0 PUSH1 0x2 PUSH0 SWAP1 SLOAD SWAP1 PUSH2 0x100 EXP SWAP1 DIV PUSH20 0xFFFFFFFFFFFFFFFFFFFFFFFFFFFFFFFFFFFFFFFF AND PUSH20 0xFFFFFFFFFFFFFFFFFFFFFFFFFFFFFFFFFFFFFFFF AND PUSH4 0xA9059CBB PUSH1 0x8 PUSH1 0x1 DUP2 SLOAD DUP2 LT PUSH2 0xFBA JUMPI PUSH2 0xFB9 PUSH2 0x22E0 JUMP JUMPDEST JUMPDEST SWAP1 PUSH0 MSTORE PUSH1 0x20 PUSH0 KECCAK256 ADD PUSH0 SWAP1 SLOAD SWAP1 PUSH2 0x100 EXP SWAP1 DIV PUSH20 0xFFFFFFFFFFFFFFFFFFFFFFFFFFFFFFFFFFFFFFFF AND PUSH1 0x4 SLOAD PUSH1 0x40 MLOAD DUP4 PUSH4 0xFFFFFFFF AND PUSH1 0xE0 SHL DUP2 MSTORE PUSH1 0x4 ADD PUSH2 0x1002 SWAP3 SWAP2 SWAP1 PUSH2 0x2811 JUMP JUMPDEST PUSH1 0x20 PUSH1 0x40 MLOAD DUP1 DUP4 SUB DUP2 PUSH0 DUP8 GAS CALL ISZERO DUP1 ISZERO PUSH2 0x101E JUMPI RETURNDATASIZE PUSH0 DUP1 RETURNDATACOPY RETURNDATASIZE PUSH0 REVERT JUMPDEST POP POP POP POP PUSH1 0x40 MLOAD RETURNDATASIZE PUSH1 0x1F NOT PUSH1 0x1F DUP3 ADD AND DUP3 ADD DUP1 PUSH1 0x40 MSTORE POP DUP2 ADD SWAP1 PUSH2 0x1042 SWAP2 SWAP1 PUSH2 0x2862 JUMP JUMPDEST SWAP1 POP DUP1 PUSH2 0x1084 JUMPI PUSH1 0x40 MLOAD PUSH32 0x8C379A000000000000000000000000000000000000000000000000000000000 DUP2 MSTORE PUSH1 0x4 ADD PUSH2 0x107B SWAP1 PUSH2 0x28D7 JUMP JUMPDEST PUSH1 0x40 MLOAD DUP1 SWAP2 SUB SWAP1 REVERT JUMPDEST POP PUSH2 0x10C5 JUMP JUMPDEST PUSH1 0x40 MLOAD PUSH32 0x8C379A000000000000000000000000000000000000000000000000000000000 DUP2 MSTORE PUSH1 0x4 ADD PUSH2 0x10BC SWAP1 PUSH2 0x29E0 JUMP JUMPDEST PUSH1 0x40 MLOAD DUP1 SWAP2 SUB SWAP1 REVERT JUMPDEST JUMPDEST POP POP JUMPDEST PUSH2 0x10D1 PUSH2 0x1D57 JUMP JUMPDEST JUMP JUMPDEST PUSH1 0xA SLOAD DUP2 JUMP JUMPDEST PUSH1 0x5 SLOAD DUP2 JUMP JUMPDEST PUSH1 0x2 PUSH1 0x3 SLOAD EQ PUSH2 0x1124 JUMPI PUSH1 0x40 MLOAD PUSH32 0x8C379A000000000000000000000000000000000000000000000000000000000 DUP2 MSTORE PUSH1 0x4 ADD PUSH2 0x111B SWAP1 PUSH2 0x2527 JUMP JUMPDEST PUSH1 0x40 MLOAD DUP1 SWAP2 SUB SWAP1 REVERT JUMPDEST PUSH1 0x7 PUSH0 CALLER PUSH20 0xFFFFFFFFFFFFFFFFFFFFFFFFFFFFFFFFFFFFFFFF AND PUSH20 0xFFFFFFFFFFFFFFFFFFFFFFFFFFFFFFFFFFFFFFFF AND DUP2 MSTORE PUSH1 0x20 ADD SWAP1 DUP2 MSTORE PUSH1 0x20 ADD PUSH0 KECCAK256 PUSH0 SWAP1 SLOAD SWAP1 PUSH2 0x100 EXP SWAP1 DIV PUSH1 0xFF AND PUSH2 0x11AD JUMPI PUSH1 0x40 MLOAD PUSH32 0x8C379A000000000000000000000000000000000000000000000000000000000 DUP2 MSTORE PUSH1 0x4 ADD PUSH2 0x11A4 SWAP1 PUSH2 0x2A48 JUMP JUMPDEST PUSH1 0x40 MLOAD DUP1 SWAP2 SUB SWAP1 REVERT JUMPDEST PUSH5 0xE8D4A51000 PUSH1 0x2 PUSH0 SWAP1 SLOAD SWAP1 PUSH2 0x100 EXP SWAP1 DIV PUSH20 0xFFFFFFFFFFFFFFFFFFFFFFFFFFFFFFFFFFFFFFFF AND PUSH20 0xFFFFFFFFFFFFFFFFFFFFFFFFFFFFFFFFFFFFFFFF AND PUSH4 0xDD62ED3E CALLER ADDRESS PUSH1 0x40 MLOAD DUP4 PUSH4 0xFFFFFFFF AND PUSH1 0xE0 SHL DUP2 MSTORE PUSH1 0x4 ADD PUSH2 0x120F SWAP3 SWAP2 SWAP1 PUSH2 0x239B JUMP JUMPDEST PUSH1 0x20 PUSH1 0x40 MLOAD DUP1 DUP4 SUB DUP2 DUP7 GAS STATICCALL ISZERO DUP1 ISZERO PUSH2 0x122A JUMPI RETURNDATASIZE PUSH0 DUP1 RETURNDATACOPY RETURNDATASIZE PUSH0 REVERT JUMPDEST POP POP POP POP PUSH1 0x40 MLOAD RETURNDATASIZE PUSH1 0x1F NOT PUSH1 0x1F DUP3 ADD AND DUP3 ADD DUP1 PUSH1 0x40 MSTORE POP DUP2 ADD SWAP1 PUSH2 0x124E SWAP2 SWAP1 PUSH2 0x23D6 JUMP JUMPDEST LT ISZERO PUSH2 0x128F JUMPI PUSH1 0x40 MLOAD PUSH32 0x8C379A000000000000000000000000000000000000000000000000000000000 DUP2 MSTORE PUSH1 0x4 ADD PUSH2 0x1286 SWAP1 PUSH2 0x244B JUMP JUMPDEST PUSH1 0x40 MLOAD DUP1 SWAP2 SUB SWAP1 REVERT JUMPDEST PUSH1 0x1 PUSH0 SWAP1 SLOAD SWAP1 PUSH2 0x100 EXP SWAP1 DIV PUSH20 0xFFFFFFFFFFFFFFFFFFFFFFFFFFFFFFFFFFFFFFFF AND PUSH20 0xFFFFFFFFFFFFFFFFFFFFFFFFFFFFFFFFFFFFFFFF AND PUSH4 0x5A746101 DUP3 CALLER PUSH1 0x40 MLOAD DUP4 PUSH4 0xFFFFFFFF AND PUSH1 0xE0 SHL DUP2 MSTORE PUSH1 0x4 ADD PUSH2 0x12EB SWAP3 SWAP2 SWAP1 PUSH2 0x264A JUMP JUMPDEST PUSH0 PUSH1 0x40 MLOAD DUP1 DUP4 SUB DUP2 PUSH0 DUP8 DUP1 EXTCODESIZE ISZERO DUP1 ISZERO PUSH2 0x1302 JUMPI PUSH0 DUP1 REVERT JUMPDEST POP GAS CALL ISZERO DUP1 ISZERO PUSH2 0x1314 JUMPI RETURNDATASIZE PUSH0 DUP1 RETURNDATACOPY RETURNDATASIZE PUSH0 REVERT JUMPDEST POP POP POP POP PUSH1 0x7 PUSH0 CALLER PUSH20 0xFFFFFFFFFFFFFFFFFFFFFFFFFFFFFFFFFFFFFFFF AND PUSH20 0xFFFFFFFFFFFFFFFFFFFFFFFFFFFFFFFFFFFFFFFF AND DUP2 MSTORE PUSH1 0x20 ADD SWAP1 DUP2 MSTORE PUSH1 0x20 ADD PUSH0 KECCAK256 PUSH0 SWAP1 SLOAD SWAP1 PUSH2 0x100 EXP SWAP1 DIV PUSH1 0xFF AND ISZERO PUSH2 0x13D3 JUMPI PUSH1 0x9 PUSH0 DUP2 SLOAD DUP1 SWAP3 SWAP2 SWAP1 PUSH2 0x1379 SWAP1 PUSH2 0x2496 JUMP JUMPDEST SWAP2 SWAP1 POP SSTORE POP PUSH0 PUSH1 0x7 PUSH0 CALLER PUSH20 0xFFFFFFFFFFFFFFFFFFFFFFFFFFFFFFFFFFFFFFFF AND PUSH20 0xFFFFFFFFFFFFFFFFFFFFFFFFFFFFFFFFFFFFFFFF AND DUP2 MSTORE PUSH1 0x20 ADD SWAP1 DUP2 MSTORE PUSH1 0x20 ADD PUSH0 KECCAK256 PUSH0 PUSH2 0x100 EXP DUP2 SLOAD DUP2 PUSH1 0xFF MUL NOT AND SWAP1 DUP4 ISZERO ISZERO MUL OR SWAP1 SSTORE POP JUMPDEST PUSH1 0x2 PUSH1 0x9 SLOAD EQ DUP1 ISZERO PUSH2 0x13F1 JUMPI POP PUSH1 0xB PUSH0 SWAP1 SLOAD SWAP1 PUSH2 0x100 EXP SWAP1 DIV PUSH1 0xFF AND ISZERO JUMPDEST ISZERO PUSH2 0x1708 JUMPI PUSH5 0xE8D4A51000 PUSH1 0x2 PUSH0 SWAP1 SLOAD SWAP1 PUSH2 0x100 EXP SWAP1 DIV PUSH20 0xFFFFFFFFFFFFFFFFFFFFFFFFFFFFFFFFFFFFFFFF AND PUSH20 0xFFFFFFFFFFFFFFFFFFFFFFFFFFFFFFFFFFFFFFFF AND PUSH4 0xDD62ED3E PUSH1 0x8 PUSH0 DUP2 SLOAD DUP2 LT PUSH2 0x144D JUMPI PUSH2 0x144C PUSH2 0x22E0 JUMP JUMPDEST JUMPDEST SWAP1 PUSH0 MSTORE PUSH1 0x20 PUSH0 KECCAK256 ADD PUSH0 SWAP1 SLOAD SWAP1 PUSH2 0x100 EXP SWAP1 DIV PUSH20 0xFFFFFFFFFFFFFFFFFFFFFFFFFFFFFFFFFFFFFFFF AND ADDRESS PUSH1 0x40 MLOAD DUP4 PUSH4 0xFFFFFFFF AND PUSH1 0xE0 SHL DUP2 MSTORE PUSH1 0x4 ADD PUSH2 0x1493 SWAP3 SWAP2 SWAP1 PUSH2 0x239B JUMP JUMPDEST PUSH1 0x20 PUSH1 0x40 MLOAD DUP1 DUP4 SUB DUP2 DUP7 GAS STATICCALL ISZERO DUP1 ISZERO PUSH2 0x14AE JUMPI RETURNDATASIZE PUSH0 DUP1 RETURNDATACOPY RETURNDATASIZE PUSH0 REVERT JUMPDEST POP POP POP POP PUSH1 0x40 MLOAD RETURNDATASIZE PUSH1 0x1F NOT PUSH1 0x1F DUP3 ADD AND DUP3 ADD DUP1 PUSH1 0x40 MSTORE POP DUP2 ADD SWAP1 PUSH2 0x14D2 SWAP2 SWAP1 PUSH2 0x23D6 JUMP JUMPDEST LT ISZERO DUP1 ISZERO PUSH2 0x15BB JUMPI POP PUSH5 0xE8D4A51000 PUSH1 0x2 PUSH0 SWAP1 SLOAD SWAP1 PUSH2 0x100 EXP SWAP1 DIV PUSH20 0xFFFFFFFFFFFFFFFFFFFFFFFFFFFFFFFFFFFFFFFF AND PUSH20 0xFFFFFFFFFFFFFFFFFFFFFFFFFFFFFFFFFFFFFFFF AND PUSH4 0xDD62ED3E PUSH1 0x8 PUSH1 0x1 DUP2 SLOAD DUP2 LT PUSH2 0x1533 JUMPI PUSH2 0x1532 PUSH2 0x22E0 JUMP JUMPDEST JUMPDEST SWAP1 PUSH0 MSTORE PUSH1 0x20 PUSH0 KECCAK256 ADD PUSH0 SWAP1 SLOAD SWAP1 PUSH2 0x100 EXP SWAP1 DIV PUSH20 0xFFFFFFFFFFFFFFFFFFFFFFFFFFFFFFFFFFFFFFFF AND ADDRESS PUSH1 0x40 MLOAD DUP4 PUSH4 0xFFFFFFFF AND PUSH1 0xE0 SHL DUP2 MSTORE PUSH1 0x4 ADD PUSH2 0x1579 SWAP3 SWAP2 SWAP1 PUSH2 0x239B JUMP JUMPDEST PUSH1 0x20 PUSH1 0x40 MLOAD DUP1 DUP4 SUB DUP2 DUP7 GAS STATICCALL ISZERO DUP1 ISZERO PUSH2 0x1594 JUMPI RETURNDATASIZE PUSH0 DUP1 RETURNDATACOPY RETURNDATASIZE PUSH0 REVERT JUMPDEST POP POP POP POP PUSH1 0x40 MLOAD RETURNDATASIZE PUSH1 0x1F NOT PUSH1 0x1F DUP3 ADD AND DUP3 ADD DUP1 PUSH1 0x40 MSTORE POP DUP2 ADD SWAP1 PUSH2 0x15B8 SWAP2 SWAP1 PUSH2 0x23D6 JUMP JUMPDEST LT ISZERO JUMPDEST PUSH2 0x15FA JUMPI PUSH1 0x40 MLOAD PUSH32 0x8C379A000000000000000000000000000000000000000000000000000000000 DUP2 MSTORE PUSH1 0x4 ADD PUSH2 0x15F1 SWAP1 PUSH2 0x244B JUMP JUMPDEST PUSH1 0x40 MLOAD DUP1 SWAP2 SUB SWAP1 REVERT JUMPDEST PUSH2 0x1667 PUSH1 0x2 PUSH0 SWAP1 SLOAD SWAP1 PUSH2 0x100 EXP SWAP1 DIV PUSH20 0xFFFFFFFFFFFFFFFFFFFFFFFFFFFFFFFFFFFFFFFF AND PUSH1 0x8 PUSH0 DUP2 SLOAD DUP2 LT PUSH2 0x1633 JUMPI PUSH2 0x1632 PUSH2 0x22E0 JUMP JUMPDEST JUMPDEST SWAP1 PUSH0 MSTORE PUSH1 0x20 PUSH0 KECCAK256 ADD PUSH0 SWAP1 SLOAD SWAP1 PUSH2 0x100 EXP SWAP1 DIV PUSH20 0xFFFFFFFFFFFFFFFFFFFFFFFFFFFFFFFFFFFFFFFF AND ADDRESS PUSH5 0xE8D4A51000 PUSH2 0x1EBA JUMP JUMPDEST PUSH2 0x16D5 PUSH1 0x2 PUSH0 SWAP1 SLOAD SWAP1 PUSH2 0x100 EXP SWAP1 DIV PUSH20 0xFFFFFFFFFFFFFFFFFFFFFFFFFFFFFFFFFFFFFFFF AND PUSH1 0x8 PUSH1 0x1 DUP2 SLOAD DUP2 LT PUSH2 0x16A1 JUMPI PUSH2 0x16A0 PUSH2 0x22E0 JUMP JUMPDEST JUMPDEST SWAP1 PUSH0 MSTORE PUSH1 0x20 PUSH0 KECCAK256 ADD PUSH0 SWAP1 SLOAD SWAP1 PUSH2 0x100 EXP SWAP1 DIV PUSH20 0xFFFFFFFFFFFFFFFFFFFFFFFFFFFFFFFFFFFFFFFF AND ADDRESS PUSH5 0xE8D4A51000 PUSH2 0x1EBA JUMP JUMPDEST PUSH1 0x2 PUSH5 0xE8D4A51000 PUSH2 0x16E7 SWAP2 SWAP1 PUSH2 0x2A66 JUMP JUMPDEST PUSH1 0x4 DUP2 SWAP1 SSTORE POP PUSH1 0x1 PUSH1 0xB PUSH0 PUSH2 0x100 EXP DUP2 SLOAD DUP2 PUSH1 0xFF MUL NOT AND SWAP1 DUP4 ISZERO ISZERO MUL OR SWAP1 SSTORE POP JUMPDEST POP JUMP JUMPDEST PUSH1 0x8 DUP2 DUP2 SLOAD DUP2 LT PUSH2 0x171A JUMPI PUSH0 DUP1 REVERT JUMPDEST SWAP1 PUSH0 MSTORE PUSH1 0x20 PUSH0 KECCAK256 ADD PUSH0 SWAP2 POP SLOAD SWAP1 PUSH2 0x100 EXP SWAP1 DIV PUSH20 0xFFFFFFFFFFFFFFFFFFFFFFFFFFFFFFFFFFFFFFFF AND DUP2 JUMP JUMPDEST PUSH1 0x2 PUSH0 SWAP1 SLOAD SWAP1 PUSH2 0x100 EXP SWAP1 DIV PUSH20 0xFFFFFFFFFFFFFFFFFFFFFFFFFFFFFFFFFFFFFFFF AND DUP2 JUMP JUMPDEST PUSH0 PUSH1 0x6 PUSH0 PUSH1 0x8 PUSH0 DUP2 SLOAD DUP2 LT PUSH2 0x1783 JUMPI PUSH2 0x1782 PUSH2 0x22E0 JUMP JUMPDEST JUMPDEST SWAP1 PUSH0 MSTORE PUSH1 0x20 PUSH0 KECCAK256 ADD PUSH0 SWAP1 SLOAD SWAP1 PUSH2 0x100 EXP SWAP1 DIV PUSH20 0xFFFFFFFFFFFFFFFFFFFFFFFFFFFFFFFFFFFFFFFF AND PUSH20 0xFFFFFFFFFFFFFFFFFFFFFFFFFFFFFFFFFFFFFFFF AND PUSH20 0xFFFFFFFFFFFFFFFFFFFFFFFFFFFFFFFFFFFFFFFF AND DUP2 MSTORE PUSH1 0x20 ADD SWAP1 DUP2 MSTORE PUSH1 0x20 ADD PUSH0 KECCAK256 SLOAD SWAP1 POP PUSH0 PUSH1 0x6 PUSH0 PUSH1 0x8 PUSH1 0x1 DUP2 SLOAD DUP2 LT PUSH2 0x1800 JUMPI PUSH2 0x17FF PUSH2 0x22E0 JUMP JUMPDEST JUMPDEST SWAP1 PUSH0 MSTORE PUSH1 0x20 PUSH0 KECCAK256 ADD PUSH0 SWAP1 SLOAD SWAP1 PUSH2 0x100 EXP SWAP1 DIV PUSH20 0xFFFFFFFFFFFFFFFFFFFFFFFFFFFFFFFFFFFFFFFF AND PUSH20 0xFFFFFFFFFFFFFFFFFFFFFFFFFFFFFFFFFFFFFFFF AND PUSH20 0xFFFFFFFFFFFFFFFFFFFFFFFFFFFFFFFFFFFFFFFF AND DUP2 MSTORE PUSH1 0x20 ADD SWAP1 DUP2 MSTORE PUSH1 0x20 ADD PUSH0 KECCAK256 SLOAD SWAP1 POP DUP1 PUSH1 0x3 PUSH1 0x1 DUP5 PUSH2 0x1874 SWAP2 SWAP1 PUSH2 0x2AA7 JUMP JUMPDEST PUSH2 0x187E SWAP2 SWAP1 PUSH2 0x2B07 JUMP JUMPDEST EQ DUP1 PUSH2 0x18A1 JUMPI POP DUP1 PUSH1 0x5 PUSH1 0x3 DUP5 PUSH2 0x1895 SWAP2 SWAP1 PUSH2 0x2AA7 JUMP JUMPDEST PUSH2 0x189F SWAP2 SWAP1 PUSH2 0x2B07 JUMP JUMPDEST EQ JUMPDEST ISZERO PUSH2 0x19C8 JUMPI PUSH0 PUSH1 0x2 PUSH0 SWAP1 SLOAD SWAP1 PUSH2 0x100 EXP SWAP1 DIV PUSH20 0xFFFFFFFFFFFFFFFFFFFFFFFFFFFFFFFFFFFFFFFF AND PUSH20 0xFFFFFFFFFFFFFFFFFFFFFFFFFFFFFFFFFFFFFFFF AND PUSH4 0xA9059CBB PUSH1 0x8 PUSH0 DUP2 SLOAD DUP2 LT PUSH2 0x18F8 JUMPI PUSH2 0x18F7 PUSH2 0x22E0 JUMP JUMPDEST JUMPDEST SWAP1 PUSH0 MSTORE PUSH1 0x20 PUSH0 KECCAK256 ADD PUSH0 SWAP1 SLOAD SWAP1 PUSH2 0x100 EXP SWAP1 DIV PUSH20 0xFFFFFFFFFFFFFFFFFFFFFFFFFFFFFFFFFFFFFFFF AND PUSH1 0x4 SLOAD PUSH1 0x40 MLOAD DUP4 PUSH4 0xFFFFFFFF AND PUSH1 0xE0 SHL DUP2 MSTORE PUSH1 0x4 ADD PUSH2 0x1940 SWAP3 SWAP2 SWAP1 PUSH2 0x2811 JUMP JUMPDEST PUSH1 0x20 PUSH1 0x40 MLOAD DUP1 DUP4 SUB DUP2 PUSH0 DUP8 GAS CALL ISZERO DUP1 ISZERO PUSH2 0x195C JUMPI RETURNDATASIZE PUSH0 DUP1 RETURNDATACOPY RETURNDATASIZE PUSH0 REVERT JUMPDEST POP POP POP POP PUSH1 0x40 MLOAD RETURNDATASIZE PUSH1 0x1F NOT PUSH1 0x1F DUP3 ADD AND DUP3 ADD DUP1 PUSH1 0x40 MSTORE POP DUP2 ADD SWAP1 PUSH2 0x1980 SWAP2 SWAP1 PUSH2 0x2862 JUMP JUMPDEST SWAP1 POP DUP1 PUSH2 0x19C2 JUMPI PUSH1 0x40 MLOAD PUSH32 0x8C379A000000000000000000000000000000000000000000000000000000000 DUP2 MSTORE PUSH1 0x4 ADD PUSH2 0x19B9 SWAP1 PUSH2 0x28D7 JUMP JUMPDEST PUSH1 0x40 MLOAD DUP1 SWAP2 SUB SWAP1 REVERT JUMPDEST POP PUSH2 0x1D4B JUMP JUMPDEST DUP2 PUSH1 0x3 PUSH1 0x1 DUP4 PUSH2 0x19D8 SWAP2 SWAP1 PUSH2 0x2AA7 JUMP JUMPDEST PUSH2 0x19E2 SWAP2 SWAP1 PUSH2 0x2B07 JUMP JUMPDEST EQ DUP1 PUSH2 0x1A05 JUMPI POP DUP2 PUSH1 0x5 PUSH1 0x3 DUP4 PUSH2 0x19F9 SWAP2 SWAP1 PUSH2 0x2AA7 JUMP JUMPDEST PUSH2 0x1A03 SWAP2 SWAP1 PUSH2 0x2B07 JUMP JUMPDEST EQ JUMPDEST ISZERO PUSH2 0x1B2D JUMPI PUSH0 PUSH1 0x2 PUSH0 SWAP1 SLOAD SWAP1 PUSH2 0x100 EXP SWAP1 DIV PUSH20 0xFFFFFFFFFFFFFFFFFFFFFFFFFFFFFFFFFFFFFFFF AND PUSH20 0xFFFFFFFFFFFFFFFFFFFFFFFFFFFFFFFFFFFFFFFF AND PUSH4 0xA9059CBB PUSH1 0x8 PUSH1 0x1 DUP2 SLOAD DUP2 LT PUSH2 0x1A5D JUMPI PUSH2 0x1A5C PUSH2 0x22E0 JUMP JUMPDEST JUMPDEST SWAP1 PUSH0 MSTORE PUSH1 0x20 PUSH0 KECCAK256 ADD PUSH0 SWAP1 SLOAD SWAP1 PUSH2 0x100 EXP SWAP1 DIV PUSH20 0xFFFFFFFFFFFFFFFFFFFFFFFFFFFFFFFFFFFFFFFF AND PUSH1 0x4 SLOAD PUSH1 0x40 MLOAD DUP4 PUSH4 0xFFFFFFFF AND PUSH1 0xE0 SHL DUP2 MSTORE PUSH1 0x4 ADD PUSH2 0x1AA5 SWAP3 SWAP2 SWAP1 PUSH2 0x2811 JUMP JUMPDEST PUSH1 0x20 PUSH1 0x40 MLOAD DUP1 DUP4 SUB DUP2 PUSH0 DUP8 GAS CALL ISZERO DUP1 ISZERO PUSH2 0x1AC1 JUMPI RETURNDATASIZE PUSH0 DUP1 RETURNDATACOPY RETURNDATASIZE PUSH0 REVERT JUMPDEST POP POP POP POP PUSH1 0x40 MLOAD RETURNDATASIZE PUSH1 0x1F NOT PUSH1 0x1F DUP3 ADD AND DUP3 ADD DUP1 PUSH1 0x40 MSTORE POP DUP2 ADD SWAP1 PUSH2 0x1AE5 SWAP2 SWAP1 PUSH2 0x2862 JUMP JUMPDEST SWAP1 POP DUP1 PUSH2 0x1B27 JUMPI PUSH1 0x40 MLOAD PUSH32 0x8C379A000000000000000000000000000000000000000000000000000000000 DUP2 MSTORE PUSH1 0x4 ADD PUSH2 0x1B1E SWAP1 PUSH2 0x28D7 JUMP JUMPDEST PUSH1 0x40 MLOAD DUP1 SWAP2 SUB SWAP1 REVERT JUMPDEST POP PUSH2 0x1D4A JUMP JUMPDEST PUSH0 PUSH1 0x2 PUSH0 SWAP1 SLOAD SWAP1 PUSH2 0x100 EXP SWAP1 DIV PUSH20 0xFFFFFFFFFFFFFFFFFFFFFFFFFFFFFFFFFFFFFFFF AND PUSH20 0xFFFFFFFFFFFFFFFFFFFFFFFFFFFFFFFFFFFFFFFF AND PUSH4 0xA9059CBB PUSH1 0x8 PUSH0 DUP2 SLOAD DUP2 LT PUSH2 0x1B7F JUMPI PUSH2 0x1B7E PUSH2 0x22E0 JUMP JUMPDEST JUMPDEST SWAP1 PUSH0 MSTORE PUSH1 0x20 PUSH0 KECCAK256 ADD PUSH0 SWAP1 SLOAD SWAP1 PUSH2 0x100 EXP SWAP1 DIV PUSH20 0xFFFFFFFFFFFFFFFFFFFFFFFFFFFFFFFFFFFFFFFF AND PUSH1 0x2 PUSH1 0x4 SLOAD PUSH2 0x1BB6 SWAP2 SWAP1 PUSH2 0x2B37 JUMP JUMPDEST PUSH1 0x40 MLOAD DUP4 PUSH4 0xFFFFFFFF AND PUSH1 0xE0 SHL DUP2 MSTORE PUSH1 0x4 ADD PUSH2 0x1BD3 SWAP3 SWAP2 SWAP1 PUSH2 0x2811 JUMP JUMPDEST PUSH1 0x20 PUSH1 0x40 MLOAD DUP1 DUP4 SUB DUP2 PUSH0 DUP8 GAS CALL ISZERO DUP1 ISZERO PUSH2 0x1BEF JUMPI RETURNDATASIZE PUSH0 DUP1 RETURNDATACOPY RETURNDATASIZE PUSH0 REVERT JUMPDEST POP POP POP POP PUSH1 0x40 MLOAD RETURNDATASIZE PUSH1 0x1F NOT PUSH1 0x1F DUP3 ADD AND DUP3 ADD DUP1 PUSH1 0x40 MSTORE POP DUP2 ADD SWAP1 PUSH2 0x1C13 SWAP2 SWAP1 PUSH2 0x2862 JUMP JUMPDEST SWAP1 POP PUSH0 PUSH1 0x2 PUSH0 SWAP1 SLOAD SWAP1 PUSH2 0x100 EXP SWAP1 DIV PUSH20 0xFFFFFFFFFFFFFFFFFFFFFFFFFFFFFFFFFFFFFFFF AND PUSH20 0xFFFFFFFFFFFFFFFFFFFFFFFFFFFFFFFFFFFFFFFF AND PUSH4 0xA9059CBB PUSH1 0x8 PUSH1 0x1 DUP2 SLOAD DUP2 LT PUSH2 0x1C68 JUMPI PUSH2 0x1C67 PUSH2 0x22E0 JUMP JUMPDEST JUMPDEST SWAP1 PUSH0 MSTORE PUSH1 0x20 PUSH0 KECCAK256 ADD PUSH0 SWAP1 SLOAD SWAP1 PUSH2 0x100 EXP SWAP1 DIV PUSH20 0xFFFFFFFFFFFFFFFFFFFFFFFFFFFFFFFFFFFFFFFF AND PUSH1 0x2 PUSH1 0x4 SLOAD PUSH2 0x1C9F SWAP2 SWAP1 PUSH2 0x2B37 JUMP JUMPDEST PUSH1 0x40 MLOAD DUP4 PUSH4 0xFFFFFFFF AND PUSH1 0xE0 SHL DUP2 MSTORE PUSH1 0x4 ADD PUSH2 0x1CBC SWAP3 SWAP2 SWAP1 PUSH2 0x2811 JUMP JUMPDEST PUSH1 0x20 PUSH1 0x40 MLOAD DUP1 DUP4 SUB DUP2 PUSH0 DUP8 GAS CALL ISZERO DUP1 ISZERO PUSH2 0x1CD8 JUMPI RETURNDATASIZE PUSH0 DUP1 RETURNDATACOPY RETURNDATASIZE PUSH0 REVERT JUMPDEST POP POP POP POP PUSH1 0x40 MLOAD RETURNDATASIZE PUSH1 0x1F NOT PUSH1 0x1F DUP3 ADD AND DUP3 ADD DUP1 PUSH1 0x40 MSTORE POP DUP2 ADD SWAP1 PUSH2 0x1CFC SWAP2 SWAP1 PUSH2 0x2862 JUMP JUMPDEST SWAP1 POP DUP2 DUP1 ISZERO PUSH2 0x1D08 JUMPI POP DUP1 JUMPDEST PUSH2 0x1D47 JUMPI PUSH1 0x40 MLOAD PUSH32 0x8C379A000000000000000000000000000000000000000000000000000000000 DUP2 MSTORE PUSH1 0x4 ADD PUSH2 0x1D3E SWAP1 PUSH2 0x28D7 JUMP JUMPDEST PUSH1 0x40 MLOAD DUP1 SWAP2 SUB SWAP1 REVERT JUMPDEST POP POP JUMPDEST JUMPDEST PUSH2 0x1D53 PUSH2 0x1D57 JUMP JUMPDEST POP POP JUMP JUMPDEST PUSH0 PUSH1 0x4 DUP2 SWAP1 SSTORE POP PUSH0 PUSH1 0xB PUSH0 PUSH2 0x100 EXP DUP2 SLOAD DUP2 PUSH1 0xFF MUL NOT AND SWAP1 DUP4 ISZERO ISZERO MUL OR SWAP1 SSTORE POP PUSH0 JUMPDEST PUSH1 0x8 DUP1 SLOAD SWAP1 POP DUP2 LT ISZERO PUSH2 0x1E95 JUMPI PUSH1 0x6 PUSH0 PUSH1 0x8 DUP4 DUP2 SLOAD DUP2 LT PUSH2 0x1D9D JUMPI PUSH2 0x1D9C PUSH2 0x22E0 JUMP JUMPDEST JUMPDEST SWAP1 PUSH0 MSTORE PUSH1 0x20 PUSH0 KECCAK256 ADD PUSH0 SWAP1 SLOAD SWAP1 PUSH2 0x100 EXP SWAP1 DIV PUSH20 0xFFFFFFFFFFFFFFFFFFFFFFFFFFFFFFFFFFFFFFFF AND PUSH20 0xFFFFFFFFFFFFFFFFFFFFFFFFFFFFFFFFFFFFFFFF AND PUSH20 0xFFFFFFFFFFFFFFFFFFFFFFFFFFFFFFFFFFFFFFFF AND DUP2 MSTORE PUSH1 0x20 ADD SWAP1 DUP2 MSTORE PUSH1 0x20 ADD PUSH0 KECCAK256 PUSH0 SWAP1 SSTORE PUSH1 0x7 PUSH0 PUSH1 0x8 DUP4 DUP2 SLOAD DUP2 LT PUSH2 0x1E18 JUMPI PUSH2 0x1E17 PUSH2 0x22E0 JUMP JUMPDEST JUMPDEST SWAP1 PUSH0 MSTORE PUSH1 0x20 PUSH0 KECCAK256 ADD PUSH0 SWAP1 SLOAD SWAP1 PUSH2 0x100 EXP SWAP1 DIV PUSH20 0xFFFFFFFFFFFFFFFFFFFFFFFFFFFFFFFFFFFFFFFF AND PUSH20 0xFFFFFFFFFFFFFFFFFFFFFFFFFFFFFFFFFFFFFFFF AND PUSH20 0xFFFFFFFFFFFFFFFFFFFFFFFFFFFFFFFFFFFFFFFF AND DUP2 MSTORE PUSH1 0x20 ADD SWAP1 DUP2 MSTORE PUSH1 0x20 ADD PUSH0 KECCAK256 PUSH0 PUSH2 0x100 EXP DUP2 SLOAD SWAP1 PUSH1 0xFF MUL NOT AND SWAP1 SSTORE DUP1 DUP1 PUSH1 0x1 ADD SWAP2 POP POP PUSH2 0x1D79 JUMP JUMPDEST POP PUSH1 0x8 PUSH0 PUSH2 0x1EA3 SWAP2 SWAP1 PUSH2 0x1F81 JUMP JUMPDEST PUSH0 PUSH1 0x3 DUP2 SWAP1 SSTORE POP PUSH0 PUSH1 0x9 DUP2 SWAP1 SSTORE POP PUSH0 PUSH1 0x5 DUP2 SWAP1 SSTORE POP JUMP JUMPDEST PUSH0 DUP5 PUSH20 0xFFFFFFFFFFFFFFFFFFFFFFFFFFFFFFFFFFFFFFFF AND PUSH4 0x23B872DD DUP6 DUP6 DUP6 PUSH1 0x40 MLOAD DUP5 PUSH4 0xFFFFFFFF AND PUSH1 0xE0 SHL DUP2 MSTORE PUSH1 0x4 ADD PUSH2 0x1EF8 SWAP4 SWAP3 SWAP2 SWAP1 PUSH2 0x2B67 JUMP JUMPDEST PUSH1 0x20 PUSH1 0x40 MLOAD DUP1 DUP4 SUB DUP2 PUSH0 DUP8 GAS CALL ISZERO DUP1 ISZERO PUSH2 0x1F14 JUMPI RETURNDATASIZE PUSH0 DUP1 RETURNDATACOPY RETURNDATASIZE PUSH0 REVERT JUMPDEST POP POP POP POP PUSH1 0x40 MLOAD RETURNDATASIZE PUSH1 0x1F NOT PUSH1 0x1F DUP3 ADD AND DUP3 ADD DUP1 PUSH1 0x40 MSTORE POP DUP2 ADD SWAP1 PUSH2 0x1F38 SWAP2 SWAP1 PUSH2 0x2862 JUMP JUMPDEST SWAP1 POP DUP1 PUSH2 0x1F7A JUMPI PUSH1 0x40 MLOAD PUSH32 0x8C379A000000000000000000000000000000000000000000000000000000000 DUP2 MSTORE PUSH1 0x4 ADD PUSH2 0x1F71 SWAP1 PUSH2 0x28D7 JUMP JUMPDEST PUSH1 0x40 MLOAD DUP1 SWAP2 SUB SWAP1 REVERT JUMPDEST POP POP POP POP POP JUMP JUMPDEST POP DUP1 SLOAD PUSH0 DUP3 SSTORE SWAP1 PUSH0 MSTORE PUSH1 0x20 PUSH0 KECCAK256 SWAP1 DUP2 ADD SWAP1 PUSH2 0x1F9C SWAP2 SWAP1 PUSH2 0x1F9F JUMP JUMPDEST POP JUMP JUMPDEST JUMPDEST DUP1 DUP3 GT ISZERO PUSH2 0x1FB6 JUMPI PUSH0 DUP2 PUSH0 SWAP1 SSTORE POP PUSH1 0x1 ADD PUSH2 0x1FA0 JUMP JUMPDEST POP SWAP1 JUMP JUMPDEST PUSH0 DUP2 SWAP1 POP SWAP2 SWAP1 POP JUMP JUMPDEST PUSH2 0x1FCC DUP2 PUSH2 0x1FBA JUMP JUMPDEST DUP3 MSTORE POP POP JUMP JUMPDEST PUSH0 PUSH1 0x20 DUP3 ADD SWAP1 POP PUSH2 0x1FE5 PUSH0 DUP4 ADD DUP5 PUSH2 0x1FC3 JUMP JUMPDEST SWAP3 SWAP2 POP POP JUMP JUMPDEST PUSH0 DUP1 REVERT JUMPDEST PUSH0 PUSH20 0xFFFFFFFFFFFFFFFFFFFFFFFFFFFFFFFFFFFFFFFF DUP3 AND SWAP1 POP SWAP2 SWAP1 POP JUMP JUMPDEST PUSH0 PUSH2 0x2018 DUP3 PUSH2 0x1FEF JUMP JUMPDEST SWAP1 POP SWAP2 SWAP1 POP JUMP JUMPDEST PUSH2 0x2028 DUP2 PUSH2 0x200E JUMP JUMPDEST DUP2 EQ PUSH2 0x2032 JUMPI PUSH0 DUP1 REVERT JUMPDEST POP JUMP JUMPDEST PUSH0 DUP2 CALLDATALOAD SWAP1 POP PUSH2 0x2043 DUP2 PUSH2 0x201F JUMP JUMPDEST SWAP3 SWAP2 POP POP JUMP JUMPDEST PUSH0 PUSH1 0x20 DUP3 DUP5 SUB SLT ISZERO PUSH2 0x205E JUMPI PUSH2 0x205D PUSH2 0x1FEB JUMP JUMPDEST JUMPDEST PUSH0 PUSH2 0x206B DUP5 DUP3 DUP6 ADD PUSH2 0x2035 JUMP JUMPDEST SWAP2 POP POP SWAP3 SWAP2 POP POP JUMP JUMPDEST PUSH0 DUP2 ISZERO ISZERO SWAP1 POP SWAP2 SWAP1 POP JUMP JUMPDEST PUSH2 0x2088 DUP2 PUSH2 0x2074 JUMP JUMPDEST DUP3 MSTORE POP POP JUMP JUMPDEST PUSH0 PUSH1 0x20 DUP3 ADD SWAP1 POP PUSH2 0x20A1 PUSH0 DUP4 ADD DUP5 PUSH2 0x207F JUMP JUMPDEST SWAP3 SWAP2 POP POP JUMP JUMPDEST PUSH0 DUP2 SWAP1 POP SWAP2 SWAP1 POP JUMP JUMPDEST PUSH0 PUSH2 0x20CA PUSH2 0x20C5 PUSH2 0x20C0 DUP5 PUSH2 0x1FEF JUMP JUMPDEST PUSH2 0x20A7 JUMP JUMPDEST PUSH2 0x1FEF JUMP JUMPDEST SWAP1 POP SWAP2 SWAP1 POP JUMP JUMPDEST PUSH0 PUSH2 0x20DB DUP3 PUSH2 0x20B0 JUMP JUMPDEST SWAP1 POP SWAP2 SWAP1 POP JUMP JUMPDEST PUSH0 PUSH2 0x20EC DUP3 PUSH2 0x20D1 JUMP JUMPDEST SWAP1 POP SWAP2 SWAP1 POP JUMP JUMPDEST PUSH2 0x20FC DUP2 PUSH2 0x20E2 JUMP JUMPDEST DUP3 MSTORE POP POP JUMP JUMPDEST PUSH0 PUSH1 0x20 DUP3 ADD SWAP1 POP PUSH2 0x2115 PUSH0 DUP4 ADD DUP5 PUSH2 0x20F3 JUMP JUMPDEST SWAP3 SWAP2 POP POP JUMP JUMPDEST PUSH0 DUP2 SWAP1 POP SWAP2 SWAP1 POP JUMP JUMPDEST PUSH2 0x212D DUP2 PUSH2 0x211B JUMP JUMPDEST DUP2 EQ PUSH2 0x2137 JUMPI PUSH0 DUP1 REVERT JUMPDEST POP JUMP JUMPDEST PUSH0 DUP2 CALLDATALOAD SWAP1 POP PUSH2 0x2148 DUP2 PUSH2 0x2124 JUMP JUMPDEST SWAP3 SWAP2 POP POP JUMP JUMPDEST PUSH0 PUSH1 0x20 DUP3 DUP5 SUB SLT ISZERO PUSH2 0x2163 JUMPI PUSH2 0x2162 PUSH2 0x1FEB JUMP JUMPDEST JUMPDEST PUSH0 PUSH2 0x2170 DUP5 DUP3 DUP6 ADD PUSH2 0x213A JUMP JUMPDEST SWAP2 POP POP SWAP3 SWAP2 POP POP JUMP JUMPDEST PUSH0 PUSH2 0x2183 DUP3 PUSH2 0x20D1 JUMP JUMPDEST SWAP1 POP SWAP2 SWAP1 POP JUMP JUMPDEST PUSH2 0x2193 DUP2 PUSH2 0x2179 JUMP JUMPDEST DUP3 MSTORE POP POP JUMP JUMPDEST PUSH0 PUSH1 0x20 DUP3 ADD SWAP1 POP PUSH2 0x21AC PUSH0 DUP4 ADD DUP5 PUSH2 0x218A JUMP JUMPDEST SWAP3 SWAP2 POP POP JUMP JUMPDEST PUSH2 0x21BB DUP2 PUSH2 0x1FBA JUMP JUMPDEST DUP2 EQ PUSH2 0x21C5 JUMPI PUSH0 DUP1 REVERT JUMPDEST POP JUMP JUMPDEST PUSH0 DUP2 CALLDATALOAD SWAP1 POP PUSH2 0x21D6 DUP2 PUSH2 0x21B2 JUMP JUMPDEST SWAP3 SWAP2 POP POP JUMP JUMPDEST PUSH0 PUSH1 0x20 DUP3 DUP5 SUB SLT ISZERO PUSH2 0x21F1 JUMPI PUSH2 0x21F0 PUSH2 0x1FEB JUMP JUMPDEST JUMPDEST PUSH0 PUSH2 0x21FE DUP5 DUP3 DUP6 ADD PUSH2 0x21C8 JUMP JUMPDEST SWAP2 POP POP SWAP3 SWAP2 POP POP JUMP JUMPDEST PUSH2 0x2210 DUP2 PUSH2 0x200E JUMP JUMPDEST DUP3 MSTORE POP POP JUMP JUMPDEST PUSH0 PUSH1 0x20 DUP3 ADD SWAP1 POP PUSH2 0x2229 PUSH0 DUP4 ADD DUP5 PUSH2 0x2207 JUMP JUMPDEST SWAP3 SWAP2 POP POP JUMP JUMPDEST PUSH0 PUSH2 0x2239 DUP3 PUSH2 0x20D1 JUMP JUMPDEST SWAP1 POP SWAP2 SWAP1 POP JUMP JUMPDEST PUSH2 0x2249 DUP2 PUSH2 0x222F JUMP JUMPDEST DUP3 MSTORE POP POP JUMP JUMPDEST PUSH0 PUSH1 0x20 DUP3 ADD SWAP1 POP PUSH2 0x2262 PUSH0 DUP4 ADD DUP5 PUSH2 0x2240 JUMP JUMPDEST SWAP3 SWAP2 POP POP JUMP JUMPDEST PUSH0 DUP3 DUP3 MSTORE PUSH1 0x20 DUP3 ADD SWAP1 POP SWAP3 SWAP2 POP POP JUMP JUMPDEST PUSH32 0x47616D6520616C726561647920686173203220706C6179657273000000000000 PUSH0 DUP3 ADD MSTORE POP JUMP JUMPDEST PUSH0 PUSH2 0x22AC PUSH1 0x1A DUP4 PUSH2 0x2268 JUMP JUMPDEST SWAP2 POP PUSH2 0x22B7 DUP3 PUSH2 0x2278 JUMP JUMPDEST PUSH1 0x20 DUP3 ADD SWAP1 POP SWAP2 SWAP1 POP JUMP JUMPDEST PUSH0 PUSH1 0x20 DUP3 ADD SWAP1 POP DUP2 DUP2 SUB PUSH0 DUP4 ADD MSTORE PUSH2 0x22D9 DUP2 PUSH2 0x22A0 JUMP JUMPDEST SWAP1 POP SWAP2 SWAP1 POP JUMP JUMPDEST PUSH32 0x4E487B7100000000000000000000000000000000000000000000000000000000 PUSH0 MSTORE PUSH1 0x32 PUSH1 0x4 MSTORE PUSH1 0x24 PUSH0 REVERT JUMPDEST PUSH32 0x596F752061726520616C72656164792072656769737465726564206173206120 PUSH0 DUP3 ADD MSTORE PUSH32 0x706C617965720000000000000000000000000000000000000000000000000000 PUSH1 0x20 DUP3 ADD MSTORE POP JUMP JUMPDEST PUSH0 PUSH2 0x2367 PUSH1 0x26 DUP4 PUSH2 0x2268 JUMP JUMPDEST SWAP2 POP PUSH2 0x2372 DUP3 PUSH2 0x230D JUMP JUMPDEST PUSH1 0x40 DUP3 ADD SWAP1 POP SWAP2 SWAP1 POP JUMP JUMPDEST PUSH0 PUSH1 0x20 DUP3 ADD SWAP1 POP DUP2 DUP2 SUB PUSH0 DUP4 ADD MSTORE PUSH2 0x2394 DUP2 PUSH2 0x235B JUMP JUMPDEST SWAP1 POP SWAP2 SWAP1 POP JUMP JUMPDEST PUSH0 PUSH1 0x40 DUP3 ADD SWAP1 POP PUSH2 0x23AE PUSH0 DUP4 ADD DUP6 PUSH2 0x2207 JUMP JUMPDEST PUSH2 0x23BB PUSH1 0x20 DUP4 ADD DUP5 PUSH2 0x2207 JUMP JUMPDEST SWAP4 SWAP3 POP POP POP JUMP JUMPDEST PUSH0 DUP2 MLOAD SWAP1 POP PUSH2 0x23D0 DUP2 PUSH2 0x21B2 JUMP JUMPDEST SWAP3 SWAP2 POP POP JUMP JUMPDEST PUSH0 PUSH1 0x20 DUP3 DUP5 SUB SLT ISZERO PUSH2 0x23EB JUMPI PUSH2 0x23EA PUSH2 0x1FEB JUMP JUMPDEST JUMPDEST PUSH0 PUSH2 0x23F8 DUP5 DUP3 DUP6 ADD PUSH2 0x23C2 JUMP JUMPDEST SWAP2 POP POP SWAP3 SWAP2 POP POP JUMP JUMPDEST PUSH32 0x496E73756666696369656E7420746F6B656E20616C6C6F77616E636500000000 PUSH0 DUP3 ADD MSTORE POP JUMP JUMPDEST PUSH0 PUSH2 0x2435 PUSH1 0x1C DUP4 PUSH2 0x2268 JUMP JUMPDEST SWAP2 POP PUSH2 0x2440 DUP3 PUSH2 0x2401 JUMP JUMPDEST PUSH1 0x20 DUP3 ADD SWAP1 POP SWAP2 SWAP1 POP JUMP JUMPDEST PUSH0 PUSH1 0x20 DUP3 ADD SWAP1 POP DUP2 DUP2 SUB PUSH0 DUP4 ADD MSTORE PUSH2 0x2462 DUP2 PUSH2 0x2429 JUMP JUMPDEST SWAP1 POP SWAP2 SWAP1 POP JUMP JUMPDEST PUSH32 0x4E487B7100000000000000000000000000000000000000000000000000000000 PUSH0 MSTORE PUSH1 0x11 PUSH1 0x4 MSTORE PUSH1 0x24 PUSH0 REVERT JUMPDEST PUSH0 PUSH2 0x24A0 DUP3 PUSH2 0x1FBA JUMP JUMPDEST SWAP2 POP PUSH32 0xFFFFFFFFFFFFFFFFFFFFFFFFFFFFFFFFFFFFFFFFFFFFFFFFFFFFFFFFFFFFFFFF DUP3 SUB PUSH2 0x24D2 JUMPI PUSH2 0x24D1 PUSH2 0x2469 JUMP JUMPDEST JUMPDEST PUSH1 0x1 DUP3 ADD SWAP1 POP SWAP2 SWAP1 POP JUMP JUMPDEST PUSH32 0x4E6565642065786163746C79203220706C617965727300000000000000000000 PUSH0 DUP3 ADD MSTORE POP JUMP JUMPDEST PUSH0 PUSH2 0x2511 PUSH1 0x16 DUP4 PUSH2 0x2268 JUMP JUMPDEST SWAP2 POP PUSH2 0x251C DUP3 PUSH2 0x24DD JUMP JUMPDEST PUSH1 0x20 DUP3 ADD SWAP1 POP SWAP2 SWAP1 POP JUMP JUMPDEST PUSH0 PUSH1 0x20 DUP3 ADD SWAP1 POP DUP2 DUP2 SUB PUSH0 DUP4 ADD MSTORE PUSH2 0x253E DUP2 PUSH2 0x2505 JUMP JUMPDEST SWAP1 POP SWAP2 SWAP1 POP JUMP JUMPDEST PUSH32 0x426F746820706C6179657273206D75737420636F6D6D69742066697273740000 PUSH0 DUP3 ADD MSTORE POP JUMP JUMPDEST PUSH0 PUSH2 0x2579 PUSH1 0x1E DUP4 PUSH2 0x2268 JUMP JUMPDEST SWAP2 POP PUSH2 0x2584 DUP3 PUSH2 0x2545 JUMP JUMPDEST PUSH1 0x20 DUP3 ADD SWAP1 POP SWAP2 SWAP1 POP JUMP JUMPDEST PUSH0 PUSH1 0x20 DUP3 ADD SWAP1 POP DUP2 DUP2 SUB PUSH0 DUP4 ADD MSTORE PUSH2 0x25A6 DUP2 PUSH2 0x256D JUMP JUMPDEST SWAP1 POP SWAP2 SWAP1 POP JUMP JUMPDEST PUSH32 0x46756E6473206E6F7420796574207472616E7366657272656420746F20636F6E PUSH0 DUP3 ADD MSTORE PUSH32 0x7472616374000000000000000000000000000000000000000000000000000000 PUSH1 0x20 DUP3 ADD MSTORE POP JUMP JUMPDEST PUSH0 PUSH2 0x2607 PUSH1 0x25 DUP4 PUSH2 0x2268 JUMP JUMPDEST SWAP2 POP PUSH2 0x2612 DUP3 PUSH2 0x25AD JUMP JUMPDEST PUSH1 0x40 DUP3 ADD SWAP1 POP SWAP2 SWAP1 POP JUMP JUMPDEST PUSH0 PUSH1 0x20 DUP3 ADD SWAP1 POP DUP2 DUP2 SUB PUSH0 DUP4 ADD MSTORE PUSH2 0x2634 DUP2 PUSH2 0x25FB JUMP JUMPDEST SWAP1 POP SWAP2 SWAP1 POP JUMP JUMPDEST PUSH2 0x2644 DUP2 PUSH2 0x211B JUMP JUMPDEST DUP3 MSTORE POP POP JUMP JUMPDEST PUSH0 PUSH1 0x40 DUP3 ADD SWAP1 POP PUSH2 0x265D PUSH0 DUP4 ADD DUP6 PUSH2 0x263B JUMP JUMPDEST PUSH2 0x266A PUSH1 0x20 DUP4 ADD DUP5 PUSH2 0x2207 JUMP JUMPDEST SWAP4 SWAP3 POP POP POP JUMP JUMPDEST PUSH32 0x43686F696365206973206E6F742076616C696400000000000000000000000000 PUSH0 DUP3 ADD MSTORE POP JUMP JUMPDEST PUSH0 PUSH2 0x26A5 PUSH1 0x13 DUP4 PUSH2 0x2268 JUMP JUMPDEST SWAP2 POP PUSH2 0x26B0 DUP3 PUSH2 0x2671 JUMP JUMPDEST PUSH1 0x20 DUP3 ADD SWAP1 POP SWAP2 SWAP1 POP JUMP JUMPDEST PUSH0 PUSH1 0x20 DUP3 ADD SWAP1 POP DUP2 DUP2 SUB PUSH0 DUP4 ADD MSTORE PUSH2 0x26D2 DUP2 PUSH2 0x2699 JUMP JUMPDEST SWAP1 POP SWAP2 SWAP1 POP JUMP JUMPDEST PUSH32 0x47616D65206E6F7420696E20636F727265637420737461746500000000000000 PUSH0 DUP3 ADD MSTORE POP JUMP JUMPDEST PUSH0 PUSH2 0x270D PUSH1 0x19 DUP4 PUSH2 0x2268 JUMP JUMPDEST SWAP2 POP PUSH2 0x2718 DUP3 PUSH2 0x26D9 JUMP JUMPDEST PUSH1 0x20 DUP3 ADD SWAP1 POP SWAP2 SWAP1 POP JUMP JUMPDEST PUSH0 PUSH1 0x20 DUP3 ADD SWAP1 POP DUP2 DUP2 SUB PUSH0 DUP4 ADD MSTORE PUSH2 0x273A DUP2 PUSH2 0x2701 JUMP JUMPDEST SWAP1 POP SWAP2 SWAP1 POP JUMP JUMPDEST PUSH32 0x54696D65206C696D6974206E6F74207265616368656400000000000000000000 PUSH0 DUP3 ADD MSTORE POP JUMP JUMPDEST PUSH0 PUSH2 0x2775 PUSH1 0x16 DUP4 PUSH2 0x2268 JUMP JUMPDEST SWAP2 POP PUSH2 0x2780 DUP3 PUSH2 0x2741 JUMP JUMPDEST PUSH1 0x20 DUP3 ADD SWAP1 POP SWAP2 SWAP1 POP JUMP JUMPDEST PUSH0 PUSH1 0x20 DUP3 ADD SWAP1 POP DUP2 DUP2 SUB PUSH0 DUP4 ADD MSTORE PUSH2 0x27A2 DUP2 PUSH2 0x2769 JUMP JUMPDEST SWAP1 POP SWAP2 SWAP1 POP JUMP JUMPDEST PUSH32 0x426F746820706C617965727320616C72656164792072657665616C6564000000 PUSH0 DUP3 ADD MSTORE POP JUMP JUMPDEST PUSH0 PUSH2 0x27DD PUSH1 0x1D DUP4 PUSH2 0x2268 JUMP JUMPDEST SWAP2 POP PUSH2 0x27E8 DUP3 PUSH2 0x27A9 JUMP JUMPDEST PUSH1 0x20 DUP3 ADD SWAP1 POP SWAP2 SWAP1 POP JUMP JUMPDEST PUSH0 PUSH1 0x20 DUP3 ADD SWAP1 POP DUP2 DUP2 SUB PUSH0 DUP4 ADD MSTORE PUSH2 0x280A DUP2 PUSH2 0x27D1 JUMP JUMPDEST SWAP1 POP SWAP2 SWAP1 POP JUMP JUMPDEST PUSH0 PUSH1 0x40 DUP3 ADD SWAP1 POP PUSH2 0x2824 PUSH0 DUP4 ADD DUP6 PUSH2 0x2207 JUMP JUMPDEST PUSH2 0x2831 PUSH1 0x20 DUP4 ADD DUP5 PUSH2 0x1FC3 JUMP JUMPDEST SWAP4 SWAP3 POP POP POP JUMP JUMPDEST PUSH2 0x2841 DUP2 PUSH2 0x2074 JUMP JUMPDEST DUP2 EQ PUSH2 0x284B JUMPI PUSH0 DUP1 REVERT JUMPDEST POP JUMP JUMPDEST PUSH0 DUP2 MLOAD SWAP1 POP PUSH2 0x285C DUP2 PUSH2 0x2838 JUMP JUMPDEST SWAP3 SWAP2 POP POP JUMP JUMPDEST PUSH0 PUSH1 0x20 DUP3 DUP5 SUB SLT ISZERO PUSH2 0x2877 JUMPI PUSH2 0x2876 PUSH2 0x1FEB JUMP JUMPDEST JUMPDEST PUSH0 PUSH2 0x2884 DUP5 DUP3 DUP6 ADD PUSH2 0x284E JUMP JUMPDEST SWAP2 POP POP SWAP3 SWAP2 POP POP JUMP JUMPDEST PUSH32 0x546F6B656E207472616E73666572206661696C65640000000000000000000000 PUSH0 DUP3 ADD MSTORE POP JUMP JUMPDEST PUSH0 PUSH2 0x28C1 PUSH1 0x15 DUP4 PUSH2 0x2268 JUMP JUMPDEST SWAP2 POP PUSH2 0x28CC DUP3 PUSH2 0x288D JUMP JUMPDEST PUSH1 0x20 DUP3 ADD SWAP1 POP SWAP2 SWAP1 POP JUMP JUMPDEST PUSH0 PUSH1 0x20 DUP3 ADD SWAP1 POP DUP2 DUP2 SUB PUSH0 DUP4 ADD MSTORE PUSH2 0x28EE DUP2 PUSH2 0x28B5 JUMP JUMPDEST SWAP1 POP SWAP2 SWAP1 POP JUMP JUMPDEST PUSH0 DUP2 MLOAD SWAP1 POP PUSH2 0x2903 DUP2 PUSH2 0x2124 JUMP JUMPDEST SWAP3 SWAP2 POP POP JUMP JUMPDEST PUSH0 PUSH8 0xFFFFFFFFFFFFFFFF DUP3 AND SWAP1 POP SWAP2 SWAP1 POP JUMP JUMPDEST PUSH2 0x2925 DUP2 PUSH2 0x2909 JUMP JUMPDEST DUP2 EQ PUSH2 0x292F JUMPI PUSH0 DUP1 REVERT JUMPDEST POP JUMP JUMPDEST PUSH0 DUP2 MLOAD SWAP1 POP PUSH2 0x2940 DUP2 PUSH2 0x291C JUMP JUMPDEST SWAP3 SWAP2 POP POP JUMP JUMPDEST PUSH0 DUP1 PUSH0 PUSH1 0x60 DUP5 DUP7 SUB SLT ISZERO PUSH2 0x295D JUMPI PUSH2 0x295C PUSH2 0x1FEB JUMP JUMPDEST JUMPDEST PUSH0 PUSH2 0x296A DUP7 DUP3 DUP8 ADD PUSH2 0x28F5 JUMP JUMPDEST SWAP4 POP POP PUSH1 0x20 PUSH2 0x297B DUP7 DUP3 DUP8 ADD PUSH2 0x2932 JUMP JUMPDEST SWAP3 POP POP PUSH1 0x40 PUSH2 0x298C DUP7 DUP3 DUP8 ADD PUSH2 0x284E JUMP JUMPDEST SWAP2 POP POP SWAP3 POP SWAP3 POP SWAP3 JUMP JUMPDEST PUSH32 0x596F752063616E6E6F7420636C61696D20746865207265776172640000000000 PUSH0 DUP3 ADD MSTORE POP JUMP JUMPDEST PUSH0 PUSH2 0x29CA PUSH1 0x1B DUP4 PUSH2 0x2268 JUMP JUMPDEST SWAP2 POP PUSH2 0x29D5 DUP3 PUSH2 0x2996 JUMP JUMPDEST PUSH1 0x20 DUP3 ADD SWAP1 POP SWAP2 SWAP1 POP JUMP JUMPDEST PUSH0 PUSH1 0x20 DUP3 ADD SWAP1 POP DUP2 DUP2 SUB PUSH0 DUP4 ADD MSTORE PUSH2 0x29F7 DUP2 PUSH2 0x29BE JUMP JUMPDEST SWAP1 POP SWAP2 SWAP1 POP JUMP JUMPDEST PUSH32 0x596F7520616C7265616479206D61646520796F75722063686F69636500000000 PUSH0 DUP3 ADD MSTORE POP JUMP JUMPDEST PUSH0 PUSH2 0x2A32 PUSH1 0x1C DUP4 PUSH2 0x2268 JUMP JUMPDEST SWAP2 POP PUSH2 0x2A3D DUP3 PUSH2 0x29FE JUMP JUMPDEST PUSH1 0x20 DUP3 ADD SWAP1 POP SWAP2 SWAP1 POP JUMP JUMPDEST PUSH0 PUSH1 0x20 DUP3 ADD SWAP1 POP DUP2 DUP2 SUB PUSH0 DUP4 ADD MSTORE PUSH2 0x2A5F DUP2 PUSH2 0x2A26 JUMP JUMPDEST SWAP1 POP SWAP2 SWAP1 POP JUMP JUMPDEST PUSH0 PUSH2 0x2A70 DUP3 PUSH2 0x1FBA JUMP JUMPDEST SWAP2 POP PUSH2 0x2A7B DUP4 PUSH2 0x1FBA JUMP JUMPDEST SWAP3 POP DUP3 DUP3 MUL PUSH2 0x2A89 DUP2 PUSH2 0x1FBA JUMP JUMPDEST SWAP2 POP DUP3 DUP3 DIV DUP5 EQ DUP4 ISZERO OR PUSH2 0x2AA0 JUMPI PUSH2 0x2A9F PUSH2 0x2469 JUMP JUMPDEST JUMPDEST POP SWAP3 SWAP2 POP POP JUMP JUMPDEST PUSH0 PUSH2 0x2AB1 DUP3 PUSH2 0x1FBA JUMP JUMPDEST SWAP2 POP PUSH2 0x2ABC DUP4 PUSH2 0x1FBA JUMP JUMPDEST SWAP3 POP DUP3 DUP3 ADD SWAP1 POP DUP1 DUP3 GT ISZERO PUSH2 0x2AD4 JUMPI PUSH2 0x2AD3 PUSH2 0x2469 JUMP JUMPDEST JUMPDEST SWAP3 SWAP2 POP POP JUMP JUMPDEST PUSH32 0x4E487B7100000000000000000000000000000000000000000000000000000000 PUSH0 MSTORE PUSH1 0x12 PUSH1 0x4 MSTORE PUSH1 0x24 PUSH0 REVERT JUMPDEST PUSH0 PUSH2 0x2B11 DUP3 PUSH2 0x1FBA JUMP JUMPDEST SWAP2 POP PUSH2 0x2B1C DUP4 PUSH2 0x1FBA JUMP JUMPDEST SWAP3 POP DUP3 PUSH2 0x2B2C JUMPI PUSH2 0x2B2B PUSH2 0x2ADA JUMP JUMPDEST JUMPDEST DUP3 DUP3 MOD SWAP1 POP SWAP3 SWAP2 POP POP JUMP JUMPDEST PUSH0 PUSH2 0x2B41 DUP3 PUSH2 0x1FBA JUMP JUMPDEST SWAP2 POP PUSH2 0x2B4C DUP4 PUSH2 0x1FBA JUMP JUMPDEST SWAP3 POP DUP3 PUSH2 0x2B5C JUMPI PUSH2 0x2B5B PUSH2 0x2ADA JUMP JUMPDEST JUMPDEST DUP3 DUP3 DIV SWAP1 POP SWAP3 SWAP2 POP POP JUMP JUMPDEST PUSH0 PUSH1 0x60 DUP3 ADD SWAP1 POP PUSH2 0x2B7A PUSH0 DUP4 ADD DUP7 PUSH2 0x2207 JUMP JUMPDEST PUSH2 0x2B87 PUSH1 0x20 DUP4 ADD DUP6 PUSH2 0x2207 JUMP JUMPDEST PUSH2 0x2B94 PUSH1 0x40 DUP4 ADD DUP5 PUSH2 0x1FC3 JUMP JUMPDEST SWAP5 SWAP4 POP POP POP POP JUMP INVALID LOG2 PUSH5 0x6970667358 0x22 SLT KECCAK256 DIV SMOD 0x27 CODECOPY 0xBB 0xF6 LOG1 PUSH31 0x678B58C9E915C253D82D5355DD42FF10E5F9FD7ABCF0344864736F6C634300 ADDMOD BYTE STOP CALLER "
				},
				"gasEstimates": {
					"creation": {
						"codeDepositCost": "2243600",
						"executionCost": "infinite",
						"totalCost": "infinite"
					},
					"external": {
						"REQUIRED_AMOUNT()": "414",
						"addPlayer()": "infinite",
						"claimTimeoutWin()": "infinite",
						"commit(bytes32)": "infinite",
						"commitReveal()": "infinite",
						"fundsCaptured()": "2511",
						"numInput()": "2449",
						"numPlayer()": "2448",
						"numReveal()": "2469",
						"player_choice(address)": "2869",
						"player_not_played(address)": "2879",
						"players(uint256)": "5032",
						"reveal(bytes32)": "infinite",
						"reward()": "2493",
						"timeLimit()": "2447",
						"timeUnit()": "infinite",
						"token()": "infinite"
					},
					"internal": {
						"_checkWinnerAndPay()": "infinite",
						"_safeTransferFrom(contract IERC20,address,address,uint256)": "infinite",
						"reset()": "infinite"
					}
				},
				"methodIdentifiers": {
					"REQUIRED_AMOUNT()": "87e69625",
					"addPlayer()": "27b5db8a",
					"claimTimeoutWin()": "a224cb3e",
					"commit(bytes32)": "f14fcbc8",
					"commitReveal()": "9d7b3f2d",
					"fundsCaptured()": "55f6497d",
					"numInput()": "086f7815",
					"numPlayer()": "90d5d0c3",
					"numReveal()": "c876e615",
					"player_choice(address)": "a040478d",
					"player_not_played(address)": "190cf745",
					"players(uint256)": "f71d96cb",
					"reveal(bytes32)": "701fd0f1",
					"reward()": "228cb733",
					"timeLimit()": "c08d1fe5",
					"timeUnit()": "3c6a7f9b",
					"token()": "fc0c546a"
				}
			},
			"storageLayout": {
				"storage": [
					{
						"astId": 251,
						"contract": "RPS.sol:RPS",
						"label": "timeUnit",
						"offset": 0,
						"slot": "0",
						"type": "t_contract(TimeUnit)966"
					},
					{
						"astId": 254,
						"contract": "RPS.sol:RPS",
						"label": "commitReveal",
						"offset": 0,
						"slot": "1",
						"type": "t_contract(CommitReveal)190"
					},
					{
						"astId": 257,
						"contract": "RPS.sol:RPS",
						"label": "token",
						"offset": 0,
						"slot": "2",
						"type": "t_contract(IERC20)243"
					},
					{
						"astId": 260,
						"contract": "RPS.sol:RPS",
						"label": "numPlayer",
						"offset": 0,
						"slot": "3",
						"type": "t_uint256"
					},
					{
						"astId": 263,
						"contract": "RPS.sol:RPS",
						"label": "reward",
						"offset": 0,
						"slot": "4",
						"type": "t_uint256"
					},
					{
						"astId": 266,
						"contract": "RPS.sol:RPS",
						"label": "numReveal",
						"offset": 0,
						"slot": "5",
						"type": "t_uint256"
					},
					{
						"astId": 273,
						"contract": "RPS.sol:RPS",
						"label": "player_choice",
						"offset": 0,
						"slot": "6",
						"type": "t_mapping(t_address,t_uint256)"
					},
					{
						"astId": 277,
						"contract": "RPS.sol:RPS",
						"label": "player_not_played",
						"offset": 0,
						"slot": "7",
						"type": "t_mapping(t_address,t_bool)"
					},
					{
						"astId": 280,
						"contract": "RPS.sol:RPS",
						"label": "players",
						"offset": 0,
						"slot": "8",
						"type": "t_array(t_address)dyn_storage"
					},
					{
						"astId": 283,
						"contract": "RPS.sol:RPS",
						"label": "numInput",
						"offset": 0,
						"slot": "9",
						"type": "t_uint256"
					},
					{
						"astId": 286,
						"contract": "RPS.sol:RPS",
						"label": "timeLimit",
						"offset": 0,
						"slot": "10",
						"type": "t_uint256"
					},
					{
						"astId": 289,
						"contract": "RPS.sol:RPS",
						"label": "fundsCaptured",
						"offset": 0,
						"slot": "11",
						"type": "t_bool"
					}
				],
				"types": {
					"t_address": {
						"encoding": "inplace",
						"label": "address",
						"numberOfBytes": "20"
					},
					"t_array(t_address)dyn_storage": {
						"base": "t_address",
						"encoding": "dynamic_array",
						"label": "address[]",
						"numberOfBytes": "32"
					},
					"t_bool": {
						"encoding": "inplace",
						"label": "bool",
						"numberOfBytes": "1"
					},
					"t_contract(CommitReveal)190": {
						"encoding": "inplace",
						"label": "contract CommitReveal",
						"numberOfBytes": "20"
					},
					"t_contract(IERC20)243": {
						"encoding": "inplace",
						"label": "contract IERC20",
						"numberOfBytes": "20"
					},
					"t_contract(TimeUnit)966": {
						"encoding": "inplace",
						"label": "contract TimeUnit",
						"numberOfBytes": "20"
					},
					"t_mapping(t_address,t_bool)": {
						"encoding": "mapping",
						"key": "t_address",
						"label": "mapping(address => bool)",
						"numberOfBytes": "32",
						"value": "t_bool"
					},
					"t_mapping(t_address,t_uint256)": {
						"encoding": "mapping",
						"key": "t_address",
						"label": "mapping(address => uint256)",
						"numberOfBytes": "32",
						"value": "t_uint256"
					},
					"t_uint256": {
						"encoding": "inplace",
						"label": "uint256",
						"numberOfBytes": "32"
					}
				}
			},
			"userdoc": {
				"kind": "user",
				"methods": {},
				"version": 1
			}
		}
	}
}