{
	"RPS.sol": {
		"RPS": {
			"abi": [
				{
					"inputs": [
						{
							"internalType": "address",
							"name": "_timeUnit",
							"type": "address"
						},
						{
							"internalType": "address",
							"name": "_commitReveal",
							"type": "address"
						}
					],
					"stateMutability": "nonpayable",
					"type": "constructor"
				},
				{
					"inputs": [],
					"name": "addPlayer",
					"outputs": [],
					"stateMutability": "payable",
					"type": "function"
				},
				{
					"inputs": [],
					"name": "cancelGame",
					"outputs": [],
					"stateMutability": "nonpayable",
					"type": "function"
				},
				{
					"inputs": [
						{
							"internalType": "bytes32",
							"name": "hash",
							"type": "bytes32"
						}
					],
					"name": "commit",
					"outputs": [],
					"stateMutability": "nonpayable",
					"type": "function"
				},
				{
					"inputs": [],
					"name": "commitReveal",
					"outputs": [
						{
							"internalType": "contract CommitReveal",
							"name": "",
							"type": "address"
						}
					],
					"stateMutability": "view",
					"type": "function"
				},
				{
					"inputs": [],
					"name": "numInput",
					"outputs": [
						{
							"internalType": "uint256",
							"name": "",
							"type": "uint256"
						}
					],
					"stateMutability": "view",
					"type": "function"
				},
				{
					"inputs": [],
					"name": "numPlayer",
					"outputs": [
						{
							"internalType": "uint256",
							"name": "",
							"type": "uint256"
						}
					],
					"stateMutability": "view",
					"type": "function"
				},
				{
					"inputs": [],
					"name": "numReveal",
					"outputs": [
						{
							"internalType": "uint256",
							"name": "",
							"type": "uint256"
						}
					],
					"stateMutability": "view",
					"type": "function"
				},
				{
					"inputs": [
						{
							"internalType": "address",
							"name": "",
							"type": "address"
						}
					],
					"name": "player_choice",
					"outputs": [
						{
							"internalType": "uint256",
							"name": "",
							"type": "uint256"
						}
					],
					"stateMutability": "view",
					"type": "function"
				},
				{
					"inputs": [
						{
							"internalType": "address",
							"name": "",
							"type": "address"
						}
					],
					"name": "player_not_played",
					"outputs": [
						{
							"internalType": "bool",
							"name": "",
							"type": "bool"
						}
					],
					"stateMutability": "view",
					"type": "function"
				},
				{
					"inputs": [
						{
							"internalType": "uint256",
							"name": "",
							"type": "uint256"
						}
					],
					"name": "players",
					"outputs": [
						{
							"internalType": "address",
							"name": "",
							"type": "address"
						}
					],
					"stateMutability": "view",
					"type": "function"
				},
				{
					"inputs": [
						{
							"internalType": "bytes32",
							"name": "hash",
							"type": "bytes32"
						}
					],
					"name": "reveal",
					"outputs": [],
					"stateMutability": "nonpayable",
					"type": "function"
				},
				{
					"inputs": [],
					"name": "reward",
					"outputs": [
						{
							"internalType": "uint256",
							"name": "",
							"type": "uint256"
						}
					],
					"stateMutability": "view",
					"type": "function"
				},
				{
					"inputs": [],
					"name": "timeLimit",
					"outputs": [
						{
							"internalType": "uint256",
							"name": "",
							"type": "uint256"
						}
					],
					"stateMutability": "view",
					"type": "function"
				},
				{
					"inputs": [],
					"name": "timeUnit",
					"outputs": [
						{
							"internalType": "contract TimeUnit",
							"name": "",
							"type": "address"
						}
					],
					"stateMutability": "view",
					"type": "function"
				}
			],
			"devdoc": {
				"kind": "dev",
				"methods": {},
				"version": 1
			},
			"evm": {
				"assembly": "    /* \"RPS.sol\":132:4838  contract RPS {... */\n  mstore(0x40, 0x80)\n    /* \"RPS.sol\":248:249  0 */\n  0x00\n    /* \"RPS.sol\":224:249  uint public numPlayer = 0 */\n  0x02\n  sstore\n    /* \"RPS.sol\":277:278  0 */\n  0x00\n    /* \"RPS.sol\":256:278  uint public reward = 0 */\n  0x03\n  sstore\n    /* \"RPS.sol\":309:310  0 */\n  0x00\n    /* \"RPS.sol\":285:310  uint public numReveal = 0 */\n  0x04\n  sstore\n    /* \"RPS.sol\":756:757  0 */\n  0x00\n    /* \"RPS.sol\":733:757  uint public numInput = 0 */\n  0x08\n  sstore\n    /* \"RPS.sol\":788:790  30 */\n  0x1e\n    /* \"RPS.sol\":764:790  uint public timeLimit = 30 */\n  0x09\n  sstore\n    /* \"RPS.sol\":797:952  constructor(address _timeUnit, address _commitReveal){... */\n  callvalue\n  dup1\n  iszero\n  tag_1\n  jumpi\n  0x00\n  dup1\n  revert\ntag_1:\n  pop\n  mload(0x40)\n  sub(codesize, bytecodeSize)\n  dup1\n  bytecodeSize\n  dup4\n  codecopy\n  dup2\n  dup2\n  add\n  0x40\n  mstore\n  dup2\n  add\n  swap1\n  tag_2\n  swap2\n  swap1\n  tag_3\n  jump\t// in\ntag_2:\n    /* \"RPS.sol\":881:890  _timeUnit */\n  dup2\n    /* \"RPS.sol\":861:869  timeUnit */\n  0x00\n  dup1\n    /* \"RPS.sol\":861:891  timeUnit = TimeUnit(_timeUnit) */\n  0x0100\n  exp\n  dup2\n  sload\n  dup2\n  0xffffffffffffffffffffffffffffffffffffffff\n  mul\n  not\n  and\n  swap1\n  dup4\n  0xffffffffffffffffffffffffffffffffffffffff\n  and\n  mul\n  or\n  swap1\n  sstore\n  pop\n    /* \"RPS.sol\":930:943  _commitReveal */\n  dup1\n    /* \"RPS.sol\":902:914  commitReveal */\n  0x01\n  0x00\n    /* \"RPS.sol\":902:944  commitReveal = CommitReveal(_commitReveal) */\n  0x0100\n  exp\n  dup2\n  sload\n  dup2\n  0xffffffffffffffffffffffffffffffffffffffff\n  mul\n  not\n  and\n  swap1\n  dup4\n  0xffffffffffffffffffffffffffffffffffffffff\n  and\n  mul\n  or\n  swap1\n  sstore\n  pop\n    /* \"RPS.sol\":797:952  constructor(address _timeUnit, address _commitReveal){... */\n  pop\n  pop\n    /* \"RPS.sol\":132:4838  contract RPS {... */\n  jump(tag_6)\n    /* \"#utility.yul\":88:205   */\ntag_8:\n    /* \"#utility.yul\":197:198   */\n  0x00\n    /* \"#utility.yul\":194:195   */\n  dup1\n    /* \"#utility.yul\":187:199   */\n  revert\n    /* \"#utility.yul\":334:460   */\ntag_10:\n    /* \"#utility.yul\":371:378   */\n  0x00\n    /* \"#utility.yul\":411:453   */\n  0xffffffffffffffffffffffffffffffffffffffff\n    /* \"#utility.yul\":404:409   */\n  dup3\n    /* \"#utility.yul\":400:454   */\n  and\n    /* \"#utility.yul\":389:454   */\n  swap1\n  pop\n    /* \"#utility.yul\":334:460   */\n  swap2\n  swap1\n  pop\n  jump\t// out\n    /* \"#utility.yul\":466:562   */\ntag_11:\n    /* \"#utility.yul\":503:510   */\n  0x00\n    /* \"#utility.yul\":532:556   */\n  tag_20\n    /* \"#utility.yul\":550:555   */\n  dup3\n    /* \"#utility.yul\":532:556   */\n  tag_10\n  jump\t// in\ntag_20:\n    /* \"#utility.yul\":521:556   */\n  swap1\n  pop\n    /* \"#utility.yul\":466:562   */\n  swap2\n  swap1\n  pop\n  jump\t// out\n    /* \"#utility.yul\":568:690   */\ntag_12:\n    /* \"#utility.yul\":641:665   */\n  tag_22\n    /* \"#utility.yul\":659:664   */\n  dup2\n    /* \"#utility.yul\":641:665   */\n  tag_11\n  jump\t// in\ntag_22:\n    /* \"#utility.yul\":634:639   */\n  dup2\n    /* \"#utility.yul\":631:666   */\n  eq\n    /* \"#utility.yul\":621:684   */\n  tag_23\n  jumpi\n    /* \"#utility.yul\":680:681   */\n  0x00\n    /* \"#utility.yul\":677:678   */\n  dup1\n    /* \"#utility.yul\":670:682   */\n  revert\n    /* \"#utility.yul\":621:684   */\ntag_23:\n    /* \"#utility.yul\":568:690   */\n  pop\n  jump\t// out\n    /* \"#utility.yul\":696:839   */\ntag_13:\n    /* \"#utility.yul\":753:758   */\n  0x00\n    /* \"#utility.yul\":784:790   */\n  dup2\n    /* \"#utility.yul\":778:791   */\n  mload\n    /* \"#utility.yul\":769:791   */\n  swap1\n  pop\n    /* \"#utility.yul\":800:833   */\n  tag_25\n    /* \"#utility.yul\":827:832   */\n  dup2\n    /* \"#utility.yul\":800:833   */\n  tag_12\n  jump\t// in\ntag_25:\n    /* \"#utility.yul\":696:839   */\n  swap3\n  swap2\n  pop\n  pop\n  jump\t// out\n    /* \"#utility.yul\":845:1352   */\ntag_3:\n    /* \"#utility.yul\":924:930   */\n  0x00\n    /* \"#utility.yul\":932:938   */\n  dup1\n    /* \"#utility.yul\":981:983   */\n  0x40\n    /* \"#utility.yul\":969:978   */\n  dup4\n    /* \"#utility.yul\":960:967   */\n  dup6\n    /* \"#utility.yul\":956:979   */\n  sub\n    /* \"#utility.yul\":952:984   */\n  slt\n    /* \"#utility.yul\":949:1068   */\n  iszero\n  tag_27\n  jumpi\n    /* \"#utility.yul\":987:1066   */\n  tag_28\n  tag_8\n  jump\t// in\ntag_28:\n    /* \"#utility.yul\":949:1068   */\ntag_27:\n    /* \"#utility.yul\":1107:1108   */\n  0x00\n    /* \"#utility.yul\":1132:1196   */\n  tag_29\n    /* \"#utility.yul\":1188:1195   */\n  dup6\n    /* \"#utility.yul\":1179:1185   */\n  dup3\n    /* \"#utility.yul\":1168:1177   */\n  dup7\n    /* \"#utility.yul\":1164:1186   */\n  add\n    /* \"#utility.yul\":1132:1196   */\n  tag_13\n  jump\t// in\ntag_29:\n    /* \"#utility.yul\":1122:1196   */\n  swap3\n  pop\n    /* \"#utility.yul\":1078:1206   */\n  pop\n    /* \"#utility.yul\":1245:1247   */\n  0x20\n    /* \"#utility.yul\":1271:1335   */\n  tag_30\n    /* \"#utility.yul\":1327:1334   */\n  dup6\n    /* \"#utility.yul\":1318:1324   */\n  dup3\n    /* \"#utility.yul\":1307:1316   */\n  dup7\n    /* \"#utility.yul\":1303:1325   */\n  add\n    /* \"#utility.yul\":1271:1335   */\n  tag_13\n  jump\t// in\ntag_30:\n    /* \"#utility.yul\":1261:1335   */\n  swap2\n  pop\n    /* \"#utility.yul\":1216:1345   */\n  pop\n    /* \"#utility.yul\":845:1352   */\n  swap3\n  pop\n  swap3\n  swap1\n  pop\n  jump\t// out\n    /* \"RPS.sol\":132:4838  contract RPS {... */\ntag_6:\n  dataSize(sub_0)\n  dup1\n  dataOffset(sub_0)\n  0x00\n  codecopy\n  0x00\n  return\nstop\n\nsub_0: assembly {\n        /* \"RPS.sol\":132:4838  contract RPS {... */\n      mstore(0x40, 0x80)\n      jumpi(tag_1, lt(calldatasize, 0x04))\n      shr(0xe0, calldataload(0x00))\n      dup1\n      0x9d7b3f2d\n      gt\n      tag_16\n      jumpi\n      dup1\n      0xc876e615\n      gt\n      tag_17\n      jumpi\n      dup1\n      0xc876e615\n      eq\n      tag_12\n      jumpi\n      dup1\n      0xd84c1ac9\n      eq\n      tag_13\n      jumpi\n      dup1\n      0xf14fcbc8\n      eq\n      tag_14\n      jumpi\n      dup1\n      0xf71d96cb\n      eq\n      tag_15\n      jumpi\n      jump(tag_1)\n    tag_17:\n      dup1\n      0x9d7b3f2d\n      eq\n      tag_9\n      jumpi\n      dup1\n      0xa040478d\n      eq\n      tag_10\n      jumpi\n      dup1\n      0xc08d1fe5\n      eq\n      tag_11\n      jumpi\n      jump(tag_1)\n    tag_16:\n      dup1\n      0x27b5db8a\n      gt\n      tag_18\n      jumpi\n      dup1\n      0x27b5db8a\n      eq\n      tag_5\n      jumpi\n      dup1\n      0x3c6a7f9b\n      eq\n      tag_6\n      jumpi\n      dup1\n      0x701fd0f1\n      eq\n      tag_7\n      jumpi\n      dup1\n      0x90d5d0c3\n      eq\n      tag_8\n      jumpi\n      jump(tag_1)\n    tag_18:\n      dup1\n      0x086f7815\n      eq\n      tag_2\n      jumpi\n      dup1\n      0x190cf745\n      eq\n      tag_3\n      jumpi\n      dup1\n      0x228cb733\n      eq\n      tag_4\n      jumpi\n    tag_1:\n      0x00\n      dup1\n      revert\n        /* \"RPS.sol\":733:757  uint public numInput = 0 */\n    tag_2:\n      callvalue\n      dup1\n      iszero\n      tag_19\n      jumpi\n      0x00\n      dup1\n      revert\n    tag_19:\n      pop\n      tag_20\n      tag_21\n      jump\t// in\n    tag_20:\n      mload(0x40)\n      tag_22\n      swap2\n      swap1\n      tag_23\n      jump\t// in\n    tag_22:\n      mload(0x40)\n      dup1\n      swap2\n      sub\n      swap1\n      return\n        /* \"RPS.sol\":431:480  mapping(address => bool) public player_not_played */\n    tag_3:\n      callvalue\n      dup1\n      iszero\n      tag_24\n      jumpi\n      0x00\n      dup1\n      revert\n    tag_24:\n      pop\n      tag_25\n      0x04\n      dup1\n      calldatasize\n      sub\n      dup2\n      add\n      swap1\n      tag_26\n      swap2\n      swap1\n      tag_27\n      jump\t// in\n    tag_26:\n      tag_28\n      jump\t// in\n    tag_25:\n      mload(0x40)\n      tag_29\n      swap2\n      swap1\n      tag_30\n      jump\t// in\n    tag_29:\n      mload(0x40)\n      dup1\n      swap2\n      sub\n      swap1\n      return\n        /* \"RPS.sol\":256:278  uint public reward = 0 */\n    tag_4:\n      callvalue\n      dup1\n      iszero\n      tag_31\n      jumpi\n      0x00\n      dup1\n      revert\n    tag_31:\n      pop\n      tag_32\n      tag_33\n      jump\t// in\n    tag_32:\n      mload(0x40)\n      tag_34\n      swap2\n      swap1\n      tag_23\n      jump\t// in\n    tag_34:\n      mload(0x40)\n      dup1\n      swap2\n      sub\n      swap1\n      return\n        /* \"RPS.sol\":958:1608  function addPlayer() public payable {... */\n    tag_5:\n      tag_35\n      tag_36\n      jump\t// in\n    tag_35:\n      stop\n        /* \"RPS.sol\":152:176  TimeUnit public timeUnit */\n    tag_6:\n      callvalue\n      dup1\n      iszero\n      tag_37\n      jumpi\n      0x00\n      dup1\n      revert\n    tag_37:\n      pop\n      tag_38\n      tag_39\n      jump\t// in\n    tag_38:\n      mload(0x40)\n      tag_40\n      swap2\n      swap1\n      tag_41\n      jump\t// in\n    tag_40:\n      mload(0x40)\n      dup1\n      swap2\n      sub\n      swap1\n      return\n        /* \"RPS.sol\":2233:2661  function reveal(bytes32 hash) public {... */\n    tag_7:\n      callvalue\n      dup1\n      iszero\n      tag_42\n      jumpi\n      0x00\n      dup1\n      revert\n    tag_42:\n      pop\n      tag_43\n      0x04\n      dup1\n      calldatasize\n      sub\n      dup2\n      add\n      swap1\n      tag_44\n      swap2\n      swap1\n      tag_45\n      jump\t// in\n    tag_44:\n      tag_46\n      jump\t// in\n    tag_43:\n      stop\n        /* \"RPS.sol\":224:249  uint public numPlayer = 0 */\n    tag_8:\n      callvalue\n      dup1\n      iszero\n      tag_47\n      jumpi\n      0x00\n      dup1\n      revert\n    tag_47:\n      pop\n      tag_48\n      tag_49\n      jump\t// in\n    tag_48:\n      mload(0x40)\n      tag_50\n      swap2\n      swap1\n      tag_23\n      jump\t// in\n    tag_50:\n      mload(0x40)\n      dup1\n      swap2\n      sub\n      swap1\n      return\n        /* \"RPS.sol\":183:215  CommitReveal public commitReveal */\n    tag_9:\n      callvalue\n      dup1\n      iszero\n      tag_51\n      jumpi\n      0x00\n      dup1\n      revert\n    tag_51:\n      pop\n      tag_52\n      tag_53\n      jump\t// in\n    tag_52:\n      mload(0x40)\n      tag_54\n      swap2\n      swap1\n      tag_55\n      jump\t// in\n    tag_54:\n      mload(0x40)\n      dup1\n      swap2\n      sub\n      swap1\n      return\n        /* \"RPS.sol\":317:363  mapping (address => uint) public player_choice */\n    tag_10:\n      callvalue\n      dup1\n      iszero\n      tag_56\n      jumpi\n      0x00\n      dup1\n      revert\n    tag_56:\n      pop\n      tag_57\n      0x04\n      dup1\n      calldatasize\n      sub\n      dup2\n      add\n      swap1\n      tag_58\n      swap2\n      swap1\n      tag_27\n      jump\t// in\n    tag_58:\n      tag_59\n      jump\t// in\n    tag_57:\n      mload(0x40)\n      tag_60\n      swap2\n      swap1\n      tag_23\n      jump\t// in\n    tag_60:\n      mload(0x40)\n      dup1\n      swap2\n      sub\n      swap1\n      return\n        /* \"RPS.sol\":764:790  uint public timeLimit = 30 */\n    tag_11:\n      callvalue\n      dup1\n      iszero\n      tag_61\n      jumpi\n      0x00\n      dup1\n      revert\n    tag_61:\n      pop\n      tag_62\n      tag_63\n      jump\t// in\n    tag_62:\n      mload(0x40)\n      tag_64\n      swap2\n      swap1\n      tag_23\n      jump\t// in\n    tag_64:\n      mload(0x40)\n      dup1\n      swap2\n      sub\n      swap1\n      return\n        /* \"RPS.sol\":285:310  uint public numReveal = 0 */\n    tag_12:\n      callvalue\n      dup1\n      iszero\n      tag_65\n      jumpi\n      0x00\n      dup1\n      revert\n    tag_65:\n      pop\n      tag_66\n      tag_67\n      jump\t// in\n    tag_66:\n      mload(0x40)\n      tag_68\n      swap2\n      swap1\n      tag_23\n      jump\t// in\n    tag_68:\n      mload(0x40)\n      dup1\n      swap2\n      sub\n      swap1\n      return\n        /* \"RPS.sol\":3445:4513  function cancelGame() public {... */\n    tag_13:\n      callvalue\n      dup1\n      iszero\n      tag_69\n      jumpi\n      0x00\n      dup1\n      revert\n    tag_69:\n      pop\n      tag_70\n      tag_71\n      jump\t// in\n    tag_70:\n      stop\n        /* \"RPS.sol\":1616:2225  function commit(bytes32 hash) public  {... */\n    tag_14:\n      callvalue\n      dup1\n      iszero\n      tag_72\n      jumpi\n      0x00\n      dup1\n      revert\n    tag_72:\n      pop\n      tag_73\n      0x04\n      dup1\n      calldatasize\n      sub\n      dup2\n      add\n      swap1\n      tag_74\n      swap2\n      swap1\n      tag_45\n      jump\t// in\n    tag_74:\n      tag_75\n      jump\t// in\n    tag_73:\n      stop\n        /* \"RPS.sol\":487:511  address[] public players */\n    tag_15:\n      callvalue\n      dup1\n      iszero\n      tag_76\n      jumpi\n      0x00\n      dup1\n      revert\n    tag_76:\n      pop\n      tag_77\n      0x04\n      dup1\n      calldatasize\n      sub\n      dup2\n      add\n      swap1\n      tag_78\n      swap2\n      swap1\n      tag_79\n      jump\t// in\n    tag_78:\n      tag_80\n      jump\t// in\n    tag_77:\n      mload(0x40)\n      tag_81\n      swap2\n      swap1\n      tag_82\n      jump\t// in\n    tag_81:\n      mload(0x40)\n      dup1\n      swap2\n      sub\n      swap1\n      return\n        /* \"RPS.sol\":733:757  uint public numInput = 0 */\n    tag_21:\n      sload(0x08)\n      dup2\n      jump\t// out\n        /* \"RPS.sol\":431:480  mapping(address => bool) public player_not_played */\n    tag_28:\n      mstore(0x20, 0x06)\n      dup1\n      0x00\n      mstore\n      keccak256(0x00, 0x40)\n      0x00\n      swap2\n      pop\n      sload\n      swap1\n      0x0100\n      exp\n      swap1\n      div\n      0xff\n      and\n      dup2\n      jump\t// out\n        /* \"RPS.sol\":256:278  uint public reward = 0 */\n    tag_33:\n      sload(0x03)\n      dup2\n      jump\t// out\n        /* \"RPS.sol\":958:1608  function addPlayer() public payable {... */\n    tag_36:\n        /* \"RPS.sol\":1025:1026  2 */\n      0x02\n        /* \"RPS.sol\":1013:1022  numPlayer */\n      dup1\n      sload\n        /* \"RPS.sol\":1013:1026  numPlayer < 2 */\n      lt\n        /* \"RPS.sol\":1005:1027  require(numPlayer < 2) */\n      tag_84\n      jumpi\n      0x00\n      dup1\n      revert\n    tag_84:\n        /* \"RPS.sol\":1054:1055  0 */\n      0x00\n        /* \"RPS.sol\":1042:1051  numPlayer */\n      sload(0x02)\n        /* \"RPS.sol\":1042:1055  numPlayer > 0 */\n      gt\n        /* \"RPS.sol\":1038:1117  if (numPlayer > 0) {... */\n      iszero\n      tag_85\n      jumpi\n        /* \"RPS.sol\":1094:1101  players */\n      0x07\n        /* \"RPS.sol\":1102:1103  0 */\n      0x00\n        /* \"RPS.sol\":1094:1104  players[0] */\n      dup2\n      sload\n      dup2\n      lt\n      tag_86\n      jumpi\n      tag_87\n      tag_88\n      jump\t// in\n    tag_87:\n    tag_86:\n      swap1\n      0x00\n      mstore\n      keccak256(0x00, 0x20)\n      add\n      0x00\n      swap1\n      sload\n      swap1\n      0x0100\n      exp\n      swap1\n      div\n      0xffffffffffffffffffffffffffffffffffffffff\n      and\n        /* \"RPS.sol\":1080:1104  msg.sender != players[0] */\n      0xffffffffffffffffffffffffffffffffffffffff\n      and\n        /* \"RPS.sol\":1080:1090  msg.sender */\n      caller\n        /* \"RPS.sol\":1080:1104  msg.sender != players[0] */\n      0xffffffffffffffffffffffffffffffffffffffff\n      and\n      sub\n        /* \"RPS.sol\":1072:1105  require(msg.sender != players[0]) */\n      tag_90\n      jumpi\n      0x00\n      dup1\n      revert\n    tag_90:\n        /* \"RPS.sol\":1038:1117  if (numPlayer > 0) {... */\n    tag_85:\n        /* \"RPS.sol\":1148:1155  1 ether */\n      0x0de0b6b3a7640000\n        /* \"RPS.sol\":1135:1144  msg.value */\n      callvalue\n        /* \"RPS.sol\":1135:1155  msg.value == 1 ether */\n      eq\n        /* \"RPS.sol\":1127:1156  require(msg.value == 1 ether) */\n      tag_91\n      jumpi\n      0x00\n      dup1\n      revert\n    tag_91:\n        /* \"RPS.sol\":1389:1398  msg.value */\n      callvalue\n        /* \"RPS.sol\":1379:1385  reward */\n      0x03\n      0x00\n        /* \"RPS.sol\":1379:1398  reward += msg.value */\n      dup3\n      dup3\n      sload\n      tag_92\n      swap2\n      swap1\n      tag_93\n      jump\t// in\n    tag_92:\n      swap3\n      pop\n      pop\n      dup2\n      swap1\n      sstore\n      pop\n        /* \"RPS.sol\":1441:1445  true */\n      0x01\n        /* \"RPS.sol\":1409:1426  player_not_played */\n      0x06\n        /* \"RPS.sol\":1409:1438  player_not_played[msg.sender] */\n      0x00\n        /* \"RPS.sol\":1427:1437  msg.sender */\n      caller\n        /* \"RPS.sol\":1409:1438  player_not_played[msg.sender] */\n      0xffffffffffffffffffffffffffffffffffffffff\n      and\n      0xffffffffffffffffffffffffffffffffffffffff\n      and\n      dup2\n      mstore\n      0x20\n      add\n      swap1\n      dup2\n      mstore\n      0x20\n      add\n      0x00\n      keccak256\n      0x00\n        /* \"RPS.sol\":1409:1445  player_not_played[msg.sender] = true */\n      0x0100\n      exp\n      dup2\n      sload\n      dup2\n      0xff\n      mul\n      not\n      and\n      swap1\n      dup4\n      iszero\n      iszero\n      mul\n      or\n      swap1\n      sstore\n      pop\n        /* \"RPS.sol\":1456:1463  players */\n      0x07\n        /* \"RPS.sol\":1469:1479  msg.sender */\n      caller\n        /* \"RPS.sol\":1456:1480  players.push(msg.sender) */\n      swap1\n      dup1\n      0x01\n      dup2\n      sload\n      add\n      dup1\n      dup3\n      sstore\n      dup1\n      swap2\n      pop\n      pop\n      0x01\n      swap1\n      sub\n      swap1\n      0x00\n      mstore\n      keccak256(0x00, 0x20)\n      add\n      0x00\n      swap1\n      swap2\n      swap1\n      swap2\n      swap1\n      swap2\n      0x0100\n      exp\n      dup2\n      sload\n      dup2\n      0xffffffffffffffffffffffffffffffffffffffff\n      mul\n      not\n      and\n      swap1\n      dup4\n      0xffffffffffffffffffffffffffffffffffffffff\n      and\n      mul\n      or\n      swap1\n      sstore\n      pop\n        /* \"RPS.sol\":1491:1500  numPlayer */\n      0x02\n      0x00\n        /* \"RPS.sol\":1491:1502  numPlayer++ */\n      dup2\n      sload\n      dup1\n      swap3\n      swap2\n      swap1\n      tag_95\n      swap1\n      tag_96\n      jump\t// in\n    tag_95:\n      swap2\n      swap1\n      pop\n      sstore\n      pop\n        /* \"RPS.sol\":1549:1550  1 */\n      0x01\n        /* \"RPS.sol\":1536:1545  numPlayer */\n      sload(0x02)\n        /* \"RPS.sol\":1536:1550  numPlayer == 1 */\n      sub\n        /* \"RPS.sol\":1533:1601  if(numPlayer == 1){... */\n      tag_97\n      jumpi\n        /* \"RPS.sol\":1566:1574  timeUnit */\n      0x00\n      dup1\n      sload\n      swap1\n      0x0100\n      exp\n      swap1\n      div\n      0xffffffffffffffffffffffffffffffffffffffff\n      and\n        /* \"RPS.sol\":1566:1587  timeUnit.setStartTime */\n      0xffffffffffffffffffffffffffffffffffffffff\n      and\n      0xa63f7c53\n        /* \"RPS.sol\":1566:1589  timeUnit.setStartTime() */\n      mload(0x40)\n      dup2\n      0xffffffff\n      and\n      0xe0\n      shl\n      dup2\n      mstore\n      0x04\n      add\n      0x00\n      mload(0x40)\n      dup1\n      dup4\n      sub\n      dup2\n      0x00\n      dup8\n      dup1\n      extcodesize\n      iszero\n      dup1\n      iszero\n      tag_98\n      jumpi\n      0x00\n      dup1\n      revert\n    tag_98:\n      pop\n      gas\n      call\n      iszero\n      dup1\n      iszero\n      tag_100\n      jumpi\n      returndatasize\n      0x00\n      dup1\n      returndatacopy\n      revert(0x00, returndatasize)\n    tag_100:\n      pop\n      pop\n      pop\n      pop\n        /* \"RPS.sol\":1533:1601  if(numPlayer == 1){... */\n    tag_97:\n        /* \"RPS.sol\":958:1608  function addPlayer() public payable {... */\n      jump\t// out\n        /* \"RPS.sol\":152:176  TimeUnit public timeUnit */\n    tag_39:\n      0x00\n      dup1\n      sload\n      swap1\n      0x0100\n      exp\n      swap1\n      div\n      0xffffffffffffffffffffffffffffffffffffffff\n      and\n      dup2\n      jump\t// out\n        /* \"RPS.sol\":2233:2661  function reveal(bytes32 hash) public {... */\n    tag_46:\n        /* \"RPS.sol\":2302:2303  2 */\n      0x02\n        /* \"RPS.sol\":2289:2298  numPlayer */\n      dup1\n      sload\n        /* \"RPS.sol\":2289:2303  numPlayer == 2 */\n      eq\n        /* \"RPS.sol\":2281:2304  require(numPlayer == 2) */\n      tag_102\n      jumpi\n      0x00\n      dup1\n      revert\n    tag_102:\n        /* \"RPS.sol\":2335:2336  2 */\n      0x02\n        /* \"RPS.sol\":2323:2331  numInput */\n      sload(0x08)\n        /* \"RPS.sol\":2323:2336  numInput == 2 */\n      eq\n        /* \"RPS.sol\":2315:2337  require(numInput == 2) */\n      tag_103\n      jumpi\n      0x00\n      dup1\n      revert\n    tag_103:\n        /* \"RPS.sol\":2348:2360  commitReveal */\n      0x01\n      0x00\n      swap1\n      sload\n      swap1\n      0x0100\n      exp\n      swap1\n      div\n      0xffffffffffffffffffffffffffffffffffffffff\n      and\n        /* \"RPS.sol\":2348:2367  commitReveal.reveal */\n      0xffffffffffffffffffffffffffffffffffffffff\n      and\n      0xad487790\n        /* \"RPS.sol\":2368:2372  hash */\n      dup3\n        /* \"RPS.sol\":2373:2383  msg.sender */\n      caller\n        /* \"RPS.sol\":2348:2384  commitReveal.reveal(hash,msg.sender) */\n      mload(0x40)\n      dup4\n      0xffffffff\n      and\n      0xe0\n      shl\n      dup2\n      mstore\n      0x04\n      add\n      tag_104\n      swap3\n      swap2\n      swap1\n      tag_105\n      jump\t// in\n    tag_104:\n      0x00\n      mload(0x40)\n      dup1\n      dup4\n      sub\n      dup2\n      0x00\n      dup8\n      dup1\n      extcodesize\n      iszero\n      dup1\n      iszero\n      tag_106\n      jumpi\n      0x00\n      dup1\n      revert\n    tag_106:\n      pop\n      gas\n      call\n      iszero\n      dup1\n      iszero\n      tag_108\n      jumpi\n      returndatasize\n      0x00\n      dup1\n      returndatacopy\n      revert(0x00, returndatasize)\n    tag_108:\n      pop\n      pop\n      pop\n      pop\n        /* \"RPS.sol\":2395:2406  uint choice */\n      0x00\n        /* \"RPS.sol\":2420:2424  hash */\n      dup2\n        /* \"RPS.sol\":2425:2427  31 */\n      0x1f\n        /* \"RPS.sol\":2420:2428  hash[31] */\n      0x20\n      dup2\n      lt\n      tag_109\n      jumpi\n      tag_110\n      tag_88\n      jump\t// in\n    tag_110:\n    tag_109:\n      byte\n      0xf8\n      shl\n        /* \"RPS.sol\":2414:2429  uint8(hash[31]) */\n      0xf8\n      shr\n        /* \"RPS.sol\":2409:2430  uint(uint8(hash[31])) */\n      0xff\n      and\n        /* \"RPS.sol\":2395:2430  uint choice = uint(uint8(hash[31])) */\n      swap1\n      pop\n        /* \"RPS.sol\":2459:2460  0 */\n      0x00\n        /* \"RPS.sol\":2449:2455  choice */\n      dup2\n        /* \"RPS.sol\":2449:2460  choice >= 0 */\n      lt\n      iszero\n        /* \"RPS.sol\":2449:2475  choice >= 0 && choice <= 4 */\n      dup1\n      iszero\n      tag_111\n      jumpi\n      pop\n        /* \"RPS.sol\":2474:2475  4 */\n      0x04\n        /* \"RPS.sol\":2464:2470  choice */\n      dup2\n        /* \"RPS.sol\":2464:2475  choice <= 4 */\n      gt\n      iszero\n        /* \"RPS.sol\":2449:2475  choice >= 0 && choice <= 4 */\n    tag_111:\n        /* \"RPS.sol\":2441:2500  require(choice >= 0 && choice <= 4, \"choice is not valid.\") */\n      tag_112\n      jumpi\n      mload(0x40)\n      0x08c379a000000000000000000000000000000000000000000000000000000000\n      dup2\n      mstore\n      0x04\n      add\n      tag_113\n      swap1\n      tag_114\n      jump\t// in\n    tag_113:\n      mload(0x40)\n      dup1\n      swap2\n      sub\n      swap1\n      revert\n    tag_112:\n        /* \"RPS.sol\":2539:2545  choice */\n      dup1\n        /* \"RPS.sol\":2511:2524  player_choice */\n      0x05\n        /* \"RPS.sol\":2511:2536  player_choice[msg.sender] */\n      0x00\n        /* \"RPS.sol\":2525:2535  msg.sender */\n      caller\n        /* \"RPS.sol\":2511:2536  player_choice[msg.sender] */\n      0xffffffffffffffffffffffffffffffffffffffff\n      and\n      0xffffffffffffffffffffffffffffffffffffffff\n      and\n      dup2\n      mstore\n      0x20\n      add\n      swap1\n      dup2\n      mstore\n      0x20\n      add\n      0x00\n      keccak256\n        /* \"RPS.sol\":2511:2545  player_choice[msg.sender] = choice */\n      dup2\n      swap1\n      sstore\n      pop\n        /* \"RPS.sol\":2556:2565  numReveal */\n      0x04\n      0x00\n        /* \"RPS.sol\":2556:2568  numReveal ++ */\n      dup2\n      sload\n      dup1\n      swap3\n      swap2\n      swap1\n      tag_115\n      swap1\n      tag_96\n      jump\t// in\n    tag_115:\n      swap2\n      swap1\n      pop\n      sstore\n      pop\n        /* \"RPS.sol\":2595:2596  2 */\n      0x02\n        /* \"RPS.sol\":2582:2591  numReveal */\n      sload(0x04)\n        /* \"RPS.sol\":2582:2596  numReveal == 2 */\n      sub\n        /* \"RPS.sol\":2579:2644  if(numReveal == 2){... */\n      tag_116\n      jumpi\n        /* \"RPS.sol\":2612:2632  _checkWinnerAndPay() */\n      tag_117\n        /* \"RPS.sol\":2612:2630  _checkWinnerAndPay */\n      tag_118\n        /* \"RPS.sol\":2612:2632  _checkWinnerAndPay() */\n      jump\t// in\n    tag_117:\n        /* \"RPS.sol\":2579:2644  if(numReveal == 2){... */\n    tag_116:\n        /* \"RPS.sol\":2270:2661  {... */\n      pop\n        /* \"RPS.sol\":2233:2661  function reveal(bytes32 hash) public {... */\n      pop\n      jump\t// out\n        /* \"RPS.sol\":224:249  uint public numPlayer = 0 */\n    tag_49:\n      sload(0x02)\n      dup2\n      jump\t// out\n        /* \"RPS.sol\":183:215  CommitReveal public commitReveal */\n    tag_53:\n      0x01\n      0x00\n      swap1\n      sload\n      swap1\n      0x0100\n      exp\n      swap1\n      div\n      0xffffffffffffffffffffffffffffffffffffffff\n      and\n      dup2\n      jump\t// out\n        /* \"RPS.sol\":317:363  mapping (address => uint) public player_choice */\n    tag_59:\n      mstore(0x20, 0x05)\n      dup1\n      0x00\n      mstore\n      keccak256(0x00, 0x40)\n      0x00\n      swap2\n      pop\n      swap1\n      pop\n      sload\n      dup2\n      jump\t// out\n        /* \"RPS.sol\":764:790  uint public timeLimit = 30 */\n    tag_63:\n      sload(0x09)\n      dup2\n      jump\t// out\n        /* \"RPS.sol\":285:310  uint public numReveal = 0 */\n    tag_67:\n      sload(0x04)\n      dup2\n      jump\t// out\n        /* \"RPS.sol\":3445:4513  function cancelGame() public {... */\n    tag_71:\n        /* \"RPS.sol\":3501:3502  1 */\n      0x01\n        /* \"RPS.sol\":3488:3497  numPlayer */\n      sload(0x02)\n        /* \"RPS.sol\":3488:3502  numPlayer == 1 */\n      eq\n        /* \"RPS.sol\":3488:3544  numPlayer == 1 && timeUnit.elapsedSeconds() >= timeLimit */\n      dup1\n      iszero\n      tag_120\n      jumpi\n      pop\n        /* \"RPS.sol\":3535:3544  timeLimit */\n      sload(0x09)\n        /* \"RPS.sol\":3506:3514  timeUnit */\n      0x00\n      dup1\n      sload\n      swap1\n      0x0100\n      exp\n      swap1\n      div\n      0xffffffffffffffffffffffffffffffffffffffff\n      and\n        /* \"RPS.sol\":3506:3529  timeUnit.elapsedSeconds */\n      0xffffffffffffffffffffffffffffffffffffffff\n      and\n      0xbc06b8cd\n        /* \"RPS.sol\":3506:3531  timeUnit.elapsedSeconds() */\n      mload(0x40)\n      dup2\n      0xffffffff\n      and\n      0xe0\n      shl\n      dup2\n      mstore\n      0x04\n      add\n      0x20\n      mload(0x40)\n      dup1\n      dup4\n      sub\n      dup2\n      dup7\n      gas\n      staticcall\n      iszero\n      dup1\n      iszero\n      tag_122\n      jumpi\n      returndatasize\n      0x00\n      dup1\n      returndatacopy\n      revert(0x00, returndatasize)\n    tag_122:\n      pop\n      pop\n      pop\n      pop\n      mload(0x40)\n      returndatasize\n      not(0x1f)\n      0x1f\n      dup3\n      add\n      and\n      dup3\n      add\n      dup1\n      0x40\n      mstore\n      pop\n      dup2\n      add\n      swap1\n      tag_123\n      swap2\n      swap1\n      tag_124\n      jump\t// in\n    tag_123:\n        /* \"RPS.sol\":3506:3544  timeUnit.elapsedSeconds() >= timeLimit */\n      lt\n      iszero\n        /* \"RPS.sol\":3488:3544  numPlayer == 1 && timeUnit.elapsedSeconds() >= timeLimit */\n    tag_120:\n        /* \"RPS.sol\":3485:4488  if(numPlayer == 1 && timeUnit.elapsedSeconds() >= timeLimit){... */\n      iszero\n      tag_125\n      jumpi\n        /* \"RPS.sol\":3560:3584  address payable  account */\n      0x00\n        /* \"RPS.sol\":3595:3602  players */\n      0x07\n        /* \"RPS.sol\":3603:3604  0 */\n      0x00\n        /* \"RPS.sol\":3595:3605  players[0] */\n      dup2\n      sload\n      dup2\n      lt\n      tag_126\n      jumpi\n      tag_127\n      tag_88\n      jump\t// in\n    tag_127:\n    tag_126:\n      swap1\n      0x00\n      mstore\n      keccak256(0x00, 0x20)\n      add\n      0x00\n      swap1\n      sload\n      swap1\n      0x0100\n      exp\n      swap1\n      div\n      0xffffffffffffffffffffffffffffffffffffffff\n      and\n        /* \"RPS.sol\":3560:3606  address payable  account = payable(players[0]) */\n      swap1\n      pop\n        /* \"RPS.sol\":3621:3628  account */\n      dup1\n        /* \"RPS.sol\":3621:3637  account.transfer */\n      0xffffffffffffffffffffffffffffffffffffffff\n      and\n        /* \"RPS.sol\":3621:3645  account.transfer(reward) */\n      0x08fc\n        /* \"RPS.sol\":3638:3644  reward */\n      sload(0x03)\n        /* \"RPS.sol\":3621:3645  account.transfer(reward) */\n      swap1\n      dup2\n      iszero\n      mul\n      swap1\n      mload(0x40)\n      0x00\n      mload(0x40)\n      dup1\n      dup4\n      sub\n      dup2\n      dup6\n      dup9\n      dup9\n      call\n      swap4\n      pop\n      pop\n      pop\n      pop\n      iszero\n      dup1\n      iszero\n      tag_130\n      jumpi\n      returndatasize\n      0x00\n      dup1\n      returndatacopy\n      revert(0x00, returndatasize)\n    tag_130:\n      pop\n        /* \"RPS.sol\":3545:3657  {... */\n      pop\n        /* \"RPS.sol\":3485:4488  if(numPlayer == 1 && timeUnit.elapsedSeconds() >= timeLimit){... */\n      jump(tag_131)\n    tag_125:\n        /* \"RPS.sol\":3689:3690  2 */\n      0x02\n        /* \"RPS.sol\":3676:3685  numPlayer */\n      dup1\n      sload\n        /* \"RPS.sol\":3676:3690  numPlayer == 2 */\n      eq\n        /* \"RPS.sol\":3676:3708  numPlayer == 2 && numReveal == 0 */\n      dup1\n      iszero\n      tag_132\n      jumpi\n      pop\n        /* \"RPS.sol\":3707:3708  0 */\n      0x00\n        /* \"RPS.sol\":3694:3703  numReveal */\n      sload(0x04)\n        /* \"RPS.sol\":3694:3708  numReveal == 0 */\n      eq\n        /* \"RPS.sol\":3676:3708  numPlayer == 2 && numReveal == 0 */\n    tag_132:\n        /* \"RPS.sol\":3676:3750  numPlayer == 2 && numReveal == 0 && timeUnit.elapsedSeconds() >= timeLimit */\n      dup1\n      iszero\n      tag_133\n      jumpi\n      pop\n        /* \"RPS.sol\":3741:3750  timeLimit */\n      sload(0x09)\n        /* \"RPS.sol\":3712:3720  timeUnit */\n      0x00\n      dup1\n      sload\n      swap1\n      0x0100\n      exp\n      swap1\n      div\n      0xffffffffffffffffffffffffffffffffffffffff\n      and\n        /* \"RPS.sol\":3712:3735  timeUnit.elapsedSeconds */\n      0xffffffffffffffffffffffffffffffffffffffff\n      and\n      0xbc06b8cd\n        /* \"RPS.sol\":3712:3737  timeUnit.elapsedSeconds() */\n      mload(0x40)\n      dup2\n      0xffffffff\n      and\n      0xe0\n      shl\n      dup2\n      mstore\n      0x04\n      add\n      0x20\n      mload(0x40)\n      dup1\n      dup4\n      sub\n      dup2\n      dup7\n      gas\n      staticcall\n      iszero\n      dup1\n      iszero\n      tag_135\n      jumpi\n      returndatasize\n      0x00\n      dup1\n      returndatacopy\n      revert(0x00, returndatasize)\n    tag_135:\n      pop\n      pop\n      pop\n      pop\n      mload(0x40)\n      returndatasize\n      not(0x1f)\n      0x1f\n      dup3\n      add\n      and\n      dup3\n      add\n      dup1\n      0x40\n      mstore\n      pop\n      dup2\n      add\n      swap1\n      tag_136\n      swap2\n      swap1\n      tag_124\n      jump\t// in\n    tag_136:\n        /* \"RPS.sol\":3712:3750  timeUnit.elapsedSeconds() >= timeLimit */\n      lt\n      iszero\n        /* \"RPS.sol\":3676:3750  numPlayer == 2 && numReveal == 0 && timeUnit.elapsedSeconds() >= timeLimit */\n    tag_133:\n        /* \"RPS.sol\":3672:4488  if (numPlayer == 2 && numReveal == 0 && timeUnit.elapsedSeconds() >= timeLimit){... */\n      iszero\n      tag_137\n      jumpi\n        /* \"RPS.sol\":3766:3790  address payable account1 */\n      0x00\n        /* \"RPS.sol\":3801:3808  players */\n      0x07\n        /* \"RPS.sol\":3809:3810  0 */\n      0x00\n        /* \"RPS.sol\":3801:3811  players[0] */\n      dup2\n      sload\n      dup2\n      lt\n      tag_138\n      jumpi\n      tag_139\n      tag_88\n      jump\t// in\n    tag_139:\n    tag_138:\n      swap1\n      0x00\n      mstore\n      keccak256(0x00, 0x20)\n      add\n      0x00\n      swap1\n      sload\n      swap1\n      0x0100\n      exp\n      swap1\n      div\n      0xffffffffffffffffffffffffffffffffffffffff\n      and\n        /* \"RPS.sol\":3766:3812  address payable account1 = payable(players[0]) */\n      swap1\n      pop\n        /* \"RPS.sol\":3827:3851  address payable account2 */\n      0x00\n        /* \"RPS.sol\":3862:3869  players */\n      0x07\n        /* \"RPS.sol\":3870:3871  1 */\n      0x01\n        /* \"RPS.sol\":3862:3872  players[1] */\n      dup2\n      sload\n      dup2\n      lt\n      tag_141\n      jumpi\n      tag_142\n      tag_88\n      jump\t// in\n    tag_142:\n    tag_141:\n      swap1\n      0x00\n      mstore\n      keccak256(0x00, 0x20)\n      add\n      0x00\n      swap1\n      sload\n      swap1\n      0x0100\n      exp\n      swap1\n      div\n      0xffffffffffffffffffffffffffffffffffffffff\n      and\n        /* \"RPS.sol\":3827:3873  address payable account2 = payable(players[1]) */\n      swap1\n      pop\n        /* \"RPS.sol\":3888:3896  account1 */\n      dup2\n        /* \"RPS.sol\":3888:3905  account1.transfer */\n      0xffffffffffffffffffffffffffffffffffffffff\n      and\n        /* \"RPS.sol\":3888:3915  account1.transfer(reward/2) */\n      0x08fc\n        /* \"RPS.sol\":3913:3914  2 */\n      0x02\n        /* \"RPS.sol\":3906:3912  reward */\n      sload(0x03)\n        /* \"RPS.sol\":3906:3914  reward/2 */\n      tag_144\n      swap2\n      swap1\n      tag_145\n      jump\t// in\n    tag_144:\n        /* \"RPS.sol\":3888:3915  account1.transfer(reward/2) */\n      swap1\n      dup2\n      iszero\n      mul\n      swap1\n      mload(0x40)\n      0x00\n      mload(0x40)\n      dup1\n      dup4\n      sub\n      dup2\n      dup6\n      dup9\n      dup9\n      call\n      swap4\n      pop\n      pop\n      pop\n      pop\n      iszero\n      dup1\n      iszero\n      tag_147\n      jumpi\n      returndatasize\n      0x00\n      dup1\n      returndatacopy\n      revert(0x00, returndatasize)\n    tag_147:\n      pop\n        /* \"RPS.sol\":3930:3938  account2 */\n      dup1\n        /* \"RPS.sol\":3930:3947  account2.transfer */\n      0xffffffffffffffffffffffffffffffffffffffff\n      and\n        /* \"RPS.sol\":3930:3957  account2.transfer(reward/2) */\n      0x08fc\n        /* \"RPS.sol\":3955:3956  2 */\n      0x02\n        /* \"RPS.sol\":3948:3954  reward */\n      sload(0x03)\n        /* \"RPS.sol\":3948:3956  reward/2 */\n      tag_148\n      swap2\n      swap1\n      tag_145\n      jump\t// in\n    tag_148:\n        /* \"RPS.sol\":3930:3957  account2.transfer(reward/2) */\n      swap1\n      dup2\n      iszero\n      mul\n      swap1\n      mload(0x40)\n      0x00\n      mload(0x40)\n      dup1\n      dup4\n      sub\n      dup2\n      dup6\n      dup9\n      dup9\n      call\n      swap4\n      pop\n      pop\n      pop\n      pop\n      iszero\n      dup1\n      iszero\n      tag_150\n      jumpi\n      returndatasize\n      0x00\n      dup1\n      returndatacopy\n      revert(0x00, returndatasize)\n    tag_150:\n      pop\n        /* \"RPS.sol\":3751:3969  {... */\n      pop\n      pop\n        /* \"RPS.sol\":3672:4488  if (numPlayer == 2 && numReveal == 0 && timeUnit.elapsedSeconds() >= timeLimit){... */\n      jump(tag_151)\n    tag_137:\n        /* \"RPS.sol\":4001:4002  2 */\n      0x02\n        /* \"RPS.sol\":3988:3997  numPlayer */\n      dup1\n      sload\n        /* \"RPS.sol\":3988:4002  numPlayer == 2 */\n      eq\n        /* \"RPS.sol\":3988:4020  numPlayer == 2 && numReveal <= 1 */\n      dup1\n      iszero\n      tag_152\n      jumpi\n      pop\n        /* \"RPS.sol\":4019:4020  1 */\n      0x01\n        /* \"RPS.sol\":4006:4015  numReveal */\n      sload(0x04)\n        /* \"RPS.sol\":4006:4020  numReveal <= 1 */\n      gt\n      iszero\n        /* \"RPS.sol\":3988:4020  numPlayer == 2 && numReveal <= 1 */\n    tag_152:\n        /* \"RPS.sol\":3988:4062  numPlayer == 2 && numReveal <= 1 && timeUnit.elapsedSeconds() >= timeLimit */\n      dup1\n      iszero\n      tag_153\n      jumpi\n      pop\n        /* \"RPS.sol\":4053:4062  timeLimit */\n      sload(0x09)\n        /* \"RPS.sol\":4024:4032  timeUnit */\n      0x00\n      dup1\n      sload\n      swap1\n      0x0100\n      exp\n      swap1\n      div\n      0xffffffffffffffffffffffffffffffffffffffff\n      and\n        /* \"RPS.sol\":4024:4047  timeUnit.elapsedSeconds */\n      0xffffffffffffffffffffffffffffffffffffffff\n      and\n      0xbc06b8cd\n        /* \"RPS.sol\":4024:4049  timeUnit.elapsedSeconds() */\n      mload(0x40)\n      dup2\n      0xffffffff\n      and\n      0xe0\n      shl\n      dup2\n      mstore\n      0x04\n      add\n      0x20\n      mload(0x40)\n      dup1\n      dup4\n      sub\n      dup2\n      dup7\n      gas\n      staticcall\n      iszero\n      dup1\n      iszero\n      tag_155\n      jumpi\n      returndatasize\n      0x00\n      dup1\n      returndatacopy\n      revert(0x00, returndatasize)\n    tag_155:\n      pop\n      pop\n      pop\n      pop\n      mload(0x40)\n      returndatasize\n      not(0x1f)\n      0x1f\n      dup3\n      add\n      and\n      dup3\n      add\n      dup1\n      0x40\n      mstore\n      pop\n      dup2\n      add\n      swap1\n      tag_156\n      swap2\n      swap1\n      tag_124\n      jump\t// in\n    tag_156:\n        /* \"RPS.sol\":4024:4062  timeUnit.elapsedSeconds() >= timeLimit */\n      lt\n      iszero\n        /* \"RPS.sol\":3988:4062  numPlayer == 2 && numReveal <= 1 && timeUnit.elapsedSeconds() >= timeLimit */\n    tag_153:\n        /* \"RPS.sol\":3984:4488  if (numPlayer == 2 && numReveal <= 1 && timeUnit.elapsedSeconds() >= timeLimit) {... */\n      iszero\n      tag_157\n      jumpi\n        /* \"RPS.sol\":4079:4102  address payable account */\n      0x00\n        /* \"RPS.sol\":4113:4123  msg.sender */\n      caller\n        /* \"RPS.sol\":4079:4124  address payable account = payable(msg.sender) */\n      swap1\n      pop\n        /* \"RPS.sol\":4139:4153  address target */\n      0x00\n        /* \"RPS.sol\":4185:4192  players */\n      0x07\n        /* \"RPS.sol\":4193:4194  0 */\n      0x00\n        /* \"RPS.sol\":4185:4195  players[0] */\n      dup2\n      sload\n      dup2\n      lt\n      tag_158\n      jumpi\n      tag_159\n      tag_88\n      jump\t// in\n    tag_159:\n    tag_158:\n      swap1\n      0x00\n      mstore\n      keccak256(0x00, 0x20)\n      add\n      0x00\n      swap1\n      sload\n      swap1\n      0x0100\n      exp\n      swap1\n      div\n      0xffffffffffffffffffffffffffffffffffffffff\n      and\n        /* \"RPS.sol\":4171:4195  msg.sender == players[0] */\n      0xffffffffffffffffffffffffffffffffffffffff\n      and\n        /* \"RPS.sol\":4171:4181  msg.sender */\n      caller\n        /* \"RPS.sol\":4171:4195  msg.sender == players[0] */\n      0xffffffffffffffffffffffffffffffffffffffff\n      and\n      sub\n        /* \"RPS.sol\":4168:4254  if(msg.sender == players[0])target = players[1];... */\n      tag_161\n      jumpi\n        /* \"RPS.sol\":4205:4212  players */\n      0x07\n        /* \"RPS.sol\":4213:4214  1 */\n      0x01\n        /* \"RPS.sol\":4205:4215  players[1] */\n      dup2\n      sload\n      dup2\n      lt\n      tag_162\n      jumpi\n      tag_163\n      tag_88\n      jump\t// in\n    tag_163:\n    tag_162:\n      swap1\n      0x00\n      mstore\n      keccak256(0x00, 0x20)\n      add\n      0x00\n      swap1\n      sload\n      swap1\n      0x0100\n      exp\n      swap1\n      div\n      0xffffffffffffffffffffffffffffffffffffffff\n      and\n        /* \"RPS.sol\":4196:4215  target = players[1] */\n      swap1\n      pop\n        /* \"RPS.sol\":4168:4254  if(msg.sender == players[0])target = players[1];... */\n      jump(tag_165)\n    tag_161:\n        /* \"RPS.sol\":4244:4251  players */\n      0x07\n        /* \"RPS.sol\":4252:4253  0 */\n      0x00\n        /* \"RPS.sol\":4244:4254  players[0] */\n      dup2\n      sload\n      dup2\n      lt\n      tag_166\n      jumpi\n      tag_167\n      tag_88\n      jump\t// in\n    tag_167:\n    tag_166:\n      swap1\n      0x00\n      mstore\n      keccak256(0x00, 0x20)\n      add\n      0x00\n      swap1\n      sload\n      swap1\n      0x0100\n      exp\n      swap1\n      div\n      0xffffffffffffffffffffffffffffffffffffffff\n      and\n        /* \"RPS.sol\":4235:4254  target = players[0] */\n      swap1\n      pop\n        /* \"RPS.sol\":4168:4254  if(msg.sender == players[0])target = players[1];... */\n    tag_165:\n        /* \"RPS.sol\":4272:4285  bool revealed */\n      0x00\n        /* \"RPS.sol\":4289:4301  commitReveal */\n      0x01\n      0x00\n      swap1\n      sload\n      swap1\n      0x0100\n      exp\n      swap1\n      div\n      0xffffffffffffffffffffffffffffffffffffffff\n      and\n        /* \"RPS.sol\":4289:4309  commitReveal.commits */\n      0xffffffffffffffffffffffffffffffffffffffff\n      and\n      0x7b43a8e6\n        /* \"RPS.sol\":4310:4316  target */\n      dup4\n        /* \"RPS.sol\":4289:4317  commitReveal.commits(target) */\n      mload(0x40)\n      dup3\n      0xffffffff\n      and\n      0xe0\n      shl\n      dup2\n      mstore\n      0x04\n      add\n      tag_169\n      swap2\n      swap1\n      tag_82\n      jump\t// in\n    tag_169:\n      0x60\n      mload(0x40)\n      dup1\n      dup4\n      sub\n      dup2\n      dup7\n      gas\n      staticcall\n      iszero\n      dup1\n      iszero\n      tag_171\n      jumpi\n      returndatasize\n      0x00\n      dup1\n      returndatacopy\n      revert(0x00, returndatasize)\n    tag_171:\n      pop\n      pop\n      pop\n      pop\n      mload(0x40)\n      returndatasize\n      not(0x1f)\n      0x1f\n      dup3\n      add\n      and\n      dup3\n      add\n      dup1\n      0x40\n      mstore\n      pop\n      dup2\n      add\n      swap1\n      tag_172\n      swap2\n      swap1\n      tag_173\n      jump\t// in\n    tag_172:\n        /* \"RPS.sol\":4269:4317  (,,bool revealed) = commitReveal.commits(target) */\n      swap3\n      pop\n      pop\n      pop\n        /* \"RPS.sol\":4336:4344  revealed */\n      dup1\n        /* \"RPS.sol\":4332:4405  if(!revealed) {... */\n      tag_174\n      jumpi\n        /* \"RPS.sol\":4365:4372  account */\n      dup3\n        /* \"RPS.sol\":4365:4381  account.transfer */\n      0xffffffffffffffffffffffffffffffffffffffff\n      and\n        /* \"RPS.sol\":4365:4389  account.transfer(reward) */\n      0x08fc\n        /* \"RPS.sol\":4382:4388  reward */\n      sload(0x03)\n        /* \"RPS.sol\":4365:4389  account.transfer(reward) */\n      swap1\n      dup2\n      iszero\n      mul\n      swap1\n      mload(0x40)\n      0x00\n      mload(0x40)\n      dup1\n      dup4\n      sub\n      dup2\n      dup6\n      dup9\n      dup9\n      call\n      swap4\n      pop\n      pop\n      pop\n      pop\n      iszero\n      dup1\n      iszero\n      tag_176\n      jumpi\n      returndatasize\n      0x00\n      dup1\n      returndatacopy\n      revert(0x00, returndatasize)\n    tag_176:\n      pop\n        /* \"RPS.sol\":4332:4405  if(!revealed) {... */\n    tag_174:\n        /* \"RPS.sol\":4064:4416  {... */\n      pop\n      pop\n      pop\n        /* \"RPS.sol\":3984:4488  if (numPlayer == 2 && numReveal <= 1 && timeUnit.elapsedSeconds() >= timeLimit) {... */\n      jump(tag_177)\n    tag_157:\n        /* \"RPS.sol\":4454:4459  false */\n      0x00\n        /* \"RPS.sol\":4446:4476  require(false,\"cannot refund\") */\n      tag_178\n      jumpi\n      mload(0x40)\n      0x08c379a000000000000000000000000000000000000000000000000000000000\n      dup2\n      mstore\n      0x04\n      add\n      tag_179\n      swap1\n      tag_180\n      jump\t// in\n    tag_179:\n      mload(0x40)\n      dup1\n      swap2\n      sub\n      swap1\n      revert\n    tag_178:\n        /* \"RPS.sol\":3984:4488  if (numPlayer == 2 && numReveal <= 1 && timeUnit.elapsedSeconds() >= timeLimit) {... */\n    tag_177:\n        /* \"RPS.sol\":3672:4488  if (numPlayer == 2 && numReveal == 0 && timeUnit.elapsedSeconds() >= timeLimit){... */\n    tag_151:\n        /* \"RPS.sol\":3485:4488  if(numPlayer == 1 && timeUnit.elapsedSeconds() >= timeLimit){... */\n    tag_131:\n        /* \"RPS.sol\":4498:4505  reset() */\n      tag_181\n        /* \"RPS.sol\":4498:4503  reset */\n      tag_182\n        /* \"RPS.sol\":4498:4505  reset() */\n      jump\t// in\n    tag_181:\n        /* \"RPS.sol\":3445:4513  function cancelGame() public {... */\n      jump\t// out\n        /* \"RPS.sol\":1616:2225  function commit(bytes32 hash) public  {... */\n    tag_75:\n        /* \"RPS.sol\":1686:1687  2 */\n      0x02\n        /* \"RPS.sol\":1673:1682  numPlayer */\n      dup1\n      sload\n        /* \"RPS.sol\":1673:1687  numPlayer == 2 */\n      eq\n        /* \"RPS.sol\":1665:1688  require(numPlayer == 2) */\n      tag_184\n      jumpi\n      0x00\n      dup1\n      revert\n    tag_184:\n        /* \"RPS.sol\":1707:1724  player_not_played */\n      0x06\n        /* \"RPS.sol\":1707:1736  player_not_played[msg.sender] */\n      0x00\n        /* \"RPS.sol\":1725:1735  msg.sender */\n      caller\n        /* \"RPS.sol\":1707:1736  player_not_played[msg.sender] */\n      0xffffffffffffffffffffffffffffffffffffffff\n      and\n      0xffffffffffffffffffffffffffffffffffffffff\n      and\n      dup2\n      mstore\n      0x20\n      add\n      swap1\n      dup2\n      mstore\n      0x20\n      add\n      0x00\n      keccak256\n      0x00\n      swap1\n      sload\n      swap1\n      0x0100\n      exp\n      swap1\n      div\n      0xff\n      and\n        /* \"RPS.sol\":1699:1737  require(player_not_played[msg.sender]) */\n      tag_185\n      jumpi\n      0x00\n      dup1\n      revert\n    tag_185:\n        /* \"RPS.sol\":1913:1925  commitReveal */\n      0x01\n      0x00\n      swap1\n      sload\n      swap1\n      0x0100\n      exp\n      swap1\n      div\n      0xffffffffffffffffffffffffffffffffffffffff\n      and\n        /* \"RPS.sol\":1913:1932  commitReveal.commit */\n      0xffffffffffffffffffffffffffffffffffffffff\n      and\n      0x5a746101\n        /* \"RPS.sol\":1933:1937  hash */\n      dup3\n        /* \"RPS.sol\":1938:1948  msg.sender */\n      caller\n        /* \"RPS.sol\":1913:1949  commitReveal.commit(hash,msg.sender) */\n      mload(0x40)\n      dup4\n      0xffffffff\n      and\n      0xe0\n      shl\n      dup2\n      mstore\n      0x04\n      add\n      tag_186\n      swap3\n      swap2\n      swap1\n      tag_105\n      jump\t// in\n    tag_186:\n      0x00\n      mload(0x40)\n      dup1\n      dup4\n      sub\n      dup2\n      0x00\n      dup8\n      dup1\n      extcodesize\n      iszero\n      dup1\n      iszero\n      tag_187\n      jumpi\n      0x00\n      dup1\n      revert\n    tag_187:\n      pop\n      gas\n      call\n      iszero\n      dup1\n      iszero\n      tag_189\n      jumpi\n      returndatasize\n      0x00\n      dup1\n      returndatacopy\n      revert(0x00, returndatasize)\n    tag_189:\n      pop\n      pop\n      pop\n      pop\n        /* \"RPS.sol\":2012:2029  player_not_played */\n      0x06\n        /* \"RPS.sol\":2012:2041  player_not_played[msg.sender] */\n      0x00\n        /* \"RPS.sol\":2030:2040  msg.sender */\n      caller\n        /* \"RPS.sol\":2012:2041  player_not_played[msg.sender] */\n      0xffffffffffffffffffffffffffffffffffffffff\n      and\n      0xffffffffffffffffffffffffffffffffffffffff\n      and\n      dup2\n      mstore\n      0x20\n      add\n      swap1\n      dup2\n      mstore\n      0x20\n      add\n      0x00\n      keccak256\n      0x00\n      swap1\n      sload\n      swap1\n      0x0100\n      exp\n      swap1\n      div\n      0xff\n      and\n        /* \"RPS.sol\":2008:2133  if (player_not_played[msg.sender]) {... */\n      iszero\n      tag_190\n      jumpi\n        /* \"RPS.sol\":2058:2066  numInput */\n      0x08\n      0x00\n        /* \"RPS.sol\":2058:2069  numInput ++ */\n      dup2\n      sload\n      dup1\n      swap3\n      swap2\n      swap1\n      tag_191\n      swap1\n      tag_96\n      jump\t// in\n    tag_191:\n      swap2\n      swap1\n      pop\n      sstore\n      pop\n        /* \"RPS.sol\":2116:2121  false */\n      0x00\n        /* \"RPS.sol\":2084:2101  player_not_played */\n      0x06\n        /* \"RPS.sol\":2084:2113  player_not_played[msg.sender] */\n      0x00\n        /* \"RPS.sol\":2102:2112  msg.sender */\n      caller\n        /* \"RPS.sol\":2084:2113  player_not_played[msg.sender] */\n      0xffffffffffffffffffffffffffffffffffffffff\n      and\n      0xffffffffffffffffffffffffffffffffffffffff\n      and\n      dup2\n      mstore\n      0x20\n      add\n      swap1\n      dup2\n      mstore\n      0x20\n      add\n      0x00\n      keccak256\n      0x00\n        /* \"RPS.sol\":2084:2121  player_not_played[msg.sender] = false */\n      0x0100\n      exp\n      dup2\n      sload\n      dup2\n      0xff\n      mul\n      not\n      and\n      swap1\n      dup4\n      iszero\n      iszero\n      mul\n      or\n      swap1\n      sstore\n      pop\n        /* \"RPS.sol\":2008:2133  if (player_not_played[msg.sender]) {... */\n    tag_190:\n        /* \"RPS.sol\":1616:2225  function commit(bytes32 hash) public  {... */\n      pop\n      jump\t// out\n        /* \"RPS.sol\":487:511  address[] public players */\n    tag_80:\n      0x07\n      dup2\n      dup2\n      sload\n      dup2\n      lt\n      tag_192\n      jumpi\n      0x00\n      dup1\n      revert\n    tag_192:\n      swap1\n      0x00\n      mstore\n      keccak256(0x00, 0x20)\n      add\n      0x00\n      swap2\n      pop\n      sload\n      swap1\n      0x0100\n      exp\n      swap1\n      div\n      0xffffffffffffffffffffffffffffffffffffffff\n      and\n      dup2\n      jump\t// out\n        /* \"RPS.sol\":2669:3437  function _checkWinnerAndPay() private {... */\n    tag_118:\n        /* \"RPS.sol\":2718:2731  uint p0Choice */\n      0x00\n        /* \"RPS.sol\":2734:2747  player_choice */\n      0x05\n        /* \"RPS.sol\":2734:2759  player_choice[players[0]] */\n      0x00\n        /* \"RPS.sol\":2748:2755  players */\n      0x07\n        /* \"RPS.sol\":2756:2757  0 */\n      0x00\n        /* \"RPS.sol\":2748:2758  players[0] */\n      dup2\n      sload\n      dup2\n      lt\n      tag_195\n      jumpi\n      tag_196\n      tag_88\n      jump\t// in\n    tag_196:\n    tag_195:\n      swap1\n      0x00\n      mstore\n      keccak256(0x00, 0x20)\n      add\n      0x00\n      swap1\n      sload\n      swap1\n      0x0100\n      exp\n      swap1\n      div\n      0xffffffffffffffffffffffffffffffffffffffff\n      and\n        /* \"RPS.sol\":2734:2759  player_choice[players[0]] */\n      0xffffffffffffffffffffffffffffffffffffffff\n      and\n      0xffffffffffffffffffffffffffffffffffffffff\n      and\n      dup2\n      mstore\n      0x20\n      add\n      swap1\n      dup2\n      mstore\n      0x20\n      add\n      0x00\n      keccak256\n      sload\n        /* \"RPS.sol\":2718:2759  uint p0Choice = player_choice[players[0]] */\n      swap1\n      pop\n        /* \"RPS.sol\":2770:2783  uint p1Choice */\n      0x00\n        /* \"RPS.sol\":2786:2799  player_choice */\n      0x05\n        /* \"RPS.sol\":2786:2811  player_choice[players[1]] */\n      0x00\n        /* \"RPS.sol\":2800:2807  players */\n      0x07\n        /* \"RPS.sol\":2808:2809  1 */\n      0x01\n        /* \"RPS.sol\":2800:2810  players[1] */\n      dup2\n      sload\n      dup2\n      lt\n      tag_198\n      jumpi\n      tag_199\n      tag_88\n      jump\t// in\n    tag_199:\n    tag_198:\n      swap1\n      0x00\n      mstore\n      keccak256(0x00, 0x20)\n      add\n      0x00\n      swap1\n      sload\n      swap1\n      0x0100\n      exp\n      swap1\n      div\n      0xffffffffffffffffffffffffffffffffffffffff\n      and\n        /* \"RPS.sol\":2786:2811  player_choice[players[1]] */\n      0xffffffffffffffffffffffffffffffffffffffff\n      and\n      0xffffffffffffffffffffffffffffffffffffffff\n      and\n      dup2\n      mstore\n      0x20\n      add\n      swap1\n      dup2\n      mstore\n      0x20\n      add\n      0x00\n      keccak256\n      sload\n        /* \"RPS.sol\":2770:2811  uint p1Choice = player_choice[players[1]] */\n      swap1\n      pop\n        /* \"RPS.sol\":2822:2846  address payable account0 */\n      0x00\n        /* \"RPS.sol\":2857:2864  players */\n      0x07\n        /* \"RPS.sol\":2865:2866  0 */\n      0x00\n        /* \"RPS.sol\":2857:2867  players[0] */\n      dup2\n      sload\n      dup2\n      lt\n      tag_201\n      jumpi\n      tag_202\n      tag_88\n      jump\t// in\n    tag_202:\n    tag_201:\n      swap1\n      0x00\n      mstore\n      keccak256(0x00, 0x20)\n      add\n      0x00\n      swap1\n      sload\n      swap1\n      0x0100\n      exp\n      swap1\n      div\n      0xffffffffffffffffffffffffffffffffffffffff\n      and\n        /* \"RPS.sol\":2822:2868  address payable account0 = payable(players[0]) */\n      swap1\n      pop\n        /* \"RPS.sol\":2879:2903  address payable account1 */\n      0x00\n        /* \"RPS.sol\":2914:2921  players */\n      0x07\n        /* \"RPS.sol\":2922:2923  1 */\n      0x01\n        /* \"RPS.sol\":2914:2924  players[1] */\n      dup2\n      sload\n      dup2\n      lt\n      tag_204\n      jumpi\n      tag_205\n      tag_88\n      jump\t// in\n    tag_205:\n    tag_204:\n      swap1\n      0x00\n      mstore\n      keccak256(0x00, 0x20)\n      add\n      0x00\n      swap1\n      sload\n      swap1\n      0x0100\n      exp\n      swap1\n      div\n      0xffffffffffffffffffffffffffffffffffffffff\n      and\n        /* \"RPS.sol\":2879:2925  address payable account1 = payable(players[1]) */\n      swap1\n      pop\n        /* \"RPS.sol\":2962:2970  p1Choice */\n      dup3\n        /* \"RPS.sol\":2957:2958  3 */\n      0x03\n        /* \"RPS.sol\":2952:2953  1 */\n      0x01\n        /* \"RPS.sol\":2941:2949  p0Choice */\n      dup7\n        /* \"RPS.sol\":2941:2953  p0Choice + 1 */\n      tag_207\n      swap2\n      swap1\n      tag_93\n      jump\t// in\n    tag_207:\n        /* \"RPS.sol\":2940:2958  (p0Choice + 1) % 3 */\n      tag_208\n      swap2\n      swap1\n      tag_209\n      jump\t// in\n    tag_208:\n        /* \"RPS.sol\":2940:2970  (p0Choice + 1) % 3 == p1Choice */\n      eq\n        /* \"RPS.sol\":2940:3004  (p0Choice + 1) % 3 == p1Choice || (p0Choice + 3) % 5 == p1Choice */\n      dup1\n      tag_210\n      jumpi\n      pop\n        /* \"RPS.sol\":2996:3004  p1Choice */\n      dup3\n        /* \"RPS.sol\":2991:2992  5 */\n      0x05\n        /* \"RPS.sol\":2986:2987  3 */\n      0x03\n        /* \"RPS.sol\":2975:2983  p0Choice */\n      dup7\n        /* \"RPS.sol\":2975:2987  p0Choice + 3 */\n      tag_211\n      swap2\n      swap1\n      tag_93\n      jump\t// in\n    tag_211:\n        /* \"RPS.sol\":2974:2992  (p0Choice + 3) % 5 */\n      tag_212\n      swap2\n      swap1\n      tag_209\n      jump\t// in\n    tag_212:\n        /* \"RPS.sol\":2974:3004  (p0Choice + 3) % 5 == p1Choice */\n      eq\n        /* \"RPS.sol\":2940:3004  (p0Choice + 1) % 3 == p1Choice || (p0Choice + 3) % 5 == p1Choice */\n    tag_210:\n        /* \"RPS.sol\":2936:3412  if ((p0Choice + 1) % 3 == p1Choice || (p0Choice + 3) % 5 == p1Choice) {... */\n      iszero\n      tag_213\n      jumpi\n        /* \"RPS.sol\":3054:3062  account0 */\n      dup2\n        /* \"RPS.sol\":3054:3071  account0.transfer */\n      0xffffffffffffffffffffffffffffffffffffffff\n      and\n        /* \"RPS.sol\":3054:3079  account0.transfer(reward) */\n      0x08fc\n        /* \"RPS.sol\":3072:3078  reward */\n      sload(0x03)\n        /* \"RPS.sol\":3054:3079  account0.transfer(reward) */\n      swap1\n      dup2\n      iszero\n      mul\n      swap1\n      mload(0x40)\n      0x00\n      mload(0x40)\n      dup1\n      dup4\n      sub\n      dup2\n      dup6\n      dup9\n      dup9\n      call\n      swap4\n      pop\n      pop\n      pop\n      pop\n      iszero\n      dup1\n      iszero\n      tag_215\n      jumpi\n      returndatasize\n      0x00\n      dup1\n      returndatacopy\n      revert(0x00, returndatasize)\n    tag_215:\n      pop\n        /* \"RPS.sol\":2936:3412  if ((p0Choice + 1) % 3 == p1Choice || (p0Choice + 3) % 5 == p1Choice) {... */\n      jump(tag_216)\n    tag_213:\n        /* \"RPS.sol\":3132:3140  p0Choice */\n      dup4\n        /* \"RPS.sol\":3127:3128  3 */\n      0x03\n        /* \"RPS.sol\":3122:3123  1 */\n      0x01\n        /* \"RPS.sol\":3111:3119  p1Choice */\n      dup6\n        /* \"RPS.sol\":3111:3123  p1Choice + 1 */\n      tag_217\n      swap2\n      swap1\n      tag_93\n      jump\t// in\n    tag_217:\n        /* \"RPS.sol\":3110:3128  (p1Choice + 1) % 3 */\n      tag_218\n      swap2\n      swap1\n      tag_209\n      jump\t// in\n    tag_218:\n        /* \"RPS.sol\":3110:3140  (p1Choice + 1) % 3 == p0Choice */\n      eq\n        /* \"RPS.sol\":3110:3174  (p1Choice + 1) % 3 == p0Choice || (p1Choice + 3) % 5 == p0Choice */\n      dup1\n      tag_219\n      jumpi\n      pop\n        /* \"RPS.sol\":3166:3174  p0Choice */\n      dup4\n        /* \"RPS.sol\":3161:3162  5 */\n      0x05\n        /* \"RPS.sol\":3156:3157  3 */\n      0x03\n        /* \"RPS.sol\":3145:3153  p1Choice */\n      dup6\n        /* \"RPS.sol\":3145:3157  p1Choice + 3 */\n      tag_220\n      swap2\n      swap1\n      tag_93\n      jump\t// in\n    tag_220:\n        /* \"RPS.sol\":3144:3162  (p1Choice + 3) % 5 */\n      tag_221\n      swap2\n      swap1\n      tag_209\n      jump\t// in\n    tag_221:\n        /* \"RPS.sol\":3144:3174  (p1Choice + 3) % 5 == p0Choice */\n      eq\n        /* \"RPS.sol\":3110:3174  (p1Choice + 1) % 3 == p0Choice || (p1Choice + 3) % 5 == p0Choice */\n    tag_219:\n        /* \"RPS.sol\":3106:3412  if ((p1Choice + 1) % 3 == p0Choice || (p1Choice + 3) % 5 == p0Choice) {... */\n      iszero\n      tag_222\n      jumpi\n        /* \"RPS.sol\":3224:3232  account1 */\n      dup1\n        /* \"RPS.sol\":3224:3241  account1.transfer */\n      0xffffffffffffffffffffffffffffffffffffffff\n      and\n        /* \"RPS.sol\":3224:3249  account1.transfer(reward) */\n      0x08fc\n        /* \"RPS.sol\":3242:3248  reward */\n      sload(0x03)\n        /* \"RPS.sol\":3224:3249  account1.transfer(reward) */\n      swap1\n      dup2\n      iszero\n      mul\n      swap1\n      mload(0x40)\n      0x00\n      mload(0x40)\n      dup1\n      dup4\n      sub\n      dup2\n      dup6\n      dup9\n      dup9\n      call\n      swap4\n      pop\n      pop\n      pop\n      pop\n      iszero\n      dup1\n      iszero\n      tag_224\n      jumpi\n      returndatasize\n      0x00\n      dup1\n      returndatacopy\n      revert(0x00, returndatasize)\n    tag_224:\n      pop\n        /* \"RPS.sol\":3106:3412  if ((p1Choice + 1) % 3 == p0Choice || (p1Choice + 3) % 5 == p0Choice) {... */\n      jump(tag_225)\n    tag_222:\n        /* \"RPS.sol\":3327:3335  account0 */\n      dup2\n        /* \"RPS.sol\":3327:3344  account0.transfer */\n      0xffffffffffffffffffffffffffffffffffffffff\n      and\n        /* \"RPS.sol\":3327:3356  account0.transfer(reward / 2) */\n      0x08fc\n        /* \"RPS.sol\":3354:3355  2 */\n      0x02\n        /* \"RPS.sol\":3345:3351  reward */\n      sload(0x03)\n        /* \"RPS.sol\":3345:3355  reward / 2 */\n      tag_226\n      swap2\n      swap1\n      tag_145\n      jump\t// in\n    tag_226:\n        /* \"RPS.sol\":3327:3356  account0.transfer(reward / 2) */\n      swap1\n      dup2\n      iszero\n      mul\n      swap1\n      mload(0x40)\n      0x00\n      mload(0x40)\n      dup1\n      dup4\n      sub\n      dup2\n      dup6\n      dup9\n      dup9\n      call\n      swap4\n      pop\n      pop\n      pop\n      pop\n      iszero\n      dup1\n      iszero\n      tag_228\n      jumpi\n      returndatasize\n      0x00\n      dup1\n      returndatacopy\n      revert(0x00, returndatasize)\n    tag_228:\n      pop\n        /* \"RPS.sol\":3371:3379  account1 */\n      dup1\n        /* \"RPS.sol\":3371:3388  account1.transfer */\n      0xffffffffffffffffffffffffffffffffffffffff\n      and\n        /* \"RPS.sol\":3371:3400  account1.transfer(reward / 2) */\n      0x08fc\n        /* \"RPS.sol\":3398:3399  2 */\n      0x02\n        /* \"RPS.sol\":3389:3395  reward */\n      sload(0x03)\n        /* \"RPS.sol\":3389:3399  reward / 2 */\n      tag_229\n      swap2\n      swap1\n      tag_145\n      jump\t// in\n    tag_229:\n        /* \"RPS.sol\":3371:3400  account1.transfer(reward / 2) */\n      swap1\n      dup2\n      iszero\n      mul\n      swap1\n      mload(0x40)\n      0x00\n      mload(0x40)\n      dup1\n      dup4\n      sub\n      dup2\n      dup6\n      dup9\n      dup9\n      call\n      swap4\n      pop\n      pop\n      pop\n      pop\n      iszero\n      dup1\n      iszero\n      tag_231\n      jumpi\n      returndatasize\n      0x00\n      dup1\n      returndatacopy\n      revert(0x00, returndatasize)\n    tag_231:\n      pop\n        /* \"RPS.sol\":3106:3412  if ((p1Choice + 1) % 3 == p0Choice || (p1Choice + 3) % 5 == p0Choice) {... */\n    tag_225:\n        /* \"RPS.sol\":2936:3412  if ((p0Choice + 1) % 3 == p1Choice || (p0Choice + 3) % 5 == p1Choice) {... */\n    tag_216:\n        /* \"RPS.sol\":3422:3429  reset() */\n      tag_232\n        /* \"RPS.sol\":3422:3427  reset */\n      tag_182\n        /* \"RPS.sol\":3422:3429  reset() */\n      jump\t// in\n    tag_232:\n        /* \"RPS.sol\":2707:3437  {... */\n      pop\n      pop\n      pop\n      pop\n        /* \"RPS.sol\":2669:3437  function _checkWinnerAndPay() private {... */\n      jump\t// out\n        /* \"RPS.sol\":4521:4835  function reset() private {... */\n    tag_182:\n        /* \"RPS.sol\":4566:4567  0 */\n      0x00\n        /* \"RPS.sol\":4557:4563  reward */\n      0x03\n        /* \"RPS.sol\":4557:4567  reward = 0 */\n      dup2\n      swap1\n      sstore\n      pop\n        /* \"RPS.sol\":4583:4589  uint i */\n      0x00\n        /* \"RPS.sol\":4578:4730  for (uint i = 0; i < players.length; i++) {... */\n    tag_234:\n        /* \"RPS.sol\":4599:4606  players */\n      0x07\n        /* \"RPS.sol\":4599:4613  players.length */\n      dup1\n      sload\n      swap1\n      pop\n        /* \"RPS.sol\":4595:4596  i */\n      dup2\n        /* \"RPS.sol\":4595:4613  i < players.length */\n      lt\n        /* \"RPS.sol\":4578:4730  for (uint i = 0; i < players.length; i++) {... */\n      iszero\n      tag_235\n      jumpi\n        /* \"RPS.sol\":4642:4655  player_choice */\n      0x05\n        /* \"RPS.sol\":4642:4667  player_choice[players[i]] */\n      0x00\n        /* \"RPS.sol\":4656:4663  players */\n      0x07\n        /* \"RPS.sol\":4664:4665  i */\n      dup4\n        /* \"RPS.sol\":4656:4666  players[i] */\n      dup2\n      sload\n      dup2\n      lt\n      tag_237\n      jumpi\n      tag_238\n      tag_88\n      jump\t// in\n    tag_238:\n    tag_237:\n      swap1\n      0x00\n      mstore\n      keccak256(0x00, 0x20)\n      add\n      0x00\n      swap1\n      sload\n      swap1\n      0x0100\n      exp\n      swap1\n      div\n      0xffffffffffffffffffffffffffffffffffffffff\n      and\n        /* \"RPS.sol\":4642:4667  player_choice[players[i]] */\n      0xffffffffffffffffffffffffffffffffffffffff\n      and\n      0xffffffffffffffffffffffffffffffffffffffff\n      and\n      dup2\n      mstore\n      0x20\n      add\n      swap1\n      dup2\n      mstore\n      0x20\n      add\n      0x00\n      keccak256\n        /* \"RPS.sol\":4635:4667  delete player_choice[players[i]] */\n      0x00\n      swap1\n      sstore\n        /* \"RPS.sol\":4689:4706  player_not_played */\n      0x06\n        /* \"RPS.sol\":4689:4718  player_not_played[players[i]] */\n      0x00\n        /* \"RPS.sol\":4707:4714  players */\n      0x07\n        /* \"RPS.sol\":4715:4716  i */\n      dup4\n        /* \"RPS.sol\":4707:4717  players[i] */\n      dup2\n      sload\n      dup2\n      lt\n      tag_240\n      jumpi\n      tag_241\n      tag_88\n      jump\t// in\n    tag_241:\n    tag_240:\n      swap1\n      0x00\n      mstore\n      keccak256(0x00, 0x20)\n      add\n      0x00\n      swap1\n      sload\n      swap1\n      0x0100\n      exp\n      swap1\n      div\n      0xffffffffffffffffffffffffffffffffffffffff\n      and\n        /* \"RPS.sol\":4689:4718  player_not_played[players[i]] */\n      0xffffffffffffffffffffffffffffffffffffffff\n      and\n      0xffffffffffffffffffffffffffffffffffffffff\n      and\n      dup2\n      mstore\n      0x20\n      add\n      swap1\n      dup2\n      mstore\n      0x20\n      add\n      0x00\n      keccak256\n      0x00\n        /* \"RPS.sol\":4682:4718  delete player_not_played[players[i]] */\n      0x0100\n      exp\n      dup2\n      sload\n      swap1\n      0xff\n      mul\n      not\n      and\n      swap1\n      sstore\n        /* \"RPS.sol\":4615:4618  i++ */\n      dup1\n      dup1\n      0x01\n      add\n      swap2\n      pop\n      pop\n        /* \"RPS.sol\":4578:4730  for (uint i = 0; i < players.length; i++) {... */\n      jump(tag_234)\n    tag_235:\n      pop\n        /* \"RPS.sol\":4747:4754  players */\n      0x07\n      0x00\n        /* \"RPS.sol\":4740:4754  delete players */\n      tag_243\n      swap2\n      swap1\n      tag_244\n      jump\t// in\n    tag_243:\n        /* \"RPS.sol\":4777:4778  0 */\n      0x00\n        /* \"RPS.sol\":4765:4774  numPlayer */\n      0x02\n        /* \"RPS.sol\":4765:4778  numPlayer = 0 */\n      dup2\n      swap1\n      sstore\n      pop\n        /* \"RPS.sol\":4800:4801  0 */\n      0x00\n        /* \"RPS.sol\":4789:4797  numInput */\n      0x08\n        /* \"RPS.sol\":4789:4801  numInput = 0 */\n      dup2\n      swap1\n      sstore\n      pop\n        /* \"RPS.sol\":4824:4825  0 */\n      0x00\n        /* \"RPS.sol\":4812:4821  numReveal */\n      0x04\n        /* \"RPS.sol\":4812:4825  numReveal = 0 */\n      dup2\n      swap1\n      sstore\n      pop\n        /* \"RPS.sol\":4521:4835  function reset() private {... */\n      jump\t// out\n    tag_244:\n      pop\n      dup1\n      sload\n      0x00\n      dup3\n      sstore\n      swap1\n      0x00\n      mstore\n      keccak256(0x00, 0x20)\n      swap1\n      dup2\n      add\n      swap1\n      tag_246\n      swap2\n      swap1\n      tag_247\n      jump\t// in\n    tag_246:\n      pop\n      jump\t// out\n    tag_247:\n    tag_248:\n      dup1\n      dup3\n      gt\n      iszero\n      tag_249\n      jumpi\n      0x00\n      dup2\n      0x00\n      swap1\n      sstore\n      pop\n      0x01\n      add\n      jump(tag_248)\n    tag_249:\n      pop\n      swap1\n      jump\t// out\n        /* \"#utility.yul\":7:84   */\n    tag_250:\n        /* \"#utility.yul\":44:51   */\n      0x00\n        /* \"#utility.yul\":73:78   */\n      dup2\n        /* \"#utility.yul\":62:78   */\n      swap1\n      pop\n        /* \"#utility.yul\":7:84   */\n      swap2\n      swap1\n      pop\n      jump\t// out\n        /* \"#utility.yul\":90:208   */\n    tag_251:\n        /* \"#utility.yul\":177:201   */\n      tag_292\n        /* \"#utility.yul\":195:200   */\n      dup2\n        /* \"#utility.yul\":177:201   */\n      tag_250\n      jump\t// in\n    tag_292:\n        /* \"#utility.yul\":172:175   */\n      dup3\n        /* \"#utility.yul\":165:202   */\n      mstore\n        /* \"#utility.yul\":90:208   */\n      pop\n      pop\n      jump\t// out\n        /* \"#utility.yul\":214:436   */\n    tag_23:\n        /* \"#utility.yul\":307:311   */\n      0x00\n        /* \"#utility.yul\":345:347   */\n      0x20\n        /* \"#utility.yul\":334:343   */\n      dup3\n        /* \"#utility.yul\":330:348   */\n      add\n        /* \"#utility.yul\":322:348   */\n      swap1\n      pop\n        /* \"#utility.yul\":358:429   */\n      tag_294\n        /* \"#utility.yul\":426:427   */\n      0x00\n        /* \"#utility.yul\":415:424   */\n      dup4\n        /* \"#utility.yul\":411:428   */\n      add\n        /* \"#utility.yul\":402:408   */\n      dup5\n        /* \"#utility.yul\":358:429   */\n      tag_251\n      jump\t// in\n    tag_294:\n        /* \"#utility.yul\":214:436   */\n      swap3\n      swap2\n      pop\n      pop\n      jump\t// out\n        /* \"#utility.yul\":523:640   */\n    tag_253:\n        /* \"#utility.yul\":632:633   */\n      0x00\n        /* \"#utility.yul\":629:630   */\n      dup1\n        /* \"#utility.yul\":622:634   */\n      revert\n        /* \"#utility.yul\":769:895   */\n    tag_255:\n        /* \"#utility.yul\":806:813   */\n      0x00\n        /* \"#utility.yul\":846:888   */\n      0xffffffffffffffffffffffffffffffffffffffff\n        /* \"#utility.yul\":839:844   */\n      dup3\n        /* \"#utility.yul\":835:889   */\n      and\n        /* \"#utility.yul\":824:889   */\n      swap1\n      pop\n        /* \"#utility.yul\":769:895   */\n      swap2\n      swap1\n      pop\n      jump\t// out\n        /* \"#utility.yul\":901:997   */\n    tag_256:\n        /* \"#utility.yul\":938:945   */\n      0x00\n        /* \"#utility.yul\":967:991   */\n      tag_300\n        /* \"#utility.yul\":985:990   */\n      dup3\n        /* \"#utility.yul\":967:991   */\n      tag_255\n      jump\t// in\n    tag_300:\n        /* \"#utility.yul\":956:991   */\n      swap1\n      pop\n        /* \"#utility.yul\":901:997   */\n      swap2\n      swap1\n      pop\n      jump\t// out\n        /* \"#utility.yul\":1003:1125   */\n    tag_257:\n        /* \"#utility.yul\":1076:1100   */\n      tag_302\n        /* \"#utility.yul\":1094:1099   */\n      dup2\n        /* \"#utility.yul\":1076:1100   */\n      tag_256\n      jump\t// in\n    tag_302:\n        /* \"#utility.yul\":1069:1074   */\n      dup2\n        /* \"#utility.yul\":1066:1101   */\n      eq\n        /* \"#utility.yul\":1056:1119   */\n      tag_303\n      jumpi\n        /* \"#utility.yul\":1115:1116   */\n      0x00\n        /* \"#utility.yul\":1112:1113   */\n      dup1\n        /* \"#utility.yul\":1105:1117   */\n      revert\n        /* \"#utility.yul\":1056:1119   */\n    tag_303:\n        /* \"#utility.yul\":1003:1125   */\n      pop\n      jump\t// out\n        /* \"#utility.yul\":1131:1270   */\n    tag_258:\n        /* \"#utility.yul\":1177:1182   */\n      0x00\n        /* \"#utility.yul\":1215:1221   */\n      dup2\n        /* \"#utility.yul\":1202:1222   */\n      calldataload\n        /* \"#utility.yul\":1193:1222   */\n      swap1\n      pop\n        /* \"#utility.yul\":1231:1264   */\n      tag_305\n        /* \"#utility.yul\":1258:1263   */\n      dup2\n        /* \"#utility.yul\":1231:1264   */\n      tag_257\n      jump\t// in\n    tag_305:\n        /* \"#utility.yul\":1131:1270   */\n      swap3\n      swap2\n      pop\n      pop\n      jump\t// out\n        /* \"#utility.yul\":1276:1605   */\n    tag_27:\n        /* \"#utility.yul\":1335:1341   */\n      0x00\n        /* \"#utility.yul\":1384:1386   */\n      0x20\n        /* \"#utility.yul\":1372:1381   */\n      dup3\n        /* \"#utility.yul\":1363:1370   */\n      dup5\n        /* \"#utility.yul\":1359:1382   */\n      sub\n        /* \"#utility.yul\":1355:1387   */\n      slt\n        /* \"#utility.yul\":1352:1471   */\n      iszero\n      tag_307\n      jumpi\n        /* \"#utility.yul\":1390:1469   */\n      tag_308\n      tag_253\n      jump\t// in\n    tag_308:\n        /* \"#utility.yul\":1352:1471   */\n    tag_307:\n        /* \"#utility.yul\":1510:1511   */\n      0x00\n        /* \"#utility.yul\":1535:1588   */\n      tag_309\n        /* \"#utility.yul\":1580:1587   */\n      dup5\n        /* \"#utility.yul\":1571:1577   */\n      dup3\n        /* \"#utility.yul\":1560:1569   */\n      dup6\n        /* \"#utility.yul\":1556:1578   */\n      add\n        /* \"#utility.yul\":1535:1588   */\n      tag_258\n      jump\t// in\n    tag_309:\n        /* \"#utility.yul\":1525:1588   */\n      swap2\n      pop\n        /* \"#utility.yul\":1481:1598   */\n      pop\n        /* \"#utility.yul\":1276:1605   */\n      swap3\n      swap2\n      pop\n      pop\n      jump\t// out\n        /* \"#utility.yul\":1611:1701   */\n    tag_259:\n        /* \"#utility.yul\":1645:1652   */\n      0x00\n        /* \"#utility.yul\":1688:1693   */\n      dup2\n        /* \"#utility.yul\":1681:1694   */\n      iszero\n        /* \"#utility.yul\":1674:1695   */\n      iszero\n        /* \"#utility.yul\":1663:1695   */\n      swap1\n      pop\n        /* \"#utility.yul\":1611:1701   */\n      swap2\n      swap1\n      pop\n      jump\t// out\n        /* \"#utility.yul\":1707:1816   */\n    tag_260:\n        /* \"#utility.yul\":1788:1809   */\n      tag_312\n        /* \"#utility.yul\":1803:1808   */\n      dup2\n        /* \"#utility.yul\":1788:1809   */\n      tag_259\n      jump\t// in\n    tag_312:\n        /* \"#utility.yul\":1783:1786   */\n      dup3\n        /* \"#utility.yul\":1776:1810   */\n      mstore\n        /* \"#utility.yul\":1707:1816   */\n      pop\n      pop\n      jump\t// out\n        /* \"#utility.yul\":1822:2032   */\n    tag_30:\n        /* \"#utility.yul\":1909:1913   */\n      0x00\n        /* \"#utility.yul\":1947:1949   */\n      0x20\n        /* \"#utility.yul\":1936:1945   */\n      dup3\n        /* \"#utility.yul\":1932:1950   */\n      add\n        /* \"#utility.yul\":1924:1950   */\n      swap1\n      pop\n        /* \"#utility.yul\":1960:2025   */\n      tag_314\n        /* \"#utility.yul\":2022:2023   */\n      0x00\n        /* \"#utility.yul\":2011:2020   */\n      dup4\n        /* \"#utility.yul\":2007:2024   */\n      add\n        /* \"#utility.yul\":1998:2004   */\n      dup5\n        /* \"#utility.yul\":1960:2025   */\n      tag_260\n      jump\t// in\n    tag_314:\n        /* \"#utility.yul\":1822:2032   */\n      swap3\n      swap2\n      pop\n      pop\n      jump\t// out\n        /* \"#utility.yul\":2038:2098   */\n    tag_261:\n        /* \"#utility.yul\":2066:2069   */\n      0x00\n        /* \"#utility.yul\":2087:2092   */\n      dup2\n        /* \"#utility.yul\":2080:2092   */\n      swap1\n      pop\n        /* \"#utility.yul\":2038:2098   */\n      swap2\n      swap1\n      pop\n      jump\t// out\n        /* \"#utility.yul\":2104:2246   */\n    tag_262:\n        /* \"#utility.yul\":2154:2163   */\n      0x00\n        /* \"#utility.yul\":2187:2240   */\n      tag_317\n        /* \"#utility.yul\":2205:2239   */\n      tag_318\n        /* \"#utility.yul\":2214:2238   */\n      tag_319\n        /* \"#utility.yul\":2232:2237   */\n      dup5\n        /* \"#utility.yul\":2214:2238   */\n      tag_255\n      jump\t// in\n    tag_319:\n        /* \"#utility.yul\":2205:2239   */\n      tag_261\n      jump\t// in\n    tag_318:\n        /* \"#utility.yul\":2187:2240   */\n      tag_255\n      jump\t// in\n    tag_317:\n        /* \"#utility.yul\":2174:2240   */\n      swap1\n      pop\n        /* \"#utility.yul\":2104:2246   */\n      swap2\n      swap1\n      pop\n      jump\t// out\n        /* \"#utility.yul\":2252:2378   */\n    tag_263:\n        /* \"#utility.yul\":2302:2311   */\n      0x00\n        /* \"#utility.yul\":2335:2372   */\n      tag_321\n        /* \"#utility.yul\":2366:2371   */\n      dup3\n        /* \"#utility.yul\":2335:2372   */\n      tag_262\n      jump\t// in\n    tag_321:\n        /* \"#utility.yul\":2322:2372   */\n      swap1\n      pop\n        /* \"#utility.yul\":2252:2378   */\n      swap2\n      swap1\n      pop\n      jump\t// out\n        /* \"#utility.yul\":2384:2526   */\n    tag_264:\n        /* \"#utility.yul\":2450:2459   */\n      0x00\n        /* \"#utility.yul\":2483:2520   */\n      tag_323\n        /* \"#utility.yul\":2514:2519   */\n      dup3\n        /* \"#utility.yul\":2483:2520   */\n      tag_263\n      jump\t// in\n    tag_323:\n        /* \"#utility.yul\":2470:2520   */\n      swap1\n      pop\n        /* \"#utility.yul\":2384:2526   */\n      swap2\n      swap1\n      pop\n      jump\t// out\n        /* \"#utility.yul\":2532:2695   */\n    tag_265:\n        /* \"#utility.yul\":2635:2688   */\n      tag_325\n        /* \"#utility.yul\":2682:2687   */\n      dup2\n        /* \"#utility.yul\":2635:2688   */\n      tag_264\n      jump\t// in\n    tag_325:\n        /* \"#utility.yul\":2630:2633   */\n      dup3\n        /* \"#utility.yul\":2623:2689   */\n      mstore\n        /* \"#utility.yul\":2532:2695   */\n      pop\n      pop\n      jump\t// out\n        /* \"#utility.yul\":2701:2955   */\n    tag_41:\n        /* \"#utility.yul\":2810:2814   */\n      0x00\n        /* \"#utility.yul\":2848:2850   */\n      0x20\n        /* \"#utility.yul\":2837:2846   */\n      dup3\n        /* \"#utility.yul\":2833:2851   */\n      add\n        /* \"#utility.yul\":2825:2851   */\n      swap1\n      pop\n        /* \"#utility.yul\":2861:2948   */\n      tag_327\n        /* \"#utility.yul\":2945:2946   */\n      0x00\n        /* \"#utility.yul\":2934:2943   */\n      dup4\n        /* \"#utility.yul\":2930:2947   */\n      add\n        /* \"#utility.yul\":2921:2927   */\n      dup5\n        /* \"#utility.yul\":2861:2948   */\n      tag_265\n      jump\t// in\n    tag_327:\n        /* \"#utility.yul\":2701:2955   */\n      swap3\n      swap2\n      pop\n      pop\n      jump\t// out\n        /* \"#utility.yul\":2961:3038   */\n    tag_266:\n        /* \"#utility.yul\":2998:3005   */\n      0x00\n        /* \"#utility.yul\":3027:3032   */\n      dup2\n        /* \"#utility.yul\":3016:3032   */\n      swap1\n      pop\n        /* \"#utility.yul\":2961:3038   */\n      swap2\n      swap1\n      pop\n      jump\t// out\n        /* \"#utility.yul\":3044:3166   */\n    tag_267:\n        /* \"#utility.yul\":3117:3141   */\n      tag_330\n        /* \"#utility.yul\":3135:3140   */\n      dup2\n        /* \"#utility.yul\":3117:3141   */\n      tag_266\n      jump\t// in\n    tag_330:\n        /* \"#utility.yul\":3110:3115   */\n      dup2\n        /* \"#utility.yul\":3107:3142   */\n      eq\n        /* \"#utility.yul\":3097:3160   */\n      tag_331\n      jumpi\n        /* \"#utility.yul\":3156:3157   */\n      0x00\n        /* \"#utility.yul\":3153:3154   */\n      dup1\n        /* \"#utility.yul\":3146:3158   */\n      revert\n        /* \"#utility.yul\":3097:3160   */\n    tag_331:\n        /* \"#utility.yul\":3044:3166   */\n      pop\n      jump\t// out\n        /* \"#utility.yul\":3172:3311   */\n    tag_268:\n        /* \"#utility.yul\":3218:3223   */\n      0x00\n        /* \"#utility.yul\":3256:3262   */\n      dup2\n        /* \"#utility.yul\":3243:3263   */\n      calldataload\n        /* \"#utility.yul\":3234:3263   */\n      swap1\n      pop\n        /* \"#utility.yul\":3272:3305   */\n      tag_333\n        /* \"#utility.yul\":3299:3304   */\n      dup2\n        /* \"#utility.yul\":3272:3305   */\n      tag_267\n      jump\t// in\n    tag_333:\n        /* \"#utility.yul\":3172:3311   */\n      swap3\n      swap2\n      pop\n      pop\n      jump\t// out\n        /* \"#utility.yul\":3317:3646   */\n    tag_45:\n        /* \"#utility.yul\":3376:3382   */\n      0x00\n        /* \"#utility.yul\":3425:3427   */\n      0x20\n        /* \"#utility.yul\":3413:3422   */\n      dup3\n        /* \"#utility.yul\":3404:3411   */\n      dup5\n        /* \"#utility.yul\":3400:3423   */\n      sub\n        /* \"#utility.yul\":3396:3428   */\n      slt\n        /* \"#utility.yul\":3393:3512   */\n      iszero\n      tag_335\n      jumpi\n        /* \"#utility.yul\":3431:3510   */\n      tag_336\n      tag_253\n      jump\t// in\n    tag_336:\n        /* \"#utility.yul\":3393:3512   */\n    tag_335:\n        /* \"#utility.yul\":3551:3552   */\n      0x00\n        /* \"#utility.yul\":3576:3629   */\n      tag_337\n        /* \"#utility.yul\":3621:3628   */\n      dup5\n        /* \"#utility.yul\":3612:3618   */\n      dup3\n        /* \"#utility.yul\":3601:3610   */\n      dup6\n        /* \"#utility.yul\":3597:3619   */\n      add\n        /* \"#utility.yul\":3576:3629   */\n      tag_268\n      jump\t// in\n    tag_337:\n        /* \"#utility.yul\":3566:3629   */\n      swap2\n      pop\n        /* \"#utility.yul\":3522:3639   */\n      pop\n        /* \"#utility.yul\":3317:3646   */\n      swap3\n      swap2\n      pop\n      pop\n      jump\t// out\n        /* \"#utility.yul\":3652:3798   */\n    tag_269:\n        /* \"#utility.yul\":3722:3731   */\n      0x00\n        /* \"#utility.yul\":3755:3792   */\n      tag_339\n        /* \"#utility.yul\":3786:3791   */\n      dup3\n        /* \"#utility.yul\":3755:3792   */\n      tag_263\n      jump\t// in\n    tag_339:\n        /* \"#utility.yul\":3742:3792   */\n      swap1\n      pop\n        /* \"#utility.yul\":3652:3798   */\n      swap2\n      swap1\n      pop\n      jump\t// out\n        /* \"#utility.yul\":3804:3975   */\n    tag_270:\n        /* \"#utility.yul\":3911:3968   */\n      tag_341\n        /* \"#utility.yul\":3962:3967   */\n      dup2\n        /* \"#utility.yul\":3911:3968   */\n      tag_269\n      jump\t// in\n    tag_341:\n        /* \"#utility.yul\":3906:3909   */\n      dup3\n        /* \"#utility.yul\":3899:3969   */\n      mstore\n        /* \"#utility.yul\":3804:3975   */\n      pop\n      pop\n      jump\t// out\n        /* \"#utility.yul\":3981:4243   */\n    tag_55:\n        /* \"#utility.yul\":4094:4098   */\n      0x00\n        /* \"#utility.yul\":4132:4134   */\n      0x20\n        /* \"#utility.yul\":4121:4130   */\n      dup3\n        /* \"#utility.yul\":4117:4135   */\n      add\n        /* \"#utility.yul\":4109:4135   */\n      swap1\n      pop\n        /* \"#utility.yul\":4145:4236   */\n      tag_343\n        /* \"#utility.yul\":4233:4234   */\n      0x00\n        /* \"#utility.yul\":4222:4231   */\n      dup4\n        /* \"#utility.yul\":4218:4235   */\n      add\n        /* \"#utility.yul\":4209:4215   */\n      dup5\n        /* \"#utility.yul\":4145:4236   */\n      tag_270\n      jump\t// in\n    tag_343:\n        /* \"#utility.yul\":3981:4243   */\n      swap3\n      swap2\n      pop\n      pop\n      jump\t// out\n        /* \"#utility.yul\":4249:4371   */\n    tag_271:\n        /* \"#utility.yul\":4322:4346   */\n      tag_345\n        /* \"#utility.yul\":4340:4345   */\n      dup2\n        /* \"#utility.yul\":4322:4346   */\n      tag_250\n      jump\t// in\n    tag_345:\n        /* \"#utility.yul\":4315:4320   */\n      dup2\n        /* \"#utility.yul\":4312:4347   */\n      eq\n        /* \"#utility.yul\":4302:4365   */\n      tag_346\n      jumpi\n        /* \"#utility.yul\":4361:4362   */\n      0x00\n        /* \"#utility.yul\":4358:4359   */\n      dup1\n        /* \"#utility.yul\":4351:4363   */\n      revert\n        /* \"#utility.yul\":4302:4365   */\n    tag_346:\n        /* \"#utility.yul\":4249:4371   */\n      pop\n      jump\t// out\n        /* \"#utility.yul\":4377:4516   */\n    tag_272:\n        /* \"#utility.yul\":4423:4428   */\n      0x00\n        /* \"#utility.yul\":4461:4467   */\n      dup2\n        /* \"#utility.yul\":4448:4468   */\n      calldataload\n        /* \"#utility.yul\":4439:4468   */\n      swap1\n      pop\n        /* \"#utility.yul\":4477:4510   */\n      tag_348\n        /* \"#utility.yul\":4504:4509   */\n      dup2\n        /* \"#utility.yul\":4477:4510   */\n      tag_271\n      jump\t// in\n    tag_348:\n        /* \"#utility.yul\":4377:4516   */\n      swap3\n      swap2\n      pop\n      pop\n      jump\t// out\n        /* \"#utility.yul\":4522:4851   */\n    tag_79:\n        /* \"#utility.yul\":4581:4587   */\n      0x00\n        /* \"#utility.yul\":4630:4632   */\n      0x20\n        /* \"#utility.yul\":4618:4627   */\n      dup3\n        /* \"#utility.yul\":4609:4616   */\n      dup5\n        /* \"#utility.yul\":4605:4628   */\n      sub\n        /* \"#utility.yul\":4601:4633   */\n      slt\n        /* \"#utility.yul\":4598:4717   */\n      iszero\n      tag_350\n      jumpi\n        /* \"#utility.yul\":4636:4715   */\n      tag_351\n      tag_253\n      jump\t// in\n    tag_351:\n        /* \"#utility.yul\":4598:4717   */\n    tag_350:\n        /* \"#utility.yul\":4756:4757   */\n      0x00\n        /* \"#utility.yul\":4781:4834   */\n      tag_352\n        /* \"#utility.yul\":4826:4833   */\n      dup5\n        /* \"#utility.yul\":4817:4823   */\n      dup3\n        /* \"#utility.yul\":4806:4815   */\n      dup6\n        /* \"#utility.yul\":4802:4824   */\n      add\n        /* \"#utility.yul\":4781:4834   */\n      tag_272\n      jump\t// in\n    tag_352:\n        /* \"#utility.yul\":4771:4834   */\n      swap2\n      pop\n        /* \"#utility.yul\":4727:4844   */\n      pop\n        /* \"#utility.yul\":4522:4851   */\n      swap3\n      swap2\n      pop\n      pop\n      jump\t// out\n        /* \"#utility.yul\":4857:4975   */\n    tag_273:\n        /* \"#utility.yul\":4944:4968   */\n      tag_354\n        /* \"#utility.yul\":4962:4967   */\n      dup2\n        /* \"#utility.yul\":4944:4968   */\n      tag_256\n      jump\t// in\n    tag_354:\n        /* \"#utility.yul\":4939:4942   */\n      dup3\n        /* \"#utility.yul\":4932:4969   */\n      mstore\n        /* \"#utility.yul\":4857:4975   */\n      pop\n      pop\n      jump\t// out\n        /* \"#utility.yul\":4981:5203   */\n    tag_82:\n        /* \"#utility.yul\":5074:5078   */\n      0x00\n        /* \"#utility.yul\":5112:5114   */\n      0x20\n        /* \"#utility.yul\":5101:5110   */\n      dup3\n        /* \"#utility.yul\":5097:5115   */\n      add\n        /* \"#utility.yul\":5089:5115   */\n      swap1\n      pop\n        /* \"#utility.yul\":5125:5196   */\n      tag_356\n        /* \"#utility.yul\":5193:5194   */\n      0x00\n        /* \"#utility.yul\":5182:5191   */\n      dup4\n        /* \"#utility.yul\":5178:5195   */\n      add\n        /* \"#utility.yul\":5169:5175   */\n      dup5\n        /* \"#utility.yul\":5125:5196   */\n      tag_273\n      jump\t// in\n    tag_356:\n        /* \"#utility.yul\":4981:5203   */\n      swap3\n      swap2\n      pop\n      pop\n      jump\t// out\n        /* \"#utility.yul\":5209:5389   */\n    tag_88:\n        /* \"#utility.yul\":5257:5334   */\n      0x4e487b7100000000000000000000000000000000000000000000000000000000\n        /* \"#utility.yul\":5254:5255   */\n      0x00\n        /* \"#utility.yul\":5247:5335   */\n      mstore\n        /* \"#utility.yul\":5354:5358   */\n      0x32\n        /* \"#utility.yul\":5351:5352   */\n      0x04\n        /* \"#utility.yul\":5344:5359   */\n      mstore\n        /* \"#utility.yul\":5378:5382   */\n      0x24\n        /* \"#utility.yul\":5375:5376   */\n      0x00\n        /* \"#utility.yul\":5368:5383   */\n      revert\n        /* \"#utility.yul\":5395:5575   */\n    tag_274:\n        /* \"#utility.yul\":5443:5520   */\n      0x4e487b7100000000000000000000000000000000000000000000000000000000\n        /* \"#utility.yul\":5440:5441   */\n      0x00\n        /* \"#utility.yul\":5433:5521   */\n      mstore\n        /* \"#utility.yul\":5540:5544   */\n      0x11\n        /* \"#utility.yul\":5537:5538   */\n      0x04\n        /* \"#utility.yul\":5530:5545   */\n      mstore\n        /* \"#utility.yul\":5564:5568   */\n      0x24\n        /* \"#utility.yul\":5561:5562   */\n      0x00\n        /* \"#utility.yul\":5554:5569   */\n      revert\n        /* \"#utility.yul\":5581:5772   */\n    tag_93:\n        /* \"#utility.yul\":5621:5624   */\n      0x00\n        /* \"#utility.yul\":5640:5660   */\n      tag_360\n        /* \"#utility.yul\":5658:5659   */\n      dup3\n        /* \"#utility.yul\":5640:5660   */\n      tag_250\n      jump\t// in\n    tag_360:\n        /* \"#utility.yul\":5635:5660   */\n      swap2\n      pop\n        /* \"#utility.yul\":5674:5694   */\n      tag_361\n        /* \"#utility.yul\":5692:5693   */\n      dup4\n        /* \"#utility.yul\":5674:5694   */\n      tag_250\n      jump\t// in\n    tag_361:\n        /* \"#utility.yul\":5669:5694   */\n      swap3\n      pop\n        /* \"#utility.yul\":5717:5718   */\n      dup3\n        /* \"#utility.yul\":5714:5715   */\n      dup3\n        /* \"#utility.yul\":5710:5719   */\n      add\n        /* \"#utility.yul\":5703:5719   */\n      swap1\n      pop\n        /* \"#utility.yul\":5738:5741   */\n      dup1\n        /* \"#utility.yul\":5735:5736   */\n      dup3\n        /* \"#utility.yul\":5732:5742   */\n      gt\n        /* \"#utility.yul\":5729:5765   */\n      iszero\n      tag_362\n      jumpi\n        /* \"#utility.yul\":5745:5763   */\n      tag_363\n      tag_274\n      jump\t// in\n    tag_363:\n        /* \"#utility.yul\":5729:5765   */\n    tag_362:\n        /* \"#utility.yul\":5581:5772   */\n      swap3\n      swap2\n      pop\n      pop\n      jump\t// out\n        /* \"#utility.yul\":5778:6011   */\n    tag_96:\n        /* \"#utility.yul\":5817:5820   */\n      0x00\n        /* \"#utility.yul\":5840:5864   */\n      tag_365\n        /* \"#utility.yul\":5858:5863   */\n      dup3\n        /* \"#utility.yul\":5840:5864   */\n      tag_250\n      jump\t// in\n    tag_365:\n        /* \"#utility.yul\":5831:5864   */\n      swap2\n      pop\n        /* \"#utility.yul\":5886:5952   */\n      0xffffffffffffffffffffffffffffffffffffffffffffffffffffffffffffffff\n        /* \"#utility.yul\":5879:5884   */\n      dup3\n        /* \"#utility.yul\":5876:5953   */\n      sub\n        /* \"#utility.yul\":5873:5976   */\n      tag_366\n      jumpi\n        /* \"#utility.yul\":5956:5974   */\n      tag_367\n      tag_274\n      jump\t// in\n    tag_367:\n        /* \"#utility.yul\":5873:5976   */\n    tag_366:\n        /* \"#utility.yul\":6003:6004   */\n      0x01\n        /* \"#utility.yul\":5996:6001   */\n      dup3\n        /* \"#utility.yul\":5992:6005   */\n      add\n        /* \"#utility.yul\":5985:6005   */\n      swap1\n      pop\n        /* \"#utility.yul\":5778:6011   */\n      swap2\n      swap1\n      pop\n      jump\t// out\n        /* \"#utility.yul\":6017:6135   */\n    tag_275:\n        /* \"#utility.yul\":6104:6128   */\n      tag_369\n        /* \"#utility.yul\":6122:6127   */\n      dup2\n        /* \"#utility.yul\":6104:6128   */\n      tag_266\n      jump\t// in\n    tag_369:\n        /* \"#utility.yul\":6099:6102   */\n      dup3\n        /* \"#utility.yul\":6092:6129   */\n      mstore\n        /* \"#utility.yul\":6017:6135   */\n      pop\n      pop\n      jump\t// out\n        /* \"#utility.yul\":6141:6473   */\n    tag_105:\n        /* \"#utility.yul\":6262:6266   */\n      0x00\n        /* \"#utility.yul\":6300:6302   */\n      0x40\n        /* \"#utility.yul\":6289:6298   */\n      dup3\n        /* \"#utility.yul\":6285:6303   */\n      add\n        /* \"#utility.yul\":6277:6303   */\n      swap1\n      pop\n        /* \"#utility.yul\":6313:6384   */\n      tag_371\n        /* \"#utility.yul\":6381:6382   */\n      0x00\n        /* \"#utility.yul\":6370:6379   */\n      dup4\n        /* \"#utility.yul\":6366:6383   */\n      add\n        /* \"#utility.yul\":6357:6363   */\n      dup6\n        /* \"#utility.yul\":6313:6384   */\n      tag_275\n      jump\t// in\n    tag_371:\n        /* \"#utility.yul\":6394:6466   */\n      tag_372\n        /* \"#utility.yul\":6462:6464   */\n      0x20\n        /* \"#utility.yul\":6451:6460   */\n      dup4\n        /* \"#utility.yul\":6447:6465   */\n      add\n        /* \"#utility.yul\":6438:6444   */\n      dup5\n        /* \"#utility.yul\":6394:6466   */\n      tag_273\n      jump\t// in\n    tag_372:\n        /* \"#utility.yul\":6141:6473   */\n      swap4\n      swap3\n      pop\n      pop\n      pop\n      jump\t// out\n        /* \"#utility.yul\":6479:6648   */\n    tag_276:\n        /* \"#utility.yul\":6563:6574   */\n      0x00\n        /* \"#utility.yul\":6597:6603   */\n      dup3\n        /* \"#utility.yul\":6592:6595   */\n      dup3\n        /* \"#utility.yul\":6585:6604   */\n      mstore\n        /* \"#utility.yul\":6637:6641   */\n      0x20\n        /* \"#utility.yul\":6632:6635   */\n      dup3\n        /* \"#utility.yul\":6628:6642   */\n      add\n        /* \"#utility.yul\":6613:6642   */\n      swap1\n      pop\n        /* \"#utility.yul\":6479:6648   */\n      swap3\n      swap2\n      pop\n      pop\n      jump\t// out\n        /* \"#utility.yul\":6654:6824   */\n    tag_277:\n        /* \"#utility.yul\":6794:6816   */\n      0x63686f696365206973206e6f742076616c69642e000000000000000000000000\n        /* \"#utility.yul\":6790:6791   */\n      0x00\n        /* \"#utility.yul\":6782:6788   */\n      dup3\n        /* \"#utility.yul\":6778:6792   */\n      add\n        /* \"#utility.yul\":6771:6817   */\n      mstore\n        /* \"#utility.yul\":6654:6824   */\n      pop\n      jump\t// out\n        /* \"#utility.yul\":6830:7196   */\n    tag_278:\n        /* \"#utility.yul\":6972:6975   */\n      0x00\n        /* \"#utility.yul\":6993:7060   */\n      tag_376\n        /* \"#utility.yul\":7057:7059   */\n      0x14\n        /* \"#utility.yul\":7052:7055   */\n      dup4\n        /* \"#utility.yul\":6993:7060   */\n      tag_276\n      jump\t// in\n    tag_376:\n        /* \"#utility.yul\":6986:7060   */\n      swap2\n      pop\n        /* \"#utility.yul\":7069:7162   */\n      tag_377\n        /* \"#utility.yul\":7158:7161   */\n      dup3\n        /* \"#utility.yul\":7069:7162   */\n      tag_277\n      jump\t// in\n    tag_377:\n        /* \"#utility.yul\":7187:7189   */\n      0x20\n        /* \"#utility.yul\":7182:7185   */\n      dup3\n        /* \"#utility.yul\":7178:7190   */\n      add\n        /* \"#utility.yul\":7171:7190   */\n      swap1\n      pop\n        /* \"#utility.yul\":6830:7196   */\n      swap2\n      swap1\n      pop\n      jump\t// out\n        /* \"#utility.yul\":7202:7621   */\n    tag_114:\n        /* \"#utility.yul\":7368:7372   */\n      0x00\n        /* \"#utility.yul\":7406:7408   */\n      0x20\n        /* \"#utility.yul\":7395:7404   */\n      dup3\n        /* \"#utility.yul\":7391:7409   */\n      add\n        /* \"#utility.yul\":7383:7409   */\n      swap1\n      pop\n        /* \"#utility.yul\":7455:7464   */\n      dup2\n        /* \"#utility.yul\":7449:7453   */\n      dup2\n        /* \"#utility.yul\":7445:7465   */\n      sub\n        /* \"#utility.yul\":7441:7442   */\n      0x00\n        /* \"#utility.yul\":7430:7439   */\n      dup4\n        /* \"#utility.yul\":7426:7443   */\n      add\n        /* \"#utility.yul\":7419:7466   */\n      mstore\n        /* \"#utility.yul\":7483:7614   */\n      tag_379\n        /* \"#utility.yul\":7609:7613   */\n      dup2\n        /* \"#utility.yul\":7483:7614   */\n      tag_278\n      jump\t// in\n    tag_379:\n        /* \"#utility.yul\":7475:7614   */\n      swap1\n      pop\n        /* \"#utility.yul\":7202:7621   */\n      swap2\n      swap1\n      pop\n      jump\t// out\n        /* \"#utility.yul\":7627:7770   */\n    tag_279:\n        /* \"#utility.yul\":7684:7689   */\n      0x00\n        /* \"#utility.yul\":7715:7721   */\n      dup2\n        /* \"#utility.yul\":7709:7722   */\n      mload\n        /* \"#utility.yul\":7700:7722   */\n      swap1\n      pop\n        /* \"#utility.yul\":7731:7764   */\n      tag_381\n        /* \"#utility.yul\":7758:7763   */\n      dup2\n        /* \"#utility.yul\":7731:7764   */\n      tag_271\n      jump\t// in\n    tag_381:\n        /* \"#utility.yul\":7627:7770   */\n      swap3\n      swap2\n      pop\n      pop\n      jump\t// out\n        /* \"#utility.yul\":7776:8127   */\n    tag_124:\n        /* \"#utility.yul\":7846:7852   */\n      0x00\n        /* \"#utility.yul\":7895:7897   */\n      0x20\n        /* \"#utility.yul\":7883:7892   */\n      dup3\n        /* \"#utility.yul\":7874:7881   */\n      dup5\n        /* \"#utility.yul\":7870:7893   */\n      sub\n        /* \"#utility.yul\":7866:7898   */\n      slt\n        /* \"#utility.yul\":7863:7982   */\n      iszero\n      tag_383\n      jumpi\n        /* \"#utility.yul\":7901:7980   */\n      tag_384\n      tag_253\n      jump\t// in\n    tag_384:\n        /* \"#utility.yul\":7863:7982   */\n    tag_383:\n        /* \"#utility.yul\":8021:8022   */\n      0x00\n        /* \"#utility.yul\":8046:8110   */\n      tag_385\n        /* \"#utility.yul\":8102:8109   */\n      dup5\n        /* \"#utility.yul\":8093:8099   */\n      dup3\n        /* \"#utility.yul\":8082:8091   */\n      dup6\n        /* \"#utility.yul\":8078:8100   */\n      add\n        /* \"#utility.yul\":8046:8110   */\n      tag_279\n      jump\t// in\n    tag_385:\n        /* \"#utility.yul\":8036:8110   */\n      swap2\n      pop\n        /* \"#utility.yul\":7992:8120   */\n      pop\n        /* \"#utility.yul\":7776:8127   */\n      swap3\n      swap2\n      pop\n      pop\n      jump\t// out\n        /* \"#utility.yul\":8133:8313   */\n    tag_280:\n        /* \"#utility.yul\":8181:8258   */\n      0x4e487b7100000000000000000000000000000000000000000000000000000000\n        /* \"#utility.yul\":8178:8179   */\n      0x00\n        /* \"#utility.yul\":8171:8259   */\n      mstore\n        /* \"#utility.yul\":8278:8282   */\n      0x12\n        /* \"#utility.yul\":8275:8276   */\n      0x04\n        /* \"#utility.yul\":8268:8283   */\n      mstore\n        /* \"#utility.yul\":8302:8306   */\n      0x24\n        /* \"#utility.yul\":8299:8300   */\n      0x00\n        /* \"#utility.yul\":8292:8307   */\n      revert\n        /* \"#utility.yul\":8319:8504   */\n    tag_145:\n        /* \"#utility.yul\":8359:8360   */\n      0x00\n        /* \"#utility.yul\":8376:8396   */\n      tag_388\n        /* \"#utility.yul\":8394:8395   */\n      dup3\n        /* \"#utility.yul\":8376:8396   */\n      tag_250\n      jump\t// in\n    tag_388:\n        /* \"#utility.yul\":8371:8396   */\n      swap2\n      pop\n        /* \"#utility.yul\":8410:8430   */\n      tag_389\n        /* \"#utility.yul\":8428:8429   */\n      dup4\n        /* \"#utility.yul\":8410:8430   */\n      tag_250\n      jump\t// in\n    tag_389:\n        /* \"#utility.yul\":8405:8430   */\n      swap3\n      pop\n        /* \"#utility.yul\":8449:8450   */\n      dup3\n        /* \"#utility.yul\":8439:8474   */\n      tag_390\n      jumpi\n        /* \"#utility.yul\":8454:8472   */\n      tag_391\n      tag_280\n      jump\t// in\n    tag_391:\n        /* \"#utility.yul\":8439:8474   */\n    tag_390:\n        /* \"#utility.yul\":8496:8497   */\n      dup3\n        /* \"#utility.yul\":8493:8494   */\n      dup3\n        /* \"#utility.yul\":8489:8498   */\n      div\n        /* \"#utility.yul\":8484:8498   */\n      swap1\n      pop\n        /* \"#utility.yul\":8319:8504   */\n      swap3\n      swap2\n      pop\n      pop\n      jump\t// out\n        /* \"#utility.yul\":8510:8653   */\n    tag_281:\n        /* \"#utility.yul\":8567:8572   */\n      0x00\n        /* \"#utility.yul\":8598:8604   */\n      dup2\n        /* \"#utility.yul\":8592:8605   */\n      mload\n        /* \"#utility.yul\":8583:8605   */\n      swap1\n      pop\n        /* \"#utility.yul\":8614:8647   */\n      tag_393\n        /* \"#utility.yul\":8641:8646   */\n      dup2\n        /* \"#utility.yul\":8614:8647   */\n      tag_267\n      jump\t// in\n    tag_393:\n        /* \"#utility.yul\":8510:8653   */\n      swap3\n      swap2\n      pop\n      pop\n      jump\t// out\n        /* \"#utility.yul\":8659:8760   */\n    tag_282:\n        /* \"#utility.yul\":8695:8702   */\n      0x00\n        /* \"#utility.yul\":8735:8753   */\n      0xffffffffffffffff\n        /* \"#utility.yul\":8728:8733   */\n      dup3\n        /* \"#utility.yul\":8724:8754   */\n      and\n        /* \"#utility.yul\":8713:8754   */\n      swap1\n      pop\n        /* \"#utility.yul\":8659:8760   */\n      swap2\n      swap1\n      pop\n      jump\t// out\n        /* \"#utility.yul\":8766:8886   */\n    tag_283:\n        /* \"#utility.yul\":8838:8861   */\n      tag_396\n        /* \"#utility.yul\":8855:8860   */\n      dup2\n        /* \"#utility.yul\":8838:8861   */\n      tag_282\n      jump\t// in\n    tag_396:\n        /* \"#utility.yul\":8831:8836   */\n      dup2\n        /* \"#utility.yul\":8828:8862   */\n      eq\n        /* \"#utility.yul\":8818:8880   */\n      tag_397\n      jumpi\n        /* \"#utility.yul\":8876:8877   */\n      0x00\n        /* \"#utility.yul\":8873:8874   */\n      dup1\n        /* \"#utility.yul\":8866:8878   */\n      revert\n        /* \"#utility.yul\":8818:8880   */\n    tag_397:\n        /* \"#utility.yul\":8766:8886   */\n      pop\n      jump\t// out\n        /* \"#utility.yul\":8892:9033   */\n    tag_284:\n        /* \"#utility.yul\":8948:8953   */\n      0x00\n        /* \"#utility.yul\":8979:8985   */\n      dup2\n        /* \"#utility.yul\":8973:8986   */\n      mload\n        /* \"#utility.yul\":8964:8986   */\n      swap1\n      pop\n        /* \"#utility.yul\":8995:9027   */\n      tag_399\n        /* \"#utility.yul\":9021:9026   */\n      dup2\n        /* \"#utility.yul\":8995:9027   */\n      tag_283\n      jump\t// in\n    tag_399:\n        /* \"#utility.yul\":8892:9033   */\n      swap3\n      swap2\n      pop\n      pop\n      jump\t// out\n        /* \"#utility.yul\":9039:9155   */\n    tag_285:\n        /* \"#utility.yul\":9109:9130   */\n      tag_401\n        /* \"#utility.yul\":9124:9129   */\n      dup2\n        /* \"#utility.yul\":9109:9130   */\n      tag_259\n      jump\t// in\n    tag_401:\n        /* \"#utility.yul\":9102:9107   */\n      dup2\n        /* \"#utility.yul\":9099:9131   */\n      eq\n        /* \"#utility.yul\":9089:9149   */\n      tag_402\n      jumpi\n        /* \"#utility.yul\":9145:9146   */\n      0x00\n        /* \"#utility.yul\":9142:9143   */\n      dup1\n        /* \"#utility.yul\":9135:9147   */\n      revert\n        /* \"#utility.yul\":9089:9149   */\n    tag_402:\n        /* \"#utility.yul\":9039:9155   */\n      pop\n      jump\t// out\n        /* \"#utility.yul\":9161:9298   */\n    tag_286:\n        /* \"#utility.yul\":9215:9220   */\n      0x00\n        /* \"#utility.yul\":9246:9252   */\n      dup2\n        /* \"#utility.yul\":9240:9253   */\n      mload\n        /* \"#utility.yul\":9231:9253   */\n      swap1\n      pop\n        /* \"#utility.yul\":9262:9292   */\n      tag_404\n        /* \"#utility.yul\":9286:9291   */\n      dup2\n        /* \"#utility.yul\":9262:9292   */\n      tag_285\n      jump\t// in\n    tag_404:\n        /* \"#utility.yul\":9161:9298   */\n      swap3\n      swap2\n      pop\n      pop\n      jump\t// out\n        /* \"#utility.yul\":9304:9959   */\n    tag_173:\n        /* \"#utility.yul\":9388:9394   */\n      0x00\n        /* \"#utility.yul\":9396:9402   */\n      dup1\n        /* \"#utility.yul\":9404:9410   */\n      0x00\n        /* \"#utility.yul\":9453:9455   */\n      0x60\n        /* \"#utility.yul\":9441:9450   */\n      dup5\n        /* \"#utility.yul\":9432:9439   */\n      dup7\n        /* \"#utility.yul\":9428:9451   */\n      sub\n        /* \"#utility.yul\":9424:9456   */\n      slt\n        /* \"#utility.yul\":9421:9540   */\n      iszero\n      tag_406\n      jumpi\n        /* \"#utility.yul\":9459:9538   */\n      tag_407\n      tag_253\n      jump\t// in\n    tag_407:\n        /* \"#utility.yul\":9421:9540   */\n    tag_406:\n        /* \"#utility.yul\":9579:9580   */\n      0x00\n        /* \"#utility.yul\":9604:9668   */\n      tag_408\n        /* \"#utility.yul\":9660:9667   */\n      dup7\n        /* \"#utility.yul\":9651:9657   */\n      dup3\n        /* \"#utility.yul\":9640:9649   */\n      dup8\n        /* \"#utility.yul\":9636:9658   */\n      add\n        /* \"#utility.yul\":9604:9668   */\n      tag_281\n      jump\t// in\n    tag_408:\n        /* \"#utility.yul\":9594:9668   */\n      swap4\n      pop\n        /* \"#utility.yul\":9550:9678   */\n      pop\n        /* \"#utility.yul\":9717:9719   */\n      0x20\n        /* \"#utility.yul\":9743:9806   */\n      tag_409\n        /* \"#utility.yul\":9798:9805   */\n      dup7\n        /* \"#utility.yul\":9789:9795   */\n      dup3\n        /* \"#utility.yul\":9778:9787   */\n      dup8\n        /* \"#utility.yul\":9774:9796   */\n      add\n        /* \"#utility.yul\":9743:9806   */\n      tag_284\n      jump\t// in\n    tag_409:\n        /* \"#utility.yul\":9733:9806   */\n      swap3\n      pop\n        /* \"#utility.yul\":9688:9816   */\n      pop\n        /* \"#utility.yul\":9855:9857   */\n      0x40\n        /* \"#utility.yul\":9881:9942   */\n      tag_410\n        /* \"#utility.yul\":9934:9941   */\n      dup7\n        /* \"#utility.yul\":9925:9931   */\n      dup3\n        /* \"#utility.yul\":9914:9923   */\n      dup8\n        /* \"#utility.yul\":9910:9932   */\n      add\n        /* \"#utility.yul\":9881:9942   */\n      tag_286\n      jump\t// in\n    tag_410:\n        /* \"#utility.yul\":9871:9942   */\n      swap2\n      pop\n        /* \"#utility.yul\":9826:9952   */\n      pop\n        /* \"#utility.yul\":9304:9959   */\n      swap3\n      pop\n      swap3\n      pop\n      swap3\n      jump\t// out\n        /* \"#utility.yul\":9965:10128   */\n    tag_287:\n        /* \"#utility.yul\":10105:10120   */\n      0x63616e6e6f7420726566756e6400000000000000000000000000000000000000\n        /* \"#utility.yul\":10101:10102   */\n      0x00\n        /* \"#utility.yul\":10093:10099   */\n      dup3\n        /* \"#utility.yul\":10089:10103   */\n      add\n        /* \"#utility.yul\":10082:10121   */\n      mstore\n        /* \"#utility.yul\":9965:10128   */\n      pop\n      jump\t// out\n        /* \"#utility.yul\":10134:10500   */\n    tag_288:\n        /* \"#utility.yul\":10276:10279   */\n      0x00\n        /* \"#utility.yul\":10297:10364   */\n      tag_413\n        /* \"#utility.yul\":10361:10363   */\n      0x0d\n        /* \"#utility.yul\":10356:10359   */\n      dup4\n        /* \"#utility.yul\":10297:10364   */\n      tag_276\n      jump\t// in\n    tag_413:\n        /* \"#utility.yul\":10290:10364   */\n      swap2\n      pop\n        /* \"#utility.yul\":10373:10466   */\n      tag_414\n        /* \"#utility.yul\":10462:10465   */\n      dup3\n        /* \"#utility.yul\":10373:10466   */\n      tag_287\n      jump\t// in\n    tag_414:\n        /* \"#utility.yul\":10491:10493   */\n      0x20\n        /* \"#utility.yul\":10486:10489   */\n      dup3\n        /* \"#utility.yul\":10482:10494   */\n      add\n        /* \"#utility.yul\":10475:10494   */\n      swap1\n      pop\n        /* \"#utility.yul\":10134:10500   */\n      swap2\n      swap1\n      pop\n      jump\t// out\n        /* \"#utility.yul\":10506:10925   */\n    tag_180:\n        /* \"#utility.yul\":10672:10676   */\n      0x00\n        /* \"#utility.yul\":10710:10712   */\n      0x20\n        /* \"#utility.yul\":10699:10708   */\n      dup3\n        /* \"#utility.yul\":10695:10713   */\n      add\n        /* \"#utility.yul\":10687:10713   */\n      swap1\n      pop\n        /* \"#utility.yul\":10759:10768   */\n      dup2\n        /* \"#utility.yul\":10753:10757   */\n      dup2\n        /* \"#utility.yul\":10749:10769   */\n      sub\n        /* \"#utility.yul\":10745:10746   */\n      0x00\n        /* \"#utility.yul\":10734:10743   */\n      dup4\n        /* \"#utility.yul\":10730:10747   */\n      add\n        /* \"#utility.yul\":10723:10770   */\n      mstore\n        /* \"#utility.yul\":10787:10918   */\n      tag_416\n        /* \"#utility.yul\":10913:10917   */\n      dup2\n        /* \"#utility.yul\":10787:10918   */\n      tag_288\n      jump\t// in\n    tag_416:\n        /* \"#utility.yul\":10779:10918   */\n      swap1\n      pop\n        /* \"#utility.yul\":10506:10925   */\n      swap2\n      swap1\n      pop\n      jump\t// out\n        /* \"#utility.yul\":10931:11107   */\n    tag_209:\n        /* \"#utility.yul\":10963:10964   */\n      0x00\n        /* \"#utility.yul\":10980:11000   */\n      tag_418\n        /* \"#utility.yul\":10998:10999   */\n      dup3\n        /* \"#utility.yul\":10980:11000   */\n      tag_250\n      jump\t// in\n    tag_418:\n        /* \"#utility.yul\":10975:11000   */\n      swap2\n      pop\n        /* \"#utility.yul\":11014:11034   */\n      tag_419\n        /* \"#utility.yul\":11032:11033   */\n      dup4\n        /* \"#utility.yul\":11014:11034   */\n      tag_250\n      jump\t// in\n    tag_419:\n        /* \"#utility.yul\":11009:11034   */\n      swap3\n      pop\n        /* \"#utility.yul\":11053:11054   */\n      dup3\n        /* \"#utility.yul\":11043:11078   */\n      tag_420\n      jumpi\n        /* \"#utility.yul\":11058:11076   */\n      tag_421\n      tag_280\n      jump\t// in\n    tag_421:\n        /* \"#utility.yul\":11043:11078   */\n    tag_420:\n        /* \"#utility.yul\":11099:11100   */\n      dup3\n        /* \"#utility.yul\":11096:11097   */\n      dup3\n        /* \"#utility.yul\":11092:11101   */\n      mod\n        /* \"#utility.yul\":11087:11101   */\n      swap1\n      pop\n        /* \"#utility.yul\":10931:11107   */\n      swap3\n      swap2\n      pop\n      pop\n      jump\t// out\n\n    auxdata: 0xa26469706673582212209bbeea2f9705506efcda3661686be32c34541ddeb11b065536a6699cf7c0e04864736f6c634300081a0033\n}\n",
				"bytecode": {
					"linkReferences": {},
					"object": "60806040525f6002555f6003555f6004555f600855601e600955348015610024575f80fd5b50604051611b8a380380611b8a8339818101604052810190610046919061012a565b815f806101000a81548173ffffffffffffffffffffffffffffffffffffffff021916908373ffffffffffffffffffffffffffffffffffffffff1602179055508060015f6101000a81548173ffffffffffffffffffffffffffffffffffffffff021916908373ffffffffffffffffffffffffffffffffffffffff1602179055505050610168565b5f80fd5b5f73ffffffffffffffffffffffffffffffffffffffff82169050919050565b5f6100f9826100d0565b9050919050565b610109816100ef565b8114610113575f80fd5b50565b5f8151905061012481610100565b92915050565b5f80604083850312156101405761013f6100cc565b5b5f61014d85828601610116565b925050602061015e85828601610116565b9150509250929050565b611a15806101755f395ff3fe6080604052600436106100dc575f3560e01c80639d7b3f2d1161007e578063c876e61511610058578063c876e61514610286578063d84c1ac9146102b0578063f14fcbc8146102c6578063f71d96cb146102ee576100dc565b80639d7b3f2d146101f6578063a040478d14610220578063c08d1fe51461025c576100dc565b806327b5db8a116100ba57806327b5db8a146101705780633c6a7f9b1461017a578063701fd0f1146101a457806390d5d0c3146101cc576100dc565b8063086f7815146100e0578063190cf7451461010a578063228cb73314610146575b5f80fd5b3480156100eb575f80fd5b506100f461032a565b6040516101019190611401565b60405180910390f35b348015610115575f80fd5b50610130600480360381019061012b9190611478565b610330565b60405161013d91906114bd565b60405180910390f35b348015610151575f80fd5b5061015a61034d565b6040516101679190611401565b60405180910390f35b610178610353565b005b348015610185575f80fd5b5061018e61055b565b60405161019b9190611531565b60405180910390f35b3480156101af575f80fd5b506101ca60048036038101906101c5919061157d565b61057e565b005b3480156101d7575f80fd5b506101e0610703565b6040516101ed9190611401565b60405180910390f35b348015610201575f80fd5b5061020a610709565b60405161021791906115c8565b60405180910390f35b34801561022b575f80fd5b5061024660048036038101906102419190611478565b61072e565b6040516102539190611401565b60405180910390f35b348015610267575f80fd5b50610270610743565b60405161027d9190611401565b60405180910390f35b348015610291575f80fd5b5061029a610749565b6040516102a79190611401565b60405180910390f35b3480156102bb575f80fd5b506102c461074f565b005b3480156102d1575f80fd5b506102ec60048036038101906102e7919061157d565b610d3f565b005b3480156102f9575f80fd5b50610314600480360381019061030f919061160b565b610ee5565b6040516103219190611645565b60405180910390f35b60085481565b6006602052805f5260405f205f915054906101000a900460ff1681565b60035481565b6002805410610360575f80fd5b5f60025411156103dd5760075f8154811061037e5761037d61165e565b5b905f5260205f20015f9054906101000a900473ffffffffffffffffffffffffffffffffffffffff1673ffffffffffffffffffffffffffffffffffffffff163373ffffffffffffffffffffffffffffffffffffffff16036103dc575f80fd5b5b670de0b6b3a764000034146103f0575f80fd5b3460035f82825461040191906116b8565b92505081905550600160065f3373ffffffffffffffffffffffffffffffffffffffff1673ffffffffffffffffffffffffffffffffffffffff1681526020019081526020015f205f6101000a81548160ff021916908315150217905550600733908060018154018082558091505060019003905f5260205f20015f9091909190916101000a81548173ffffffffffffffffffffffffffffffffffffffff021916908373ffffffffffffffffffffffffffffffffffffffff16021790555060025f8154809291906104cf906116eb565b9190505550600160025403610559575f8054906101000a900473ffffffffffffffffffffffffffffffffffffffff1673ffffffffffffffffffffffffffffffffffffffff1663a63f7c536040518163ffffffff1660e01b81526004015f604051808303815f87803b158015610542575f80fd5b505af1158015610554573d5f803e3d5ffd5b505050505b565b5f8054906101000a900473ffffffffffffffffffffffffffffffffffffffff1681565b600280541461058b575f80fd5b600260085414610599575f80fd5b60015f9054906101000a900473ffffffffffffffffffffffffffffffffffffffff1673ffffffffffffffffffffffffffffffffffffffff1663ad48779082336040518363ffffffff1660e01b81526004016105f5929190611741565b5f604051808303815f87803b15801561060c575f80fd5b505af115801561061e573d5f803e3d5ffd5b505050505f81601f602081106106375761063661165e565b5b1a60f81b60f81c60ff1690505f8110158015610654575060048111155b610693576040517f08c379a000000000000000000000000000000000000000000000000000000000815260040161068a906117c2565b60405180910390fd5b8060055f3373ffffffffffffffffffffffffffffffffffffffff1673ffffffffffffffffffffffffffffffffffffffff1681526020019081526020015f208190555060045f8154809291906106e7906116eb565b91905055506002600454036106ff576106fe610f20565b5b5050565b60025481565b60015f9054906101000a900473ffffffffffffffffffffffffffffffffffffffff1681565b6005602052805f5260405f205f915090505481565b60095481565b60045481565b60016002541480156107ee57506009545f8054906101000a900473ffffffffffffffffffffffffffffffffffffffff1673ffffffffffffffffffffffffffffffffffffffff1663bc06b8cd6040518163ffffffff1660e01b8152600401602060405180830381865afa1580156107c7573d5f803e3d5ffd5b505050506040513d601f19601f820116820180604052508101906107eb91906117f4565b10155b1561087e575f60075f815481106108085761080761165e565b5b905f5260205f20015f9054906101000a900473ffffffffffffffffffffffffffffffffffffffff1690508073ffffffffffffffffffffffffffffffffffffffff166108fc60035490811502906040515f60405180830381858888f19350505050158015610877573d5f803e3d5ffd5b5050610d35565b6002805414801561089057505f600454145b801561092957506009545f8054906101000a900473ffffffffffffffffffffffffffffffffffffffff1673ffffffffffffffffffffffffffffffffffffffff1663bc06b8cd6040518163ffffffff1660e01b8152600401602060405180830381865afa158015610902573d5f803e3d5ffd5b505050506040513d601f19601f8201168201806040525081019061092691906117f4565b10155b15610a58575f60075f815481106109435761094261165e565b5b905f5260205f20015f9054906101000a900473ffffffffffffffffffffffffffffffffffffffff1690505f60076001815481106109835761098261165e565b5b905f5260205f20015f9054906101000a900473ffffffffffffffffffffffffffffffffffffffff1690508173ffffffffffffffffffffffffffffffffffffffff166108fc60026003546109d6919061184c565b90811502906040515f60405180830381858888f193505050501580156109fe573d5f803e3d5ffd5b508073ffffffffffffffffffffffffffffffffffffffff166108fc6002600354610a28919061184c565b90811502906040515f60405180830381858888f19350505050158015610a50573d5f803e3d5ffd5b505050610d34565b60028054148015610a6c5750600160045411155b8015610b0557506009545f8054906101000a900473ffffffffffffffffffffffffffffffffffffffff1673ffffffffffffffffffffffffffffffffffffffff1663bc06b8cd6040518163ffffffff1660e01b8152600401602060405180830381865afa158015610ade573d5f803e3d5ffd5b505050506040513d601f19601f82011682018060405250810190610b0291906117f4565b10155b15610cf2575f3390505f60075f81548110610b2357610b2261165e565b5b905f5260205f20015f9054906101000a900473ffffffffffffffffffffffffffffffffffffffff1673ffffffffffffffffffffffffffffffffffffffff163373ffffffffffffffffffffffffffffffffffffffff1603610bc1576007600181548110610b9257610b9161165e565b5b905f5260205f20015f9054906101000a900473ffffffffffffffffffffffffffffffffffffffff169050610c00565b60075f81548110610bd557610bd461165e565b5b905f5260205f20015f9054906101000a900473ffffffffffffffffffffffffffffffffffffffff1690505b5f60015f9054906101000a900473ffffffffffffffffffffffffffffffffffffffff1673ffffffffffffffffffffffffffffffffffffffff16637b43a8e6836040518263ffffffff1660e01b8152600401610c5b9190611645565b606060405180830381865afa158015610c76573d5f803e3d5ffd5b505050506040513d601f19601f82011682018060405250810190610c9a91906118f7565b9250505080610cea578273ffffffffffffffffffffffffffffffffffffffff166108fc60035490811502906040515f60405180830381858888f19350505050158015610ce8573d5f803e3d5ffd5b505b505050610d33565b5f610d32576040517f08c379a0000000000000000000000000000000000000000000000000000000008152600401610d2990611991565b60405180910390fd5b5b5b5b610d3d611266565b565b6002805414610d4c575f80fd5b60065f3373ffffffffffffffffffffffffffffffffffffffff1673ffffffffffffffffffffffffffffffffffffffff1681526020019081526020015f205f9054906101000a900460ff16610d9e575f80fd5b60015f9054906101000a900473ffffffffffffffffffffffffffffffffffffffff1673ffffffffffffffffffffffffffffffffffffffff16635a74610182336040518363ffffffff1660e01b8152600401610dfa929190611741565b5f604051808303815f87803b158015610e11575f80fd5b505af1158015610e23573d5f803e3d5ffd5b5050505060065f3373ffffffffffffffffffffffffffffffffffffffff1673ffffffffffffffffffffffffffffffffffffffff1681526020019081526020015f205f9054906101000a900460ff1615610ee25760085f815480929190610e88906116eb565b91905055505f60065f3373ffffffffffffffffffffffffffffffffffffffff1673ffffffffffffffffffffffffffffffffffffffff1681526020019081526020015f205f6101000a81548160ff0219169083151502179055505b50565b60078181548110610ef4575f80fd5b905f5260205f20015f915054906101000a900473ffffffffffffffffffffffffffffffffffffffff1681565b5f60055f60075f81548110610f3857610f3761165e565b5b905f5260205f20015f9054906101000a900473ffffffffffffffffffffffffffffffffffffffff1673ffffffffffffffffffffffffffffffffffffffff1673ffffffffffffffffffffffffffffffffffffffff1681526020019081526020015f205490505f60055f6007600181548110610fb557610fb461165e565b5b905f5260205f20015f9054906101000a900473ffffffffffffffffffffffffffffffffffffffff1673ffffffffffffffffffffffffffffffffffffffff1673ffffffffffffffffffffffffffffffffffffffff1681526020019081526020015f205490505f60075f8154811061102e5761102d61165e565b5b905f5260205f20015f9054906101000a900473ffffffffffffffffffffffffffffffffffffffff1690505f600760018154811061106e5761106d61165e565b5b905f5260205f20015f9054906101000a900473ffffffffffffffffffffffffffffffffffffffff1690508260036001866110a891906116b8565b6110b291906119af565b14806110d557508260056003866110c991906116b8565b6110d391906119af565b145b15611125578173ffffffffffffffffffffffffffffffffffffffff166108fc60035490811502906040515f60405180830381858888f1935050505015801561111f573d5f803e3d5ffd5b50611258565b83600360018561113591906116b8565b61113f91906119af565b1480611162575083600560038561115691906116b8565b61116091906119af565b145b156111b2578073ffffffffffffffffffffffffffffffffffffffff166108fc60035490811502906040515f60405180830381858888f193505050501580156111ac573d5f803e3d5ffd5b50611257565b8173ffffffffffffffffffffffffffffffffffffffff166108fc60026003546111db919061184c565b90811502906040515f60405180830381858888f19350505050158015611203573d5f803e3d5ffd5b508073ffffffffffffffffffffffffffffffffffffffff166108fc600260035461122d919061184c565b90811502906040515f60405180830381858888f19350505050158015611255573d5f803e3d5ffd5b505b5b611260611266565b50505050565b5f6003819055505f5b60078054905081101561138b5760055f600783815481106112935761129261165e565b5b905f5260205f20015f9054906101000a900473ffffffffffffffffffffffffffffffffffffffff1673ffffffffffffffffffffffffffffffffffffffff1673ffffffffffffffffffffffffffffffffffffffff1681526020019081526020015f205f905560065f6007838154811061130e5761130d61165e565b5b905f5260205f20015f9054906101000a900473ffffffffffffffffffffffffffffffffffffffff1673ffffffffffffffffffffffffffffffffffffffff1673ffffffffffffffffffffffffffffffffffffffff1681526020019081526020015f205f6101000a81549060ff0219169055808060010191505061126f565b5060075f61139991906113b0565b5f6002819055505f6008819055505f600481905550565b5080545f8255905f5260205f20908101906113cb91906113ce565b50565b5b808211156113e5575f815f9055506001016113cf565b5090565b5f819050919050565b6113fb816113e9565b82525050565b5f6020820190506114145f8301846113f2565b92915050565b5f80fd5b5f73ffffffffffffffffffffffffffffffffffffffff82169050919050565b5f6114478261141e565b9050919050565b6114578161143d565b8114611461575f80fd5b50565b5f813590506114728161144e565b92915050565b5f6020828403121561148d5761148c61141a565b5b5f61149a84828501611464565b91505092915050565b5f8115159050919050565b6114b7816114a3565b82525050565b5f6020820190506114d05f8301846114ae565b92915050565b5f819050919050565b5f6114f96114f46114ef8461141e565b6114d6565b61141e565b9050919050565b5f61150a826114df565b9050919050565b5f61151b82611500565b9050919050565b61152b81611511565b82525050565b5f6020820190506115445f830184611522565b92915050565b5f819050919050565b61155c8161154a565b8114611566575f80fd5b50565b5f8135905061157781611553565b92915050565b5f602082840312156115925761159161141a565b5b5f61159f84828501611569565b91505092915050565b5f6115b282611500565b9050919050565b6115c2816115a8565b82525050565b5f6020820190506115db5f8301846115b9565b92915050565b6115ea816113e9565b81146115f4575f80fd5b50565b5f81359050611605816115e1565b92915050565b5f602082840312156116205761161f61141a565b5b5f61162d848285016115f7565b91505092915050565b61163f8161143d565b82525050565b5f6020820190506116585f830184611636565b92915050565b7f4e487b71000000000000000000000000000000000000000000000000000000005f52603260045260245ffd5b7f4e487b71000000000000000000000000000000000000000000000000000000005f52601160045260245ffd5b5f6116c2826113e9565b91506116cd836113e9565b92508282019050808211156116e5576116e461168b565b5b92915050565b5f6116f5826113e9565b91507fffffffffffffffffffffffffffffffffffffffffffffffffffffffffffffffff82036117275761172661168b565b5b600182019050919050565b61173b8161154a565b82525050565b5f6040820190506117545f830185611732565b6117616020830184611636565b9392505050565b5f82825260208201905092915050565b7f63686f696365206973206e6f742076616c69642e0000000000000000000000005f82015250565b5f6117ac601483611768565b91506117b782611778565b602082019050919050565b5f6020820190508181035f8301526117d9816117a0565b9050919050565b5f815190506117ee816115e1565b92915050565b5f602082840312156118095761180861141a565b5b5f611816848285016117e0565b91505092915050565b7f4e487b71000000000000000000000000000000000000000000000000000000005f52601260045260245ffd5b5f611856826113e9565b9150611861836113e9565b9250826118715761187061181f565b5b828204905092915050565b5f8151905061188a81611553565b92915050565b5f67ffffffffffffffff82169050919050565b6118ac81611890565b81146118b6575f80fd5b50565b5f815190506118c7816118a3565b92915050565b6118d6816114a3565b81146118e0575f80fd5b50565b5f815190506118f1816118cd565b92915050565b5f805f6060848603121561190e5761190d61141a565b5b5f61191b8682870161187c565b935050602061192c868287016118b9565b925050604061193d868287016118e3565b9150509250925092565b7f63616e6e6f7420726566756e64000000000000000000000000000000000000005f82015250565b5f61197b600d83611768565b915061198682611947565b602082019050919050565b5f6020820190508181035f8301526119a88161196f565b9050919050565b5f6119b9826113e9565b91506119c4836113e9565b9250826119d4576119d361181f565b5b82820690509291505056fea26469706673582212209bbeea2f9705506efcda3661686be32c34541ddeb11b065536a6699cf7c0e04864736f6c634300081a0033",
					"opcodes": "PUSH1 0x80 PUSH1 0x40 MSTORE PUSH0 PUSH1 0x2 SSTORE PUSH0 PUSH1 0x3 SSTORE PUSH0 PUSH1 0x4 SSTORE PUSH0 PUSH1 0x8 SSTORE PUSH1 0x1E PUSH1 0x9 SSTORE CALLVALUE DUP1 ISZERO PUSH2 0x24 JUMPI PUSH0 DUP1 REVERT JUMPDEST POP PUSH1 0x40 MLOAD PUSH2 0x1B8A CODESIZE SUB DUP1 PUSH2 0x1B8A DUP4 CODECOPY DUP2 DUP2 ADD PUSH1 0x40 MSTORE DUP2 ADD SWAP1 PUSH2 0x46 SWAP2 SWAP1 PUSH2 0x12A JUMP JUMPDEST DUP2 PUSH0 DUP1 PUSH2 0x100 EXP DUP2 SLOAD DUP2 PUSH20 0xFFFFFFFFFFFFFFFFFFFFFFFFFFFFFFFFFFFFFFFF MUL NOT AND SWAP1 DUP4 PUSH20 0xFFFFFFFFFFFFFFFFFFFFFFFFFFFFFFFFFFFFFFFF AND MUL OR SWAP1 SSTORE POP DUP1 PUSH1 0x1 PUSH0 PUSH2 0x100 EXP DUP2 SLOAD DUP2 PUSH20 0xFFFFFFFFFFFFFFFFFFFFFFFFFFFFFFFFFFFFFFFF MUL NOT AND SWAP1 DUP4 PUSH20 0xFFFFFFFFFFFFFFFFFFFFFFFFFFFFFFFFFFFFFFFF AND MUL OR SWAP1 SSTORE POP POP POP PUSH2 0x168 JUMP JUMPDEST PUSH0 DUP1 REVERT JUMPDEST PUSH0 PUSH20 0xFFFFFFFFFFFFFFFFFFFFFFFFFFFFFFFFFFFFFFFF DUP3 AND SWAP1 POP SWAP2 SWAP1 POP JUMP JUMPDEST PUSH0 PUSH2 0xF9 DUP3 PUSH2 0xD0 JUMP JUMPDEST SWAP1 POP SWAP2 SWAP1 POP JUMP JUMPDEST PUSH2 0x109 DUP2 PUSH2 0xEF JUMP JUMPDEST DUP2 EQ PUSH2 0x113 JUMPI PUSH0 DUP1 REVERT JUMPDEST POP JUMP JUMPDEST PUSH0 DUP2 MLOAD SWAP1 POP PUSH2 0x124 DUP2 PUSH2 0x100 JUMP JUMPDEST SWAP3 SWAP2 POP POP JUMP JUMPDEST PUSH0 DUP1 PUSH1 0x40 DUP4 DUP6 SUB SLT ISZERO PUSH2 0x140 JUMPI PUSH2 0x13F PUSH2 0xCC JUMP JUMPDEST JUMPDEST PUSH0 PUSH2 0x14D DUP6 DUP3 DUP7 ADD PUSH2 0x116 JUMP JUMPDEST SWAP3 POP POP PUSH1 0x20 PUSH2 0x15E DUP6 DUP3 DUP7 ADD PUSH2 0x116 JUMP JUMPDEST SWAP2 POP POP SWAP3 POP SWAP3 SWAP1 POP JUMP JUMPDEST PUSH2 0x1A15 DUP1 PUSH2 0x175 PUSH0 CODECOPY PUSH0 RETURN INVALID PUSH1 0x80 PUSH1 0x40 MSTORE PUSH1 0x4 CALLDATASIZE LT PUSH2 0xDC JUMPI PUSH0 CALLDATALOAD PUSH1 0xE0 SHR DUP1 PUSH4 0x9D7B3F2D GT PUSH2 0x7E JUMPI DUP1 PUSH4 0xC876E615 GT PUSH2 0x58 JUMPI DUP1 PUSH4 0xC876E615 EQ PUSH2 0x286 JUMPI DUP1 PUSH4 0xD84C1AC9 EQ PUSH2 0x2B0 JUMPI DUP1 PUSH4 0xF14FCBC8 EQ PUSH2 0x2C6 JUMPI DUP1 PUSH4 0xF71D96CB EQ PUSH2 0x2EE JUMPI PUSH2 0xDC JUMP JUMPDEST DUP1 PUSH4 0x9D7B3F2D EQ PUSH2 0x1F6 JUMPI DUP1 PUSH4 0xA040478D EQ PUSH2 0x220 JUMPI DUP1 PUSH4 0xC08D1FE5 EQ PUSH2 0x25C JUMPI PUSH2 0xDC JUMP JUMPDEST DUP1 PUSH4 0x27B5DB8A GT PUSH2 0xBA JUMPI DUP1 PUSH4 0x27B5DB8A EQ PUSH2 0x170 JUMPI DUP1 PUSH4 0x3C6A7F9B EQ PUSH2 0x17A JUMPI DUP1 PUSH4 0x701FD0F1 EQ PUSH2 0x1A4 JUMPI DUP1 PUSH4 0x90D5D0C3 EQ PUSH2 0x1CC JUMPI PUSH2 0xDC JUMP JUMPDEST DUP1 PUSH4 0x86F7815 EQ PUSH2 0xE0 JUMPI DUP1 PUSH4 0x190CF745 EQ PUSH2 0x10A JUMPI DUP1 PUSH4 0x228CB733 EQ PUSH2 0x146 JUMPI JUMPDEST PUSH0 DUP1 REVERT JUMPDEST CALLVALUE DUP1 ISZERO PUSH2 0xEB JUMPI PUSH0 DUP1 REVERT JUMPDEST POP PUSH2 0xF4 PUSH2 0x32A JUMP JUMPDEST PUSH1 0x40 MLOAD PUSH2 0x101 SWAP2 SWAP1 PUSH2 0x1401 JUMP JUMPDEST PUSH1 0x40 MLOAD DUP1 SWAP2 SUB SWAP1 RETURN JUMPDEST CALLVALUE DUP1 ISZERO PUSH2 0x115 JUMPI PUSH0 DUP1 REVERT JUMPDEST POP PUSH2 0x130 PUSH1 0x4 DUP1 CALLDATASIZE SUB DUP2 ADD SWAP1 PUSH2 0x12B SWAP2 SWAP1 PUSH2 0x1478 JUMP JUMPDEST PUSH2 0x330 JUMP JUMPDEST PUSH1 0x40 MLOAD PUSH2 0x13D SWAP2 SWAP1 PUSH2 0x14BD JUMP JUMPDEST PUSH1 0x40 MLOAD DUP1 SWAP2 SUB SWAP1 RETURN JUMPDEST CALLVALUE DUP1 ISZERO PUSH2 0x151 JUMPI PUSH0 DUP1 REVERT JUMPDEST POP PUSH2 0x15A PUSH2 0x34D JUMP JUMPDEST PUSH1 0x40 MLOAD PUSH2 0x167 SWAP2 SWAP1 PUSH2 0x1401 JUMP JUMPDEST PUSH1 0x40 MLOAD DUP1 SWAP2 SUB SWAP1 RETURN JUMPDEST PUSH2 0x178 PUSH2 0x353 JUMP JUMPDEST STOP JUMPDEST CALLVALUE DUP1 ISZERO PUSH2 0x185 JUMPI PUSH0 DUP1 REVERT JUMPDEST POP PUSH2 0x18E PUSH2 0x55B JUMP JUMPDEST PUSH1 0x40 MLOAD PUSH2 0x19B SWAP2 SWAP1 PUSH2 0x1531 JUMP JUMPDEST PUSH1 0x40 MLOAD DUP1 SWAP2 SUB SWAP1 RETURN JUMPDEST CALLVALUE DUP1 ISZERO PUSH2 0x1AF JUMPI PUSH0 DUP1 REVERT JUMPDEST POP PUSH2 0x1CA PUSH1 0x4 DUP1 CALLDATASIZE SUB DUP2 ADD SWAP1 PUSH2 0x1C5 SWAP2 SWAP1 PUSH2 0x157D JUMP JUMPDEST PUSH2 0x57E JUMP JUMPDEST STOP JUMPDEST CALLVALUE DUP1 ISZERO PUSH2 0x1D7 JUMPI PUSH0 DUP1 REVERT JUMPDEST POP PUSH2 0x1E0 PUSH2 0x703 JUMP JUMPDEST PUSH1 0x40 MLOAD PUSH2 0x1ED SWAP2 SWAP1 PUSH2 0x1401 JUMP JUMPDEST PUSH1 0x40 MLOAD DUP1 SWAP2 SUB SWAP1 RETURN JUMPDEST CALLVALUE DUP1 ISZERO PUSH2 0x201 JUMPI PUSH0 DUP1 REVERT JUMPDEST POP PUSH2 0x20A PUSH2 0x709 JUMP JUMPDEST PUSH1 0x40 MLOAD PUSH2 0x217 SWAP2 SWAP1 PUSH2 0x15C8 JUMP JUMPDEST PUSH1 0x40 MLOAD DUP1 SWAP2 SUB SWAP1 RETURN JUMPDEST CALLVALUE DUP1 ISZERO PUSH2 0x22B JUMPI PUSH0 DUP1 REVERT JUMPDEST POP PUSH2 0x246 PUSH1 0x4 DUP1 CALLDATASIZE SUB DUP2 ADD SWAP1 PUSH2 0x241 SWAP2 SWAP1 PUSH2 0x1478 JUMP JUMPDEST PUSH2 0x72E JUMP JUMPDEST PUSH1 0x40 MLOAD PUSH2 0x253 SWAP2 SWAP1 PUSH2 0x1401 JUMP JUMPDEST PUSH1 0x40 MLOAD DUP1 SWAP2 SUB SWAP1 RETURN JUMPDEST CALLVALUE DUP1 ISZERO PUSH2 0x267 JUMPI PUSH0 DUP1 REVERT JUMPDEST POP PUSH2 0x270 PUSH2 0x743 JUMP JUMPDEST PUSH1 0x40 MLOAD PUSH2 0x27D SWAP2 SWAP1 PUSH2 0x1401 JUMP JUMPDEST PUSH1 0x40 MLOAD DUP1 SWAP2 SUB SWAP1 RETURN JUMPDEST CALLVALUE DUP1 ISZERO PUSH2 0x291 JUMPI PUSH0 DUP1 REVERT JUMPDEST POP PUSH2 0x29A PUSH2 0x749 JUMP JUMPDEST PUSH1 0x40 MLOAD PUSH2 0x2A7 SWAP2 SWAP1 PUSH2 0x1401 JUMP JUMPDEST PUSH1 0x40 MLOAD DUP1 SWAP2 SUB SWAP1 RETURN JUMPDEST CALLVALUE DUP1 ISZERO PUSH2 0x2BB JUMPI PUSH0 DUP1 REVERT JUMPDEST POP PUSH2 0x2C4 PUSH2 0x74F JUMP JUMPDEST STOP JUMPDEST CALLVALUE DUP1 ISZERO PUSH2 0x2D1 JUMPI PUSH0 DUP1 REVERT JUMPDEST POP PUSH2 0x2EC PUSH1 0x4 DUP1 CALLDATASIZE SUB DUP2 ADD SWAP1 PUSH2 0x2E7 SWAP2 SWAP1 PUSH2 0x157D JUMP JUMPDEST PUSH2 0xD3F JUMP JUMPDEST STOP JUMPDEST CALLVALUE DUP1 ISZERO PUSH2 0x2F9 JUMPI PUSH0 DUP1 REVERT JUMPDEST POP PUSH2 0x314 PUSH1 0x4 DUP1 CALLDATASIZE SUB DUP2 ADD SWAP1 PUSH2 0x30F SWAP2 SWAP1 PUSH2 0x160B JUMP JUMPDEST PUSH2 0xEE5 JUMP JUMPDEST PUSH1 0x40 MLOAD PUSH2 0x321 SWAP2 SWAP1 PUSH2 0x1645 JUMP JUMPDEST PUSH1 0x40 MLOAD DUP1 SWAP2 SUB SWAP1 RETURN JUMPDEST PUSH1 0x8 SLOAD DUP2 JUMP JUMPDEST PUSH1 0x6 PUSH1 0x20 MSTORE DUP1 PUSH0 MSTORE PUSH1 0x40 PUSH0 KECCAK256 PUSH0 SWAP2 POP SLOAD SWAP1 PUSH2 0x100 EXP SWAP1 DIV PUSH1 0xFF AND DUP2 JUMP JUMPDEST PUSH1 0x3 SLOAD DUP2 JUMP JUMPDEST PUSH1 0x2 DUP1 SLOAD LT PUSH2 0x360 JUMPI PUSH0 DUP1 REVERT JUMPDEST PUSH0 PUSH1 0x2 SLOAD GT ISZERO PUSH2 0x3DD JUMPI PUSH1 0x7 PUSH0 DUP2 SLOAD DUP2 LT PUSH2 0x37E JUMPI PUSH2 0x37D PUSH2 0x165E JUMP JUMPDEST JUMPDEST SWAP1 PUSH0 MSTORE PUSH1 0x20 PUSH0 KECCAK256 ADD PUSH0 SWAP1 SLOAD SWAP1 PUSH2 0x100 EXP SWAP1 DIV PUSH20 0xFFFFFFFFFFFFFFFFFFFFFFFFFFFFFFFFFFFFFFFF AND PUSH20 0xFFFFFFFFFFFFFFFFFFFFFFFFFFFFFFFFFFFFFFFF AND CALLER PUSH20 0xFFFFFFFFFFFFFFFFFFFFFFFFFFFFFFFFFFFFFFFF AND SUB PUSH2 0x3DC JUMPI PUSH0 DUP1 REVERT JUMPDEST JUMPDEST PUSH8 0xDE0B6B3A7640000 CALLVALUE EQ PUSH2 0x3F0 JUMPI PUSH0 DUP1 REVERT JUMPDEST CALLVALUE PUSH1 0x3 PUSH0 DUP3 DUP3 SLOAD PUSH2 0x401 SWAP2 SWAP1 PUSH2 0x16B8 JUMP JUMPDEST SWAP3 POP POP DUP2 SWAP1 SSTORE POP PUSH1 0x1 PUSH1 0x6 PUSH0 CALLER PUSH20 0xFFFFFFFFFFFFFFFFFFFFFFFFFFFFFFFFFFFFFFFF AND PUSH20 0xFFFFFFFFFFFFFFFFFFFFFFFFFFFFFFFFFFFFFFFF AND DUP2 MSTORE PUSH1 0x20 ADD SWAP1 DUP2 MSTORE PUSH1 0x20 ADD PUSH0 KECCAK256 PUSH0 PUSH2 0x100 EXP DUP2 SLOAD DUP2 PUSH1 0xFF MUL NOT AND SWAP1 DUP4 ISZERO ISZERO MUL OR SWAP1 SSTORE POP PUSH1 0x7 CALLER SWAP1 DUP1 PUSH1 0x1 DUP2 SLOAD ADD DUP1 DUP3 SSTORE DUP1 SWAP2 POP POP PUSH1 0x1 SWAP1 SUB SWAP1 PUSH0 MSTORE PUSH1 0x20 PUSH0 KECCAK256 ADD PUSH0 SWAP1 SWAP2 SWAP1 SWAP2 SWAP1 SWAP2 PUSH2 0x100 EXP DUP2 SLOAD DUP2 PUSH20 0xFFFFFFFFFFFFFFFFFFFFFFFFFFFFFFFFFFFFFFFF MUL NOT AND SWAP1 DUP4 PUSH20 0xFFFFFFFFFFFFFFFFFFFFFFFFFFFFFFFFFFFFFFFF AND MUL OR SWAP1 SSTORE POP PUSH1 0x2 PUSH0 DUP2 SLOAD DUP1 SWAP3 SWAP2 SWAP1 PUSH2 0x4CF SWAP1 PUSH2 0x16EB JUMP JUMPDEST SWAP2 SWAP1 POP SSTORE POP PUSH1 0x1 PUSH1 0x2 SLOAD SUB PUSH2 0x559 JUMPI PUSH0 DUP1 SLOAD SWAP1 PUSH2 0x100 EXP SWAP1 DIV PUSH20 0xFFFFFFFFFFFFFFFFFFFFFFFFFFFFFFFFFFFFFFFF AND PUSH20 0xFFFFFFFFFFFFFFFFFFFFFFFFFFFFFFFFFFFFFFFF AND PUSH4 0xA63F7C53 PUSH1 0x40 MLOAD DUP2 PUSH4 0xFFFFFFFF AND PUSH1 0xE0 SHL DUP2 MSTORE PUSH1 0x4 ADD PUSH0 PUSH1 0x40 MLOAD DUP1 DUP4 SUB DUP2 PUSH0 DUP8 DUP1 EXTCODESIZE ISZERO DUP1 ISZERO PUSH2 0x542 JUMPI PUSH0 DUP1 REVERT JUMPDEST POP GAS CALL ISZERO DUP1 ISZERO PUSH2 0x554 JUMPI RETURNDATASIZE PUSH0 DUP1 RETURNDATACOPY RETURNDATASIZE PUSH0 REVERT JUMPDEST POP POP POP POP JUMPDEST JUMP JUMPDEST PUSH0 DUP1 SLOAD SWAP1 PUSH2 0x100 EXP SWAP1 DIV PUSH20 0xFFFFFFFFFFFFFFFFFFFFFFFFFFFFFFFFFFFFFFFF AND DUP2 JUMP JUMPDEST PUSH1 0x2 DUP1 SLOAD EQ PUSH2 0x58B JUMPI PUSH0 DUP1 REVERT JUMPDEST PUSH1 0x2 PUSH1 0x8 SLOAD EQ PUSH2 0x599 JUMPI PUSH0 DUP1 REVERT JUMPDEST PUSH1 0x1 PUSH0 SWAP1 SLOAD SWAP1 PUSH2 0x100 EXP SWAP1 DIV PUSH20 0xFFFFFFFFFFFFFFFFFFFFFFFFFFFFFFFFFFFFFFFF AND PUSH20 0xFFFFFFFFFFFFFFFFFFFFFFFFFFFFFFFFFFFFFFFF AND PUSH4 0xAD487790 DUP3 CALLER PUSH1 0x40 MLOAD DUP4 PUSH4 0xFFFFFFFF AND PUSH1 0xE0 SHL DUP2 MSTORE PUSH1 0x4 ADD PUSH2 0x5F5 SWAP3 SWAP2 SWAP1 PUSH2 0x1741 JUMP JUMPDEST PUSH0 PUSH1 0x40 MLOAD DUP1 DUP4 SUB DUP2 PUSH0 DUP8 DUP1 EXTCODESIZE ISZERO DUP1 ISZERO PUSH2 0x60C JUMPI PUSH0 DUP1 REVERT JUMPDEST POP GAS CALL ISZERO DUP1 ISZERO PUSH2 0x61E JUMPI RETURNDATASIZE PUSH0 DUP1 RETURNDATACOPY RETURNDATASIZE PUSH0 REVERT JUMPDEST POP POP POP POP PUSH0 DUP2 PUSH1 0x1F PUSH1 0x20 DUP2 LT PUSH2 0x637 JUMPI PUSH2 0x636 PUSH2 0x165E JUMP JUMPDEST JUMPDEST BYTE PUSH1 0xF8 SHL PUSH1 0xF8 SHR PUSH1 0xFF AND SWAP1 POP PUSH0 DUP2 LT ISZERO DUP1 ISZERO PUSH2 0x654 JUMPI POP PUSH1 0x4 DUP2 GT ISZERO JUMPDEST PUSH2 0x693 JUMPI PUSH1 0x40 MLOAD PUSH32 0x8C379A000000000000000000000000000000000000000000000000000000000 DUP2 MSTORE PUSH1 0x4 ADD PUSH2 0x68A SWAP1 PUSH2 0x17C2 JUMP JUMPDEST PUSH1 0x40 MLOAD DUP1 SWAP2 SUB SWAP1 REVERT JUMPDEST DUP1 PUSH1 0x5 PUSH0 CALLER PUSH20 0xFFFFFFFFFFFFFFFFFFFFFFFFFFFFFFFFFFFFFFFF AND PUSH20 0xFFFFFFFFFFFFFFFFFFFFFFFFFFFFFFFFFFFFFFFF AND DUP2 MSTORE PUSH1 0x20 ADD SWAP1 DUP2 MSTORE PUSH1 0x20 ADD PUSH0 KECCAK256 DUP2 SWAP1 SSTORE POP PUSH1 0x4 PUSH0 DUP2 SLOAD DUP1 SWAP3 SWAP2 SWAP1 PUSH2 0x6E7 SWAP1 PUSH2 0x16EB JUMP JUMPDEST SWAP2 SWAP1 POP SSTORE POP PUSH1 0x2 PUSH1 0x4 SLOAD SUB PUSH2 0x6FF JUMPI PUSH2 0x6FE PUSH2 0xF20 JUMP JUMPDEST JUMPDEST POP POP JUMP JUMPDEST PUSH1 0x2 SLOAD DUP2 JUMP JUMPDEST PUSH1 0x1 PUSH0 SWAP1 SLOAD SWAP1 PUSH2 0x100 EXP SWAP1 DIV PUSH20 0xFFFFFFFFFFFFFFFFFFFFFFFFFFFFFFFFFFFFFFFF AND DUP2 JUMP JUMPDEST PUSH1 0x5 PUSH1 0x20 MSTORE DUP1 PUSH0 MSTORE PUSH1 0x40 PUSH0 KECCAK256 PUSH0 SWAP2 POP SWAP1 POP SLOAD DUP2 JUMP JUMPDEST PUSH1 0x9 SLOAD DUP2 JUMP JUMPDEST PUSH1 0x4 SLOAD DUP2 JUMP JUMPDEST PUSH1 0x1 PUSH1 0x2 SLOAD EQ DUP1 ISZERO PUSH2 0x7EE JUMPI POP PUSH1 0x9 SLOAD PUSH0 DUP1 SLOAD SWAP1 PUSH2 0x100 EXP SWAP1 DIV PUSH20 0xFFFFFFFFFFFFFFFFFFFFFFFFFFFFFFFFFFFFFFFF AND PUSH20 0xFFFFFFFFFFFFFFFFFFFFFFFFFFFFFFFFFFFFFFFF AND PUSH4 0xBC06B8CD PUSH1 0x40 MLOAD DUP2 PUSH4 0xFFFFFFFF AND PUSH1 0xE0 SHL DUP2 MSTORE PUSH1 0x4 ADD PUSH1 0x20 PUSH1 0x40 MLOAD DUP1 DUP4 SUB DUP2 DUP7 GAS STATICCALL ISZERO DUP1 ISZERO PUSH2 0x7C7 JUMPI RETURNDATASIZE PUSH0 DUP1 RETURNDATACOPY RETURNDATASIZE PUSH0 REVERT JUMPDEST POP POP POP POP PUSH1 0x40 MLOAD RETURNDATASIZE PUSH1 0x1F NOT PUSH1 0x1F DUP3 ADD AND DUP3 ADD DUP1 PUSH1 0x40 MSTORE POP DUP2 ADD SWAP1 PUSH2 0x7EB SWAP2 SWAP1 PUSH2 0x17F4 JUMP JUMPDEST LT ISZERO JUMPDEST ISZERO PUSH2 0x87E JUMPI PUSH0 PUSH1 0x7 PUSH0 DUP2 SLOAD DUP2 LT PUSH2 0x808 JUMPI PUSH2 0x807 PUSH2 0x165E JUMP JUMPDEST JUMPDEST SWAP1 PUSH0 MSTORE PUSH1 0x20 PUSH0 KECCAK256 ADD PUSH0 SWAP1 SLOAD SWAP1 PUSH2 0x100 EXP SWAP1 DIV PUSH20 0xFFFFFFFFFFFFFFFFFFFFFFFFFFFFFFFFFFFFFFFF AND SWAP1 POP DUP1 PUSH20 0xFFFFFFFFFFFFFFFFFFFFFFFFFFFFFFFFFFFFFFFF AND PUSH2 0x8FC PUSH1 0x3 SLOAD SWAP1 DUP2 ISZERO MUL SWAP1 PUSH1 0x40 MLOAD PUSH0 PUSH1 0x40 MLOAD DUP1 DUP4 SUB DUP2 DUP6 DUP9 DUP9 CALL SWAP4 POP POP POP POP ISZERO DUP1 ISZERO PUSH2 0x877 JUMPI RETURNDATASIZE PUSH0 DUP1 RETURNDATACOPY RETURNDATASIZE PUSH0 REVERT JUMPDEST POP POP PUSH2 0xD35 JUMP JUMPDEST PUSH1 0x2 DUP1 SLOAD EQ DUP1 ISZERO PUSH2 0x890 JUMPI POP PUSH0 PUSH1 0x4 SLOAD EQ JUMPDEST DUP1 ISZERO PUSH2 0x929 JUMPI POP PUSH1 0x9 SLOAD PUSH0 DUP1 SLOAD SWAP1 PUSH2 0x100 EXP SWAP1 DIV PUSH20 0xFFFFFFFFFFFFFFFFFFFFFFFFFFFFFFFFFFFFFFFF AND PUSH20 0xFFFFFFFFFFFFFFFFFFFFFFFFFFFFFFFFFFFFFFFF AND PUSH4 0xBC06B8CD PUSH1 0x40 MLOAD DUP2 PUSH4 0xFFFFFFFF AND PUSH1 0xE0 SHL DUP2 MSTORE PUSH1 0x4 ADD PUSH1 0x20 PUSH1 0x40 MLOAD DUP1 DUP4 SUB DUP2 DUP7 GAS STATICCALL ISZERO DUP1 ISZERO PUSH2 0x902 JUMPI RETURNDATASIZE PUSH0 DUP1 RETURNDATACOPY RETURNDATASIZE PUSH0 REVERT JUMPDEST POP POP POP POP PUSH1 0x40 MLOAD RETURNDATASIZE PUSH1 0x1F NOT PUSH1 0x1F DUP3 ADD AND DUP3 ADD DUP1 PUSH1 0x40 MSTORE POP DUP2 ADD SWAP1 PUSH2 0x926 SWAP2 SWAP1 PUSH2 0x17F4 JUMP JUMPDEST LT ISZERO JUMPDEST ISZERO PUSH2 0xA58 JUMPI PUSH0 PUSH1 0x7 PUSH0 DUP2 SLOAD DUP2 LT PUSH2 0x943 JUMPI PUSH2 0x942 PUSH2 0x165E JUMP JUMPDEST JUMPDEST SWAP1 PUSH0 MSTORE PUSH1 0x20 PUSH0 KECCAK256 ADD PUSH0 SWAP1 SLOAD SWAP1 PUSH2 0x100 EXP SWAP1 DIV PUSH20 0xFFFFFFFFFFFFFFFFFFFFFFFFFFFFFFFFFFFFFFFF AND SWAP1 POP PUSH0 PUSH1 0x7 PUSH1 0x1 DUP2 SLOAD DUP2 LT PUSH2 0x983 JUMPI PUSH2 0x982 PUSH2 0x165E JUMP JUMPDEST JUMPDEST SWAP1 PUSH0 MSTORE PUSH1 0x20 PUSH0 KECCAK256 ADD PUSH0 SWAP1 SLOAD SWAP1 PUSH2 0x100 EXP SWAP1 DIV PUSH20 0xFFFFFFFFFFFFFFFFFFFFFFFFFFFFFFFFFFFFFFFF AND SWAP1 POP DUP2 PUSH20 0xFFFFFFFFFFFFFFFFFFFFFFFFFFFFFFFFFFFFFFFF AND PUSH2 0x8FC PUSH1 0x2 PUSH1 0x3 SLOAD PUSH2 0x9D6 SWAP2 SWAP1 PUSH2 0x184C JUMP JUMPDEST SWAP1 DUP2 ISZERO MUL SWAP1 PUSH1 0x40 MLOAD PUSH0 PUSH1 0x40 MLOAD DUP1 DUP4 SUB DUP2 DUP6 DUP9 DUP9 CALL SWAP4 POP POP POP POP ISZERO DUP1 ISZERO PUSH2 0x9FE JUMPI RETURNDATASIZE PUSH0 DUP1 RETURNDATACOPY RETURNDATASIZE PUSH0 REVERT JUMPDEST POP DUP1 PUSH20 0xFFFFFFFFFFFFFFFFFFFFFFFFFFFFFFFFFFFFFFFF AND PUSH2 0x8FC PUSH1 0x2 PUSH1 0x3 SLOAD PUSH2 0xA28 SWAP2 SWAP1 PUSH2 0x184C JUMP JUMPDEST SWAP1 DUP2 ISZERO MUL SWAP1 PUSH1 0x40 MLOAD PUSH0 PUSH1 0x40 MLOAD DUP1 DUP4 SUB DUP2 DUP6 DUP9 DUP9 CALL SWAP4 POP POP POP POP ISZERO DUP1 ISZERO PUSH2 0xA50 JUMPI RETURNDATASIZE PUSH0 DUP1 RETURNDATACOPY RETURNDATASIZE PUSH0 REVERT JUMPDEST POP POP POP PUSH2 0xD34 JUMP JUMPDEST PUSH1 0x2 DUP1 SLOAD EQ DUP1 ISZERO PUSH2 0xA6C JUMPI POP PUSH1 0x1 PUSH1 0x4 SLOAD GT ISZERO JUMPDEST DUP1 ISZERO PUSH2 0xB05 JUMPI POP PUSH1 0x9 SLOAD PUSH0 DUP1 SLOAD SWAP1 PUSH2 0x100 EXP SWAP1 DIV PUSH20 0xFFFFFFFFFFFFFFFFFFFFFFFFFFFFFFFFFFFFFFFF AND PUSH20 0xFFFFFFFFFFFFFFFFFFFFFFFFFFFFFFFFFFFFFFFF AND PUSH4 0xBC06B8CD PUSH1 0x40 MLOAD DUP2 PUSH4 0xFFFFFFFF AND PUSH1 0xE0 SHL DUP2 MSTORE PUSH1 0x4 ADD PUSH1 0x20 PUSH1 0x40 MLOAD DUP1 DUP4 SUB DUP2 DUP7 GAS STATICCALL ISZERO DUP1 ISZERO PUSH2 0xADE JUMPI RETURNDATASIZE PUSH0 DUP1 RETURNDATACOPY RETURNDATASIZE PUSH0 REVERT JUMPDEST POP POP POP POP PUSH1 0x40 MLOAD RETURNDATASIZE PUSH1 0x1F NOT PUSH1 0x1F DUP3 ADD AND DUP3 ADD DUP1 PUSH1 0x40 MSTORE POP DUP2 ADD SWAP1 PUSH2 0xB02 SWAP2 SWAP1 PUSH2 0x17F4 JUMP JUMPDEST LT ISZERO JUMPDEST ISZERO PUSH2 0xCF2 JUMPI PUSH0 CALLER SWAP1 POP PUSH0 PUSH1 0x7 PUSH0 DUP2 SLOAD DUP2 LT PUSH2 0xB23 JUMPI PUSH2 0xB22 PUSH2 0x165E JUMP JUMPDEST JUMPDEST SWAP1 PUSH0 MSTORE PUSH1 0x20 PUSH0 KECCAK256 ADD PUSH0 SWAP1 SLOAD SWAP1 PUSH2 0x100 EXP SWAP1 DIV PUSH20 0xFFFFFFFFFFFFFFFFFFFFFFFFFFFFFFFFFFFFFFFF AND PUSH20 0xFFFFFFFFFFFFFFFFFFFFFFFFFFFFFFFFFFFFFFFF AND CALLER PUSH20 0xFFFFFFFFFFFFFFFFFFFFFFFFFFFFFFFFFFFFFFFF AND SUB PUSH2 0xBC1 JUMPI PUSH1 0x7 PUSH1 0x1 DUP2 SLOAD DUP2 LT PUSH2 0xB92 JUMPI PUSH2 0xB91 PUSH2 0x165E JUMP JUMPDEST JUMPDEST SWAP1 PUSH0 MSTORE PUSH1 0x20 PUSH0 KECCAK256 ADD PUSH0 SWAP1 SLOAD SWAP1 PUSH2 0x100 EXP SWAP1 DIV PUSH20 0xFFFFFFFFFFFFFFFFFFFFFFFFFFFFFFFFFFFFFFFF AND SWAP1 POP PUSH2 0xC00 JUMP JUMPDEST PUSH1 0x7 PUSH0 DUP2 SLOAD DUP2 LT PUSH2 0xBD5 JUMPI PUSH2 0xBD4 PUSH2 0x165E JUMP JUMPDEST JUMPDEST SWAP1 PUSH0 MSTORE PUSH1 0x20 PUSH0 KECCAK256 ADD PUSH0 SWAP1 SLOAD SWAP1 PUSH2 0x100 EXP SWAP1 DIV PUSH20 0xFFFFFFFFFFFFFFFFFFFFFFFFFFFFFFFFFFFFFFFF AND SWAP1 POP JUMPDEST PUSH0 PUSH1 0x1 PUSH0 SWAP1 SLOAD SWAP1 PUSH2 0x100 EXP SWAP1 DIV PUSH20 0xFFFFFFFFFFFFFFFFFFFFFFFFFFFFFFFFFFFFFFFF AND PUSH20 0xFFFFFFFFFFFFFFFFFFFFFFFFFFFFFFFFFFFFFFFF AND PUSH4 0x7B43A8E6 DUP4 PUSH1 0x40 MLOAD DUP3 PUSH4 0xFFFFFFFF AND PUSH1 0xE0 SHL DUP2 MSTORE PUSH1 0x4 ADD PUSH2 0xC5B SWAP2 SWAP1 PUSH2 0x1645 JUMP JUMPDEST PUSH1 0x60 PUSH1 0x40 MLOAD DUP1 DUP4 SUB DUP2 DUP7 GAS STATICCALL ISZERO DUP1 ISZERO PUSH2 0xC76 JUMPI RETURNDATASIZE PUSH0 DUP1 RETURNDATACOPY RETURNDATASIZE PUSH0 REVERT JUMPDEST POP POP POP POP PUSH1 0x40 MLOAD RETURNDATASIZE PUSH1 0x1F NOT PUSH1 0x1F DUP3 ADD AND DUP3 ADD DUP1 PUSH1 0x40 MSTORE POP DUP2 ADD SWAP1 PUSH2 0xC9A SWAP2 SWAP1 PUSH2 0x18F7 JUMP JUMPDEST SWAP3 POP POP POP DUP1 PUSH2 0xCEA JUMPI DUP3 PUSH20 0xFFFFFFFFFFFFFFFFFFFFFFFFFFFFFFFFFFFFFFFF AND PUSH2 0x8FC PUSH1 0x3 SLOAD SWAP1 DUP2 ISZERO MUL SWAP1 PUSH1 0x40 MLOAD PUSH0 PUSH1 0x40 MLOAD DUP1 DUP4 SUB DUP2 DUP6 DUP9 DUP9 CALL SWAP4 POP POP POP POP ISZERO DUP1 ISZERO PUSH2 0xCE8 JUMPI RETURNDATASIZE PUSH0 DUP1 RETURNDATACOPY RETURNDATASIZE PUSH0 REVERT JUMPDEST POP JUMPDEST POP POP POP PUSH2 0xD33 JUMP JUMPDEST PUSH0 PUSH2 0xD32 JUMPI PUSH1 0x40 MLOAD PUSH32 0x8C379A000000000000000000000000000000000000000000000000000000000 DUP2 MSTORE PUSH1 0x4 ADD PUSH2 0xD29 SWAP1 PUSH2 0x1991 JUMP JUMPDEST PUSH1 0x40 MLOAD DUP1 SWAP2 SUB SWAP1 REVERT JUMPDEST JUMPDEST JUMPDEST JUMPDEST PUSH2 0xD3D PUSH2 0x1266 JUMP JUMPDEST JUMP JUMPDEST PUSH1 0x2 DUP1 SLOAD EQ PUSH2 0xD4C JUMPI PUSH0 DUP1 REVERT JUMPDEST PUSH1 0x6 PUSH0 CALLER PUSH20 0xFFFFFFFFFFFFFFFFFFFFFFFFFFFFFFFFFFFFFFFF AND PUSH20 0xFFFFFFFFFFFFFFFFFFFFFFFFFFFFFFFFFFFFFFFF AND DUP2 MSTORE PUSH1 0x20 ADD SWAP1 DUP2 MSTORE PUSH1 0x20 ADD PUSH0 KECCAK256 PUSH0 SWAP1 SLOAD SWAP1 PUSH2 0x100 EXP SWAP1 DIV PUSH1 0xFF AND PUSH2 0xD9E JUMPI PUSH0 DUP1 REVERT JUMPDEST PUSH1 0x1 PUSH0 SWAP1 SLOAD SWAP1 PUSH2 0x100 EXP SWAP1 DIV PUSH20 0xFFFFFFFFFFFFFFFFFFFFFFFFFFFFFFFFFFFFFFFF AND PUSH20 0xFFFFFFFFFFFFFFFFFFFFFFFFFFFFFFFFFFFFFFFF AND PUSH4 0x5A746101 DUP3 CALLER PUSH1 0x40 MLOAD DUP4 PUSH4 0xFFFFFFFF AND PUSH1 0xE0 SHL DUP2 MSTORE PUSH1 0x4 ADD PUSH2 0xDFA SWAP3 SWAP2 SWAP1 PUSH2 0x1741 JUMP JUMPDEST PUSH0 PUSH1 0x40 MLOAD DUP1 DUP4 SUB DUP2 PUSH0 DUP8 DUP1 EXTCODESIZE ISZERO DUP1 ISZERO PUSH2 0xE11 JUMPI PUSH0 DUP1 REVERT JUMPDEST POP GAS CALL ISZERO DUP1 ISZERO PUSH2 0xE23 JUMPI RETURNDATASIZE PUSH0 DUP1 RETURNDATACOPY RETURNDATASIZE PUSH0 REVERT JUMPDEST POP POP POP POP PUSH1 0x6 PUSH0 CALLER PUSH20 0xFFFFFFFFFFFFFFFFFFFFFFFFFFFFFFFFFFFFFFFF AND PUSH20 0xFFFFFFFFFFFFFFFFFFFFFFFFFFFFFFFFFFFFFFFF AND DUP2 MSTORE PUSH1 0x20 ADD SWAP1 DUP2 MSTORE PUSH1 0x20 ADD PUSH0 KECCAK256 PUSH0 SWAP1 SLOAD SWAP1 PUSH2 0x100 EXP SWAP1 DIV PUSH1 0xFF AND ISZERO PUSH2 0xEE2 JUMPI PUSH1 0x8 PUSH0 DUP2 SLOAD DUP1 SWAP3 SWAP2 SWAP1 PUSH2 0xE88 SWAP1 PUSH2 0x16EB JUMP JUMPDEST SWAP2 SWAP1 POP SSTORE POP PUSH0 PUSH1 0x6 PUSH0 CALLER PUSH20 0xFFFFFFFFFFFFFFFFFFFFFFFFFFFFFFFFFFFFFFFF AND PUSH20 0xFFFFFFFFFFFFFFFFFFFFFFFFFFFFFFFFFFFFFFFF AND DUP2 MSTORE PUSH1 0x20 ADD SWAP1 DUP2 MSTORE PUSH1 0x20 ADD PUSH0 KECCAK256 PUSH0 PUSH2 0x100 EXP DUP2 SLOAD DUP2 PUSH1 0xFF MUL NOT AND SWAP1 DUP4 ISZERO ISZERO MUL OR SWAP1 SSTORE POP JUMPDEST POP JUMP JUMPDEST PUSH1 0x7 DUP2 DUP2 SLOAD DUP2 LT PUSH2 0xEF4 JUMPI PUSH0 DUP1 REVERT JUMPDEST SWAP1 PUSH0 MSTORE PUSH1 0x20 PUSH0 KECCAK256 ADD PUSH0 SWAP2 POP SLOAD SWAP1 PUSH2 0x100 EXP SWAP1 DIV PUSH20 0xFFFFFFFFFFFFFFFFFFFFFFFFFFFFFFFFFFFFFFFF AND DUP2 JUMP JUMPDEST PUSH0 PUSH1 0x5 PUSH0 PUSH1 0x7 PUSH0 DUP2 SLOAD DUP2 LT PUSH2 0xF38 JUMPI PUSH2 0xF37 PUSH2 0x165E JUMP JUMPDEST JUMPDEST SWAP1 PUSH0 MSTORE PUSH1 0x20 PUSH0 KECCAK256 ADD PUSH0 SWAP1 SLOAD SWAP1 PUSH2 0x100 EXP SWAP1 DIV PUSH20 0xFFFFFFFFFFFFFFFFFFFFFFFFFFFFFFFFFFFFFFFF AND PUSH20 0xFFFFFFFFFFFFFFFFFFFFFFFFFFFFFFFFFFFFFFFF AND PUSH20 0xFFFFFFFFFFFFFFFFFFFFFFFFFFFFFFFFFFFFFFFF AND DUP2 MSTORE PUSH1 0x20 ADD SWAP1 DUP2 MSTORE PUSH1 0x20 ADD PUSH0 KECCAK256 SLOAD SWAP1 POP PUSH0 PUSH1 0x5 PUSH0 PUSH1 0x7 PUSH1 0x1 DUP2 SLOAD DUP2 LT PUSH2 0xFB5 JUMPI PUSH2 0xFB4 PUSH2 0x165E JUMP JUMPDEST JUMPDEST SWAP1 PUSH0 MSTORE PUSH1 0x20 PUSH0 KECCAK256 ADD PUSH0 SWAP1 SLOAD SWAP1 PUSH2 0x100 EXP SWAP1 DIV PUSH20 0xFFFFFFFFFFFFFFFFFFFFFFFFFFFFFFFFFFFFFFFF AND PUSH20 0xFFFFFFFFFFFFFFFFFFFFFFFFFFFFFFFFFFFFFFFF AND PUSH20 0xFFFFFFFFFFFFFFFFFFFFFFFFFFFFFFFFFFFFFFFF AND DUP2 MSTORE PUSH1 0x20 ADD SWAP1 DUP2 MSTORE PUSH1 0x20 ADD PUSH0 KECCAK256 SLOAD SWAP1 POP PUSH0 PUSH1 0x7 PUSH0 DUP2 SLOAD DUP2 LT PUSH2 0x102E JUMPI PUSH2 0x102D PUSH2 0x165E JUMP JUMPDEST JUMPDEST SWAP1 PUSH0 MSTORE PUSH1 0x20 PUSH0 KECCAK256 ADD PUSH0 SWAP1 SLOAD SWAP1 PUSH2 0x100 EXP SWAP1 DIV PUSH20 0xFFFFFFFFFFFFFFFFFFFFFFFFFFFFFFFFFFFFFFFF AND SWAP1 POP PUSH0 PUSH1 0x7 PUSH1 0x1 DUP2 SLOAD DUP2 LT PUSH2 0x106E JUMPI PUSH2 0x106D PUSH2 0x165E JUMP JUMPDEST JUMPDEST SWAP1 PUSH0 MSTORE PUSH1 0x20 PUSH0 KECCAK256 ADD PUSH0 SWAP1 SLOAD SWAP1 PUSH2 0x100 EXP SWAP1 DIV PUSH20 0xFFFFFFFFFFFFFFFFFFFFFFFFFFFFFFFFFFFFFFFF AND SWAP1 POP DUP3 PUSH1 0x3 PUSH1 0x1 DUP7 PUSH2 0x10A8 SWAP2 SWAP1 PUSH2 0x16B8 JUMP JUMPDEST PUSH2 0x10B2 SWAP2 SWAP1 PUSH2 0x19AF JUMP JUMPDEST EQ DUP1 PUSH2 0x10D5 JUMPI POP DUP3 PUSH1 0x5 PUSH1 0x3 DUP7 PUSH2 0x10C9 SWAP2 SWAP1 PUSH2 0x16B8 JUMP JUMPDEST PUSH2 0x10D3 SWAP2 SWAP1 PUSH2 0x19AF JUMP JUMPDEST EQ JUMPDEST ISZERO PUSH2 0x1125 JUMPI DUP2 PUSH20 0xFFFFFFFFFFFFFFFFFFFFFFFFFFFFFFFFFFFFFFFF AND PUSH2 0x8FC PUSH1 0x3 SLOAD SWAP1 DUP2 ISZERO MUL SWAP1 PUSH1 0x40 MLOAD PUSH0 PUSH1 0x40 MLOAD DUP1 DUP4 SUB DUP2 DUP6 DUP9 DUP9 CALL SWAP4 POP POP POP POP ISZERO DUP1 ISZERO PUSH2 0x111F JUMPI RETURNDATASIZE PUSH0 DUP1 RETURNDATACOPY RETURNDATASIZE PUSH0 REVERT JUMPDEST POP PUSH2 0x1258 JUMP JUMPDEST DUP4 PUSH1 0x3 PUSH1 0x1 DUP6 PUSH2 0x1135 SWAP2 SWAP1 PUSH2 0x16B8 JUMP JUMPDEST PUSH2 0x113F SWAP2 SWAP1 PUSH2 0x19AF JUMP JUMPDEST EQ DUP1 PUSH2 0x1162 JUMPI POP DUP4 PUSH1 0x5 PUSH1 0x3 DUP6 PUSH2 0x1156 SWAP2 SWAP1 PUSH2 0x16B8 JUMP JUMPDEST PUSH2 0x1160 SWAP2 SWAP1 PUSH2 0x19AF JUMP JUMPDEST EQ JUMPDEST ISZERO PUSH2 0x11B2 JUMPI DUP1 PUSH20 0xFFFFFFFFFFFFFFFFFFFFFFFFFFFFFFFFFFFFFFFF AND PUSH2 0x8FC PUSH1 0x3 SLOAD SWAP1 DUP2 ISZERO MUL SWAP1 PUSH1 0x40 MLOAD PUSH0 PUSH1 0x40 MLOAD DUP1 DUP4 SUB DUP2 DUP6 DUP9 DUP9 CALL SWAP4 POP POP POP POP ISZERO DUP1 ISZERO PUSH2 0x11AC JUMPI RETURNDATASIZE PUSH0 DUP1 RETURNDATACOPY RETURNDATASIZE PUSH0 REVERT JUMPDEST POP PUSH2 0x1257 JUMP JUMPDEST DUP2 PUSH20 0xFFFFFFFFFFFFFFFFFFFFFFFFFFFFFFFFFFFFFFFF AND PUSH2 0x8FC PUSH1 0x2 PUSH1 0x3 SLOAD PUSH2 0x11DB SWAP2 SWAP1 PUSH2 0x184C JUMP JUMPDEST SWAP1 DUP2 ISZERO MUL SWAP1 PUSH1 0x40 MLOAD PUSH0 PUSH1 0x40 MLOAD DUP1 DUP4 SUB DUP2 DUP6 DUP9 DUP9 CALL SWAP4 POP POP POP POP ISZERO DUP1 ISZERO PUSH2 0x1203 JUMPI RETURNDATASIZE PUSH0 DUP1 RETURNDATACOPY RETURNDATASIZE PUSH0 REVERT JUMPDEST POP DUP1 PUSH20 0xFFFFFFFFFFFFFFFFFFFFFFFFFFFFFFFFFFFFFFFF AND PUSH2 0x8FC PUSH1 0x2 PUSH1 0x3 SLOAD PUSH2 0x122D SWAP2 SWAP1 PUSH2 0x184C JUMP JUMPDEST SWAP1 DUP2 ISZERO MUL SWAP1 PUSH1 0x40 MLOAD PUSH0 PUSH1 0x40 MLOAD DUP1 DUP4 SUB DUP2 DUP6 DUP9 DUP9 CALL SWAP4 POP POP POP POP ISZERO DUP1 ISZERO PUSH2 0x1255 JUMPI RETURNDATASIZE PUSH0 DUP1 RETURNDATACOPY RETURNDATASIZE PUSH0 REVERT JUMPDEST POP JUMPDEST JUMPDEST PUSH2 0x1260 PUSH2 0x1266 JUMP JUMPDEST POP POP POP POP JUMP JUMPDEST PUSH0 PUSH1 0x3 DUP2 SWAP1 SSTORE POP PUSH0 JUMPDEST PUSH1 0x7 DUP1 SLOAD SWAP1 POP DUP2 LT ISZERO PUSH2 0x138B JUMPI PUSH1 0x5 PUSH0 PUSH1 0x7 DUP4 DUP2 SLOAD DUP2 LT PUSH2 0x1293 JUMPI PUSH2 0x1292 PUSH2 0x165E JUMP JUMPDEST JUMPDEST SWAP1 PUSH0 MSTORE PUSH1 0x20 PUSH0 KECCAK256 ADD PUSH0 SWAP1 SLOAD SWAP1 PUSH2 0x100 EXP SWAP1 DIV PUSH20 0xFFFFFFFFFFFFFFFFFFFFFFFFFFFFFFFFFFFFFFFF AND PUSH20 0xFFFFFFFFFFFFFFFFFFFFFFFFFFFFFFFFFFFFFFFF AND PUSH20 0xFFFFFFFFFFFFFFFFFFFFFFFFFFFFFFFFFFFFFFFF AND DUP2 MSTORE PUSH1 0x20 ADD SWAP1 DUP2 MSTORE PUSH1 0x20 ADD PUSH0 KECCAK256 PUSH0 SWAP1 SSTORE PUSH1 0x6 PUSH0 PUSH1 0x7 DUP4 DUP2 SLOAD DUP2 LT PUSH2 0x130E JUMPI PUSH2 0x130D PUSH2 0x165E JUMP JUMPDEST JUMPDEST SWAP1 PUSH0 MSTORE PUSH1 0x20 PUSH0 KECCAK256 ADD PUSH0 SWAP1 SLOAD SWAP1 PUSH2 0x100 EXP SWAP1 DIV PUSH20 0xFFFFFFFFFFFFFFFFFFFFFFFFFFFFFFFFFFFFFFFF AND PUSH20 0xFFFFFFFFFFFFFFFFFFFFFFFFFFFFFFFFFFFFFFFF AND PUSH20 0xFFFFFFFFFFFFFFFFFFFFFFFFFFFFFFFFFFFFFFFF AND DUP2 MSTORE PUSH1 0x20 ADD SWAP1 DUP2 MSTORE PUSH1 0x20 ADD PUSH0 KECCAK256 PUSH0 PUSH2 0x100 EXP DUP2 SLOAD SWAP1 PUSH1 0xFF MUL NOT AND SWAP1 SSTORE DUP1 DUP1 PUSH1 0x1 ADD SWAP2 POP POP PUSH2 0x126F JUMP JUMPDEST POP PUSH1 0x7 PUSH0 PUSH2 0x1399 SWAP2 SWAP1 PUSH2 0x13B0 JUMP JUMPDEST PUSH0 PUSH1 0x2 DUP2 SWAP1 SSTORE POP PUSH0 PUSH1 0x8 DUP2 SWAP1 SSTORE POP PUSH0 PUSH1 0x4 DUP2 SWAP1 SSTORE POP JUMP JUMPDEST POP DUP1 SLOAD PUSH0 DUP3 SSTORE SWAP1 PUSH0 MSTORE PUSH1 0x20 PUSH0 KECCAK256 SWAP1 DUP2 ADD SWAP1 PUSH2 0x13CB SWAP2 SWAP1 PUSH2 0x13CE JUMP JUMPDEST POP JUMP JUMPDEST JUMPDEST DUP1 DUP3 GT ISZERO PUSH2 0x13E5 JUMPI PUSH0 DUP2 PUSH0 SWAP1 SSTORE POP PUSH1 0x1 ADD PUSH2 0x13CF JUMP JUMPDEST POP SWAP1 JUMP JUMPDEST PUSH0 DUP2 SWAP1 POP SWAP2 SWAP1 POP JUMP JUMPDEST PUSH2 0x13FB DUP2 PUSH2 0x13E9 JUMP JUMPDEST DUP3 MSTORE POP POP JUMP JUMPDEST PUSH0 PUSH1 0x20 DUP3 ADD SWAP1 POP PUSH2 0x1414 PUSH0 DUP4 ADD DUP5 PUSH2 0x13F2 JUMP JUMPDEST SWAP3 SWAP2 POP POP JUMP JUMPDEST PUSH0 DUP1 REVERT JUMPDEST PUSH0 PUSH20 0xFFFFFFFFFFFFFFFFFFFFFFFFFFFFFFFFFFFFFFFF DUP3 AND SWAP1 POP SWAP2 SWAP1 POP JUMP JUMPDEST PUSH0 PUSH2 0x1447 DUP3 PUSH2 0x141E JUMP JUMPDEST SWAP1 POP SWAP2 SWAP1 POP JUMP JUMPDEST PUSH2 0x1457 DUP2 PUSH2 0x143D JUMP JUMPDEST DUP2 EQ PUSH2 0x1461 JUMPI PUSH0 DUP1 REVERT JUMPDEST POP JUMP JUMPDEST PUSH0 DUP2 CALLDATALOAD SWAP1 POP PUSH2 0x1472 DUP2 PUSH2 0x144E JUMP JUMPDEST SWAP3 SWAP2 POP POP JUMP JUMPDEST PUSH0 PUSH1 0x20 DUP3 DUP5 SUB SLT ISZERO PUSH2 0x148D JUMPI PUSH2 0x148C PUSH2 0x141A JUMP JUMPDEST JUMPDEST PUSH0 PUSH2 0x149A DUP5 DUP3 DUP6 ADD PUSH2 0x1464 JUMP JUMPDEST SWAP2 POP POP SWAP3 SWAP2 POP POP JUMP JUMPDEST PUSH0 DUP2 ISZERO ISZERO SWAP1 POP SWAP2 SWAP1 POP JUMP JUMPDEST PUSH2 0x14B7 DUP2 PUSH2 0x14A3 JUMP JUMPDEST DUP3 MSTORE POP POP JUMP JUMPDEST PUSH0 PUSH1 0x20 DUP3 ADD SWAP1 POP PUSH2 0x14D0 PUSH0 DUP4 ADD DUP5 PUSH2 0x14AE JUMP JUMPDEST SWAP3 SWAP2 POP POP JUMP JUMPDEST PUSH0 DUP2 SWAP1 POP SWAP2 SWAP1 POP JUMP JUMPDEST PUSH0 PUSH2 0x14F9 PUSH2 0x14F4 PUSH2 0x14EF DUP5 PUSH2 0x141E JUMP JUMPDEST PUSH2 0x14D6 JUMP JUMPDEST PUSH2 0x141E JUMP JUMPDEST SWAP1 POP SWAP2 SWAP1 POP JUMP JUMPDEST PUSH0 PUSH2 0x150A DUP3 PUSH2 0x14DF JUMP JUMPDEST SWAP1 POP SWAP2 SWAP1 POP JUMP JUMPDEST PUSH0 PUSH2 0x151B DUP3 PUSH2 0x1500 JUMP JUMPDEST SWAP1 POP SWAP2 SWAP1 POP JUMP JUMPDEST PUSH2 0x152B DUP2 PUSH2 0x1511 JUMP JUMPDEST DUP3 MSTORE POP POP JUMP JUMPDEST PUSH0 PUSH1 0x20 DUP3 ADD SWAP1 POP PUSH2 0x1544 PUSH0 DUP4 ADD DUP5 PUSH2 0x1522 JUMP JUMPDEST SWAP3 SWAP2 POP POP JUMP JUMPDEST PUSH0 DUP2 SWAP1 POP SWAP2 SWAP1 POP JUMP JUMPDEST PUSH2 0x155C DUP2 PUSH2 0x154A JUMP JUMPDEST DUP2 EQ PUSH2 0x1566 JUMPI PUSH0 DUP1 REVERT JUMPDEST POP JUMP JUMPDEST PUSH0 DUP2 CALLDATALOAD SWAP1 POP PUSH2 0x1577 DUP2 PUSH2 0x1553 JUMP JUMPDEST SWAP3 SWAP2 POP POP JUMP JUMPDEST PUSH0 PUSH1 0x20 DUP3 DUP5 SUB SLT ISZERO PUSH2 0x1592 JUMPI PUSH2 0x1591 PUSH2 0x141A JUMP JUMPDEST JUMPDEST PUSH0 PUSH2 0x159F DUP5 DUP3 DUP6 ADD PUSH2 0x1569 JUMP JUMPDEST SWAP2 POP POP SWAP3 SWAP2 POP POP JUMP JUMPDEST PUSH0 PUSH2 0x15B2 DUP3 PUSH2 0x1500 JUMP JUMPDEST SWAP1 POP SWAP2 SWAP1 POP JUMP JUMPDEST PUSH2 0x15C2 DUP2 PUSH2 0x15A8 JUMP JUMPDEST DUP3 MSTORE POP POP JUMP JUMPDEST PUSH0 PUSH1 0x20 DUP3 ADD SWAP1 POP PUSH2 0x15DB PUSH0 DUP4 ADD DUP5 PUSH2 0x15B9 JUMP JUMPDEST SWAP3 SWAP2 POP POP JUMP JUMPDEST PUSH2 0x15EA DUP2 PUSH2 0x13E9 JUMP JUMPDEST DUP2 EQ PUSH2 0x15F4 JUMPI PUSH0 DUP1 REVERT JUMPDEST POP JUMP JUMPDEST PUSH0 DUP2 CALLDATALOAD SWAP1 POP PUSH2 0x1605 DUP2 PUSH2 0x15E1 JUMP JUMPDEST SWAP3 SWAP2 POP POP JUMP JUMPDEST PUSH0 PUSH1 0x20 DUP3 DUP5 SUB SLT ISZERO PUSH2 0x1620 JUMPI PUSH2 0x161F PUSH2 0x141A JUMP JUMPDEST JUMPDEST PUSH0 PUSH2 0x162D DUP5 DUP3 DUP6 ADD PUSH2 0x15F7 JUMP JUMPDEST SWAP2 POP POP SWAP3 SWAP2 POP POP JUMP JUMPDEST PUSH2 0x163F DUP2 PUSH2 0x143D JUMP JUMPDEST DUP3 MSTORE POP POP JUMP JUMPDEST PUSH0 PUSH1 0x20 DUP3 ADD SWAP1 POP PUSH2 0x1658 PUSH0 DUP4 ADD DUP5 PUSH2 0x1636 JUMP JUMPDEST SWAP3 SWAP2 POP POP JUMP JUMPDEST PUSH32 0x4E487B7100000000000000000000000000000000000000000000000000000000 PUSH0 MSTORE PUSH1 0x32 PUSH1 0x4 MSTORE PUSH1 0x24 PUSH0 REVERT JUMPDEST PUSH32 0x4E487B7100000000000000000000000000000000000000000000000000000000 PUSH0 MSTORE PUSH1 0x11 PUSH1 0x4 MSTORE PUSH1 0x24 PUSH0 REVERT JUMPDEST PUSH0 PUSH2 0x16C2 DUP3 PUSH2 0x13E9 JUMP JUMPDEST SWAP2 POP PUSH2 0x16CD DUP4 PUSH2 0x13E9 JUMP JUMPDEST SWAP3 POP DUP3 DUP3 ADD SWAP1 POP DUP1 DUP3 GT ISZERO PUSH2 0x16E5 JUMPI PUSH2 0x16E4 PUSH2 0x168B JUMP JUMPDEST JUMPDEST SWAP3 SWAP2 POP POP JUMP JUMPDEST PUSH0 PUSH2 0x16F5 DUP3 PUSH2 0x13E9 JUMP JUMPDEST SWAP2 POP PUSH32 0xFFFFFFFFFFFFFFFFFFFFFFFFFFFFFFFFFFFFFFFFFFFFFFFFFFFFFFFFFFFFFFFF DUP3 SUB PUSH2 0x1727 JUMPI PUSH2 0x1726 PUSH2 0x168B JUMP JUMPDEST JUMPDEST PUSH1 0x1 DUP3 ADD SWAP1 POP SWAP2 SWAP1 POP JUMP JUMPDEST PUSH2 0x173B DUP2 PUSH2 0x154A JUMP JUMPDEST DUP3 MSTORE POP POP JUMP JUMPDEST PUSH0 PUSH1 0x40 DUP3 ADD SWAP1 POP PUSH2 0x1754 PUSH0 DUP4 ADD DUP6 PUSH2 0x1732 JUMP JUMPDEST PUSH2 0x1761 PUSH1 0x20 DUP4 ADD DUP5 PUSH2 0x1636 JUMP JUMPDEST SWAP4 SWAP3 POP POP POP JUMP JUMPDEST PUSH0 DUP3 DUP3 MSTORE PUSH1 0x20 DUP3 ADD SWAP1 POP SWAP3 SWAP2 POP POP JUMP JUMPDEST PUSH32 0x63686F696365206973206E6F742076616C69642E000000000000000000000000 PUSH0 DUP3 ADD MSTORE POP JUMP JUMPDEST PUSH0 PUSH2 0x17AC PUSH1 0x14 DUP4 PUSH2 0x1768 JUMP JUMPDEST SWAP2 POP PUSH2 0x17B7 DUP3 PUSH2 0x1778 JUMP JUMPDEST PUSH1 0x20 DUP3 ADD SWAP1 POP SWAP2 SWAP1 POP JUMP JUMPDEST PUSH0 PUSH1 0x20 DUP3 ADD SWAP1 POP DUP2 DUP2 SUB PUSH0 DUP4 ADD MSTORE PUSH2 0x17D9 DUP2 PUSH2 0x17A0 JUMP JUMPDEST SWAP1 POP SWAP2 SWAP1 POP JUMP JUMPDEST PUSH0 DUP2 MLOAD SWAP1 POP PUSH2 0x17EE DUP2 PUSH2 0x15E1 JUMP JUMPDEST SWAP3 SWAP2 POP POP JUMP JUMPDEST PUSH0 PUSH1 0x20 DUP3 DUP5 SUB SLT ISZERO PUSH2 0x1809 JUMPI PUSH2 0x1808 PUSH2 0x141A JUMP JUMPDEST JUMPDEST PUSH0 PUSH2 0x1816 DUP5 DUP3 DUP6 ADD PUSH2 0x17E0 JUMP JUMPDEST SWAP2 POP POP SWAP3 SWAP2 POP POP JUMP JUMPDEST PUSH32 0x4E487B7100000000000000000000000000000000000000000000000000000000 PUSH0 MSTORE PUSH1 0x12 PUSH1 0x4 MSTORE PUSH1 0x24 PUSH0 REVERT JUMPDEST PUSH0 PUSH2 0x1856 DUP3 PUSH2 0x13E9 JUMP JUMPDEST SWAP2 POP PUSH2 0x1861 DUP4 PUSH2 0x13E9 JUMP JUMPDEST SWAP3 POP DUP3 PUSH2 0x1871 JUMPI PUSH2 0x1870 PUSH2 0x181F JUMP JUMPDEST JUMPDEST DUP3 DUP3 DIV SWAP1 POP SWAP3 SWAP2 POP POP JUMP JUMPDEST PUSH0 DUP2 MLOAD SWAP1 POP PUSH2 0x188A DUP2 PUSH2 0x1553 JUMP JUMPDEST SWAP3 SWAP2 POP POP JUMP JUMPDEST PUSH0 PUSH8 0xFFFFFFFFFFFFFFFF DUP3 AND SWAP1 POP SWAP2 SWAP1 POP JUMP JUMPDEST PUSH2 0x18AC DUP2 PUSH2 0x1890 JUMP JUMPDEST DUP2 EQ PUSH2 0x18B6 JUMPI PUSH0 DUP1 REVERT JUMPDEST POP JUMP JUMPDEST PUSH0 DUP2 MLOAD SWAP1 POP PUSH2 0x18C7 DUP2 PUSH2 0x18A3 JUMP JUMPDEST SWAP3 SWAP2 POP POP JUMP JUMPDEST PUSH2 0x18D6 DUP2 PUSH2 0x14A3 JUMP JUMPDEST DUP2 EQ PUSH2 0x18E0 JUMPI PUSH0 DUP1 REVERT JUMPDEST POP JUMP JUMPDEST PUSH0 DUP2 MLOAD SWAP1 POP PUSH2 0x18F1 DUP2 PUSH2 0x18CD JUMP JUMPDEST SWAP3 SWAP2 POP POP JUMP JUMPDEST PUSH0 DUP1 PUSH0 PUSH1 0x60 DUP5 DUP7 SUB SLT ISZERO PUSH2 0x190E JUMPI PUSH2 0x190D PUSH2 0x141A JUMP JUMPDEST JUMPDEST PUSH0 PUSH2 0x191B DUP7 DUP3 DUP8 ADD PUSH2 0x187C JUMP JUMPDEST SWAP4 POP POP PUSH1 0x20 PUSH2 0x192C DUP7 DUP3 DUP8 ADD PUSH2 0x18B9 JUMP JUMPDEST SWAP3 POP POP PUSH1 0x40 PUSH2 0x193D DUP7 DUP3 DUP8 ADD PUSH2 0x18E3 JUMP JUMPDEST SWAP2 POP POP SWAP3 POP SWAP3 POP SWAP3 JUMP JUMPDEST PUSH32 0x63616E6E6F7420726566756E6400000000000000000000000000000000000000 PUSH0 DUP3 ADD MSTORE POP JUMP JUMPDEST PUSH0 PUSH2 0x197B PUSH1 0xD DUP4 PUSH2 0x1768 JUMP JUMPDEST SWAP2 POP PUSH2 0x1986 DUP3 PUSH2 0x1947 JUMP JUMPDEST PUSH1 0x20 DUP3 ADD SWAP1 POP SWAP2 SWAP1 POP JUMP JUMPDEST PUSH0 PUSH1 0x20 DUP3 ADD SWAP1 POP DUP2 DUP2 SUB PUSH0 DUP4 ADD MSTORE PUSH2 0x19A8 DUP2 PUSH2 0x196F JUMP JUMPDEST SWAP1 POP SWAP2 SWAP1 POP JUMP JUMPDEST PUSH0 PUSH2 0x19B9 DUP3 PUSH2 0x13E9 JUMP JUMPDEST SWAP2 POP PUSH2 0x19C4 DUP4 PUSH2 0x13E9 JUMP JUMPDEST SWAP3 POP DUP3 PUSH2 0x19D4 JUMPI PUSH2 0x19D3 PUSH2 0x181F JUMP JUMPDEST JUMPDEST DUP3 DUP3 MOD SWAP1 POP SWAP3 SWAP2 POP POP JUMP INVALID LOG2 PUSH5 0x6970667358 0x22 SLT KECCAK256 SWAP12 0xBE 0xEA 0x2F SWAP8 SDIV POP PUSH15 0xFCDA3661686BE32C34541DDEB11B06 SSTORE CALLDATASIZE 0xA6 PUSH10 0x9CF7C0E04864736F6C63 NUMBER STOP ADDMOD BYTE STOP CALLER "
				},
				"gasEstimates": {
					"creation": {
						"codeDepositCost": "1335400",
						"executionCost": "infinite",
						"totalCost": "infinite"
					},
					"external": {
						"addPlayer()": "infinite",
						"cancelGame()": "infinite",
						"commit(bytes32)": "infinite",
						"commitReveal()": "infinite",
						"numInput()": "2449",
						"numPlayer()": "2514",
						"numReveal()": "2447",
						"player_choice(address)": "2847",
						"player_not_played(address)": "2879",
						"players(uint256)": "5032",
						"reveal(bytes32)": "infinite",
						"reward()": "2493",
						"timeLimit()": "2492",
						"timeUnit()": "infinite"
					},
					"internal": {
						"_checkWinnerAndPay()": "infinite",
						"reset()": "infinite"
					}
				},
				"methodIdentifiers": {
					"addPlayer()": "27b5db8a",
					"cancelGame()": "d84c1ac9",
					"commit(bytes32)": "f14fcbc8",
					"commitReveal()": "9d7b3f2d",
					"numInput()": "086f7815",
					"numPlayer()": "90d5d0c3",
					"numReveal()": "c876e615",
					"player_choice(address)": "a040478d",
					"player_not_played(address)": "190cf745",
					"players(uint256)": "f71d96cb",
					"reveal(bytes32)": "701fd0f1",
					"reward()": "228cb733",
					"timeLimit()": "c08d1fe5",
					"timeUnit()": "3c6a7f9b"
				}
			},
			"storageLayout": {
				"storage": [
					{
						"astId": 197,
						"contract": "RPS.sol:RPS",
						"label": "timeUnit",
						"offset": 0,
						"slot": "0",
						"type": "t_contract(TimeUnit)768"
					},
					{
						"astId": 200,
						"contract": "RPS.sol:RPS",
						"label": "commitReveal",
						"offset": 0,
						"slot": "1",
						"type": "t_contract(CommitReveal)190"
					},
					{
						"astId": 203,
						"contract": "RPS.sol:RPS",
						"label": "numPlayer",
						"offset": 0,
						"slot": "2",
						"type": "t_uint256"
					},
					{
						"astId": 206,
						"contract": "RPS.sol:RPS",
						"label": "reward",
						"offset": 0,
						"slot": "3",
						"type": "t_uint256"
					},
					{
						"astId": 209,
						"contract": "RPS.sol:RPS",
						"label": "numReveal",
						"offset": 0,
						"slot": "4",
						"type": "t_uint256"
					},
					{
						"astId": 213,
						"contract": "RPS.sol:RPS",
						"label": "player_choice",
						"offset": 0,
						"slot": "5",
						"type": "t_mapping(t_address,t_uint256)"
					},
					{
						"astId": 217,
						"contract": "RPS.sol:RPS",
						"label": "player_not_played",
						"offset": 0,
						"slot": "6",
						"type": "t_mapping(t_address,t_bool)"
					},
					{
						"astId": 220,
						"contract": "RPS.sol:RPS",
						"label": "players",
						"offset": 0,
						"slot": "7",
						"type": "t_array(t_address)dyn_storage"
					},
					{
						"astId": 223,
						"contract": "RPS.sol:RPS",
						"label": "numInput",
						"offset": 0,
						"slot": "8",
						"type": "t_uint256"
					},
					{
						"astId": 226,
						"contract": "RPS.sol:RPS",
						"label": "timeLimit",
						"offset": 0,
						"slot": "9",
						"type": "t_uint256"
					}
				],
				"types": {
					"t_address": {
						"encoding": "inplace",
						"label": "address",
						"numberOfBytes": "20"
					},
					"t_array(t_address)dyn_storage": {
						"base": "t_address",
						"encoding": "dynamic_array",
						"label": "address[]",
						"numberOfBytes": "32"
					},
					"t_bool": {
						"encoding": "inplace",
						"label": "bool",
						"numberOfBytes": "1"
					},
					"t_contract(CommitReveal)190": {
						"encoding": "inplace",
						"label": "contract CommitReveal",
						"numberOfBytes": "20"
					},
					"t_contract(TimeUnit)768": {
						"encoding": "inplace",
						"label": "contract TimeUnit",
						"numberOfBytes": "20"
					},
					"t_mapping(t_address,t_bool)": {
						"encoding": "mapping",
						"key": "t_address",
						"label": "mapping(address => bool)",
						"numberOfBytes": "32",
						"value": "t_bool"
					},
					"t_mapping(t_address,t_uint256)": {
						"encoding": "mapping",
						"key": "t_address",
						"label": "mapping(address => uint256)",
						"numberOfBytes": "32",
						"value": "t_uint256"
					},
					"t_uint256": {
						"encoding": "inplace",
						"label": "uint256",
						"numberOfBytes": "32"
					}
				}
			},
			"userdoc": {
				"kind": "user",
				"methods": {},
				"version": 1
			}
		}
	}
}