{
	"data": {
		"bytecode": {
			"linkReferences": {},
			"object": "60806040525f6003555f6004555f6005555f600955601e600a555f600b5f6101000a81548160ff02191690831515021790555034801561003d575f80fd5b50604051612db3380380612db3833981810160405281019061005f9190610184565b825f806101000a81548173ffffffffffffffffffffffffffffffffffffffff021916908373ffffffffffffffffffffffffffffffffffffffff1602179055508160015f6101000a81548173ffffffffffffffffffffffffffffffffffffffff021916908373ffffffffffffffffffffffffffffffffffffffff1602179055508060025f6101000a81548173ffffffffffffffffffffffffffffffffffffffff021916908373ffffffffffffffffffffffffffffffffffffffff1602179055505050506101d4565b5f80fd5b5f73ffffffffffffffffffffffffffffffffffffffff82169050919050565b5f6101538261012a565b9050919050565b61016381610149565b811461016d575f80fd5b50565b5f8151905061017e8161015a565b92915050565b5f805f6060848603121561019b5761019a610126565b5b5f6101a886828701610170565b93505060206101b986828701610170565b92505060406101ca86828701610170565b9150509250925092565b612bd2806101e15f395ff3fe608060405234801561000f575f80fd5b5060043610610109575f3560e01c806390d5d0c3116100a0578063c08d1fe51161006f578063c08d1fe51461026f578063c876e6151461028d578063f14fcbc8146102ab578063f71d96cb146102c7578063fc0c546a146102f757610109565b806390d5d0c3146101f95780639d7b3f2d14610217578063a040478d14610235578063a224cb3e1461026557610109565b80633c6a7f9b116100dc5780633c6a7f9b1461018357806355f6497d146101a1578063701fd0f1146101bf57806387e69625146101db57610109565b8063086f78151461010d578063190cf7451461012b578063228cb7331461015b57806327b5db8a14610179575b5f80fd5b610115610315565b6040516101229190611fd2565b60405180910390f35b61014560048036038101906101409190612049565b61031b565b604051610152919061208e565b60405180910390f35b610163610338565b6040516101709190611fd2565b60405180910390f35b61018161033e565b005b61018b61066c565b6040516101989190612102565b60405180910390f35b6101a961068f565b6040516101b6919061208e565b60405180910390f35b6101d960048036038101906101d4919061214e565b6106a1565b005b6101e36108e3565b6040516101f09190611fd2565b60405180910390f35b6102016108ec565b60405161020e9190611fd2565b60405180910390f35b61021f6108f2565b60405161022c9190612199565b60405180910390f35b61024f600480360381019061024a9190612049565b610917565b60405161025c9190611fd2565b60405180910390f35b61026d61092c565b005b6102776110d3565b6040516102849190611fd2565b60405180910390f35b6102956110d9565b6040516102a29190611fd2565b60405180910390f35b6102c560048036038101906102c0919061214e565b6110df565b005b6102e160048036038101906102dc91906121dc565b61170b565b6040516102ee9190612216565b60405180910390f35b6102ff611746565b60405161030c919061224f565b60405180910390f35b60095481565b6007602052805f5260405f205f915054906101000a900460ff1681565b60045481565b600260035410610383576040517f08c379a000000000000000000000000000000000000000000000000000000000815260040161037a906122c2565b60405180910390fd5b5f60035411156104375760085f815481106103a1576103a06122e0565b5b905f5260205f20015f9054906101000a900473ffffffffffffffffffffffffffffffffffffffff1673ffffffffffffffffffffffffffffffffffffffff163373ffffffffffffffffffffffffffffffffffffffff1603610436576040517f08c379a000000000000000000000000000000000000000000000000000000000815260040161042d9061237d565b60405180910390fd5b5b64e8d4a5100060025f9054906101000a900473ffffffffffffffffffffffffffffffffffffffff1673ffffffffffffffffffffffffffffffffffffffff1663dd62ed3e33306040518363ffffffff1660e01b815260040161049992919061239b565b602060405180830381865afa1580156104b4573d5f803e3d5ffd5b505050506040513d601f19601f820116820180604052508101906104d891906123d6565b1015610519576040517f08c379a00000000000000000000000000000000000000000000000000000000081526004016105109061244b565b60405180910390fd5b600160075f3373ffffffffffffffffffffffffffffffffffffffff1673ffffffffffffffffffffffffffffffffffffffff1681526020019081526020015f205f6101000a81548160ff021916908315150217905550600833908060018154018082558091505060019003905f5260205f20015f9091909190916101000a81548173ffffffffffffffffffffffffffffffffffffffff021916908373ffffffffffffffffffffffffffffffffffffffff16021790555060035f8154809291906105e090612496565b919050555060016003540361066a575f8054906101000a900473ffffffffffffffffffffffffffffffffffffffff1673ffffffffffffffffffffffffffffffffffffffff1663a63f7c536040518163ffffffff1660e01b81526004015f604051808303815f87803b158015610653575f80fd5b505af1158015610665573d5f803e3d5ffd5b505050505b565b5f8054906101000a900473ffffffffffffffffffffffffffffffffffffffff1681565b600b5f9054906101000a900460ff1681565b6002600354146106e6576040517f08c379a00000000000000000000000000000000000000000000000000000000081526004016106dd90612527565b60405180910390fd5b60026009541461072b576040517f08c379a00000000000000000000000000000000000000000000000000000000081526004016107229061258f565b60405180910390fd5b600b5f9054906101000a900460ff16610779576040517f08c379a00000000000000000000000000000000000000000000000000000000081526004016107709061261d565b60405180910390fd5b60015f9054906101000a900473ffffffffffffffffffffffffffffffffffffffff1673ffffffffffffffffffffffffffffffffffffffff1663ad48779082336040518363ffffffff1660e01b81526004016107d592919061264a565b5f604051808303815f87803b1580156107ec575f80fd5b505af11580156107fe573d5f803e3d5ffd5b505050505f81601f60208110610817576108166122e0565b5b1a60f81b60f81c60ff1690505f8110158015610834575060048111155b610873576040517f08c379a000000000000000000000000000000000000000000000000000000000815260040161086a906126bb565b60405180910390fd5b8060065f3373ffffffffffffffffffffffffffffffffffffffff1673ffffffffffffffffffffffffffffffffffffffff1681526020019081526020015f208190555060055f8154809291906108c790612496565b91905055506002600554036108df576108de61176b565b5b5050565b64e8d4a5100081565b60035481565b60015f9054906101000a900473ffffffffffffffffffffffffffffffffffffffff1681565b6006602052805f5260405f205f915090505481565b60026003541480156109495750600b5f9054906101000a900460ff165b610988576040517f08c379a000000000000000000000000000000000000000000000000000000000815260040161097f90612723565b60405180910390fd5b600a545f8054906101000a900473ffffffffffffffffffffffffffffffffffffffff1673ffffffffffffffffffffffffffffffffffffffff1663bc06b8cd6040518163ffffffff1660e01b8152600401602060405180830381865afa1580156109f3573d5f803e3d5ffd5b505050506040513d601f19601f82011682018060405250810190610a1791906123d6565b1015610a58576040517f08c379a0000000000000000000000000000000000000000000000000000000008152600401610a4f9061278b565b60405180910390fd5b600260055410610a9d576040517f08c379a0000000000000000000000000000000000000000000000000000000008152600401610a94906127f3565b60405180910390fd5b5f60055403610b8d575f60025f9054906101000a900473ffffffffffffffffffffffffffffffffffffffff1673ffffffffffffffffffffffffffffffffffffffff1663a9059cbb336004546040518363ffffffff1660e01b8152600401610b05929190612811565b6020604051808303815f875af1158015610b21573d5f803e3d5ffd5b505050506040513d601f19601f82011682018060405250810190610b459190612862565b905080610b87576040517f08c379a0000000000000000000000000000000000000000000000000000000008152600401610b7e906128d7565b60405180910390fd5b506110c9565b5f60015f9054906101000a900473ffffffffffffffffffffffffffffffffffffffff1673ffffffffffffffffffffffffffffffffffffffff16637b43a8e660085f81548110610bdf57610bde6122e0565b5b905f5260205f20015f9054906101000a900473ffffffffffffffffffffffffffffffffffffffff166040518263ffffffff1660e01b8152600401610c239190612216565b606060405180830381865afa158015610c3e573d5f803e3d5ffd5b505050506040513d601f19601f82011682018060405250810190610c629190612946565b925050505f60015f9054906101000a900473ffffffffffffffffffffffffffffffffffffffff1673ffffffffffffffffffffffffffffffffffffffff16637b43a8e66008600181548110610cb957610cb86122e0565b5b905f5260205f20015f9054906101000a900473ffffffffffffffffffffffffffffffffffffffff166040518263ffffffff1660e01b8152600401610cfd9190612216565b606060405180830381865afa158015610d18573d5f803e3d5ffd5b505050506040513d601f19601f82011682018060405250810190610d3c9190612946565b92505050818015610d4b575080155b8015610dbd575060085f81548110610d6657610d656122e0565b5b905f5260205f20015f9054906101000a900473ffffffffffffffffffffffffffffffffffffffff1673ffffffffffffffffffffffffffffffffffffffff163373ffffffffffffffffffffffffffffffffffffffff16145b15610ee4575f60025f9054906101000a900473ffffffffffffffffffffffffffffffffffffffff1673ffffffffffffffffffffffffffffffffffffffff1663a9059cbb60085f81548110610e1457610e136122e0565b5b905f5260205f20015f9054906101000a900473ffffffffffffffffffffffffffffffffffffffff166004546040518363ffffffff1660e01b8152600401610e5c929190612811565b6020604051808303815f875af1158015610e78573d5f803e3d5ffd5b505050506040513d601f19601f82011682018060405250810190610e9c9190612862565b905080610ede576040517f08c379a0000000000000000000000000000000000000000000000000000000008152600401610ed5906128d7565b60405180910390fd5b506110c6565b81158015610eef5750805b8015610f6257506008600181548110610f0b57610f0a6122e0565b5b905f5260205f20015f9054906101000a900473ffffffffffffffffffffffffffffffffffffffff1673ffffffffffffffffffffffffffffffffffffffff163373ffffffffffffffffffffffffffffffffffffffff16145b1561108a575f60025f9054906101000a900473ffffffffffffffffffffffffffffffffffffffff1673ffffffffffffffffffffffffffffffffffffffff1663a9059cbb6008600181548110610fba57610fb96122e0565b5b905f5260205f20015f9054906101000a900473ffffffffffffffffffffffffffffffffffffffff166004546040518363ffffffff1660e01b8152600401611002929190612811565b6020604051808303815f875af115801561101e573d5f803e3d5ffd5b505050506040513d601f19601f820116820180604052508101906110429190612862565b905080611084576040517f08c379a000000000000000000000000000000000000000000000000000000000815260040161107b906128d7565b60405180910390fd5b506110c5565b6040517f08c379a00000000000000000000000000000000000000000000000000000000081526004016110bc906129e0565b60405180910390fd5b5b50505b6110d1611d57565b565b600a5481565b60055481565b600260035414611124576040517f08c379a000000000000000000000000000000000000000000000000000000000815260040161111b90612527565b60405180910390fd5b60075f3373ffffffffffffffffffffffffffffffffffffffff1673ffffffffffffffffffffffffffffffffffffffff1681526020019081526020015f205f9054906101000a900460ff166111ad576040517f08c379a00000000000000000000000000000000000000000000000000000000081526004016111a490612a48565b60405180910390fd5b64e8d4a5100060025f9054906101000a900473ffffffffffffffffffffffffffffffffffffffff1673ffffffffffffffffffffffffffffffffffffffff1663dd62ed3e33306040518363ffffffff1660e01b815260040161120f92919061239b565b602060405180830381865afa15801561122a573d5f803e3d5ffd5b505050506040513d601f19601f8201168201806040525081019061124e91906123d6565b101561128f576040517f08c379a00000000000000000000000000000000000000000000000000000000081526004016112869061244b565b60405180910390fd5b60015f9054906101000a900473ffffffffffffffffffffffffffffffffffffffff1673ffffffffffffffffffffffffffffffffffffffff16635a74610182336040518363ffffffff1660e01b81526004016112eb92919061264a565b5f604051808303815f87803b158015611302575f80fd5b505af1158015611314573d5f803e3d5ffd5b5050505060075f3373ffffffffffffffffffffffffffffffffffffffff1673ffffffffffffffffffffffffffffffffffffffff1681526020019081526020015f205f9054906101000a900460ff16156113d35760095f81548092919061137990612496565b91905055505f60075f3373ffffffffffffffffffffffffffffffffffffffff1673ffffffffffffffffffffffffffffffffffffffff1681526020019081526020015f205f6101000a81548160ff0219169083151502179055505b60026009541480156113f15750600b5f9054906101000a900460ff16155b156117085764e8d4a5100060025f9054906101000a900473ffffffffffffffffffffffffffffffffffffffff1673ffffffffffffffffffffffffffffffffffffffff1663dd62ed3e60085f8154811061144d5761144c6122e0565b5b905f5260205f20015f9054906101000a900473ffffffffffffffffffffffffffffffffffffffff16306040518363ffffffff1660e01b815260040161149392919061239b565b602060405180830381865afa1580156114ae573d5f803e3d5ffd5b505050506040513d601f19601f820116820180604052508101906114d291906123d6565b101580156115bb575064e8d4a5100060025f9054906101000a900473ffffffffffffffffffffffffffffffffffffffff1673ffffffffffffffffffffffffffffffffffffffff1663dd62ed3e6008600181548110611533576115326122e0565b5b905f5260205f20015f9054906101000a900473ffffffffffffffffffffffffffffffffffffffff16306040518363ffffffff1660e01b815260040161157992919061239b565b602060405180830381865afa158015611594573d5f803e3d5ffd5b505050506040513d601f19601f820116820180604052508101906115b891906123d6565b10155b6115fa576040517f08c379a00000000000000000000000000000000000000000000000000000000081526004016115f19061244b565b60405180910390fd5b61166760025f9054906101000a900473ffffffffffffffffffffffffffffffffffffffff1660085f81548110611633576116326122e0565b5b905f5260205f20015f9054906101000a900473ffffffffffffffffffffffffffffffffffffffff163064e8d4a51000611eba565b6116d560025f9054906101000a900473ffffffffffffffffffffffffffffffffffffffff1660086001815481106116a1576116a06122e0565b5b905f5260205f20015f9054906101000a900473ffffffffffffffffffffffffffffffffffffffff163064e8d4a51000611eba565b600264e8d4a510006116e79190612a66565b6004819055506001600b5f6101000a81548160ff0219169083151502179055505b50565b6008818154811061171a575f80fd5b905f5260205f20015f915054906101000a900473ffffffffffffffffffffffffffffffffffffffff1681565b60025f9054906101000a900473ffffffffffffffffffffffffffffffffffffffff1681565b5f60065f60085f81548110611783576117826122e0565b5b905f5260205f20015f9054906101000a900473ffffffffffffffffffffffffffffffffffffffff1673ffffffffffffffffffffffffffffffffffffffff1673ffffffffffffffffffffffffffffffffffffffff1681526020019081526020015f205490505f60065f6008600181548110611800576117ff6122e0565b5b905f5260205f20015f9054906101000a900473ffffffffffffffffffffffffffffffffffffffff1673ffffffffffffffffffffffffffffffffffffffff1673ffffffffffffffffffffffffffffffffffffffff1681526020019081526020015f205490508060036001846118749190612aa7565b61187e9190612b07565b14806118a157508060056003846118959190612aa7565b61189f9190612b07565b145b156119c8575f60025f9054906101000a900473ffffffffffffffffffffffffffffffffffffffff1673ffffffffffffffffffffffffffffffffffffffff1663a9059cbb60085f815481106118f8576118f76122e0565b5b905f5260205f20015f9054906101000a900473ffffffffffffffffffffffffffffffffffffffff166004546040518363ffffffff1660e01b8152600401611940929190612811565b6020604051808303815f875af115801561195c573d5f803e3d5ffd5b505050506040513d601f19601f820116820180604052508101906119809190612862565b9050806119c2576040517f08c379a00000000000000000000000000000000000000000000000000000000081526004016119b9906128d7565b60405180910390fd5b50611d4b565b8160036001836119d89190612aa7565b6119e29190612b07565b1480611a0557508160056003836119f99190612aa7565b611a039190612b07565b145b15611b2d575f60025f9054906101000a900473ffffffffffffffffffffffffffffffffffffffff1673ffffffffffffffffffffffffffffffffffffffff1663a9059cbb6008600181548110611a5d57611a5c6122e0565b5b905f5260205f20015f9054906101000a900473ffffffffffffffffffffffffffffffffffffffff166004546040518363ffffffff1660e01b8152600401611aa5929190612811565b6020604051808303815f875af1158015611ac1573d5f803e3d5ffd5b505050506040513d601f19601f82011682018060405250810190611ae59190612862565b905080611b27576040517f08c379a0000000000000000000000000000000000000000000000000000000008152600401611b1e906128d7565b60405180910390fd5b50611d4a565b5f60025f9054906101000a900473ffffffffffffffffffffffffffffffffffffffff1673ffffffffffffffffffffffffffffffffffffffff1663a9059cbb60085f81548110611b7f57611b7e6122e0565b5b905f5260205f20015f9054906101000a900473ffffffffffffffffffffffffffffffffffffffff166002600454611bb69190612b37565b6040518363ffffffff1660e01b8152600401611bd3929190612811565b6020604051808303815f875af1158015611bef573d5f803e3d5ffd5b505050506040513d601f19601f82011682018060405250810190611c139190612862565b90505f60025f9054906101000a900473ffffffffffffffffffffffffffffffffffffffff1673ffffffffffffffffffffffffffffffffffffffff1663a9059cbb6008600181548110611c6857611c676122e0565b5b905f5260205f20015f9054906101000a900473ffffffffffffffffffffffffffffffffffffffff166002600454611c9f9190612b37565b6040518363ffffffff1660e01b8152600401611cbc929190612811565b6020604051808303815f875af1158015611cd8573d5f803e3d5ffd5b505050506040513d601f19601f82011682018060405250810190611cfc9190612862565b9050818015611d085750805b611d47576040517f08c379a0000000000000000000000000000000000000000000000000000000008152600401611d3e906128d7565b60405180910390fd5b50505b5b611d53611d57565b5050565b5f6004819055505f600b5f6101000a81548160ff0219169083151502179055505f5b600880549050811015611e955760065f60088381548110611d9d57611d9c6122e0565b5b905f5260205f20015f9054906101000a900473ffffffffffffffffffffffffffffffffffffffff1673ffffffffffffffffffffffffffffffffffffffff1673ffffffffffffffffffffffffffffffffffffffff1681526020019081526020015f205f905560075f60088381548110611e1857611e176122e0565b5b905f5260205f20015f9054906101000a900473ffffffffffffffffffffffffffffffffffffffff1673ffffffffffffffffffffffffffffffffffffffff1673ffffffffffffffffffffffffffffffffffffffff1681526020019081526020015f205f6101000a81549060ff02191690558080600101915050611d79565b5060085f611ea39190611f81565b5f6003819055505f6009819055505f600581905550565b5f8473ffffffffffffffffffffffffffffffffffffffff166323b872dd8585856040518463ffffffff1660e01b8152600401611ef893929190612b67565b6020604051808303815f875af1158015611f14573d5f803e3d5ffd5b505050506040513d601f19601f82011682018060405250810190611f389190612862565b905080611f7a576040517f08c379a0000000000000000000000000000000000000000000000000000000008152600401611f71906128d7565b60405180910390fd5b5050505050565b5080545f8255905f5260205f2090810190611f9c9190611f9f565b50565b5b80821115611fb6575f815f905550600101611fa0565b5090565b5f819050919050565b611fcc81611fba565b82525050565b5f602082019050611fe55f830184611fc3565b92915050565b5f80fd5b5f73ffffffffffffffffffffffffffffffffffffffff82169050919050565b5f61201882611fef565b9050919050565b6120288161200e565b8114612032575f80fd5b50565b5f813590506120438161201f565b92915050565b5f6020828403121561205e5761205d611feb565b5b5f61206b84828501612035565b91505092915050565b5f8115159050919050565b61208881612074565b82525050565b5f6020820190506120a15f83018461207f565b92915050565b5f819050919050565b5f6120ca6120c56120c084611fef565b6120a7565b611fef565b9050919050565b5f6120db826120b0565b9050919050565b5f6120ec826120d1565b9050919050565b6120fc816120e2565b82525050565b5f6020820190506121155f8301846120f3565b92915050565b5f819050919050565b61212d8161211b565b8114612137575f80fd5b50565b5f8135905061214881612124565b92915050565b5f6020828403121561216357612162611feb565b5b5f6121708482850161213a565b91505092915050565b5f612183826120d1565b9050919050565b61219381612179565b82525050565b5f6020820190506121ac5f83018461218a565b92915050565b6121bb81611fba565b81146121c5575f80fd5b50565b5f813590506121d6816121b2565b92915050565b5f602082840312156121f1576121f0611feb565b5b5f6121fe848285016121c8565b91505092915050565b6122108161200e565b82525050565b5f6020820190506122295f830184612207565b92915050565b5f612239826120d1565b9050919050565b6122498161222f565b82525050565b5f6020820190506122625f830184612240565b92915050565b5f82825260208201905092915050565b7f47616d6520616c726561647920686173203220706c61796572730000000000005f82015250565b5f6122ac601a83612268565b91506122b782612278565b602082019050919050565b5f6020820190508181035f8301526122d9816122a0565b9050919050565b7f4e487b71000000000000000000000000000000000000000000000000000000005f52603260045260245ffd5b7f596f752061726520616c726561647920726567697374657265642061732061205f8201527f706c617965720000000000000000000000000000000000000000000000000000602082015250565b5f612367602683612268565b91506123728261230d565b604082019050919050565b5f6020820190508181035f8301526123948161235b565b9050919050565b5f6040820190506123ae5f830185612207565b6123bb6020830184612207565b9392505050565b5f815190506123d0816121b2565b92915050565b5f602082840312156123eb576123ea611feb565b5b5f6123f8848285016123c2565b91505092915050565b7f496e73756666696369656e7420746f6b656e20616c6c6f77616e6365000000005f82015250565b5f612435601c83612268565b915061244082612401565b602082019050919050565b5f6020820190508181035f83015261246281612429565b9050919050565b7f4e487b71000000000000000000000000000000000000000000000000000000005f52601160045260245ffd5b5f6124a082611fba565b91507fffffffffffffffffffffffffffffffffffffffffffffffffffffffffffffffff82036124d2576124d1612469565b5b600182019050919050565b7f4e6565642065786163746c79203220706c6179657273000000000000000000005f82015250565b5f612511601683612268565b915061251c826124dd565b602082019050919050565b5f6020820190508181035f83015261253e81612505565b9050919050565b7f426f746820706c6179657273206d75737420636f6d6d697420666972737400005f82015250565b5f612579601e83612268565b915061258482612545565b602082019050919050565b5f6020820190508181035f8301526125a68161256d565b9050919050565b7f46756e6473206e6f7420796574207472616e7366657272656420746f20636f6e5f8201527f7472616374000000000000000000000000000000000000000000000000000000602082015250565b5f612607602583612268565b9150612612826125ad565b604082019050919050565b5f6020820190508181035f830152612634816125fb565b9050919050565b6126448161211b565b82525050565b5f60408201905061265d5f83018561263b565b61266a6020830184612207565b9392505050565b7f43686f696365206973206e6f742076616c6964000000000000000000000000005f82015250565b5f6126a5601383612268565b91506126b082612671565b602082019050919050565b5f6020820190508181035f8301526126d281612699565b9050919050565b7f47616d65206e6f7420696e20636f7272656374207374617465000000000000005f82015250565b5f61270d601983612268565b9150612718826126d9565b602082019050919050565b5f6020820190508181035f83015261273a81612701565b9050919050565b7f54696d65206c696d6974206e6f742072656163686564000000000000000000005f82015250565b5f612775601683612268565b915061278082612741565b602082019050919050565b5f6020820190508181035f8301526127a281612769565b9050919050565b7f426f746820706c617965727320616c72656164792072657665616c65640000005f82015250565b5f6127dd601d83612268565b91506127e8826127a9565b602082019050919050565b5f6020820190508181035f83015261280a816127d1565b9050919050565b5f6040820190506128245f830185612207565b6128316020830184611fc3565b9392505050565b61284181612074565b811461284b575f80fd5b50565b5f8151905061285c81612838565b92915050565b5f6020828403121561287757612876611feb565b5b5f6128848482850161284e565b91505092915050565b7f546f6b656e207472616e73666572206661696c656400000000000000000000005f82015250565b5f6128c1601583612268565b91506128cc8261288d565b602082019050919050565b5f6020820190508181035f8301526128ee816128b5565b9050919050565b5f8151905061290381612124565b92915050565b5f67ffffffffffffffff82169050919050565b61292581612909565b811461292f575f80fd5b50565b5f815190506129408161291c565b92915050565b5f805f6060848603121561295d5761295c611feb565b5b5f61296a868287016128f5565b935050602061297b86828701612932565b925050604061298c8682870161284e565b9150509250925092565b7f596f752063616e6e6f7420636c61696d207468652072657761726400000000005f82015250565b5f6129ca601b83612268565b91506129d582612996565b602082019050919050565b5f6020820190508181035f8301526129f7816129be565b9050919050565b7f596f7520616c7265616479206d61646520796f75722063686f696365000000005f82015250565b5f612a32601c83612268565b9150612a3d826129fe565b602082019050919050565b5f6020820190508181035f830152612a5f81612a26565b9050919050565b5f612a7082611fba565b9150612a7b83611fba565b9250828202612a8981611fba565b91508282048414831517612aa057612a9f612469565b5b5092915050565b5f612ab182611fba565b9150612abc83611fba565b9250828201905080821115612ad457612ad3612469565b5b92915050565b7f4e487b71000000000000000000000000000000000000000000000000000000005f52601260045260245ffd5b5f612b1182611fba565b9150612b1c83611fba565b925082612b2c57612b2b612ada565b5b828206905092915050565b5f612b4182611fba565b9150612b4c83611fba565b925082612b5c57612b5b612ada565b5b828204905092915050565b5f606082019050612b7a5f830186612207565b612b876020830185612207565b612b946040830184611fc3565b94935050505056fea264697066735822122004072739bbf6a17e678b58c9e915c253d82d5355dd42ff10e5f9fd7abcf0344864736f6c634300081a0033",
			"opcodes": "PUSH1 0x80 PUSH1 0x40 MSTORE PUSH0 PUSH1 0x3 SSTORE PUSH0 PUSH1 0x4 SSTORE PUSH0 PUSH1 0x5 SSTORE PUSH0 PUSH1 0x9 SSTORE PUSH1 0x1E PUSH1 0xA SSTORE PUSH0 PUSH1 0xB PUSH0 PUSH2 0x100 EXP DUP2 SLOAD DUP2 PUSH1 0xFF MUL NOT AND SWAP1 DUP4 ISZERO ISZERO MUL OR SWAP1 SSTORE POP CALLVALUE DUP1 ISZERO PUSH2 0x3D JUMPI PUSH0 DUP1 REVERT JUMPDEST POP PUSH1 0x40 MLOAD PUSH2 0x2DB3 CODESIZE SUB DUP1 PUSH2 0x2DB3 DUP4 CODECOPY DUP2 DUP2 ADD PUSH1 0x40 MSTORE DUP2 ADD SWAP1 PUSH2 0x5F SWAP2 SWAP1 PUSH2 0x184 JUMP JUMPDEST DUP3 PUSH0 DUP1 PUSH2 0x100 EXP DUP2 SLOAD DUP2 PUSH20 0xFFFFFFFFFFFFFFFFFFFFFFFFFFFFFFFFFFFFFFFF MUL NOT AND SWAP1 DUP4 PUSH20 0xFFFFFFFFFFFFFFFFFFFFFFFFFFFFFFFFFFFFFFFF AND MUL OR SWAP1 SSTORE POP DUP2 PUSH1 0x1 PUSH0 PUSH2 0x100 EXP DUP2 SLOAD DUP2 PUSH20 0xFFFFFFFFFFFFFFFFFFFFFFFFFFFFFFFFFFFFFFFF MUL NOT AND SWAP1 DUP4 PUSH20 0xFFFFFFFFFFFFFFFFFFFFFFFFFFFFFFFFFFFFFFFF AND MUL OR SWAP1 SSTORE POP DUP1 PUSH1 0x2 PUSH0 PUSH2 0x100 EXP DUP2 SLOAD DUP2 PUSH20 0xFFFFFFFFFFFFFFFFFFFFFFFFFFFFFFFFFFFFFFFF MUL NOT AND SWAP1 DUP4 PUSH20 0xFFFFFFFFFFFFFFFFFFFFFFFFFFFFFFFFFFFFFFFF AND MUL OR SWAP1 SSTORE POP POP POP POP PUSH2 0x1D4 JUMP JUMPDEST PUSH0 DUP1 REVERT JUMPDEST PUSH0 PUSH20 0xFFFFFFFFFFFFFFFFFFFFFFFFFFFFFFFFFFFFFFFF DUP3 AND SWAP1 POP SWAP2 SWAP1 POP JUMP JUMPDEST PUSH0 PUSH2 0x153 DUP3 PUSH2 0x12A JUMP JUMPDEST SWAP1 POP SWAP2 SWAP1 POP JUMP JUMPDEST PUSH2 0x163 DUP2 PUSH2 0x149 JUMP JUMPDEST DUP2 EQ PUSH2 0x16D JUMPI PUSH0 DUP1 REVERT JUMPDEST POP JUMP JUMPDEST PUSH0 DUP2 MLOAD SWAP1 POP PUSH2 0x17E DUP2 PUSH2 0x15A JUMP JUMPDEST SWAP3 SWAP2 POP POP JUMP JUMPDEST PUSH0 DUP1 PUSH0 PUSH1 0x60 DUP5 DUP7 SUB SLT ISZERO PUSH2 0x19B JUMPI PUSH2 0x19A PUSH2 0x126 JUMP JUMPDEST JUMPDEST PUSH0 PUSH2 0x1A8 DUP7 DUP3 DUP8 ADD PUSH2 0x170 JUMP JUMPDEST SWAP4 POP POP PUSH1 0x20 PUSH2 0x1B9 DUP7 DUP3 DUP8 ADD PUSH2 0x170 JUMP JUMPDEST SWAP3 POP POP PUSH1 0x40 PUSH2 0x1CA DUP7 DUP3 DUP8 ADD PUSH2 0x170 JUMP JUMPDEST SWAP2 POP POP SWAP3 POP SWAP3 POP SWAP3 JUMP JUMPDEST PUSH2 0x2BD2 DUP1 PUSH2 0x1E1 PUSH0 CODECOPY PUSH0 RETURN INVALID PUSH1 0x80 PUSH1 0x40 MSTORE CALLVALUE DUP1 ISZERO PUSH2 0xF JUMPI PUSH0 DUP1 REVERT JUMPDEST POP PUSH1 0x4 CALLDATASIZE LT PUSH2 0x109 JUMPI PUSH0 CALLDATALOAD PUSH1 0xE0 SHR DUP1 PUSH4 0x90D5D0C3 GT PUSH2 0xA0 JUMPI DUP1 PUSH4 0xC08D1FE5 GT PUSH2 0x6F JUMPI DUP1 PUSH4 0xC08D1FE5 EQ PUSH2 0x26F JUMPI DUP1 PUSH4 0xC876E615 EQ PUSH2 0x28D JUMPI DUP1 PUSH4 0xF14FCBC8 EQ PUSH2 0x2AB JUMPI DUP1 PUSH4 0xF71D96CB EQ PUSH2 0x2C7 JUMPI DUP1 PUSH4 0xFC0C546A EQ PUSH2 0x2F7 JUMPI PUSH2 0x109 JUMP JUMPDEST DUP1 PUSH4 0x90D5D0C3 EQ PUSH2 0x1F9 JUMPI DUP1 PUSH4 0x9D7B3F2D EQ PUSH2 0x217 JUMPI DUP1 PUSH4 0xA040478D EQ PUSH2 0x235 JUMPI DUP1 PUSH4 0xA224CB3E EQ PUSH2 0x265 JUMPI PUSH2 0x109 JUMP JUMPDEST DUP1 PUSH4 0x3C6A7F9B GT PUSH2 0xDC JUMPI DUP1 PUSH4 0x3C6A7F9B EQ PUSH2 0x183 JUMPI DUP1 PUSH4 0x55F6497D EQ PUSH2 0x1A1 JUMPI DUP1 PUSH4 0x701FD0F1 EQ PUSH2 0x1BF JUMPI DUP1 PUSH4 0x87E69625 EQ PUSH2 0x1DB JUMPI PUSH2 0x109 JUMP JUMPDEST DUP1 PUSH4 0x86F7815 EQ PUSH2 0x10D JUMPI DUP1 PUSH4 0x190CF745 EQ PUSH2 0x12B JUMPI DUP1 PUSH4 0x228CB733 EQ PUSH2 0x15B JUMPI DUP1 PUSH4 0x27B5DB8A EQ PUSH2 0x179 JUMPI JUMPDEST PUSH0 DUP1 REVERT JUMPDEST PUSH2 0x115 PUSH2 0x315 JUMP JUMPDEST PUSH1 0x40 MLOAD PUSH2 0x122 SWAP2 SWAP1 PUSH2 0x1FD2 JUMP JUMPDEST PUSH1 0x40 MLOAD DUP1 SWAP2 SUB SWAP1 RETURN JUMPDEST PUSH2 0x145 PUSH1 0x4 DUP1 CALLDATASIZE SUB DUP2 ADD SWAP1 PUSH2 0x140 SWAP2 SWAP1 PUSH2 0x2049 JUMP JUMPDEST PUSH2 0x31B JUMP JUMPDEST PUSH1 0x40 MLOAD PUSH2 0x152 SWAP2 SWAP1 PUSH2 0x208E JUMP JUMPDEST PUSH1 0x40 MLOAD DUP1 SWAP2 SUB SWAP1 RETURN JUMPDEST PUSH2 0x163 PUSH2 0x338 JUMP JUMPDEST PUSH1 0x40 MLOAD PUSH2 0x170 SWAP2 SWAP1 PUSH2 0x1FD2 JUMP JUMPDEST PUSH1 0x40 MLOAD DUP1 SWAP2 SUB SWAP1 RETURN JUMPDEST PUSH2 0x181 PUSH2 0x33E JUMP JUMPDEST STOP JUMPDEST PUSH2 0x18B PUSH2 0x66C JUMP JUMPDEST PUSH1 0x40 MLOAD PUSH2 0x198 SWAP2 SWAP1 PUSH2 0x2102 JUMP JUMPDEST PUSH1 0x40 MLOAD DUP1 SWAP2 SUB SWAP1 RETURN JUMPDEST PUSH2 0x1A9 PUSH2 0x68F JUMP JUMPDEST PUSH1 0x40 MLOAD PUSH2 0x1B6 SWAP2 SWAP1 PUSH2 0x208E JUMP JUMPDEST PUSH1 0x40 MLOAD DUP1 SWAP2 SUB SWAP1 RETURN JUMPDEST PUSH2 0x1D9 PUSH1 0x4 DUP1 CALLDATASIZE SUB DUP2 ADD SWAP1 PUSH2 0x1D4 SWAP2 SWAP1 PUSH2 0x214E JUMP JUMPDEST PUSH2 0x6A1 JUMP JUMPDEST STOP JUMPDEST PUSH2 0x1E3 PUSH2 0x8E3 JUMP JUMPDEST PUSH1 0x40 MLOAD PUSH2 0x1F0 SWAP2 SWAP1 PUSH2 0x1FD2 JUMP JUMPDEST PUSH1 0x40 MLOAD DUP1 SWAP2 SUB SWAP1 RETURN JUMPDEST PUSH2 0x201 PUSH2 0x8EC JUMP JUMPDEST PUSH1 0x40 MLOAD PUSH2 0x20E SWAP2 SWAP1 PUSH2 0x1FD2 JUMP JUMPDEST PUSH1 0x40 MLOAD DUP1 SWAP2 SUB SWAP1 RETURN JUMPDEST PUSH2 0x21F PUSH2 0x8F2 JUMP JUMPDEST PUSH1 0x40 MLOAD PUSH2 0x22C SWAP2 SWAP1 PUSH2 0x2199 JUMP JUMPDEST PUSH1 0x40 MLOAD DUP1 SWAP2 SUB SWAP1 RETURN JUMPDEST PUSH2 0x24F PUSH1 0x4 DUP1 CALLDATASIZE SUB DUP2 ADD SWAP1 PUSH2 0x24A SWAP2 SWAP1 PUSH2 0x2049 JUMP JUMPDEST PUSH2 0x917 JUMP JUMPDEST PUSH1 0x40 MLOAD PUSH2 0x25C SWAP2 SWAP1 PUSH2 0x1FD2 JUMP JUMPDEST PUSH1 0x40 MLOAD DUP1 SWAP2 SUB SWAP1 RETURN JUMPDEST PUSH2 0x26D PUSH2 0x92C JUMP JUMPDEST STOP JUMPDEST PUSH2 0x277 PUSH2 0x10D3 JUMP JUMPDEST PUSH1 0x40 MLOAD PUSH2 0x284 SWAP2 SWAP1 PUSH2 0x1FD2 JUMP JUMPDEST PUSH1 0x40 MLOAD DUP1 SWAP2 SUB SWAP1 RETURN JUMPDEST PUSH2 0x295 PUSH2 0x10D9 JUMP JUMPDEST PUSH1 0x40 MLOAD PUSH2 0x2A2 SWAP2 SWAP1 PUSH2 0x1FD2 JUMP JUMPDEST PUSH1 0x40 MLOAD DUP1 SWAP2 SUB SWAP1 RETURN JUMPDEST PUSH2 0x2C5 PUSH1 0x4 DUP1 CALLDATASIZE SUB DUP2 ADD SWAP1 PUSH2 0x2C0 SWAP2 SWAP1 PUSH2 0x214E JUMP JUMPDEST PUSH2 0x10DF JUMP JUMPDEST STOP JUMPDEST PUSH2 0x2E1 PUSH1 0x4 DUP1 CALLDATASIZE SUB DUP2 ADD SWAP1 PUSH2 0x2DC SWAP2 SWAP1 PUSH2 0x21DC JUMP JUMPDEST PUSH2 0x170B JUMP JUMPDEST PUSH1 0x40 MLOAD PUSH2 0x2EE SWAP2 SWAP1 PUSH2 0x2216 JUMP JUMPDEST PUSH1 0x40 MLOAD DUP1 SWAP2 SUB SWAP1 RETURN JUMPDEST PUSH2 0x2FF PUSH2 0x1746 JUMP JUMPDEST PUSH1 0x40 MLOAD PUSH2 0x30C SWAP2 SWAP1 PUSH2 0x224F JUMP JUMPDEST PUSH1 0x40 MLOAD DUP1 SWAP2 SUB SWAP1 RETURN JUMPDEST PUSH1 0x9 SLOAD DUP2 JUMP JUMPDEST PUSH1 0x7 PUSH1 0x20 MSTORE DUP1 PUSH0 MSTORE PUSH1 0x40 PUSH0 KECCAK256 PUSH0 SWAP2 POP SLOAD SWAP1 PUSH2 0x100 EXP SWAP1 DIV PUSH1 0xFF AND DUP2 JUMP JUMPDEST PUSH1 0x4 SLOAD DUP2 JUMP JUMPDEST PUSH1 0x2 PUSH1 0x3 SLOAD LT PUSH2 0x383 JUMPI PUSH1 0x40 MLOAD PUSH32 0x8C379A000000000000000000000000000000000000000000000000000000000 DUP2 MSTORE PUSH1 0x4 ADD PUSH2 0x37A SWAP1 PUSH2 0x22C2 JUMP JUMPDEST PUSH1 0x40 MLOAD DUP1 SWAP2 SUB SWAP1 REVERT JUMPDEST PUSH0 PUSH1 0x3 SLOAD GT ISZERO PUSH2 0x437 JUMPI PUSH1 0x8 PUSH0 DUP2 SLOAD DUP2 LT PUSH2 0x3A1 JUMPI PUSH2 0x3A0 PUSH2 0x22E0 JUMP JUMPDEST JUMPDEST SWAP1 PUSH0 MSTORE PUSH1 0x20 PUSH0 KECCAK256 ADD PUSH0 SWAP1 SLOAD SWAP1 PUSH2 0x100 EXP SWAP1 DIV PUSH20 0xFFFFFFFFFFFFFFFFFFFFFFFFFFFFFFFFFFFFFFFF AND PUSH20 0xFFFFFFFFFFFFFFFFFFFFFFFFFFFFFFFFFFFFFFFF AND CALLER PUSH20 0xFFFFFFFFFFFFFFFFFFFFFFFFFFFFFFFFFFFFFFFF AND SUB PUSH2 0x436 JUMPI PUSH1 0x40 MLOAD PUSH32 0x8C379A000000000000000000000000000000000000000000000000000000000 DUP2 MSTORE PUSH1 0x4 ADD PUSH2 0x42D SWAP1 PUSH2 0x237D JUMP JUMPDEST PUSH1 0x40 MLOAD DUP1 SWAP2 SUB SWAP1 REVERT JUMPDEST JUMPDEST PUSH5 0xE8D4A51000 PUSH1 0x2 PUSH0 SWAP1 SLOAD SWAP1 PUSH2 0x100 EXP SWAP1 DIV PUSH20 0xFFFFFFFFFFFFFFFFFFFFFFFFFFFFFFFFFFFFFFFF AND PUSH20 0xFFFFFFFFFFFFFFFFFFFFFFFFFFFFFFFFFFFFFFFF AND PUSH4 0xDD62ED3E CALLER ADDRESS PUSH1 0x40 MLOAD DUP4 PUSH4 0xFFFFFFFF AND PUSH1 0xE0 SHL DUP2 MSTORE PUSH1 0x4 ADD PUSH2 0x499 SWAP3 SWAP2 SWAP1 PUSH2 0x239B JUMP JUMPDEST PUSH1 0x20 PUSH1 0x40 MLOAD DUP1 DUP4 SUB DUP2 DUP7 GAS STATICCALL ISZERO DUP1 ISZERO PUSH2 0x4B4 JUMPI RETURNDATASIZE PUSH0 DUP1 RETURNDATACOPY RETURNDATASIZE PUSH0 REVERT JUMPDEST POP POP POP POP PUSH1 0x40 MLOAD RETURNDATASIZE PUSH1 0x1F NOT PUSH1 0x1F DUP3 ADD AND DUP3 ADD DUP1 PUSH1 0x40 MSTORE POP DUP2 ADD SWAP1 PUSH2 0x4D8 SWAP2 SWAP1 PUSH2 0x23D6 JUMP JUMPDEST LT ISZERO PUSH2 0x519 JUMPI PUSH1 0x40 MLOAD PUSH32 0x8C379A000000000000000000000000000000000000000000000000000000000 DUP2 MSTORE PUSH1 0x4 ADD PUSH2 0x510 SWAP1 PUSH2 0x244B JUMP JUMPDEST PUSH1 0x40 MLOAD DUP1 SWAP2 SUB SWAP1 REVERT JUMPDEST PUSH1 0x1 PUSH1 0x7 PUSH0 CALLER PUSH20 0xFFFFFFFFFFFFFFFFFFFFFFFFFFFFFFFFFFFFFFFF AND PUSH20 0xFFFFFFFFFFFFFFFFFFFFFFFFFFFFFFFFFFFFFFFF AND DUP2 MSTORE PUSH1 0x20 ADD SWAP1 DUP2 MSTORE PUSH1 0x20 ADD PUSH0 KECCAK256 PUSH0 PUSH2 0x100 EXP DUP2 SLOAD DUP2 PUSH1 0xFF MUL NOT AND SWAP1 DUP4 ISZERO ISZERO MUL OR SWAP1 SSTORE POP PUSH1 0x8 CALLER SWAP1 DUP1 PUSH1 0x1 DUP2 SLOAD ADD DUP1 DUP3 SSTORE DUP1 SWAP2 POP POP PUSH1 0x1 SWAP1 SUB SWAP1 PUSH0 MSTORE PUSH1 0x20 PUSH0 KECCAK256 ADD PUSH0 SWAP1 SWAP2 SWAP1 SWAP2 SWAP1 SWAP2 PUSH2 0x100 EXP DUP2 SLOAD DUP2 PUSH20 0xFFFFFFFFFFFFFFFFFFFFFFFFFFFFFFFFFFFFFFFF MUL NOT AND SWAP1 DUP4 PUSH20 0xFFFFFFFFFFFFFFFFFFFFFFFFFFFFFFFFFFFFFFFF AND MUL OR SWAP1 SSTORE POP PUSH1 0x3 PUSH0 DUP2 SLOAD DUP1 SWAP3 SWAP2 SWAP1 PUSH2 0x5E0 SWAP1 PUSH2 0x2496 JUMP JUMPDEST SWAP2 SWAP1 POP SSTORE POP PUSH1 0x1 PUSH1 0x3 SLOAD SUB PUSH2 0x66A JUMPI PUSH0 DUP1 SLOAD SWAP1 PUSH2 0x100 EXP SWAP1 DIV PUSH20 0xFFFFFFFFFFFFFFFFFFFFFFFFFFFFFFFFFFFFFFFF AND PUSH20 0xFFFFFFFFFFFFFFFFFFFFFFFFFFFFFFFFFFFFFFFF AND PUSH4 0xA63F7C53 PUSH1 0x40 MLOAD DUP2 PUSH4 0xFFFFFFFF AND PUSH1 0xE0 SHL DUP2 MSTORE PUSH1 0x4 ADD PUSH0 PUSH1 0x40 MLOAD DUP1 DUP4 SUB DUP2 PUSH0 DUP8 DUP1 EXTCODESIZE ISZERO DUP1 ISZERO PUSH2 0x653 JUMPI PUSH0 DUP1 REVERT JUMPDEST POP GAS CALL ISZERO DUP1 ISZERO PUSH2 0x665 JUMPI RETURNDATASIZE PUSH0 DUP1 RETURNDATACOPY RETURNDATASIZE PUSH0 REVERT JUMPDEST POP POP POP POP JUMPDEST JUMP JUMPDEST PUSH0 DUP1 SLOAD SWAP1 PUSH2 0x100 EXP SWAP1 DIV PUSH20 0xFFFFFFFFFFFFFFFFFFFFFFFFFFFFFFFFFFFFFFFF AND DUP2 JUMP JUMPDEST PUSH1 0xB PUSH0 SWAP1 SLOAD SWAP1 PUSH2 0x100 EXP SWAP1 DIV PUSH1 0xFF AND DUP2 JUMP JUMPDEST PUSH1 0x2 PUSH1 0x3 SLOAD EQ PUSH2 0x6E6 JUMPI PUSH1 0x40 MLOAD PUSH32 0x8C379A000000000000000000000000000000000000000000000000000000000 DUP2 MSTORE PUSH1 0x4 ADD PUSH2 0x6DD SWAP1 PUSH2 0x2527 JUMP JUMPDEST PUSH1 0x40 MLOAD DUP1 SWAP2 SUB SWAP1 REVERT JUMPDEST PUSH1 0x2 PUSH1 0x9 SLOAD EQ PUSH2 0x72B JUMPI PUSH1 0x40 MLOAD PUSH32 0x8C379A000000000000000000000000000000000000000000000000000000000 DUP2 MSTORE PUSH1 0x4 ADD PUSH2 0x722 SWAP1 PUSH2 0x258F JUMP JUMPDEST PUSH1 0x40 MLOAD DUP1 SWAP2 SUB SWAP1 REVERT JUMPDEST PUSH1 0xB PUSH0 SWAP1 SLOAD SWAP1 PUSH2 0x100 EXP SWAP1 DIV PUSH1 0xFF AND PUSH2 0x779 JUMPI PUSH1 0x40 MLOAD PUSH32 0x8C379A000000000000000000000000000000000000000000000000000000000 DUP2 MSTORE PUSH1 0x4 ADD PUSH2 0x770 SWAP1 PUSH2 0x261D JUMP JUMPDEST PUSH1 0x40 MLOAD DUP1 SWAP2 SUB SWAP1 REVERT JUMPDEST PUSH1 0x1 PUSH0 SWAP1 SLOAD SWAP1 PUSH2 0x100 EXP SWAP1 DIV PUSH20 0xFFFFFFFFFFFFFFFFFFFFFFFFFFFFFFFFFFFFFFFF AND PUSH20 0xFFFFFFFFFFFFFFFFFFFFFFFFFFFFFFFFFFFFFFFF AND PUSH4 0xAD487790 DUP3 CALLER PUSH1 0x40 MLOAD DUP4 PUSH4 0xFFFFFFFF AND PUSH1 0xE0 SHL DUP2 MSTORE PUSH1 0x4 ADD PUSH2 0x7D5 SWAP3 SWAP2 SWAP1 PUSH2 0x264A JUMP JUMPDEST PUSH0 PUSH1 0x40 MLOAD DUP1 DUP4 SUB DUP2 PUSH0 DUP8 DUP1 EXTCODESIZE ISZERO DUP1 ISZERO PUSH2 0x7EC JUMPI PUSH0 DUP1 REVERT JUMPDEST POP GAS CALL ISZERO DUP1 ISZERO PUSH2 0x7FE JUMPI RETURNDATASIZE PUSH0 DUP1 RETURNDATACOPY RETURNDATASIZE PUSH0 REVERT JUMPDEST POP POP POP POP PUSH0 DUP2 PUSH1 0x1F PUSH1 0x20 DUP2 LT PUSH2 0x817 JUMPI PUSH2 0x816 PUSH2 0x22E0 JUMP JUMPDEST JUMPDEST BYTE PUSH1 0xF8 SHL PUSH1 0xF8 SHR PUSH1 0xFF AND SWAP1 POP PUSH0 DUP2 LT ISZERO DUP1 ISZERO PUSH2 0x834 JUMPI POP PUSH1 0x4 DUP2 GT ISZERO JUMPDEST PUSH2 0x873 JUMPI PUSH1 0x40 MLOAD PUSH32 0x8C379A000000000000000000000000000000000000000000000000000000000 DUP2 MSTORE PUSH1 0x4 ADD PUSH2 0x86A SWAP1 PUSH2 0x26BB JUMP JUMPDEST PUSH1 0x40 MLOAD DUP1 SWAP2 SUB SWAP1 REVERT JUMPDEST DUP1 PUSH1 0x6 PUSH0 CALLER PUSH20 0xFFFFFFFFFFFFFFFFFFFFFFFFFFFFFFFFFFFFFFFF AND PUSH20 0xFFFFFFFFFFFFFFFFFFFFFFFFFFFFFFFFFFFFFFFF AND DUP2 MSTORE PUSH1 0x20 ADD SWAP1 DUP2 MSTORE PUSH1 0x20 ADD PUSH0 KECCAK256 DUP2 SWAP1 SSTORE POP PUSH1 0x5 PUSH0 DUP2 SLOAD DUP1 SWAP3 SWAP2 SWAP1 PUSH2 0x8C7 SWAP1 PUSH2 0x2496 JUMP JUMPDEST SWAP2 SWAP1 POP SSTORE POP PUSH1 0x2 PUSH1 0x5 SLOAD SUB PUSH2 0x8DF JUMPI PUSH2 0x8DE PUSH2 0x176B JUMP JUMPDEST JUMPDEST POP POP JUMP JUMPDEST PUSH5 0xE8D4A51000 DUP2 JUMP JUMPDEST PUSH1 0x3 SLOAD DUP2 JUMP JUMPDEST PUSH1 0x1 PUSH0 SWAP1 SLOAD SWAP1 PUSH2 0x100 EXP SWAP1 DIV PUSH20 0xFFFFFFFFFFFFFFFFFFFFFFFFFFFFFFFFFFFFFFFF AND DUP2 JUMP JUMPDEST PUSH1 0x6 PUSH1 0x20 MSTORE DUP1 PUSH0 MSTORE PUSH1 0x40 PUSH0 KECCAK256 PUSH0 SWAP2 POP SWAP1 POP SLOAD DUP2 JUMP JUMPDEST PUSH1 0x2 PUSH1 0x3 SLOAD EQ DUP1 ISZERO PUSH2 0x949 JUMPI POP PUSH1 0xB PUSH0 SWAP1 SLOAD SWAP1 PUSH2 0x100 EXP SWAP1 DIV PUSH1 0xFF AND JUMPDEST PUSH2 0x988 JUMPI PUSH1 0x40 MLOAD PUSH32 0x8C379A000000000000000000000000000000000000000000000000000000000 DUP2 MSTORE PUSH1 0x4 ADD PUSH2 0x97F SWAP1 PUSH2 0x2723 JUMP JUMPDEST PUSH1 0x40 MLOAD DUP1 SWAP2 SUB SWAP1 REVERT JUMPDEST PUSH1 0xA SLOAD PUSH0 DUP1 SLOAD SWAP1 PUSH2 0x100 EXP SWAP1 DIV PUSH20 0xFFFFFFFFFFFFFFFFFFFFFFFFFFFFFFFFFFFFFFFF AND PUSH20 0xFFFFFFFFFFFFFFFFFFFFFFFFFFFFFFFFFFFFFFFF AND PUSH4 0xBC06B8CD PUSH1 0x40 MLOAD DUP2 PUSH4 0xFFFFFFFF AND PUSH1 0xE0 SHL DUP2 MSTORE PUSH1 0x4 ADD PUSH1 0x20 PUSH1 0x40 MLOAD DUP1 DUP4 SUB DUP2 DUP7 GAS STATICCALL ISZERO DUP1 ISZERO PUSH2 0x9F3 JUMPI RETURNDATASIZE PUSH0 DUP1 RETURNDATACOPY RETURNDATASIZE PUSH0 REVERT JUMPDEST POP POP POP POP PUSH1 0x40 MLOAD RETURNDATASIZE PUSH1 0x1F NOT PUSH1 0x1F DUP3 ADD AND DUP3 ADD DUP1 PUSH1 0x40 MSTORE POP DUP2 ADD SWAP1 PUSH2 0xA17 SWAP2 SWAP1 PUSH2 0x23D6 JUMP JUMPDEST LT ISZERO PUSH2 0xA58 JUMPI PUSH1 0x40 MLOAD PUSH32 0x8C379A000000000000000000000000000000000000000000000000000000000 DUP2 MSTORE PUSH1 0x4 ADD PUSH2 0xA4F SWAP1 PUSH2 0x278B JUMP JUMPDEST PUSH1 0x40 MLOAD DUP1 SWAP2 SUB SWAP1 REVERT JUMPDEST PUSH1 0x2 PUSH1 0x5 SLOAD LT PUSH2 0xA9D JUMPI PUSH1 0x40 MLOAD PUSH32 0x8C379A000000000000000000000000000000000000000000000000000000000 DUP2 MSTORE PUSH1 0x4 ADD PUSH2 0xA94 SWAP1 PUSH2 0x27F3 JUMP JUMPDEST PUSH1 0x40 MLOAD DUP1 SWAP2 SUB SWAP1 REVERT JUMPDEST PUSH0 PUSH1 0x5 SLOAD SUB PUSH2 0xB8D JUMPI PUSH0 PUSH1 0x2 PUSH0 SWAP1 SLOAD SWAP1 PUSH2 0x100 EXP SWAP1 DIV PUSH20 0xFFFFFFFFFFFFFFFFFFFFFFFFFFFFFFFFFFFFFFFF AND PUSH20 0xFFFFFFFFFFFFFFFFFFFFFFFFFFFFFFFFFFFFFFFF AND PUSH4 0xA9059CBB CALLER PUSH1 0x4 SLOAD PUSH1 0x40 MLOAD DUP4 PUSH4 0xFFFFFFFF AND PUSH1 0xE0 SHL DUP2 MSTORE PUSH1 0x4 ADD PUSH2 0xB05 SWAP3 SWAP2 SWAP1 PUSH2 0x2811 JUMP JUMPDEST PUSH1 0x20 PUSH1 0x40 MLOAD DUP1 DUP4 SUB DUP2 PUSH0 DUP8 GAS CALL ISZERO DUP1 ISZERO PUSH2 0xB21 JUMPI RETURNDATASIZE PUSH0 DUP1 RETURNDATACOPY RETURNDATASIZE PUSH0 REVERT JUMPDEST POP POP POP POP PUSH1 0x40 MLOAD RETURNDATASIZE PUSH1 0x1F NOT PUSH1 0x1F DUP3 ADD AND DUP3 ADD DUP1 PUSH1 0x40 MSTORE POP DUP2 ADD SWAP1 PUSH2 0xB45 SWAP2 SWAP1 PUSH2 0x2862 JUMP JUMPDEST SWAP1 POP DUP1 PUSH2 0xB87 JUMPI PUSH1 0x40 MLOAD PUSH32 0x8C379A000000000000000000000000000000000000000000000000000000000 DUP2 MSTORE PUSH1 0x4 ADD PUSH2 0xB7E SWAP1 PUSH2 0x28D7 JUMP JUMPDEST PUSH1 0x40 MLOAD DUP1 SWAP2 SUB SWAP1 REVERT JUMPDEST POP PUSH2 0x10C9 JUMP JUMPDEST PUSH0 PUSH1 0x1 PUSH0 SWAP1 SLOAD SWAP1 PUSH2 0x100 EXP SWAP1 DIV PUSH20 0xFFFFFFFFFFFFFFFFFFFFFFFFFFFFFFFFFFFFFFFF AND PUSH20 0xFFFFFFFFFFFFFFFFFFFFFFFFFFFFFFFFFFFFFFFF AND PUSH4 0x7B43A8E6 PUSH1 0x8 PUSH0 DUP2 SLOAD DUP2 LT PUSH2 0xBDF JUMPI PUSH2 0xBDE PUSH2 0x22E0 JUMP JUMPDEST JUMPDEST SWAP1 PUSH0 MSTORE PUSH1 0x20 PUSH0 KECCAK256 ADD PUSH0 SWAP1 SLOAD SWAP1 PUSH2 0x100 EXP SWAP1 DIV PUSH20 0xFFFFFFFFFFFFFFFFFFFFFFFFFFFFFFFFFFFFFFFF AND PUSH1 0x40 MLOAD DUP3 PUSH4 0xFFFFFFFF AND PUSH1 0xE0 SHL DUP2 MSTORE PUSH1 0x4 ADD PUSH2 0xC23 SWAP2 SWAP1 PUSH2 0x2216 JUMP JUMPDEST PUSH1 0x60 PUSH1 0x40 MLOAD DUP1 DUP4 SUB DUP2 DUP7 GAS STATICCALL ISZERO DUP1 ISZERO PUSH2 0xC3E JUMPI RETURNDATASIZE PUSH0 DUP1 RETURNDATACOPY RETURNDATASIZE PUSH0 REVERT JUMPDEST POP POP POP POP PUSH1 0x40 MLOAD RETURNDATASIZE PUSH1 0x1F NOT PUSH1 0x1F DUP3 ADD AND DUP3 ADD DUP1 PUSH1 0x40 MSTORE POP DUP2 ADD SWAP1 PUSH2 0xC62 SWAP2 SWAP1 PUSH2 0x2946 JUMP JUMPDEST SWAP3 POP POP POP PUSH0 PUSH1 0x1 PUSH0 SWAP1 SLOAD SWAP1 PUSH2 0x100 EXP SWAP1 DIV PUSH20 0xFFFFFFFFFFFFFFFFFFFFFFFFFFFFFFFFFFFFFFFF AND PUSH20 0xFFFFFFFFFFFFFFFFFFFFFFFFFFFFFFFFFFFFFFFF AND PUSH4 0x7B43A8E6 PUSH1 0x8 PUSH1 0x1 DUP2 SLOAD DUP2 LT PUSH2 0xCB9 JUMPI PUSH2 0xCB8 PUSH2 0x22E0 JUMP JUMPDEST JUMPDEST SWAP1 PUSH0 MSTORE PUSH1 0x20 PUSH0 KECCAK256 ADD PUSH0 SWAP1 SLOAD SWAP1 PUSH2 0x100 EXP SWAP1 DIV PUSH20 0xFFFFFFFFFFFFFFFFFFFFFFFFFFFFFFFFFFFFFFFF AND PUSH1 0x40 MLOAD DUP3 PUSH4 0xFFFFFFFF AND PUSH1 0xE0 SHL DUP2 MSTORE PUSH1 0x4 ADD PUSH2 0xCFD SWAP2 SWAP1 PUSH2 0x2216 JUMP JUMPDEST PUSH1 0x60 PUSH1 0x40 MLOAD DUP1 DUP4 SUB DUP2 DUP7 GAS STATICCALL ISZERO DUP1 ISZERO PUSH2 0xD18 JUMPI RETURNDATASIZE PUSH0 DUP1 RETURNDATACOPY RETURNDATASIZE PUSH0 REVERT JUMPDEST POP POP POP POP PUSH1 0x40 MLOAD RETURNDATASIZE PUSH1 0x1F NOT PUSH1 0x1F DUP3 ADD AND DUP3 ADD DUP1 PUSH1 0x40 MSTORE POP DUP2 ADD SWAP1 PUSH2 0xD3C SWAP2 SWAP1 PUSH2 0x2946 JUMP JUMPDEST SWAP3 POP POP POP DUP2 DUP1 ISZERO PUSH2 0xD4B JUMPI POP DUP1 ISZERO JUMPDEST DUP1 ISZERO PUSH2 0xDBD JUMPI POP PUSH1 0x8 PUSH0 DUP2 SLOAD DUP2 LT PUSH2 0xD66 JUMPI PUSH2 0xD65 PUSH2 0x22E0 JUMP JUMPDEST JUMPDEST SWAP1 PUSH0 MSTORE PUSH1 0x20 PUSH0 KECCAK256 ADD PUSH0 SWAP1 SLOAD SWAP1 PUSH2 0x100 EXP SWAP1 DIV PUSH20 0xFFFFFFFFFFFFFFFFFFFFFFFFFFFFFFFFFFFFFFFF AND PUSH20 0xFFFFFFFFFFFFFFFFFFFFFFFFFFFFFFFFFFFFFFFF AND CALLER PUSH20 0xFFFFFFFFFFFFFFFFFFFFFFFFFFFFFFFFFFFFFFFF AND EQ JUMPDEST ISZERO PUSH2 0xEE4 JUMPI PUSH0 PUSH1 0x2 PUSH0 SWAP1 SLOAD SWAP1 PUSH2 0x100 EXP SWAP1 DIV PUSH20 0xFFFFFFFFFFFFFFFFFFFFFFFFFFFFFFFFFFFFFFFF AND PUSH20 0xFFFFFFFFFFFFFFFFFFFFFFFFFFFFFFFFFFFFFFFF AND PUSH4 0xA9059CBB PUSH1 0x8 PUSH0 DUP2 SLOAD DUP2 LT PUSH2 0xE14 JUMPI PUSH2 0xE13 PUSH2 0x22E0 JUMP JUMPDEST JUMPDEST SWAP1 PUSH0 MSTORE PUSH1 0x20 PUSH0 KECCAK256 ADD PUSH0 SWAP1 SLOAD SWAP1 PUSH2 0x100 EXP SWAP1 DIV PUSH20 0xFFFFFFFFFFFFFFFFFFFFFFFFFFFFFFFFFFFFFFFF AND PUSH1 0x4 SLOAD PUSH1 0x40 MLOAD DUP4 PUSH4 0xFFFFFFFF AND PUSH1 0xE0 SHL DUP2 MSTORE PUSH1 0x4 ADD PUSH2 0xE5C SWAP3 SWAP2 SWAP1 PUSH2 0x2811 JUMP JUMPDEST PUSH1 0x20 PUSH1 0x40 MLOAD DUP1 DUP4 SUB DUP2 PUSH0 DUP8 GAS CALL ISZERO DUP1 ISZERO PUSH2 0xE78 JUMPI RETURNDATASIZE PUSH0 DUP1 RETURNDATACOPY RETURNDATASIZE PUSH0 REVERT JUMPDEST POP POP POP POP PUSH1 0x40 MLOAD RETURNDATASIZE PUSH1 0x1F NOT PUSH1 0x1F DUP3 ADD AND DUP3 ADD DUP1 PUSH1 0x40 MSTORE POP DUP2 ADD SWAP1 PUSH2 0xE9C SWAP2 SWAP1 PUSH2 0x2862 JUMP JUMPDEST SWAP1 POP DUP1 PUSH2 0xEDE JUMPI PUSH1 0x40 MLOAD PUSH32 0x8C379A000000000000000000000000000000000000000000000000000000000 DUP2 MSTORE PUSH1 0x4 ADD PUSH2 0xED5 SWAP1 PUSH2 0x28D7 JUMP JUMPDEST PUSH1 0x40 MLOAD DUP1 SWAP2 SUB SWAP1 REVERT JUMPDEST POP PUSH2 0x10C6 JUMP JUMPDEST DUP2 ISZERO DUP1 ISZERO PUSH2 0xEEF JUMPI POP DUP1 JUMPDEST DUP1 ISZERO PUSH2 0xF62 JUMPI POP PUSH1 0x8 PUSH1 0x1 DUP2 SLOAD DUP2 LT PUSH2 0xF0B JUMPI PUSH2 0xF0A PUSH2 0x22E0 JUMP JUMPDEST JUMPDEST SWAP1 PUSH0 MSTORE PUSH1 0x20 PUSH0 KECCAK256 ADD PUSH0 SWAP1 SLOAD SWAP1 PUSH2 0x100 EXP SWAP1 DIV PUSH20 0xFFFFFFFFFFFFFFFFFFFFFFFFFFFFFFFFFFFFFFFF AND PUSH20 0xFFFFFFFFFFFFFFFFFFFFFFFFFFFFFFFFFFFFFFFF AND CALLER PUSH20 0xFFFFFFFFFFFFFFFFFFFFFFFFFFFFFFFFFFFFFFFF AND EQ JUMPDEST ISZERO PUSH2 0x108A JUMPI PUSH0 PUSH1 0x2 PUSH0 SWAP1 SLOAD SWAP1 PUSH2 0x100 EXP SWAP1 DIV PUSH20 0xFFFFFFFFFFFFFFFFFFFFFFFFFFFFFFFFFFFFFFFF AND PUSH20 0xFFFFFFFFFFFFFFFFFFFFFFFFFFFFFFFFFFFFFFFF AND PUSH4 0xA9059CBB PUSH1 0x8 PUSH1 0x1 DUP2 SLOAD DUP2 LT PUSH2 0xFBA JUMPI PUSH2 0xFB9 PUSH2 0x22E0 JUMP JUMPDEST JUMPDEST SWAP1 PUSH0 MSTORE PUSH1 0x20 PUSH0 KECCAK256 ADD PUSH0 SWAP1 SLOAD SWAP1 PUSH2 0x100 EXP SWAP1 DIV PUSH20 0xFFFFFFFFFFFFFFFFFFFFFFFFFFFFFFFFFFFFFFFF AND PUSH1 0x4 SLOAD PUSH1 0x40 MLOAD DUP4 PUSH4 0xFFFFFFFF AND PUSH1 0xE0 SHL DUP2 MSTORE PUSH1 0x4 ADD PUSH2 0x1002 SWAP3 SWAP2 SWAP1 PUSH2 0x2811 JUMP JUMPDEST PUSH1 0x20 PUSH1 0x40 MLOAD DUP1 DUP4 SUB DUP2 PUSH0 DUP8 GAS CALL ISZERO DUP1 ISZERO PUSH2 0x101E JUMPI RETURNDATASIZE PUSH0 DUP1 RETURNDATACOPY RETURNDATASIZE PUSH0 REVERT JUMPDEST POP POP POP POP PUSH1 0x40 MLOAD RETURNDATASIZE PUSH1 0x1F NOT PUSH1 0x1F DUP3 ADD AND DUP3 ADD DUP1 PUSH1 0x40 MSTORE POP DUP2 ADD SWAP1 PUSH2 0x1042 SWAP2 SWAP1 PUSH2 0x2862 JUMP JUMPDEST SWAP1 POP DUP1 PUSH2 0x1084 JUMPI PUSH1 0x40 MLOAD PUSH32 0x8C379A000000000000000000000000000000000000000000000000000000000 DUP2 MSTORE PUSH1 0x4 ADD PUSH2 0x107B SWAP1 PUSH2 0x28D7 JUMP JUMPDEST PUSH1 0x40 MLOAD DUP1 SWAP2 SUB SWAP1 REVERT JUMPDEST POP PUSH2 0x10C5 JUMP JUMPDEST PUSH1 0x40 MLOAD PUSH32 0x8C379A000000000000000000000000000000000000000000000000000000000 DUP2 MSTORE PUSH1 0x4 ADD PUSH2 0x10BC SWAP1 PUSH2 0x29E0 JUMP JUMPDEST PUSH1 0x40 MLOAD DUP1 SWAP2 SUB SWAP1 REVERT JUMPDEST JUMPDEST POP POP JUMPDEST PUSH2 0x10D1 PUSH2 0x1D57 JUMP JUMPDEST JUMP JUMPDEST PUSH1 0xA SLOAD DUP2 JUMP JUMPDEST PUSH1 0x5 SLOAD DUP2 JUMP JUMPDEST PUSH1 0x2 PUSH1 0x3 SLOAD EQ PUSH2 0x1124 JUMPI PUSH1 0x40 MLOAD PUSH32 0x8C379A000000000000000000000000000000000000000000000000000000000 DUP2 MSTORE PUSH1 0x4 ADD PUSH2 0x111B SWAP1 PUSH2 0x2527 JUMP JUMPDEST PUSH1 0x40 MLOAD DUP1 SWAP2 SUB SWAP1 REVERT JUMPDEST PUSH1 0x7 PUSH0 CALLER PUSH20 0xFFFFFFFFFFFFFFFFFFFFFFFFFFFFFFFFFFFFFFFF AND PUSH20 0xFFFFFFFFFFFFFFFFFFFFFFFFFFFFFFFFFFFFFFFF AND DUP2 MSTORE PUSH1 0x20 ADD SWAP1 DUP2 MSTORE PUSH1 0x20 ADD PUSH0 KECCAK256 PUSH0 SWAP1 SLOAD SWAP1 PUSH2 0x100 EXP SWAP1 DIV PUSH1 0xFF AND PUSH2 0x11AD JUMPI PUSH1 0x40 MLOAD PUSH32 0x8C379A000000000000000000000000000000000000000000000000000000000 DUP2 MSTORE PUSH1 0x4 ADD PUSH2 0x11A4 SWAP1 PUSH2 0x2A48 JUMP JUMPDEST PUSH1 0x40 MLOAD DUP1 SWAP2 SUB SWAP1 REVERT JUMPDEST PUSH5 0xE8D4A51000 PUSH1 0x2 PUSH0 SWAP1 SLOAD SWAP1 PUSH2 0x100 EXP SWAP1 DIV PUSH20 0xFFFFFFFFFFFFFFFFFFFFFFFFFFFFFFFFFFFFFFFF AND PUSH20 0xFFFFFFFFFFFFFFFFFFFFFFFFFFFFFFFFFFFFFFFF AND PUSH4 0xDD62ED3E CALLER ADDRESS PUSH1 0x40 MLOAD DUP4 PUSH4 0xFFFFFFFF AND PUSH1 0xE0 SHL DUP2 MSTORE PUSH1 0x4 ADD PUSH2 0x120F SWAP3 SWAP2 SWAP1 PUSH2 0x239B JUMP JUMPDEST PUSH1 0x20 PUSH1 0x40 MLOAD DUP1 DUP4 SUB DUP2 DUP7 GAS STATICCALL ISZERO DUP1 ISZERO PUSH2 0x122A JUMPI RETURNDATASIZE PUSH0 DUP1 RETURNDATACOPY RETURNDATASIZE PUSH0 REVERT JUMPDEST POP POP POP POP PUSH1 0x40 MLOAD RETURNDATASIZE PUSH1 0x1F NOT PUSH1 0x1F DUP3 ADD AND DUP3 ADD DUP1 PUSH1 0x40 MSTORE POP DUP2 ADD SWAP1 PUSH2 0x124E SWAP2 SWAP1 PUSH2 0x23D6 JUMP JUMPDEST LT ISZERO PUSH2 0x128F JUMPI PUSH1 0x40 MLOAD PUSH32 0x8C379A000000000000000000000000000000000000000000000000000000000 DUP2 MSTORE PUSH1 0x4 ADD PUSH2 0x1286 SWAP1 PUSH2 0x244B JUMP JUMPDEST PUSH1 0x40 MLOAD DUP1 SWAP2 SUB SWAP1 REVERT JUMPDEST PUSH1 0x1 PUSH0 SWAP1 SLOAD SWAP1 PUSH2 0x100 EXP SWAP1 DIV PUSH20 0xFFFFFFFFFFFFFFFFFFFFFFFFFFFFFFFFFFFFFFFF AND PUSH20 0xFFFFFFFFFFFFFFFFFFFFFFFFFFFFFFFFFFFFFFFF AND PUSH4 0x5A746101 DUP3 CALLER PUSH1 0x40 MLOAD DUP4 PUSH4 0xFFFFFFFF AND PUSH1 0xE0 SHL DUP2 MSTORE PUSH1 0x4 ADD PUSH2 0x12EB SWAP3 SWAP2 SWAP1 PUSH2 0x264A JUMP JUMPDEST PUSH0 PUSH1 0x40 MLOAD DUP1 DUP4 SUB DUP2 PUSH0 DUP8 DUP1 EXTCODESIZE ISZERO DUP1 ISZERO PUSH2 0x1302 JUMPI PUSH0 DUP1 REVERT JUMPDEST POP GAS CALL ISZERO DUP1 ISZERO PUSH2 0x1314 JUMPI RETURNDATASIZE PUSH0 DUP1 RETURNDATACOPY RETURNDATASIZE PUSH0 REVERT JUMPDEST POP POP POP POP PUSH1 0x7 PUSH0 CALLER PUSH20 0xFFFFFFFFFFFFFFFFFFFFFFFFFFFFFFFFFFFFFFFF AND PUSH20 0xFFFFFFFFFFFFFFFFFFFFFFFFFFFFFFFFFFFFFFFF AND DUP2 MSTORE PUSH1 0x20 ADD SWAP1 DUP2 MSTORE PUSH1 0x20 ADD PUSH0 KECCAK256 PUSH0 SWAP1 SLOAD SWAP1 PUSH2 0x100 EXP SWAP1 DIV PUSH1 0xFF AND ISZERO PUSH2 0x13D3 JUMPI PUSH1 0x9 PUSH0 DUP2 SLOAD DUP1 SWAP3 SWAP2 SWAP1 PUSH2 0x1379 SWAP1 PUSH2 0x2496 JUMP JUMPDEST SWAP2 SWAP1 POP SSTORE POP PUSH0 PUSH1 0x7 PUSH0 CALLER PUSH20 0xFFFFFFFFFFFFFFFFFFFFFFFFFFFFFFFFFFFFFFFF AND PUSH20 0xFFFFFFFFFFFFFFFFFFFFFFFFFFFFFFFFFFFFFFFF AND DUP2 MSTORE PUSH1 0x20 ADD SWAP1 DUP2 MSTORE PUSH1 0x20 ADD PUSH0 KECCAK256 PUSH0 PUSH2 0x100 EXP DUP2 SLOAD DUP2 PUSH1 0xFF MUL NOT AND SWAP1 DUP4 ISZERO ISZERO MUL OR SWAP1 SSTORE POP JUMPDEST PUSH1 0x2 PUSH1 0x9 SLOAD EQ DUP1 ISZERO PUSH2 0x13F1 JUMPI POP PUSH1 0xB PUSH0 SWAP1 SLOAD SWAP1 PUSH2 0x100 EXP SWAP1 DIV PUSH1 0xFF AND ISZERO JUMPDEST ISZERO PUSH2 0x1708 JUMPI PUSH5 0xE8D4A51000 PUSH1 0x2 PUSH0 SWAP1 SLOAD SWAP1 PUSH2 0x100 EXP SWAP1 DIV PUSH20 0xFFFFFFFFFFFFFFFFFFFFFFFFFFFFFFFFFFFFFFFF AND PUSH20 0xFFFFFFFFFFFFFFFFFFFFFFFFFFFFFFFFFFFFFFFF AND PUSH4 0xDD62ED3E PUSH1 0x8 PUSH0 DUP2 SLOAD DUP2 LT PUSH2 0x144D JUMPI PUSH2 0x144C PUSH2 0x22E0 JUMP JUMPDEST JUMPDEST SWAP1 PUSH0 MSTORE PUSH1 0x20 PUSH0 KECCAK256 ADD PUSH0 SWAP1 SLOAD SWAP1 PUSH2 0x100 EXP SWAP1 DIV PUSH20 0xFFFFFFFFFFFFFFFFFFFFFFFFFFFFFFFFFFFFFFFF AND ADDRESS PUSH1 0x40 MLOAD DUP4 PUSH4 0xFFFFFFFF AND PUSH1 0xE0 SHL DUP2 MSTORE PUSH1 0x4 ADD PUSH2 0x1493 SWAP3 SWAP2 SWAP1 PUSH2 0x239B JUMP JUMPDEST PUSH1 0x20 PUSH1 0x40 MLOAD DUP1 DUP4 SUB DUP2 DUP7 GAS STATICCALL ISZERO DUP1 ISZERO PUSH2 0x14AE JUMPI RETURNDATASIZE PUSH0 DUP1 RETURNDATACOPY RETURNDATASIZE PUSH0 REVERT JUMPDEST POP POP POP POP PUSH1 0x40 MLOAD RETURNDATASIZE PUSH1 0x1F NOT PUSH1 0x1F DUP3 ADD AND DUP3 ADD DUP1 PUSH1 0x40 MSTORE POP DUP2 ADD SWAP1 PUSH2 0x14D2 SWAP2 SWAP1 PUSH2 0x23D6 JUMP JUMPDEST LT ISZERO DUP1 ISZERO PUSH2 0x15BB JUMPI POP PUSH5 0xE8D4A51000 PUSH1 0x2 PUSH0 SWAP1 SLOAD SWAP1 PUSH2 0x100 EXP SWAP1 DIV PUSH20 0xFFFFFFFFFFFFFFFFFFFFFFFFFFFFFFFFFFFFFFFF AND PUSH20 0xFFFFFFFFFFFFFFFFFFFFFFFFFFFFFFFFFFFFFFFF AND PUSH4 0xDD62ED3E PUSH1 0x8 PUSH1 0x1 DUP2 SLOAD DUP2 LT PUSH2 0x1533 JUMPI PUSH2 0x1532 PUSH2 0x22E0 JUMP JUMPDEST JUMPDEST SWAP1 PUSH0 MSTORE PUSH1 0x20 PUSH0 KECCAK256 ADD PUSH0 SWAP1 SLOAD SWAP1 PUSH2 0x100 EXP SWAP1 DIV PUSH20 0xFFFFFFFFFFFFFFFFFFFFFFFFFFFFFFFFFFFFFFFF AND ADDRESS PUSH1 0x40 MLOAD DUP4 PUSH4 0xFFFFFFFF AND PUSH1 0xE0 SHL DUP2 MSTORE PUSH1 0x4 ADD PUSH2 0x1579 SWAP3 SWAP2 SWAP1 PUSH2 0x239B JUMP JUMPDEST PUSH1 0x20 PUSH1 0x40 MLOAD DUP1 DUP4 SUB DUP2 DUP7 GAS STATICCALL ISZERO DUP1 ISZERO PUSH2 0x1594 JUMPI RETURNDATASIZE PUSH0 DUP1 RETURNDATACOPY RETURNDATASIZE PUSH0 REVERT JUMPDEST POP POP POP POP PUSH1 0x40 MLOAD RETURNDATASIZE PUSH1 0x1F NOT PUSH1 0x1F DUP3 ADD AND DUP3 ADD DUP1 PUSH1 0x40 MSTORE POP DUP2 ADD SWAP1 PUSH2 0x15B8 SWAP2 SWAP1 PUSH2 0x23D6 JUMP JUMPDEST LT ISZERO JUMPDEST PUSH2 0x15FA JUMPI PUSH1 0x40 MLOAD PUSH32 0x8C379A000000000000000000000000000000000000000000000000000000000 DUP2 MSTORE PUSH1 0x4 ADD PUSH2 0x15F1 SWAP1 PUSH2 0x244B JUMP JUMPDEST PUSH1 0x40 MLOAD DUP1 SWAP2 SUB SWAP1 REVERT JUMPDEST PUSH2 0x1667 PUSH1 0x2 PUSH0 SWAP1 SLOAD SWAP1 PUSH2 0x100 EXP SWAP1 DIV PUSH20 0xFFFFFFFFFFFFFFFFFFFFFFFFFFFFFFFFFFFFFFFF AND PUSH1 0x8 PUSH0 DUP2 SLOAD DUP2 LT PUSH2 0x1633 JUMPI PUSH2 0x1632 PUSH2 0x22E0 JUMP JUMPDEST JUMPDEST SWAP1 PUSH0 MSTORE PUSH1 0x20 PUSH0 KECCAK256 ADD PUSH0 SWAP1 SLOAD SWAP1 PUSH2 0x100 EXP SWAP1 DIV PUSH20 0xFFFFFFFFFFFFFFFFFFFFFFFFFFFFFFFFFFFFFFFF AND ADDRESS PUSH5 0xE8D4A51000 PUSH2 0x1EBA JUMP JUMPDEST PUSH2 0x16D5 PUSH1 0x2 PUSH0 SWAP1 SLOAD SWAP1 PUSH2 0x100 EXP SWAP1 DIV PUSH20 0xFFFFFFFFFFFFFFFFFFFFFFFFFFFFFFFFFFFFFFFF AND PUSH1 0x8 PUSH1 0x1 DUP2 SLOAD DUP2 LT PUSH2 0x16A1 JUMPI PUSH2 0x16A0 PUSH2 0x22E0 JUMP JUMPDEST JUMPDEST SWAP1 PUSH0 MSTORE PUSH1 0x20 PUSH0 KECCAK256 ADD PUSH0 SWAP1 SLOAD SWAP1 PUSH2 0x100 EXP SWAP1 DIV PUSH20 0xFFFFFFFFFFFFFFFFFFFFFFFFFFFFFFFFFFFFFFFF AND ADDRESS PUSH5 0xE8D4A51000 PUSH2 0x1EBA JUMP JUMPDEST PUSH1 0x2 PUSH5 0xE8D4A51000 PUSH2 0x16E7 SWAP2 SWAP1 PUSH2 0x2A66 JUMP JUMPDEST PUSH1 0x4 DUP2 SWAP1 SSTORE POP PUSH1 0x1 PUSH1 0xB PUSH0 PUSH2 0x100 EXP DUP2 SLOAD DUP2 PUSH1 0xFF MUL NOT AND SWAP1 DUP4 ISZERO ISZERO MUL OR SWAP1 SSTORE POP JUMPDEST POP JUMP JUMPDEST PUSH1 0x8 DUP2 DUP2 SLOAD DUP2 LT PUSH2 0x171A JUMPI PUSH0 DUP1 REVERT JUMPDEST SWAP1 PUSH0 MSTORE PUSH1 0x20 PUSH0 KECCAK256 ADD PUSH0 SWAP2 POP SLOAD SWAP1 PUSH2 0x100 EXP SWAP1 DIV PUSH20 0xFFFFFFFFFFFFFFFFFFFFFFFFFFFFFFFFFFFFFFFF AND DUP2 JUMP JUMPDEST PUSH1 0x2 PUSH0 SWAP1 SLOAD SWAP1 PUSH2 0x100 EXP SWAP1 DIV PUSH20 0xFFFFFFFFFFFFFFFFFFFFFFFFFFFFFFFFFFFFFFFF AND DUP2 JUMP JUMPDEST PUSH0 PUSH1 0x6 PUSH0 PUSH1 0x8 PUSH0 DUP2 SLOAD DUP2 LT PUSH2 0x1783 JUMPI PUSH2 0x1782 PUSH2 0x22E0 JUMP JUMPDEST JUMPDEST SWAP1 PUSH0 MSTORE PUSH1 0x20 PUSH0 KECCAK256 ADD PUSH0 SWAP1 SLOAD SWAP1 PUSH2 0x100 EXP SWAP1 DIV PUSH20 0xFFFFFFFFFFFFFFFFFFFFFFFFFFFFFFFFFFFFFFFF AND PUSH20 0xFFFFFFFFFFFFFFFFFFFFFFFFFFFFFFFFFFFFFFFF AND PUSH20 0xFFFFFFFFFFFFFFFFFFFFFFFFFFFFFFFFFFFFFFFF AND DUP2 MSTORE PUSH1 0x20 ADD SWAP1 DUP2 MSTORE PUSH1 0x20 ADD PUSH0 KECCAK256 SLOAD SWAP1 POP PUSH0 PUSH1 0x6 PUSH0 PUSH1 0x8 PUSH1 0x1 DUP2 SLOAD DUP2 LT PUSH2 0x1800 JUMPI PUSH2 0x17FF PUSH2 0x22E0 JUMP JUMPDEST JUMPDEST SWAP1 PUSH0 MSTORE PUSH1 0x20 PUSH0 KECCAK256 ADD PUSH0 SWAP1 SLOAD SWAP1 PUSH2 0x100 EXP SWAP1 DIV PUSH20 0xFFFFFFFFFFFFFFFFFFFFFFFFFFFFFFFFFFFFFFFF AND PUSH20 0xFFFFFFFFFFFFFFFFFFFFFFFFFFFFFFFFFFFFFFFF AND PUSH20 0xFFFFFFFFFFFFFFFFFFFFFFFFFFFFFFFFFFFFFFFF AND DUP2 MSTORE PUSH1 0x20 ADD SWAP1 DUP2 MSTORE PUSH1 0x20 ADD PUSH0 KECCAK256 SLOAD SWAP1 POP DUP1 PUSH1 0x3 PUSH1 0x1 DUP5 PUSH2 0x1874 SWAP2 SWAP1 PUSH2 0x2AA7 JUMP JUMPDEST PUSH2 0x187E SWAP2 SWAP1 PUSH2 0x2B07 JUMP JUMPDEST EQ DUP1 PUSH2 0x18A1 JUMPI POP DUP1 PUSH1 0x5 PUSH1 0x3 DUP5 PUSH2 0x1895 SWAP2 SWAP1 PUSH2 0x2AA7 JUMP JUMPDEST PUSH2 0x189F SWAP2 SWAP1 PUSH2 0x2B07 JUMP JUMPDEST EQ JUMPDEST ISZERO PUSH2 0x19C8 JUMPI PUSH0 PUSH1 0x2 PUSH0 SWAP1 SLOAD SWAP1 PUSH2 0x100 EXP SWAP1 DIV PUSH20 0xFFFFFFFFFFFFFFFFFFFFFFFFFFFFFFFFFFFFFFFF AND PUSH20 0xFFFFFFFFFFFFFFFFFFFFFFFFFFFFFFFFFFFFFFFF AND PUSH4 0xA9059CBB PUSH1 0x8 PUSH0 DUP2 SLOAD DUP2 LT PUSH2 0x18F8 JUMPI PUSH2 0x18F7 PUSH2 0x22E0 JUMP JUMPDEST JUMPDEST SWAP1 PUSH0 MSTORE PUSH1 0x20 PUSH0 KECCAK256 ADD PUSH0 SWAP1 SLOAD SWAP1 PUSH2 0x100 EXP SWAP1 DIV PUSH20 0xFFFFFFFFFFFFFFFFFFFFFFFFFFFFFFFFFFFFFFFF AND PUSH1 0x4 SLOAD PUSH1 0x40 MLOAD DUP4 PUSH4 0xFFFFFFFF AND PUSH1 0xE0 SHL DUP2 MSTORE PUSH1 0x4 ADD PUSH2 0x1940 SWAP3 SWAP2 SWAP1 PUSH2 0x2811 JUMP JUMPDEST PUSH1 0x20 PUSH1 0x40 MLOAD DUP1 DUP4 SUB DUP2 PUSH0 DUP8 GAS CALL ISZERO DUP1 ISZERO PUSH2 0x195C JUMPI RETURNDATASIZE PUSH0 DUP1 RETURNDATACOPY RETURNDATASIZE PUSH0 REVERT JUMPDEST POP POP POP POP PUSH1 0x40 MLOAD RETURNDATASIZE PUSH1 0x1F NOT PUSH1 0x1F DUP3 ADD AND DUP3 ADD DUP1 PUSH1 0x40 MSTORE POP DUP2 ADD SWAP1 PUSH2 0x1980 SWAP2 SWAP1 PUSH2 0x2862 JUMP JUMPDEST SWAP1 POP DUP1 PUSH2 0x19C2 JUMPI PUSH1 0x40 MLOAD PUSH32 0x8C379A000000000000000000000000000000000000000000000000000000000 DUP2 MSTORE PUSH1 0x4 ADD PUSH2 0x19B9 SWAP1 PUSH2 0x28D7 JUMP JUMPDEST PUSH1 0x40 MLOAD DUP1 SWAP2 SUB SWAP1 REVERT JUMPDEST POP PUSH2 0x1D4B JUMP JUMPDEST DUP2 PUSH1 0x3 PUSH1 0x1 DUP4 PUSH2 0x19D8 SWAP2 SWAP1 PUSH2 0x2AA7 JUMP JUMPDEST PUSH2 0x19E2 SWAP2 SWAP1 PUSH2 0x2B07 JUMP JUMPDEST EQ DUP1 PUSH2 0x1A05 JUMPI POP DUP2 PUSH1 0x5 PUSH1 0x3 DUP4 PUSH2 0x19F9 SWAP2 SWAP1 PUSH2 0x2AA7 JUMP JUMPDEST PUSH2 0x1A03 SWAP2 SWAP1 PUSH2 0x2B07 JUMP JUMPDEST EQ JUMPDEST ISZERO PUSH2 0x1B2D JUMPI PUSH0 PUSH1 0x2 PUSH0 SWAP1 SLOAD SWAP1 PUSH2 0x100 EXP SWAP1 DIV PUSH20 0xFFFFFFFFFFFFFFFFFFFFFFFFFFFFFFFFFFFFFFFF AND PUSH20 0xFFFFFFFFFFFFFFFFFFFFFFFFFFFFFFFFFFFFFFFF AND PUSH4 0xA9059CBB PUSH1 0x8 PUSH1 0x1 DUP2 SLOAD DUP2 LT PUSH2 0x1A5D JUMPI PUSH2 0x1A5C PUSH2 0x22E0 JUMP JUMPDEST JUMPDEST SWAP1 PUSH0 MSTORE PUSH1 0x20 PUSH0 KECCAK256 ADD PUSH0 SWAP1 SLOAD SWAP1 PUSH2 0x100 EXP SWAP1 DIV PUSH20 0xFFFFFFFFFFFFFFFFFFFFFFFFFFFFFFFFFFFFFFFF AND PUSH1 0x4 SLOAD PUSH1 0x40 MLOAD DUP4 PUSH4 0xFFFFFFFF AND PUSH1 0xE0 SHL DUP2 MSTORE PUSH1 0x4 ADD PUSH2 0x1AA5 SWAP3 SWAP2 SWAP1 PUSH2 0x2811 JUMP JUMPDEST PUSH1 0x20 PUSH1 0x40 MLOAD DUP1 DUP4 SUB DUP2 PUSH0 DUP8 GAS CALL ISZERO DUP1 ISZERO PUSH2 0x1AC1 JUMPI RETURNDATASIZE PUSH0 DUP1 RETURNDATACOPY RETURNDATASIZE PUSH0 REVERT JUMPDEST POP POP POP POP PUSH1 0x40 MLOAD RETURNDATASIZE PUSH1 0x1F NOT PUSH1 0x1F DUP3 ADD AND DUP3 ADD DUP1 PUSH1 0x40 MSTORE POP DUP2 ADD SWAP1 PUSH2 0x1AE5 SWAP2 SWAP1 PUSH2 0x2862 JUMP JUMPDEST SWAP1 POP DUP1 PUSH2 0x1B27 JUMPI PUSH1 0x40 MLOAD PUSH32 0x8C379A000000000000000000000000000000000000000000000000000000000 DUP2 MSTORE PUSH1 0x4 ADD PUSH2 0x1B1E SWAP1 PUSH2 0x28D7 JUMP JUMPDEST PUSH1 0x40 MLOAD DUP1 SWAP2 SUB SWAP1 REVERT JUMPDEST POP PUSH2 0x1D4A JUMP JUMPDEST PUSH0 PUSH1 0x2 PUSH0 SWAP1 SLOAD SWAP1 PUSH2 0x100 EXP SWAP1 DIV PUSH20 0xFFFFFFFFFFFFFFFFFFFFFFFFFFFFFFFFFFFFFFFF AND PUSH20 0xFFFFFFFFFFFFFFFFFFFFFFFFFFFFFFFFFFFFFFFF AND PUSH4 0xA9059CBB PUSH1 0x8 PUSH0 DUP2 SLOAD DUP2 LT PUSH2 0x1B7F JUMPI PUSH2 0x1B7E PUSH2 0x22E0 JUMP JUMPDEST JUMPDEST SWAP1 PUSH0 MSTORE PUSH1 0x20 PUSH0 KECCAK256 ADD PUSH0 SWAP1 SLOAD SWAP1 PUSH2 0x100 EXP SWAP1 DIV PUSH20 0xFFFFFFFFFFFFFFFFFFFFFFFFFFFFFFFFFFFFFFFF AND PUSH1 0x2 PUSH1 0x4 SLOAD PUSH2 0x1BB6 SWAP2 SWAP1 PUSH2 0x2B37 JUMP JUMPDEST PUSH1 0x40 MLOAD DUP4 PUSH4 0xFFFFFFFF AND PUSH1 0xE0 SHL DUP2 MSTORE PUSH1 0x4 ADD PUSH2 0x1BD3 SWAP3 SWAP2 SWAP1 PUSH2 0x2811 JUMP JUMPDEST PUSH1 0x20 PUSH1 0x40 MLOAD DUP1 DUP4 SUB DUP2 PUSH0 DUP8 GAS CALL ISZERO DUP1 ISZERO PUSH2 0x1BEF JUMPI RETURNDATASIZE PUSH0 DUP1 RETURNDATACOPY RETURNDATASIZE PUSH0 REVERT JUMPDEST POP POP POP POP PUSH1 0x40 MLOAD RETURNDATASIZE PUSH1 0x1F NOT PUSH1 0x1F DUP3 ADD AND DUP3 ADD DUP1 PUSH1 0x40 MSTORE POP DUP2 ADD SWAP1 PUSH2 0x1C13 SWAP2 SWAP1 PUSH2 0x2862 JUMP JUMPDEST SWAP1 POP PUSH0 PUSH1 0x2 PUSH0 SWAP1 SLOAD SWAP1 PUSH2 0x100 EXP SWAP1 DIV PUSH20 0xFFFFFFFFFFFFFFFFFFFFFFFFFFFFFFFFFFFFFFFF AND PUSH20 0xFFFFFFFFFFFFFFFFFFFFFFFFFFFFFFFFFFFFFFFF AND PUSH4 0xA9059CBB PUSH1 0x8 PUSH1 0x1 DUP2 SLOAD DUP2 LT PUSH2 0x1C68 JUMPI PUSH2 0x1C67 PUSH2 0x22E0 JUMP JUMPDEST JUMPDEST SWAP1 PUSH0 MSTORE PUSH1 0x20 PUSH0 KECCAK256 ADD PUSH0 SWAP1 SLOAD SWAP1 PUSH2 0x100 EXP SWAP1 DIV PUSH20 0xFFFFFFFFFFFFFFFFFFFFFFFFFFFFFFFFFFFFFFFF AND PUSH1 0x2 PUSH1 0x4 SLOAD PUSH2 0x1C9F SWAP2 SWAP1 PUSH2 0x2B37 JUMP JUMPDEST PUSH1 0x40 MLOAD DUP4 PUSH4 0xFFFFFFFF AND PUSH1 0xE0 SHL DUP2 MSTORE PUSH1 0x4 ADD PUSH2 0x1CBC SWAP3 SWAP2 SWAP1 PUSH2 0x2811 JUMP JUMPDEST PUSH1 0x20 PUSH1 0x40 MLOAD DUP1 DUP4 SUB DUP2 PUSH0 DUP8 GAS CALL ISZERO DUP1 ISZERO PUSH2 0x1CD8 JUMPI RETURNDATASIZE PUSH0 DUP1 RETURNDATACOPY RETURNDATASIZE PUSH0 REVERT JUMPDEST POP POP POP POP PUSH1 0x40 MLOAD RETURNDATASIZE PUSH1 0x1F NOT PUSH1 0x1F DUP3 ADD AND DUP3 ADD DUP1 PUSH1 0x40 MSTORE POP DUP2 ADD SWAP1 PUSH2 0x1CFC SWAP2 SWAP1 PUSH2 0x2862 JUMP JUMPDEST SWAP1 POP DUP2 DUP1 ISZERO PUSH2 0x1D08 JUMPI POP DUP1 JUMPDEST PUSH2 0x1D47 JUMPI PUSH1 0x40 MLOAD PUSH32 0x8C379A000000000000000000000000000000000000000000000000000000000 DUP2 MSTORE PUSH1 0x4 ADD PUSH2 0x1D3E SWAP1 PUSH2 0x28D7 JUMP JUMPDEST PUSH1 0x40 MLOAD DUP1 SWAP2 SUB SWAP1 REVERT JUMPDEST POP POP JUMPDEST JUMPDEST PUSH2 0x1D53 PUSH2 0x1D57 JUMP JUMPDEST POP POP JUMP JUMPDEST PUSH0 PUSH1 0x4 DUP2 SWAP1 SSTORE POP PUSH0 PUSH1 0xB PUSH0 PUSH2 0x100 EXP DUP2 SLOAD DUP2 PUSH1 0xFF MUL NOT AND SWAP1 DUP4 ISZERO ISZERO MUL OR SWAP1 SSTORE POP PUSH0 JUMPDEST PUSH1 0x8 DUP1 SLOAD SWAP1 POP DUP2 LT ISZERO PUSH2 0x1E95 JUMPI PUSH1 0x6 PUSH0 PUSH1 0x8 DUP4 DUP2 SLOAD DUP2 LT PUSH2 0x1D9D JUMPI PUSH2 0x1D9C PUSH2 0x22E0 JUMP JUMPDEST JUMPDEST SWAP1 PUSH0 MSTORE PUSH1 0x20 PUSH0 KECCAK256 ADD PUSH0 SWAP1 SLOAD SWAP1 PUSH2 0x100 EXP SWAP1 DIV PUSH20 0xFFFFFFFFFFFFFFFFFFFFFFFFFFFFFFFFFFFFFFFF AND PUSH20 0xFFFFFFFFFFFFFFFFFFFFFFFFFFFFFFFFFFFFFFFF AND PUSH20 0xFFFFFFFFFFFFFFFFFFFFFFFFFFFFFFFFFFFFFFFF AND DUP2 MSTORE PUSH1 0x20 ADD SWAP1 DUP2 MSTORE PUSH1 0x20 ADD PUSH0 KECCAK256 PUSH0 SWAP1 SSTORE PUSH1 0x7 PUSH0 PUSH1 0x8 DUP4 DUP2 SLOAD DUP2 LT PUSH2 0x1E18 JUMPI PUSH2 0x1E17 PUSH2 0x22E0 JUMP JUMPDEST JUMPDEST SWAP1 PUSH0 MSTORE PUSH1 0x20 PUSH0 KECCAK256 ADD PUSH0 SWAP1 SLOAD SWAP1 PUSH2 0x100 EXP SWAP1 DIV PUSH20 0xFFFFFFFFFFFFFFFFFFFFFFFFFFFFFFFFFFFFFFFF AND PUSH20 0xFFFFFFFFFFFFFFFFFFFFFFFFFFFFFFFFFFFFFFFF AND PUSH20 0xFFFFFFFFFFFFFFFFFFFFFFFFFFFFFFFFFFFFFFFF AND DUP2 MSTORE PUSH1 0x20 ADD SWAP1 DUP2 MSTORE PUSH1 0x20 ADD PUSH0 KECCAK256 PUSH0 PUSH2 0x100 EXP DUP2 SLOAD SWAP1 PUSH1 0xFF MUL NOT AND SWAP1 SSTORE DUP1 DUP1 PUSH1 0x1 ADD SWAP2 POP POP PUSH2 0x1D79 JUMP JUMPDEST POP PUSH1 0x8 PUSH0 PUSH2 0x1EA3 SWAP2 SWAP1 PUSH2 0x1F81 JUMP JUMPDEST PUSH0 PUSH1 0x3 DUP2 SWAP1 SSTORE POP PUSH0 PUSH1 0x9 DUP2 SWAP1 SSTORE POP PUSH0 PUSH1 0x5 DUP2 SWAP1 SSTORE POP JUMP JUMPDEST PUSH0 DUP5 PUSH20 0xFFFFFFFFFFFFFFFFFFFFFFFFFFFFFFFFFFFFFFFF AND PUSH4 0x23B872DD DUP6 DUP6 DUP6 PUSH1 0x40 MLOAD DUP5 PUSH4 0xFFFFFFFF AND PUSH1 0xE0 SHL DUP2 MSTORE PUSH1 0x4 ADD PUSH2 0x1EF8 SWAP4 SWAP3 SWAP2 SWAP1 PUSH2 0x2B67 JUMP JUMPDEST PUSH1 0x20 PUSH1 0x40 MLOAD DUP1 DUP4 SUB DUP2 PUSH0 DUP8 GAS CALL ISZERO DUP1 ISZERO PUSH2 0x1F14 JUMPI RETURNDATASIZE PUSH0 DUP1 RETURNDATACOPY RETURNDATASIZE PUSH0 REVERT JUMPDEST POP POP POP POP PUSH1 0x40 MLOAD RETURNDATASIZE PUSH1 0x1F NOT PUSH1 0x1F DUP3 ADD AND DUP3 ADD DUP1 PUSH1 0x40 MSTORE POP DUP2 ADD SWAP1 PUSH2 0x1F38 SWAP2 SWAP1 PUSH2 0x2862 JUMP JUMPDEST SWAP1 POP DUP1 PUSH2 0x1F7A JUMPI PUSH1 0x40 MLOAD PUSH32 0x8C379A000000000000000000000000000000000000000000000000000000000 DUP2 MSTORE PUSH1 0x4 ADD PUSH2 0x1F71 SWAP1 PUSH2 0x28D7 JUMP JUMPDEST PUSH1 0x40 MLOAD DUP1 SWAP2 SUB SWAP1 REVERT JUMPDEST POP POP POP POP POP JUMP JUMPDEST POP DUP1 SLOAD PUSH0 DUP3 SSTORE SWAP1 PUSH0 MSTORE PUSH1 0x20 PUSH0 KECCAK256 SWAP1 DUP2 ADD SWAP1 PUSH2 0x1F9C SWAP2 SWAP1 PUSH2 0x1F9F JUMP JUMPDEST POP JUMP JUMPDEST JUMPDEST DUP1 DUP3 GT ISZERO PUSH2 0x1FB6 JUMPI PUSH0 DUP2 PUSH0 SWAP1 SSTORE POP PUSH1 0x1 ADD PUSH2 0x1FA0 JUMP JUMPDEST POP SWAP1 JUMP JUMPDEST PUSH0 DUP2 SWAP1 POP SWAP2 SWAP1 POP JUMP JUMPDEST PUSH2 0x1FCC DUP2 PUSH2 0x1FBA JUMP JUMPDEST DUP3 MSTORE POP POP JUMP JUMPDEST PUSH0 PUSH1 0x20 DUP3 ADD SWAP1 POP PUSH2 0x1FE5 PUSH0 DUP4 ADD DUP5 PUSH2 0x1FC3 JUMP JUMPDEST SWAP3 SWAP2 POP POP JUMP JUMPDEST PUSH0 DUP1 REVERT JUMPDEST PUSH0 PUSH20 0xFFFFFFFFFFFFFFFFFFFFFFFFFFFFFFFFFFFFFFFF DUP3 AND SWAP1 POP SWAP2 SWAP1 POP JUMP JUMPDEST PUSH0 PUSH2 0x2018 DUP3 PUSH2 0x1FEF JUMP JUMPDEST SWAP1 POP SWAP2 SWAP1 POP JUMP JUMPDEST PUSH2 0x2028 DUP2 PUSH2 0x200E JUMP JUMPDEST DUP2 EQ PUSH2 0x2032 JUMPI PUSH0 DUP1 REVERT JUMPDEST POP JUMP JUMPDEST PUSH0 DUP2 CALLDATALOAD SWAP1 POP PUSH2 0x2043 DUP2 PUSH2 0x201F JUMP JUMPDEST SWAP3 SWAP2 POP POP JUMP JUMPDEST PUSH0 PUSH1 0x20 DUP3 DUP5 SUB SLT ISZERO PUSH2 0x205E JUMPI PUSH2 0x205D PUSH2 0x1FEB JUMP JUMPDEST JUMPDEST PUSH0 PUSH2 0x206B DUP5 DUP3 DUP6 ADD PUSH2 0x2035 JUMP JUMPDEST SWAP2 POP POP SWAP3 SWAP2 POP POP JUMP JUMPDEST PUSH0 DUP2 ISZERO ISZERO SWAP1 POP SWAP2 SWAP1 POP JUMP JUMPDEST PUSH2 0x2088 DUP2 PUSH2 0x2074 JUMP JUMPDEST DUP3 MSTORE POP POP JUMP JUMPDEST PUSH0 PUSH1 0x20 DUP3 ADD SWAP1 POP PUSH2 0x20A1 PUSH0 DUP4 ADD DUP5 PUSH2 0x207F JUMP JUMPDEST SWAP3 SWAP2 POP POP JUMP JUMPDEST PUSH0 DUP2 SWAP1 POP SWAP2 SWAP1 POP JUMP JUMPDEST PUSH0 PUSH2 0x20CA PUSH2 0x20C5 PUSH2 0x20C0 DUP5 PUSH2 0x1FEF JUMP JUMPDEST PUSH2 0x20A7 JUMP JUMPDEST PUSH2 0x1FEF JUMP JUMPDEST SWAP1 POP SWAP2 SWAP1 POP JUMP JUMPDEST PUSH0 PUSH2 0x20DB DUP3 PUSH2 0x20B0 JUMP JUMPDEST SWAP1 POP SWAP2 SWAP1 POP JUMP JUMPDEST PUSH0 PUSH2 0x20EC DUP3 PUSH2 0x20D1 JUMP JUMPDEST SWAP1 POP SWAP2 SWAP1 POP JUMP JUMPDEST PUSH2 0x20FC DUP2 PUSH2 0x20E2 JUMP JUMPDEST DUP3 MSTORE POP POP JUMP JUMPDEST PUSH0 PUSH1 0x20 DUP3 ADD SWAP1 POP PUSH2 0x2115 PUSH0 DUP4 ADD DUP5 PUSH2 0x20F3 JUMP JUMPDEST SWAP3 SWAP2 POP POP JUMP JUMPDEST PUSH0 DUP2 SWAP1 POP SWAP2 SWAP1 POP JUMP JUMPDEST PUSH2 0x212D DUP2 PUSH2 0x211B JUMP JUMPDEST DUP2 EQ PUSH2 0x2137 JUMPI PUSH0 DUP1 REVERT JUMPDEST POP JUMP JUMPDEST PUSH0 DUP2 CALLDATALOAD SWAP1 POP PUSH2 0x2148 DUP2 PUSH2 0x2124 JUMP JUMPDEST SWAP3 SWAP2 POP POP JUMP JUMPDEST PUSH0 PUSH1 0x20 DUP3 DUP5 SUB SLT ISZERO PUSH2 0x2163 JUMPI PUSH2 0x2162 PUSH2 0x1FEB JUMP JUMPDEST JUMPDEST PUSH0 PUSH2 0x2170 DUP5 DUP3 DUP6 ADD PUSH2 0x213A JUMP JUMPDEST SWAP2 POP POP SWAP3 SWAP2 POP POP JUMP JUMPDEST PUSH0 PUSH2 0x2183 DUP3 PUSH2 0x20D1 JUMP JUMPDEST SWAP1 POP SWAP2 SWAP1 POP JUMP JUMPDEST PUSH2 0x2193 DUP2 PUSH2 0x2179 JUMP JUMPDEST DUP3 MSTORE POP POP JUMP JUMPDEST PUSH0 PUSH1 0x20 DUP3 ADD SWAP1 POP PUSH2 0x21AC PUSH0 DUP4 ADD DUP5 PUSH2 0x218A JUMP JUMPDEST SWAP3 SWAP2 POP POP JUMP JUMPDEST PUSH2 0x21BB DUP2 PUSH2 0x1FBA JUMP JUMPDEST DUP2 EQ PUSH2 0x21C5 JUMPI PUSH0 DUP1 REVERT JUMPDEST POP JUMP JUMPDEST PUSH0 DUP2 CALLDATALOAD SWAP1 POP PUSH2 0x21D6 DUP2 PUSH2 0x21B2 JUMP JUMPDEST SWAP3 SWAP2 POP POP JUMP JUMPDEST PUSH0 PUSH1 0x20 DUP3 DUP5 SUB SLT ISZERO PUSH2 0x21F1 JUMPI PUSH2 0x21F0 PUSH2 0x1FEB JUMP JUMPDEST JUMPDEST PUSH0 PUSH2 0x21FE DUP5 DUP3 DUP6 ADD PUSH2 0x21C8 JUMP JUMPDEST SWAP2 POP POP SWAP3 SWAP2 POP POP JUMP JUMPDEST PUSH2 0x2210 DUP2 PUSH2 0x200E JUMP JUMPDEST DUP3 MSTORE POP POP JUMP JUMPDEST PUSH0 PUSH1 0x20 DUP3 ADD SWAP1 POP PUSH2 0x2229 PUSH0 DUP4 ADD DUP5 PUSH2 0x2207 JUMP JUMPDEST SWAP3 SWAP2 POP POP JUMP JUMPDEST PUSH0 PUSH2 0x2239 DUP3 PUSH2 0x20D1 JUMP JUMPDEST SWAP1 POP SWAP2 SWAP1 POP JUMP JUMPDEST PUSH2 0x2249 DUP2 PUSH2 0x222F JUMP JUMPDEST DUP3 MSTORE POP POP JUMP JUMPDEST PUSH0 PUSH1 0x20 DUP3 ADD SWAP1 POP PUSH2 0x2262 PUSH0 DUP4 ADD DUP5 PUSH2 0x2240 JUMP JUMPDEST SWAP3 SWAP2 POP POP JUMP JUMPDEST PUSH0 DUP3 DUP3 MSTORE PUSH1 0x20 DUP3 ADD SWAP1 POP SWAP3 SWAP2 POP POP JUMP JUMPDEST PUSH32 0x47616D6520616C726561647920686173203220706C6179657273000000000000 PUSH0 DUP3 ADD MSTORE POP JUMP JUMPDEST PUSH0 PUSH2 0x22AC PUSH1 0x1A DUP4 PUSH2 0x2268 JUMP JUMPDEST SWAP2 POP PUSH2 0x22B7 DUP3 PUSH2 0x2278 JUMP JUMPDEST PUSH1 0x20 DUP3 ADD SWAP1 POP SWAP2 SWAP1 POP JUMP JUMPDEST PUSH0 PUSH1 0x20 DUP3 ADD SWAP1 POP DUP2 DUP2 SUB PUSH0 DUP4 ADD MSTORE PUSH2 0x22D9 DUP2 PUSH2 0x22A0 JUMP JUMPDEST SWAP1 POP SWAP2 SWAP1 POP JUMP JUMPDEST PUSH32 0x4E487B7100000000000000000000000000000000000000000000000000000000 PUSH0 MSTORE PUSH1 0x32 PUSH1 0x4 MSTORE PUSH1 0x24 PUSH0 REVERT JUMPDEST PUSH32 0x596F752061726520616C72656164792072656769737465726564206173206120 PUSH0 DUP3 ADD MSTORE PUSH32 0x706C617965720000000000000000000000000000000000000000000000000000 PUSH1 0x20 DUP3 ADD MSTORE POP JUMP JUMPDEST PUSH0 PUSH2 0x2367 PUSH1 0x26 DUP4 PUSH2 0x2268 JUMP JUMPDEST SWAP2 POP PUSH2 0x2372 DUP3 PUSH2 0x230D JUMP JUMPDEST PUSH1 0x40 DUP3 ADD SWAP1 POP SWAP2 SWAP1 POP JUMP JUMPDEST PUSH0 PUSH1 0x20 DUP3 ADD SWAP1 POP DUP2 DUP2 SUB PUSH0 DUP4 ADD MSTORE PUSH2 0x2394 DUP2 PUSH2 0x235B JUMP JUMPDEST SWAP1 POP SWAP2 SWAP1 POP JUMP JUMPDEST PUSH0 PUSH1 0x40 DUP3 ADD SWAP1 POP PUSH2 0x23AE PUSH0 DUP4 ADD DUP6 PUSH2 0x2207 JUMP JUMPDEST PUSH2 0x23BB PUSH1 0x20 DUP4 ADD DUP5 PUSH2 0x2207 JUMP JUMPDEST SWAP4 SWAP3 POP POP POP JUMP JUMPDEST PUSH0 DUP2 MLOAD SWAP1 POP PUSH2 0x23D0 DUP2 PUSH2 0x21B2 JUMP JUMPDEST SWAP3 SWAP2 POP POP JUMP JUMPDEST PUSH0 PUSH1 0x20 DUP3 DUP5 SUB SLT ISZERO PUSH2 0x23EB JUMPI PUSH2 0x23EA PUSH2 0x1FEB JUMP JUMPDEST JUMPDEST PUSH0 PUSH2 0x23F8 DUP5 DUP3 DUP6 ADD PUSH2 0x23C2 JUMP JUMPDEST SWAP2 POP POP SWAP3 SWAP2 POP POP JUMP JUMPDEST PUSH32 0x496E73756666696369656E7420746F6B656E20616C6C6F77616E636500000000 PUSH0 DUP3 ADD MSTORE POP JUMP JUMPDEST PUSH0 PUSH2 0x2435 PUSH1 0x1C DUP4 PUSH2 0x2268 JUMP JUMPDEST SWAP2 POP PUSH2 0x2440 DUP3 PUSH2 0x2401 JUMP JUMPDEST PUSH1 0x20 DUP3 ADD SWAP1 POP SWAP2 SWAP1 POP JUMP JUMPDEST PUSH0 PUSH1 0x20 DUP3 ADD SWAP1 POP DUP2 DUP2 SUB PUSH0 DUP4 ADD MSTORE PUSH2 0x2462 DUP2 PUSH2 0x2429 JUMP JUMPDEST SWAP1 POP SWAP2 SWAP1 POP JUMP JUMPDEST PUSH32 0x4E487B7100000000000000000000000000000000000000000000000000000000 PUSH0 MSTORE PUSH1 0x11 PUSH1 0x4 MSTORE PUSH1 0x24 PUSH0 REVERT JUMPDEST PUSH0 PUSH2 0x24A0 DUP3 PUSH2 0x1FBA JUMP JUMPDEST SWAP2 POP PUSH32 0xFFFFFFFFFFFFFFFFFFFFFFFFFFFFFFFFFFFFFFFFFFFFFFFFFFFFFFFFFFFFFFFF DUP3 SUB PUSH2 0x24D2 JUMPI PUSH2 0x24D1 PUSH2 0x2469 JUMP JUMPDEST JUMPDEST PUSH1 0x1 DUP3 ADD SWAP1 POP SWAP2 SWAP1 POP JUMP JUMPDEST PUSH32 0x4E6565642065786163746C79203220706C617965727300000000000000000000 PUSH0 DUP3 ADD MSTORE POP JUMP JUMPDEST PUSH0 PUSH2 0x2511 PUSH1 0x16 DUP4 PUSH2 0x2268 JUMP JUMPDEST SWAP2 POP PUSH2 0x251C DUP3 PUSH2 0x24DD JUMP JUMPDEST PUSH1 0x20 DUP3 ADD SWAP1 POP SWAP2 SWAP1 POP JUMP JUMPDEST PUSH0 PUSH1 0x20 DUP3 ADD SWAP1 POP DUP2 DUP2 SUB PUSH0 DUP4 ADD MSTORE PUSH2 0x253E DUP2 PUSH2 0x2505 JUMP JUMPDEST SWAP1 POP SWAP2 SWAP1 POP JUMP JUMPDEST PUSH32 0x426F746820706C6179657273206D75737420636F6D6D69742066697273740000 PUSH0 DUP3 ADD MSTORE POP JUMP JUMPDEST PUSH0 PUSH2 0x2579 PUSH1 0x1E DUP4 PUSH2 0x2268 JUMP JUMPDEST SWAP2 POP PUSH2 0x2584 DUP3 PUSH2 0x2545 JUMP JUMPDEST PUSH1 0x20 DUP3 ADD SWAP1 POP SWAP2 SWAP1 POP JUMP JUMPDEST PUSH0 PUSH1 0x20 DUP3 ADD SWAP1 POP DUP2 DUP2 SUB PUSH0 DUP4 ADD MSTORE PUSH2 0x25A6 DUP2 PUSH2 0x256D JUMP JUMPDEST SWAP1 POP SWAP2 SWAP1 POP JUMP JUMPDEST PUSH32 0x46756E6473206E6F7420796574207472616E7366657272656420746F20636F6E PUSH0 DUP3 ADD MSTORE PUSH32 0x7472616374000000000000000000000000000000000000000000000000000000 PUSH1 0x20 DUP3 ADD MSTORE POP JUMP JUMPDEST PUSH0 PUSH2 0x2607 PUSH1 0x25 DUP4 PUSH2 0x2268 JUMP JUMPDEST SWAP2 POP PUSH2 0x2612 DUP3 PUSH2 0x25AD JUMP JUMPDEST PUSH1 0x40 DUP3 ADD SWAP1 POP SWAP2 SWAP1 POP JUMP JUMPDEST PUSH0 PUSH1 0x20 DUP3 ADD SWAP1 POP DUP2 DUP2 SUB PUSH0 DUP4 ADD MSTORE PUSH2 0x2634 DUP2 PUSH2 0x25FB JUMP JUMPDEST SWAP1 POP SWAP2 SWAP1 POP JUMP JUMPDEST PUSH2 0x2644 DUP2 PUSH2 0x211B JUMP JUMPDEST DUP3 MSTORE POP POP JUMP JUMPDEST PUSH0 PUSH1 0x40 DUP3 ADD SWAP1 POP PUSH2 0x265D PUSH0 DUP4 ADD DUP6 PUSH2 0x263B JUMP JUMPDEST PUSH2 0x266A PUSH1 0x20 DUP4 ADD DUP5 PUSH2 0x2207 JUMP JUMPDEST SWAP4 SWAP3 POP POP POP JUMP JUMPDEST PUSH32 0x43686F696365206973206E6F742076616C696400000000000000000000000000 PUSH0 DUP3 ADD MSTORE POP JUMP JUMPDEST PUSH0 PUSH2 0x26A5 PUSH1 0x13 DUP4 PUSH2 0x2268 JUMP JUMPDEST SWAP2 POP PUSH2 0x26B0 DUP3 PUSH2 0x2671 JUMP JUMPDEST PUSH1 0x20 DUP3 ADD SWAP1 POP SWAP2 SWAP1 POP JUMP JUMPDEST PUSH0 PUSH1 0x20 DUP3 ADD SWAP1 POP DUP2 DUP2 SUB PUSH0 DUP4 ADD MSTORE PUSH2 0x26D2 DUP2 PUSH2 0x2699 JUMP JUMPDEST SWAP1 POP SWAP2 SWAP1 POP JUMP JUMPDEST PUSH32 0x47616D65206E6F7420696E20636F727265637420737461746500000000000000 PUSH0 DUP3 ADD MSTORE POP JUMP JUMPDEST PUSH0 PUSH2 0x270D PUSH1 0x19 DUP4 PUSH2 0x2268 JUMP JUMPDEST SWAP2 POP PUSH2 0x2718 DUP3 PUSH2 0x26D9 JUMP JUMPDEST PUSH1 0x20 DUP3 ADD SWAP1 POP SWAP2 SWAP1 POP JUMP JUMPDEST PUSH0 PUSH1 0x20 DUP3 ADD SWAP1 POP DUP2 DUP2 SUB PUSH0 DUP4 ADD MSTORE PUSH2 0x273A DUP2 PUSH2 0x2701 JUMP JUMPDEST SWAP1 POP SWAP2 SWAP1 POP JUMP JUMPDEST PUSH32 0x54696D65206C696D6974206E6F74207265616368656400000000000000000000 PUSH0 DUP3 ADD MSTORE POP JUMP JUMPDEST PUSH0 PUSH2 0x2775 PUSH1 0x16 DUP4 PUSH2 0x2268 JUMP JUMPDEST SWAP2 POP PUSH2 0x2780 DUP3 PUSH2 0x2741 JUMP JUMPDEST PUSH1 0x20 DUP3 ADD SWAP1 POP SWAP2 SWAP1 POP JUMP JUMPDEST PUSH0 PUSH1 0x20 DUP3 ADD SWAP1 POP DUP2 DUP2 SUB PUSH0 DUP4 ADD MSTORE PUSH2 0x27A2 DUP2 PUSH2 0x2769 JUMP JUMPDEST SWAP1 POP SWAP2 SWAP1 POP JUMP JUMPDEST PUSH32 0x426F746820706C617965727320616C72656164792072657665616C6564000000 PUSH0 DUP3 ADD MSTORE POP JUMP JUMPDEST PUSH0 PUSH2 0x27DD PUSH1 0x1D DUP4 PUSH2 0x2268 JUMP JUMPDEST SWAP2 POP PUSH2 0x27E8 DUP3 PUSH2 0x27A9 JUMP JUMPDEST PUSH1 0x20 DUP3 ADD SWAP1 POP SWAP2 SWAP1 POP JUMP JUMPDEST PUSH0 PUSH1 0x20 DUP3 ADD SWAP1 POP DUP2 DUP2 SUB PUSH0 DUP4 ADD MSTORE PUSH2 0x280A DUP2 PUSH2 0x27D1 JUMP JUMPDEST SWAP1 POP SWAP2 SWAP1 POP JUMP JUMPDEST PUSH0 PUSH1 0x40 DUP3 ADD SWAP1 POP PUSH2 0x2824 PUSH0 DUP4 ADD DUP6 PUSH2 0x2207 JUMP JUMPDEST PUSH2 0x2831 PUSH1 0x20 DUP4 ADD DUP5 PUSH2 0x1FC3 JUMP JUMPDEST SWAP4 SWAP3 POP POP POP JUMP JUMPDEST PUSH2 0x2841 DUP2 PUSH2 0x2074 JUMP JUMPDEST DUP2 EQ PUSH2 0x284B JUMPI PUSH0 DUP1 REVERT JUMPDEST POP JUMP JUMPDEST PUSH0 DUP2 MLOAD SWAP1 POP PUSH2 0x285C DUP2 PUSH2 0x2838 JUMP JUMPDEST SWAP3 SWAP2 POP POP JUMP JUMPDEST PUSH0 PUSH1 0x20 DUP3 DUP5 SUB SLT ISZERO PUSH2 0x2877 JUMPI PUSH2 0x2876 PUSH2 0x1FEB JUMP JUMPDEST JUMPDEST PUSH0 PUSH2 0x2884 DUP5 DUP3 DUP6 ADD PUSH2 0x284E JUMP JUMPDEST SWAP2 POP POP SWAP3 SWAP2 POP POP JUMP JUMPDEST PUSH32 0x546F6B656E207472616E73666572206661696C65640000000000000000000000 PUSH0 DUP3 ADD MSTORE POP JUMP JUMPDEST PUSH0 PUSH2 0x28C1 PUSH1 0x15 DUP4 PUSH2 0x2268 JUMP JUMPDEST SWAP2 POP PUSH2 0x28CC DUP3 PUSH2 0x288D JUMP JUMPDEST PUSH1 0x20 DUP3 ADD SWAP1 POP SWAP2 SWAP1 POP JUMP JUMPDEST PUSH0 PUSH1 0x20 DUP3 ADD SWAP1 POP DUP2 DUP2 SUB PUSH0 DUP4 ADD MSTORE PUSH2 0x28EE DUP2 PUSH2 0x28B5 JUMP JUMPDEST SWAP1 POP SWAP2 SWAP1 POP JUMP JUMPDEST PUSH0 DUP2 MLOAD SWAP1 POP PUSH2 0x2903 DUP2 PUSH2 0x2124 JUMP JUMPDEST SWAP3 SWAP2 POP POP JUMP JUMPDEST PUSH0 PUSH8 0xFFFFFFFFFFFFFFFF DUP3 AND SWAP1 POP SWAP2 SWAP1 POP JUMP JUMPDEST PUSH2 0x2925 DUP2 PUSH2 0x2909 JUMP JUMPDEST DUP2 EQ PUSH2 0x292F JUMPI PUSH0 DUP1 REVERT JUMPDEST POP JUMP JUMPDEST PUSH0 DUP2 MLOAD SWAP1 POP PUSH2 0x2940 DUP2 PUSH2 0x291C JUMP JUMPDEST SWAP3 SWAP2 POP POP JUMP JUMPDEST PUSH0 DUP1 PUSH0 PUSH1 0x60 DUP5 DUP7 SUB SLT ISZERO PUSH2 0x295D JUMPI PUSH2 0x295C PUSH2 0x1FEB JUMP JUMPDEST JUMPDEST PUSH0 PUSH2 0x296A DUP7 DUP3 DUP8 ADD PUSH2 0x28F5 JUMP JUMPDEST SWAP4 POP POP PUSH1 0x20 PUSH2 0x297B DUP7 DUP3 DUP8 ADD PUSH2 0x2932 JUMP JUMPDEST SWAP3 POP POP PUSH1 0x40 PUSH2 0x298C DUP7 DUP3 DUP8 ADD PUSH2 0x284E JUMP JUMPDEST SWAP2 POP POP SWAP3 POP SWAP3 POP SWAP3 JUMP JUMPDEST PUSH32 0x596F752063616E6E6F7420636C61696D20746865207265776172640000000000 PUSH0 DUP3 ADD MSTORE POP JUMP JUMPDEST PUSH0 PUSH2 0x29CA PUSH1 0x1B DUP4 PUSH2 0x2268 JUMP JUMPDEST SWAP2 POP PUSH2 0x29D5 DUP3 PUSH2 0x2996 JUMP JUMPDEST PUSH1 0x20 DUP3 ADD SWAP1 POP SWAP2 SWAP1 POP JUMP JUMPDEST PUSH0 PUSH1 0x20 DUP3 ADD SWAP1 POP DUP2 DUP2 SUB PUSH0 DUP4 ADD MSTORE PUSH2 0x29F7 DUP2 PUSH2 0x29BE JUMP JUMPDEST SWAP1 POP SWAP2 SWAP1 POP JUMP JUMPDEST PUSH32 0x596F7520616C7265616479206D61646520796F75722063686F69636500000000 PUSH0 DUP3 ADD MSTORE POP JUMP JUMPDEST PUSH0 PUSH2 0x2A32 PUSH1 0x1C DUP4 PUSH2 0x2268 JUMP JUMPDEST SWAP2 POP PUSH2 0x2A3D DUP3 PUSH2 0x29FE JUMP JUMPDEST PUSH1 0x20 DUP3 ADD SWAP1 POP SWAP2 SWAP1 POP JUMP JUMPDEST PUSH0 PUSH1 0x20 DUP3 ADD SWAP1 POP DUP2 DUP2 SUB PUSH0 DUP4 ADD MSTORE PUSH2 0x2A5F DUP2 PUSH2 0x2A26 JUMP JUMPDEST SWAP1 POP SWAP2 SWAP1 POP JUMP JUMPDEST PUSH0 PUSH2 0x2A70 DUP3 PUSH2 0x1FBA JUMP JUMPDEST SWAP2 POP PUSH2 0x2A7B DUP4 PUSH2 0x1FBA JUMP JUMPDEST SWAP3 POP DUP3 DUP3 MUL PUSH2 0x2A89 DUP2 PUSH2 0x1FBA JUMP JUMPDEST SWAP2 POP DUP3 DUP3 DIV DUP5 EQ DUP4 ISZERO OR PUSH2 0x2AA0 JUMPI PUSH2 0x2A9F PUSH2 0x2469 JUMP JUMPDEST JUMPDEST POP SWAP3 SWAP2 POP POP JUMP JUMPDEST PUSH0 PUSH2 0x2AB1 DUP3 PUSH2 0x1FBA JUMP JUMPDEST SWAP2 POP PUSH2 0x2ABC DUP4 PUSH2 0x1FBA JUMP JUMPDEST SWAP3 POP DUP3 DUP3 ADD SWAP1 POP DUP1 DUP3 GT ISZERO PUSH2 0x2AD4 JUMPI PUSH2 0x2AD3 PUSH2 0x2469 JUMP JUMPDEST JUMPDEST SWAP3 SWAP2 POP POP JUMP JUMPDEST PUSH32 0x4E487B7100000000000000000000000000000000000000000000000000000000 PUSH0 MSTORE PUSH1 0x12 PUSH1 0x4 MSTORE PUSH1 0x24 PUSH0 REVERT JUMPDEST PUSH0 PUSH2 0x2B11 DUP3 PUSH2 0x1FBA JUMP JUMPDEST SWAP2 POP PUSH2 0x2B1C DUP4 PUSH2 0x1FBA JUMP JUMPDEST SWAP3 POP DUP3 PUSH2 0x2B2C JUMPI PUSH2 0x2B2B PUSH2 0x2ADA JUMP JUMPDEST JUMPDEST DUP3 DUP3 MOD SWAP1 POP SWAP3 SWAP2 POP POP JUMP JUMPDEST PUSH0 PUSH2 0x2B41 DUP3 PUSH2 0x1FBA JUMP JUMPDEST SWAP2 POP PUSH2 0x2B4C DUP4 PUSH2 0x1FBA JUMP JUMPDEST SWAP3 POP DUP3 PUSH2 0x2B5C JUMPI PUSH2 0x2B5B PUSH2 0x2ADA JUMP JUMPDEST JUMPDEST DUP3 DUP3 DIV SWAP1 POP SWAP3 SWAP2 POP POP JUMP JUMPDEST PUSH0 PUSH1 0x60 DUP3 ADD SWAP1 POP PUSH2 0x2B7A PUSH0 DUP4 ADD DUP7 PUSH2 0x2207 JUMP JUMPDEST PUSH2 0x2B87 PUSH1 0x20 DUP4 ADD DUP6 PUSH2 0x2207 JUMP JUMPDEST PUSH2 0x2B94 PUSH1 0x40 DUP4 ADD DUP5 PUSH2 0x1FC3 JUMP JUMPDEST SWAP5 SWAP4 POP POP POP POP JUMP INVALID LOG2 PUSH5 0x6970667358 0x22 SLT KECCAK256 DIV SMOD 0x27 CODECOPY 0xBB 0xF6 LOG1 PUSH31 0x678B58C9E915C253D82D5355DD42FF10E5F9FD7ABCF0344864736F6C634300 ADDMOD BYTE STOP CALLER "
		},
		"gasEstimates": {
			"creation": {
				"codeDepositCost": "2243600",
				"executionCost": "infinite",
				"totalCost": "infinite"
			},
			"external": {
				"REQUIRED_AMOUNT()": "414",
				"addPlayer()": "infinite",
				"claimTimeoutWin()": "infinite",
				"commit(bytes32)": "infinite",
				"commitReveal()": "infinite",
				"fundsCaptured()": "2511",
				"numInput()": "2449",
				"numPlayer()": "2448",
				"numReveal()": "2469",
				"player_choice(address)": "2869",
				"player_not_played(address)": "2879",
				"players(uint256)": "5032",
				"reveal(bytes32)": "infinite",
				"reward()": "2493",
				"timeLimit()": "2447",
				"timeUnit()": "infinite",
				"token()": "infinite"
			},
			"internal": {
				"_checkWinnerAndPay()": "infinite",
				"_safeTransferFrom(contract IERC20,address,address,uint256)": "infinite",
				"reset()": "infinite"
			}
		},
		"methodIdentifiers": {
			"REQUIRED_AMOUNT()": "87e69625",
			"addPlayer()": "27b5db8a",
			"claimTimeoutWin()": "a224cb3e",
			"commit(bytes32)": "f14fcbc8",
			"commitReveal()": "9d7b3f2d",
			"fundsCaptured()": "55f6497d",
			"numInput()": "086f7815",
			"numPlayer()": "90d5d0c3",
			"numReveal()": "c876e615",
			"player_choice(address)": "a040478d",
			"player_not_played(address)": "190cf745",
			"players(uint256)": "f71d96cb",
			"reveal(bytes32)": "701fd0f1",
			"reward()": "228cb733",
			"timeLimit()": "c08d1fe5",
			"timeUnit()": "3c6a7f9b",
			"token()": "fc0c546a"
		}
	},
	"abi": [
		{
			"inputs": [
				{
					"internalType": "address",
					"name": "_timeUnit",
					"type": "address"
				},
				{
					"internalType": "address",
					"name": "_commitReveal",
					"type": "address"
				},
				{
					"internalType": "address",
					"name": "_token",
					"type": "address"
				}
			],
			"stateMutability": "nonpayable",
			"type": "constructor"
		},
		{
			"inputs": [],
			"name": "REQUIRED_AMOUNT",
			"outputs": [
				{
					"internalType": "uint256",
					"name": "",
					"type": "uint256"
				}
			],
			"stateMutability": "view",
			"type": "function"
		},
		{
			"inputs": [],
			"name": "addPlayer",
			"outputs": [],
			"stateMutability": "nonpayable",
			"type": "function"
		},
		{
			"inputs": [],
			"name": "claimTimeoutWin",
			"outputs": [],
			"stateMutability": "nonpayable",
			"type": "function"
		},
		{
			"inputs": [
				{
					"internalType": "bytes32",
					"name": "hash",
					"type": "bytes32"
				}
			],
			"name": "commit",
			"outputs": [],
			"stateMutability": "nonpayable",
			"type": "function"
		},
		{
			"inputs": [],
			"name": "commitReveal",
			"outputs": [
				{
					"internalType": "contract CommitReveal",
					"name": "",
					"type": "address"
				}
			],
			"stateMutability": "view",
			"type": "function"
		},
		{
			"inputs": [],
			"name": "fundsCaptured",
			"outputs": [
				{
					"internalType": "bool",
					"name": "",
					"type": "bool"
				}
			],
			"stateMutability": "view",
			"type": "function"
		},
		{
			"inputs": [],
			"name": "numInput",
			"outputs": [
				{
					"internalType": "uint256",
					"name": "",
					"type": "uint256"
				}
			],
			"stateMutability": "view",
			"type": "function"
		},
		{
			"inputs": [],
			"name": "numPlayer",
			"outputs": [
				{
					"internalType": "uint256",
					"name": "",
					"type": "uint256"
				}
			],
			"stateMutability": "view",
			"type": "function"
		},
		{
			"inputs": [],
			"name": "numReveal",
			"outputs": [
				{
					"internalType": "uint256",
					"name": "",
					"type": "uint256"
				}
			],
			"stateMutability": "view",
			"type": "function"
		},
		{
			"inputs": [
				{
					"internalType": "address",
					"name": "",
					"type": "address"
				}
			],
			"name": "player_choice",
			"outputs": [
				{
					"internalType": "uint256",
					"name": "",
					"type": "uint256"
				}
			],
			"stateMutability": "view",
			"type": "function"
		},
		{
			"inputs": [
				{
					"internalType": "address",
					"name": "",
					"type": "address"
				}
			],
			"name": "player_not_played",
			"outputs": [
				{
					"internalType": "bool",
					"name": "",
					"type": "bool"
				}
			],
			"stateMutability": "view",
			"type": "function"
		},
		{
			"inputs": [
				{
					"internalType": "uint256",
					"name": "",
					"type": "uint256"
				}
			],
			"name": "players",
			"outputs": [
				{
					"internalType": "address",
					"name": "",
					"type": "address"
				}
			],
			"stateMutability": "view",
			"type": "function"
		},
		{
			"inputs": [
				{
					"internalType": "bytes32",
					"name": "hash",
					"type": "bytes32"
				}
			],
			"name": "reveal",
			"outputs": [],
			"stateMutability": "nonpayable",
			"type": "function"
		},
		{
			"inputs": [],
			"name": "reward",
			"outputs": [
				{
					"internalType": "uint256",
					"name": "",
					"type": "uint256"
				}
			],
			"stateMutability": "view",
			"type": "function"
		},
		{
			"inputs": [],
			"name": "timeLimit",
			"outputs": [
				{
					"internalType": "uint256",
					"name": "",
					"type": "uint256"
				}
			],
			"stateMutability": "view",
			"type": "function"
		},
		{
			"inputs": [],
			"name": "timeUnit",
			"outputs": [
				{
					"internalType": "contract TimeUnit",
					"name": "",
					"type": "address"
				}
			],
			"stateMutability": "view",
			"type": "function"
		},
		{
			"inputs": [],
			"name": "token",
			"outputs": [
				{
					"internalType": "contract IERC20",
					"name": "",
					"type": "address"
				}
			],
			"stateMutability": "view",
			"type": "function"
		}
	]
}